{
  "address": "0x9d983Cd5e3233ce6802F22e3DA83E8740ce46376",
  "abi": [
    {
      "inputs": [],
      "stateMutability": "nonpayable",
      "type": "constructor"
    },
    {
      "inputs": [
        {
          "internalType": "address",
          "name": "owner",
          "type": "address"
        }
      ],
      "name": "OwnableInvalidOwner",
      "type": "error"
    },
    {
      "inputs": [
        {
          "internalType": "address",
          "name": "account",
          "type": "address"
        }
      ],
      "name": "OwnableUnauthorizedAccount",
      "type": "error"
    },
    {
      "anonymous": false,
      "inputs": [
        {
          "indexed": false,
          "internalType": "string",
          "name": "configType",
          "type": "string"
        },
        {
          "indexed": false,
          "internalType": "uint256",
          "name": "timestamp",
          "type": "uint256"
        }
      ],
      "name": "DefaultConfigUpdated",
      "type": "event"
    },
    {
      "anonymous": false,
      "inputs": [
        {
          "indexed": true,
          "internalType": "address",
          "name": "previousOwner",
          "type": "address"
        },
        {
          "indexed": true,
          "internalType": "address",
          "name": "newOwner",
          "type": "address"
        }
      ],
      "name": "OwnershipTransferred",
      "type": "event"
    },
    {
      "inputs": [],
      "name": "getAntiBotConfig",
      "outputs": [
        {
          "components": [
            {
              "internalType": "uint256",
              "name": "antiBotDuration",
              "type": "uint256"
            },
            {
              "internalType": "uint256",
              "name": "maxBuyAmountEarly",
              "type": "uint256"
            },
            {
              "internalType": "uint256",
              "name": "maxWalletPercentage",
              "type": "uint256"
            },
            {
              "internalType": "uint256",
              "name": "cooldownPeriod",
              "type": "uint256"
            },
            {
              "internalType": "uint256",
              "name": "minBuyAmount",
              "type": "uint256"
            }
          ],
          "internalType": "struct ICarbonCoinConfig.AntiBotConfig",
          "name": "",
          "type": "tuple"
        }
      ],
      "stateMutability": "view",
      "type": "function"
    },
    {
      "inputs": [],
      "name": "getCarbonCoinDex",
      "outputs": [
        {
          "internalType": "address",
          "name": "",
          "type": "address"
        }
      ],
      "stateMutability": "view",
      "type": "function"
    },
    {
      "inputs": [],
      "name": "getCircuitBreakerConfig",
      "outputs": [
        {
          "components": [
            {
              "internalType": "uint256",
              "name": "maxPriceImpact",
              "type": "uint256"
            },
            {
              "internalType": "uint256",
              "name": "volatilityWindow",
              "type": "uint256"
            },
            {
              "internalType": "uint256",
              "name": "maxVolatilityMoves",
              "type": "uint256"
            },
            {
              "internalType": "uint256",
              "name": "circuitBreakerDuration",
              "type": "uint256"
            }
          ],
          "internalType": "struct ICarbonCoinConfig.CircuitBreakerConfig",
          "name": "",
          "type": "tuple"
        }
      ],
      "stateMutability": "view",
      "type": "function"
    },
    {
      "inputs": [],
      "name": "getFeeConfig",
      "outputs": [
        {
          "components": [
            {
              "internalType": "uint256",
              "name": "buyFee",
              "type": "uint256"
            },
            {
              "internalType": "uint256",
              "name": "sellFee",
              "type": "uint256"
            },
            {
              "internalType": "uint256",
              "name": "maxFee",
              "type": "uint256"
            }
          ],
          "internalType": "struct ICarbonCoinConfig.FeeConfig",
          "name": "",
          "type": "tuple"
        }
      ],
      "stateMutability": "view",
      "type": "function"
    },
    {
      "inputs": [],
      "name": "getWhaleLimitConfig",
      "outputs": [
        {
          "components": [
            {
              "internalType": "uint256",
              "name": "whaleThreshold",
              "type": "uint256"
            },
            {
              "internalType": "uint256",
              "name": "whaleDelay",
              "type": "uint256"
            },
            {
              "internalType": "uint256",
              "name": "maxTradeSize",
              "type": "uint256"
            },
            {
              "internalType": "uint256",
              "name": "maxSellPercentage",
              "type": "uint256"
            }
          ],
          "internalType": "struct ICarbonCoinConfig.WhaleLimitConfig",
          "name": "",
          "type": "tuple"
        }
      ],
      "stateMutability": "view",
      "type": "function"
    },
    {
      "inputs": [],
      "name": "owner",
      "outputs": [
        {
          "internalType": "address",
          "name": "",
          "type": "address"
        }
      ],
      "stateMutability": "view",
      "type": "function"
    },
    {
      "inputs": [],
      "name": "renounceOwnership",
      "outputs": [],
      "stateMutability": "nonpayable",
      "type": "function"
    },
    {
      "inputs": [
        {
          "internalType": "address",
          "name": "newOwner",
          "type": "address"
        }
      ],
      "name": "transferOwnership",
      "outputs": [],
      "stateMutability": "nonpayable",
      "type": "function"
    },
    {
      "inputs": [
        {
          "components": [
            {
              "internalType": "uint256",
              "name": "antiBotDuration",
              "type": "uint256"
            },
            {
              "internalType": "uint256",
              "name": "maxBuyAmountEarly",
              "type": "uint256"
            },
            {
              "internalType": "uint256",
              "name": "maxWalletPercentage",
              "type": "uint256"
            },
            {
              "internalType": "uint256",
              "name": "cooldownPeriod",
              "type": "uint256"
            },
            {
              "internalType": "uint256",
              "name": "minBuyAmount",
              "type": "uint256"
            }
          ],
          "internalType": "struct ICarbonCoinConfig.AntiBotConfig",
          "name": "newConfig",
          "type": "tuple"
        }
      ],
      "name": "updateDefaultAntiBotConfig",
      "outputs": [],
      "stateMutability": "nonpayable",
      "type": "function"
    },
    {
      "inputs": [
        {
          "components": [
            {
              "internalType": "uint256",
              "name": "maxPriceImpact",
              "type": "uint256"
            },
            {
              "internalType": "uint256",
              "name": "volatilityWindow",
              "type": "uint256"
            },
            {
              "internalType": "uint256",
              "name": "maxVolatilityMoves",
              "type": "uint256"
            },
            {
              "internalType": "uint256",
              "name": "circuitBreakerDuration",
              "type": "uint256"
            }
          ],
          "internalType": "struct ICarbonCoinConfig.CircuitBreakerConfig",
          "name": "newConfig",
          "type": "tuple"
        }
      ],
      "name": "updateDefaultCircuitBreakerConfig",
      "outputs": [],
      "stateMutability": "nonpayable",
      "type": "function"
    },
    {
      "inputs": [
        {
          "components": [
            {
              "internalType": "uint256",
              "name": "buyFee",
              "type": "uint256"
            },
            {
              "internalType": "uint256",
              "name": "sellFee",
              "type": "uint256"
            },
            {
              "internalType": "uint256",
              "name": "maxFee",
              "type": "uint256"
            }
          ],
          "internalType": "struct ICarbonCoinConfig.FeeConfig",
          "name": "newConfig",
          "type": "tuple"
        }
      ],
      "name": "updateDefaultFeeConfig",
      "outputs": [],
      "stateMutability": "nonpayable",
      "type": "function"
    },
    {
      "inputs": [
        {
          "components": [
            {
              "internalType": "uint256",
              "name": "whaleThreshold",
              "type": "uint256"
            },
            {
              "internalType": "uint256",
              "name": "whaleDelay",
              "type": "uint256"
            },
            {
              "internalType": "uint256",
              "name": "maxTradeSize",
              "type": "uint256"
            },
            {
              "internalType": "uint256",
              "name": "maxSellPercentage",
              "type": "uint256"
            }
          ],
          "internalType": "struct ICarbonCoinConfig.WhaleLimitConfig",
          "name": "newConfig",
          "type": "tuple"
        }
      ],
      "name": "updateDefaultWhaleLimitConfig",
      "outputs": [],
      "stateMutability": "nonpayable",
      "type": "function"
    },
    {
      "inputs": [
        {
          "internalType": "address",
          "name": "_dex",
          "type": "address"
        }
      ],
      "name": "updateDexAddress",
      "outputs": [],
      "stateMutability": "nonpayable",
      "type": "function"
    }
  ],
  "transactionHash": "0x42392debe04c18cb045474b6cf8771cc34d9cf9857b1b96b732ac2bf459fbb7c",
  "args": [],
  "numDeployments": 1,
  "solcInputHash": "9155093bf2245444842c11d839cde2bc",
  "bytecode": "0x6080604052346101a357331561018d5760008054336001600160a01b0319821681178355916001600160a01b03909116907f8be0079c531659141344cd1fd0a4f28419497f9722a3daafe3b4186f6b6457e09080a3604051606081016001600160401b03811182821017610177576101f491604091825260648152606460208201520152606460015560646002556101f460035560405160a0810181811060018060401b0382111761017757620f424091608091604052607881526305f5e100602082015260c86040820152600f6060820152015260786004556305f5e10060055560c8600655600f600755620f42406008556100fa6101a8565b6101f481526020810161012c8152604082019060038252606083019261038484525160095551600a5551600b5551600c556101336101a8565b633b9aca0081526020810161012c81526040820190639502f9008252606083019260c8845251600d5551600e5551600f5551601055604051610b9690816101c88239f35b634e487b7160e01b600052604160045260246000fd5b631e4fbdf760e01b600052600060045260246000fd5b600080fd5b60405190608082016001600160401b038111838210176101775760405256fe6080604052600436101561001257600080fd5b60003560e01c8063013d33c114610896578063338bc47d1461070f578063562528f7146106815780635fbbc0d214610620578063715018a6146105c75780638da5cb5b1461059e578063904c206b1461043f578063982dc306146103d3578063a7b005f91461028f578063a8f98593146101d4578063dcd69af2146101ab578063f2fde38b1461011e5763fca53bea146100ab57600080fd5b34610119576000366003190112610119576100c4610af3565b5060806100cf610a60565b600d548152600e546020820152600f54604082015260105460608201526101176040518092606080918051845260208101516020850152604081015160408501520151910152565bf35b600080fd5b34610119576020366003190112610119576004356001600160a01b038116908190036101195761014c610b17565b801561019557600080546001600160a01b03198116831782556001600160a01b0316907f8be0079c531659141344cd1fd0a4f28419497f9722a3daafe3b4186f6b6457e09080a3005b631e4fbdf760e01b600052600060045260246000fd5b34610119576000366003190112610119576011546040516001600160a01b039091168152602090f35b34610119576020366003190112610119576004356001600160a01b0381169081900361011957610202610b17565b8015610254576bffffffffffffffffffffffff60a01b6011541617601155600080516020610b418339815191526080604051604081526003604082015262088caf60eb1b6060820152426020820152a1005b60405162461bcd60e51b8152602060048201526013602482015272496e76616c696420444558206164647265737360681b6044820152606490fd5b34610119576060366003190112610119576102a8610a40565b6004358152602081016024358152604082019160443583526102c8610b17565b6107d083511161039b57805183511061036057815183511061032457516001555160025551600355600080516020610b41833981519152608060405160408152600360408201526246656560e81b6060820152426020820152a1005b60405162461bcd60e51b81526020600482015260146024820152730a6cad8d840cccaca40caf0c6cacac8e640dac2f60631b6044820152606490fd5b60405162461bcd60e51b8152602060048201526013602482015272084eaf240cccaca40caf0c6cacac8e640dac2f606b1b6044820152606490fd5b60405162461bcd60e51b815260206004820152601060248201526f09ac2f040cccaca40e8dede40d0d2ced60831b6044820152606490fd5b34610119576000366003190112610119576103ec610af3565b5060806103f7610a60565b6009548152600a546020820152600b546040820152600c5460608201526101176040518092606080918051845260208101516020850152604081015160408501520151910152565b346101195760803660031901126101195761045936610a80565b610461610b17565b80518015159081610591575b5015610555576020810180511561051f5760408201908151156104ea57606083019261049b84511515610ab4565b5160095551600a5551600b5551600c55600080516020610b41833981519152608060405160408152600e60408201526d21b4b931bab4ba213932b0b5b2b960911b6060820152426020820152a1005b60405162461bcd60e51b815260206004820152600d60248201526c496e76616c6964206d6f76657360981b6044820152606490fd5b60405162461bcd60e51b815260206004820152600e60248201526d496e76616c69642077696e646f7760901b6044820152606490fd5b60405162461bcd60e51b8152602060048201526014602482015273125b9d985b1a59081c1c9a58d9481a5b5c1858dd60621b6044820152606490fd5b611388915011158261046d565b34610119576000366003190112610119576000546040516001600160a01b039091168152602090f35b34610119576000366003190112610119576105e0610b17565b600080546001600160a01b0319811682556001600160a01b03167f8be0079c531659141344cd1fd0a4f28419497f9722a3daafe3b4186f6b6457e08280a3005b34610119576000366003190112610119576000604061063d610a40565b82815282602082015201526060610652610a40565b600154908181526002546020820190815260406003549201918252604051928352516020830152516040820152f35b34610119576000366003190112610119576000608061069e610a0a565b828152826020820152826040820152826060820152015260a06106bf610a0a565b600454908181526005546020820190815260065460408301908152600754916060840192835260806008549401938452604051948552516020850152516040840152516060830152516080820152f35b346101195760803660031901126101195761072936610a80565b610731610b17565b80511561085d57602081018051156108285760408201908151156107ee5760608301926127108451116107a95751600d5551600e5551600f5551601055600080516020610b41833981519152608060405160408152600a60408201526915da185b19531a5b5a5d60b21b6060820152426020820152a1005b60405162461bcd60e51b815260206004820152601760248201527f496e76616c69642073656c6c2070657263656e746167650000000000000000006044820152606490fd5b60405162461bcd60e51b8152602060048201526012602482015271496e76616c69642074726164652073697a6560701b6044820152606490fd5b60405162461bcd60e51b815260206004820152600d60248201526c496e76616c69642064656c617960981b6044820152606490fd5b60405162461bcd60e51b8152602060048201526011602482015270125b9d985b1a59081d1a1c995cda1bdb19607a1b6044820152606490fd5b346101195760a0366003190112610119576108af610a0a565b600435815260208101602435815260408201604435815260608301916064358352608084019360843585526108e2610b17565b6108ee81511515610ab4565b6127108351116109c55761012c84511161098c57845115610955575160045551600555516006555160075551600855600080516020610b418339815191526080604051604081526007604082015266105b9d1a509bdd60ca1b6060820152426020820152a1005b60405162461bcd60e51b815260206004820152600f60248201526e496e76616c6964206d696e2062757960881b6044820152606490fd5b60405162461bcd60e51b8152602060048201526011602482015270436f6f6c646f776e20746f6f206c6f6e6760781b6044820152606490fd5b60405162461bcd60e51b815260206004820152601960248201527f496e76616c69642077616c6c65742070657263656e74616765000000000000006044820152606490fd5b6040519060a0820182811067ffffffffffffffff821117610a2a57604052565b634e487b7160e01b600052604160045260246000fd5b604051906060820182811067ffffffffffffffff821117610a2a57604052565b604051906080820182811067ffffffffffffffff821117610a2a57604052565b608090600319011261011957610a94610a60565b906004358252602435602083015260443560408301526064356060830152565b15610abb57565b60405162461bcd60e51b815260206004820152601060248201526f24b73b30b634b210323ab930ba34b7b760811b6044820152606490fd5b610afb610a60565b9060008252600060208301526000604083015260006060830152565b6000546001600160a01b03163303610b2b57565b63118cdaa760e01b6000523360045260246000fdfe6349e7d5485ec4d3eed63522db9d37a0b4d65b793aed12e82a8d96e05c210306a26469706673582212202d9aa1fc41e073509053a5598c511cc86dee6aa0718336000631e867c5cea31864736f6c634300081b0033",
  "devdoc": {
    "errors": {
      "OwnableInvalidOwner(address)": [
        {
          "details": "The owner is not a valid owner account. (eg. `address(0)`)"
        }
      ],
      "OwnableUnauthorizedAccount(address)": [
        {
          "details": "The caller account is not authorized to perform an operation."
        }
      ]
    },
    "kind": "dev",
    "methods": {
      "owner()": {
        "details": "Returns the address of the current owner."
      },
      "renounceOwnership()": {
        "details": "Leaves the contract without owner. It will not be possible to call `onlyOwner` functions. Can only be called by the current owner. NOTE: Renouncing ownership will leave the contract without an owner, thereby disabling any functionality that is only available to the owner."
      },
      "transferOwnership(address)": {
        "details": "Transfers ownership of the contract to a new account (`newOwner`). Can only be called by the current owner."
      }
    },
    "version": 1
  },
  "userdoc": {
    "kind": "user",
    "methods": {},
    "version": 1
  },
  "storageLayout": {
    "storage": [
      {
        "astId": 8,
        "contract": "contracts/CarbonCoinConfig.sol:CarbonCoinConfig",
        "label": "_owner",
        "offset": 0,
        "slot": "0",
        "type": "t_address"
      },
      {
        "astId": 10292,
        "contract": "contracts/CarbonCoinConfig.sol:CarbonCoinConfig",
        "label": "defaultFeeConfig",
        "offset": 0,
        "slot": "1",
        "type": "t_struct(FeeConfig)14529_storage"
      },
      {
        "astId": 10295,
        "contract": "contracts/CarbonCoinConfig.sol:CarbonCoinConfig",
        "label": "defaultAntiBotConfig",
        "offset": 0,
        "slot": "4",
        "type": "t_struct(AntiBotConfig)14540_storage"
      },
      {
        "astId": 10298,
        "contract": "contracts/CarbonCoinConfig.sol:CarbonCoinConfig",
        "label": "defaultCircuitBreakerConfig",
        "offset": 0,
        "slot": "9",
        "type": "t_struct(CircuitBreakerConfig)14549_storage"
      },
      {
        "astId": 10301,
        "contract": "contracts/CarbonCoinConfig.sol:CarbonCoinConfig",
        "label": "defaultWhaleLimitConfig",
        "offset": 0,
        "slot": "13",
        "type": "t_struct(WhaleLimitConfig)14558_storage"
      },
      {
        "astId": 10303,
        "contract": "contracts/CarbonCoinConfig.sol:CarbonCoinConfig",
        "label": "carbonCoinDex",
        "offset": 0,
        "slot": "17",
        "type": "t_address"
      }
    ],
    "types": {
      "t_address": {
        "encoding": "inplace",
        "label": "address",
        "numberOfBytes": "20"
      },
      "t_struct(AntiBotConfig)14540_storage": {
        "encoding": "inplace",
        "label": "struct ICarbonCoinConfig.AntiBotConfig",
        "members": [
          {
            "astId": 14531,
            "contract": "contracts/CarbonCoinConfig.sol:CarbonCoinConfig",
            "label": "antiBotDuration",
            "offset": 0,
            "slot": "0",
            "type": "t_uint256"
          },
          {
            "astId": 14533,
            "contract": "contracts/CarbonCoinConfig.sol:CarbonCoinConfig",
            "label": "maxBuyAmountEarly",
            "offset": 0,
            "slot": "1",
            "type": "t_uint256"
          },
          {
            "astId": 14535,
            "contract": "contracts/CarbonCoinConfig.sol:CarbonCoinConfig",
            "label": "maxWalletPercentage",
            "offset": 0,
            "slot": "2",
            "type": "t_uint256"
          },
          {
            "astId": 14537,
            "contract": "contracts/CarbonCoinConfig.sol:CarbonCoinConfig",
            "label": "cooldownPeriod",
            "offset": 0,
            "slot": "3",
            "type": "t_uint256"
          },
          {
            "astId": 14539,
            "contract": "contracts/CarbonCoinConfig.sol:CarbonCoinConfig",
            "label": "minBuyAmount",
            "offset": 0,
            "slot": "4",
            "type": "t_uint256"
          }
        ],
        "numberOfBytes": "160"
      },
      "t_struct(CircuitBreakerConfig)14549_storage": {
        "encoding": "inplace",
        "label": "struct ICarbonCoinConfig.CircuitBreakerConfig",
        "members": [
          {
            "astId": 14542,
            "contract": "contracts/CarbonCoinConfig.sol:CarbonCoinConfig",
            "label": "maxPriceImpact",
            "offset": 0,
            "slot": "0",
            "type": "t_uint256"
          },
          {
            "astId": 14544,
            "contract": "contracts/CarbonCoinConfig.sol:CarbonCoinConfig",
            "label": "volatilityWindow",
            "offset": 0,
            "slot": "1",
            "type": "t_uint256"
          },
          {
            "astId": 14546,
            "contract": "contracts/CarbonCoinConfig.sol:CarbonCoinConfig",
            "label": "maxVolatilityMoves",
            "offset": 0,
            "slot": "2",
            "type": "t_uint256"
          },
          {
            "astId": 14548,
            "contract": "contracts/CarbonCoinConfig.sol:CarbonCoinConfig",
            "label": "circuitBreakerDuration",
            "offset": 0,
            "slot": "3",
            "type": "t_uint256"
          }
        ],
        "numberOfBytes": "128"
      },
      "t_struct(FeeConfig)14529_storage": {
        "encoding": "inplace",
        "label": "struct ICarbonCoinConfig.FeeConfig",
        "members": [
          {
            "astId": 14524,
            "contract": "contracts/CarbonCoinConfig.sol:CarbonCoinConfig",
            "label": "buyFee",
            "offset": 0,
            "slot": "0",
            "type": "t_uint256"
          },
          {
            "astId": 14526,
            "contract": "contracts/CarbonCoinConfig.sol:CarbonCoinConfig",
            "label": "sellFee",
            "offset": 0,
            "slot": "1",
            "type": "t_uint256"
          },
          {
            "astId": 14528,
            "contract": "contracts/CarbonCoinConfig.sol:CarbonCoinConfig",
            "label": "maxFee",
            "offset": 0,
            "slot": "2",
            "type": "t_uint256"
          }
        ],
        "numberOfBytes": "96"
      },
      "t_struct(WhaleLimitConfig)14558_storage": {
        "encoding": "inplace",
        "label": "struct ICarbonCoinConfig.WhaleLimitConfig",
        "members": [
          {
            "astId": 14551,
            "contract": "contracts/CarbonCoinConfig.sol:CarbonCoinConfig",
            "label": "whaleThreshold",
            "offset": 0,
            "slot": "0",
            "type": "t_uint256"
          },
          {
            "astId": 14553,
            "contract": "contracts/CarbonCoinConfig.sol:CarbonCoinConfig",
            "label": "whaleDelay",
            "offset": 0,
            "slot": "1",
            "type": "t_uint256"
          },
          {
            "astId": 14555,
            "contract": "contracts/CarbonCoinConfig.sol:CarbonCoinConfig",
            "label": "maxTradeSize",
            "offset": 0,
            "slot": "2",
            "type": "t_uint256"
          },
          {
            "astId": 14557,
            "contract": "contracts/CarbonCoinConfig.sol:CarbonCoinConfig",
            "label": "maxSellPercentage",
            "offset": 0,
            "slot": "3",
            "type": "t_uint256"
          }
        ],
        "numberOfBytes": "128"
      },
      "t_uint256": {
        "encoding": "inplace",
        "label": "uint256",
        "numberOfBytes": "32"
      }
    }
  }
}