{
  "address": "0xe7382cf98B999465C164bB25Db1C1Afac4Cf7Ebc",
  "abi": [
    {
      "inputs": [
        {
          "internalType": "address",
          "name": "_configAddress",
          "type": "address"
        },
        {
          "internalType": "address",
          "name": "_usdcAddress",
          "type": "address"
        },
        {
          "internalType": "address",
          "name": "_protectionAddress",
          "type": "address"
        },
        {
          "internalType": "address",
          "name": "_paymasterAddress",
          "type": "address"
        }
      ],
      "stateMutability": "nonpayable",
      "type": "constructor"
    },
    {
      "inputs": [],
      "name": "EnforcedPause",
      "type": "error"
    },
    {
      "inputs": [],
      "name": "ExpectedPause",
      "type": "error"
    },
    {
      "inputs": [],
      "name": "InsufficientFee",
      "type": "error"
    },
    {
      "inputs": [
        {
          "internalType": "address",
          "name": "addr",
          "type": "address"
        }
      ],
      "name": "InvalidAddress",
      "type": "error"
    },
    {
      "inputs": [],
      "name": "InvalidParameters",
      "type": "error"
    },
    {
      "inputs": [
        {
          "internalType": "address",
          "name": "owner",
          "type": "address"
        }
      ],
      "name": "OwnableInvalidOwner",
      "type": "error"
    },
    {
      "inputs": [
        {
          "internalType": "address",
          "name": "account",
          "type": "address"
        }
      ],
      "name": "OwnableUnauthorizedAccount",
      "type": "error"
    },
    {
      "inputs": [],
      "name": "ReentrancyGuardReentrantCall",
      "type": "error"
    },
    {
      "inputs": [],
      "name": "TooManyTokens",
      "type": "error"
    },
    {
      "inputs": [],
      "name": "Unauthorized",
      "type": "error"
    },
    {
      "anonymous": false,
      "inputs": [
        {
          "indexed": true,
          "internalType": "address",
          "name": "newController",
          "type": "address"
        }
      ],
      "name": "ControllerUpdated",
      "type": "event"
    },
    {
      "anonymous": false,
      "inputs": [
        {
          "indexed": false,
          "internalType": "uint256",
          "name": "timestamp",
          "type": "uint256"
        }
      ],
      "name": "LauncherPaused",
      "type": "event"
    },
    {
      "anonymous": false,
      "inputs": [
        {
          "indexed": false,
          "internalType": "uint256",
          "name": "timestamp",
          "type": "uint256"
        }
      ],
      "name": "LauncherUnpaused",
      "type": "event"
    },
    {
      "anonymous": false,
      "inputs": [
        {
          "indexed": false,
          "internalType": "uint256",
          "name": "oldMax",
          "type": "uint256"
        },
        {
          "indexed": false,
          "internalType": "uint256",
          "name": "newMax",
          "type": "uint256"
        },
        {
          "indexed": false,
          "internalType": "uint256",
          "name": "timestamp",
          "type": "uint256"
        }
      ],
      "name": "MaxTokensPerCreatorUpdated",
      "type": "event"
    },
    {
      "anonymous": false,
      "inputs": [
        {
          "indexed": true,
          "internalType": "address",
          "name": "from",
          "type": "address"
        },
        {
          "indexed": false,
          "internalType": "uint256",
          "name": "amount",
          "type": "uint256"
        },
        {
          "indexed": false,
          "internalType": "uint256",
          "name": "timestamp",
          "type": "uint256"
        }
      ],
      "name": "NativeFeeReceived",
      "type": "event"
    },
    {
      "anonymous": false,
      "inputs": [
        {
          "indexed": true,
          "internalType": "address",
          "name": "to",
          "type": "address"
        },
        {
          "indexed": false,
          "internalType": "uint256",
          "name": "amount",
          "type": "uint256"
        },
        {
          "indexed": false,
          "internalType": "uint256",
          "name": "timestamp",
          "type": "uint256"
        }
      ],
      "name": "NativeFeesWithdrawn",
      "type": "event"
    },
    {
      "anonymous": false,
      "inputs": [
        {
          "indexed": true,
          "internalType": "address",
          "name": "previousOwner",
          "type": "address"
        },
        {
          "indexed": true,
          "internalType": "address",
          "name": "newOwner",
          "type": "address"
        }
      ],
      "name": "OwnershipTransferred",
      "type": "event"
    },
    {
      "anonymous": false,
      "inputs": [
        {
          "indexed": false,
          "internalType": "address",
          "name": "account",
          "type": "address"
        }
      ],
      "name": "Paused",
      "type": "event"
    },
    {
      "anonymous": false,
      "inputs": [
        {
          "indexed": true,
          "internalType": "address",
          "name": "tokenAddress",
          "type": "address"
        },
        {
          "indexed": true,
          "internalType": "address",
          "name": "creator",
          "type": "address"
        },
        {
          "indexed": false,
          "internalType": "string",
          "name": "name",
          "type": "string"
        },
        {
          "indexed": false,
          "internalType": "string",
          "name": "symbol",
          "type": "string"
        },
        {
          "indexed": false,
          "internalType": "uint256",
          "name": "timestamp",
          "type": "uint256"
        }
      ],
      "name": "TokenCreated",
      "type": "event"
    },
    {
      "anonymous": false,
      "inputs": [
        {
          "indexed": true,
          "internalType": "address",
          "name": "tokenAddress",
          "type": "address"
        },
        {
          "indexed": false,
          "internalType": "uint256",
          "name": "timestamp",
          "type": "uint256"
        }
      ],
      "name": "TokenGraduated",
      "type": "event"
    },
    {
      "anonymous": false,
      "inputs": [
        {
          "indexed": false,
          "internalType": "address",
          "name": "account",
          "type": "address"
        }
      ],
      "name": "Unpaused",
      "type": "event"
    },
    {
      "anonymous": false,
      "inputs": [
        {
          "indexed": true,
          "internalType": "address",
          "name": "to",
          "type": "address"
        },
        {
          "indexed": false,
          "internalType": "uint256",
          "name": "amount",
          "type": "uint256"
        },
        {
          "indexed": false,
          "internalType": "uint256",
          "name": "timestamp",
          "type": "uint256"
        }
      ],
      "name": "UsdcFeesWithdrawn",
      "type": "event"
    },
    {
      "inputs": [],
      "name": "configAddress",
      "outputs": [
        {
          "internalType": "address",
          "name": "",
          "type": "address"
        }
      ],
      "stateMutability": "view",
      "type": "function"
    },
    {
      "inputs": [
        {
          "internalType": "string",
          "name": "name",
          "type": "string"
        },
        {
          "internalType": "string",
          "name": "symbol",
          "type": "string"
        },
        {
          "internalType": "address",
          "name": "creatorAddress",
          "type": "address"
        },
        {
          "components": [
            {
              "internalType": "uint256",
              "name": "virtualUsdc",
              "type": "uint256"
            },
            {
              "internalType": "uint256",
              "name": "virtualTokens",
              "type": "uint256"
            },
            {
              "internalType": "uint256",
              "name": "creatorReserve",
              "type": "uint256"
            },
            {
              "internalType": "uint256",
              "name": "liquiditySupply",
              "type": "uint256"
            },
            {
              "internalType": "uint256",
              "name": "curveSupply",
              "type": "uint256"
            },
            {
              "internalType": "uint256",
              "name": "maxSupply",
              "type": "uint256"
            },
            {
              "internalType": "uint256",
              "name": "graduationThreshold",
              "type": "uint256"
            }
          ],
          "internalType": "struct ICarbonCoin.BondingCurveConfig",
          "name": "curveConfig",
          "type": "tuple"
        }
      ],
      "name": "createToken",
      "outputs": [
        {
          "internalType": "address",
          "name": "",
          "type": "address"
        }
      ],
      "stateMutability": "nonpayable",
      "type": "function"
    },
    {
      "inputs": [],
      "name": "getFeeBalance",
      "outputs": [
        {
          "internalType": "uint256",
          "name": "",
          "type": "uint256"
        }
      ],
      "stateMutability": "view",
      "type": "function"
    },
    {
      "inputs": [
        {
          "internalType": "address",
          "name": "tokenAddress",
          "type": "address"
        }
      ],
      "name": "markTokenGraduated",
      "outputs": [],
      "stateMutability": "nonpayable",
      "type": "function"
    },
    {
      "inputs": [],
      "name": "maxTokensPerCreator",
      "outputs": [
        {
          "internalType": "uint256",
          "name": "",
          "type": "uint256"
        }
      ],
      "stateMutability": "view",
      "type": "function"
    },
    {
      "inputs": [],
      "name": "owner",
      "outputs": [
        {
          "internalType": "address",
          "name": "",
          "type": "address"
        }
      ],
      "stateMutability": "view",
      "type": "function"
    },
    {
      "inputs": [],
      "name": "pause",
      "outputs": [],
      "stateMutability": "nonpayable",
      "type": "function"
    },
    {
      "inputs": [],
      "name": "paused",
      "outputs": [
        {
          "internalType": "bool",
          "name": "",
          "type": "bool"
        }
      ],
      "stateMutability": "view",
      "type": "function"
    },
    {
      "inputs": [],
      "name": "paymasterAddress",
      "outputs": [
        {
          "internalType": "address",
          "name": "",
          "type": "address"
        }
      ],
      "stateMutability": "view",
      "type": "function"
    },
    {
      "inputs": [],
      "name": "protectionAddress",
      "outputs": [
        {
          "internalType": "address",
          "name": "",
          "type": "address"
        }
      ],
      "stateMutability": "view",
      "type": "function"
    },
    {
      "inputs": [],
      "name": "renounceOwnership",
      "outputs": [],
      "stateMutability": "nonpayable",
      "type": "function"
    },
    {
      "inputs": [
        {
          "internalType": "uint256",
          "name": "_max",
          "type": "uint256"
        }
      ],
      "name": "setMaxTokensPerCreator",
      "outputs": [],
      "stateMutability": "nonpayable",
      "type": "function"
    },
    {
      "inputs": [
        {
          "internalType": "address",
          "name": "",
          "type": "address"
        }
      ],
      "name": "tokens",
      "outputs": [
        {
          "internalType": "address",
          "name": "tokenAddress",
          "type": "address"
        },
        {
          "internalType": "address",
          "name": "creator",
          "type": "address"
        },
        {
          "internalType": "uint256",
          "name": "createdAt",
          "type": "uint256"
        },
        {
          "internalType": "bool",
          "name": "graduated",
          "type": "bool"
        },
        {
          "internalType": "string",
          "name": "name",
          "type": "string"
        },
        {
          "internalType": "string",
          "name": "symbol",
          "type": "string"
        }
      ],
      "stateMutability": "view",
      "type": "function"
    },
    {
      "inputs": [
        {
          "internalType": "address",
          "name": "",
          "type": "address"
        }
      ],
      "name": "tokensCreatedByAddress",
      "outputs": [
        {
          "internalType": "uint256",
          "name": "",
          "type": "uint256"
        }
      ],
      "stateMutability": "view",
      "type": "function"
    },
    {
      "inputs": [],
      "name": "totalTokensCreated",
      "outputs": [
        {
          "internalType": "uint256",
          "name": "",
          "type": "uint256"
        }
      ],
      "stateMutability": "view",
      "type": "function"
    },
    {
      "inputs": [
        {
          "internalType": "address",
          "name": "newOwner",
          "type": "address"
        }
      ],
      "name": "transferOwnership",
      "outputs": [],
      "stateMutability": "nonpayable",
      "type": "function"
    },
    {
      "inputs": [],
      "name": "unpause",
      "outputs": [],
      "stateMutability": "nonpayable",
      "type": "function"
    },
    {
      "inputs": [
        {
          "internalType": "address",
          "name": "newController",
          "type": "address"
        }
      ],
      "name": "updateController",
      "outputs": [],
      "stateMutability": "nonpayable",
      "type": "function"
    },
    {
      "inputs": [
        {
          "internalType": "address",
          "name": "newProtection",
          "type": "address"
        }
      ],
      "name": "updateProtectionAddress",
      "outputs": [],
      "stateMutability": "nonpayable",
      "type": "function"
    },
    {
      "inputs": [],
      "name": "usdcAddress",
      "outputs": [
        {
          "internalType": "address",
          "name": "",
          "type": "address"
        }
      ],
      "stateMutability": "view",
      "type": "function"
    },
    {
      "inputs": [],
      "name": "withdrawNativeFees",
      "outputs": [],
      "stateMutability": "nonpayable",
      "type": "function"
    },
    {
      "inputs": [],
      "name": "withdrawUsdcFees",
      "outputs": [],
      "stateMutability": "nonpayable",
      "type": "function"
    },
    {
      "stateMutability": "payable",
      "type": "receive"
    }
  ],
  "transactionHash": "0x9e394d1cad02087de36c7848f64c84b049c7123504709f5edb2c3454b95aabe2",
  "args": [
    "0x9d983Cd5e3233ce6802F22e3DA83E8740ce46376",
    "0x0673aDBDc50F3501A3a5FaE4acd723D8430e9f18",
    "0xC4093f1F11d09B85210ab87bF5EdA102fF555C31",
    "0xf042beb22da3ac19BbcFcd35DCadB7e37048dEb4"
  ],
  "numDeployments": 1,
  "solcInputHash": "c534378110365ec3188e58ac3fec9614",
  "bytecode": "0x6080346101a357601f6158e338819003918201601f19168301916001600160401b038311848410176101a8578084926080946040528339810103126101a357610047816101be565b90610054602082016101be565b9061006d6060610066604084016101be565b92016101be565b916001600055331561018d5760018054610100600160a81b0319811633600881811b610100600160a81b031692909217909355604051969291901c6001600160a01b03167f8be0079c531659141344cd1fd0a4f28419497f9722a3daafe3b4186f6b6457e0600080a360016007556001600160a01b03168015801561017c575b801561016b575b61015a57600280546001600160a01b03199081169290921790556003805482166001600160a01b03938416179055600480548216938316939093179092556005805483169390911692909217909155600680549091163317905561571090816101d38239f35b630e52390960e41b60005260046000fd5b506001600160a01b038316156100f4565b506001600160a01b038216156100ed565b631e4fbdf760e01b600052600060045260246000fd5b600080fd5b634e487b7160e01b600052604160045260246000fd5b51906001600160a01b03821682036101a35756fe608080604052600436101561004f575b50361561001b57600080fd5b6040513481524260208201527f369e259bd4b09984c6601d5a17034ddb48187f8163675193de71f1bc624f6e8d60403392a2005b600090813560e01c90816302d45457146110875750806306cb5b661461101d578063212315b714610f70578063313a3a8014610f125780633f4ba83a14610e805780633f4e8b2314610e4757806341d064f9146107c65780635c975abb146107a3578063715018a6146107425780638456cb59146106be5780638da5cb5b14610691578063a44776081461051a578063abb2b682146104fc578063c5d3226e14610452578063d4c30ceb14610436578063d6c318711461040d578063d9ed1fee146103e4578063dbb32248146102df578063e48603391461022f578063f2fde38b14610193578063fad8b2b31461016a5763fec7a9780361000f57346101675780600319360112610167576020600754604051908152f35b80fd5b50346101675780600319360112610167576004546040516001600160a01b039091168152602090f35b5034610167576020366003190112610167576101ad6110ac565b6101b56112e8565b6001600160a01b03811690811561021b5760018054610100600160a81b03198116600893841b610100600160a81b031617909155901c6001600160a01b03167f8be0079c531659141344cd1fd0a4f28419497f9722a3daafe3b4186f6b6457e08380a380f35b631e4fbdf760e01b83526004839052602483fd5b5034610167576020366003190112610167576040906001600160a01b036102546110ac565b16815260086020522080546001820154600283015460038401546001600160a01b039283169492909316926102db926102cd9160ff166102a2600561029b6004850161119c565b930161119c565b936040519788978852602088015260408701521515606086015260c0608086015260c0850190611240565b9083820360a0850152611240565b0390f35b5034610167576020366003190112610167576001600160a01b036103016110ac565b1680331480156103ca575b1561037657808252600860205260408220546001600160a01b031661032f575080f35b808252600860205260036040832001600160ff198254161790557f3774b363547126f466f72012377433ce54030696ae07ad35617ad9317eaf776b6020604051428152a280f35b60405162461bcd60e51b815260206004820152602660248201527f4f6e6c7920746f6b656e206f72206f776e65722063616e206d61726b20677261604482015265191d585d195960d21b6064820152608490fd5b506001543360089190911c6001600160a01b03161461030c565b50346101675780600319360112610167576005546040516001600160a01b039091168152602090f35b50346101675780600319360112610167576002546040516001600160a01b039091168152602090f35b5034610167578060031936011261016757602047604051908152f35b50346101675760203660031901126101675760043561046f6112e8565b801515806104f1575b156104be5760607fba8d909889a0b0bcc117604ea9c9cf78cd8fa7f972b70cc68ef434a5b49c85c09160075490806007556040519182526020820152426040820152a180f35b60405162461bcd60e51b815260206004820152600b60248201526a092dcecc2d8d2c840dac2f60ab1b6044820152606490fd5b506064811115610478565b50346101675780600319360112610167576020600a54604051908152f35b50346101675780600319360112610167576105336112e8565b6003546040516370a0823160e01b81523060048201529082906001600160a01b0316602083602481845afa92831561068657829361064e575b5082610576575080f35b602090604460018060a01b0360015460081c16604051948593849263a9059cbb60e01b845260048401528760248401525af18015610643578390610602575b6105bf9150611281565b7fb843c14cf866674b30f55357ccff0d5603611706d90349e515a8e265e1ed356a604060018060a01b0360015460081c16928151908152426020820152a2388180f35b506020813d60201161063b575b8161061c602093836110c7565b8101031261063757518015158103610637576105bf906105b5565b8280fd5b3d915061060f565b6040513d85823e3d90fd5b9092506020813d60201161067e575b8161066a602093836110c7565b8101031261067a5751913861056c565b5080fd5b3d915061065d565b6040513d84823e3d90fd5b503461016757806003193601126101675760015460405160089190911c6001600160a01b03168152602090f35b50346101675780600319360112610167576106d76112e8565b6106df611314565b600160ff19815416176001557f62e78cea01bee320cd4e420270b5ea74000d11b0c9f74754ebdbfc544b05a2586020604051338152a17f1ef06086ebdde1dfe101afc819937ecafceba8abbcb1fe410bafb629f674d7726020604051428152a180f35b503461016757806003193601126101675761075b6112e8565b60018054610100600160a81b03198116909155819060081c6001600160a01b03167f8be0079c531659141344cd1fd0a4f28419497f9722a3daafe3b4186f6b6457e08280a380f35b5034610167578060031936011261016757602060ff600154166040519015158152f35b5034610167576101403660031901126101675760043567ffffffffffffffff811161067a576107f990369060040161111b565b60243567ffffffffffffffff81116106375761081990369060040161111b565b916044356001600160a01b038116810361067a5760e036606319011261067a5760405160e0810181811067ffffffffffffffff821117610de3576040526064358152608435602082015260a435604082015260c435606082015260e43560808201526101043560a08201526101243560c08201526002835414610e3857600283556108a2611314565b6006546001600160a01b03163303610e2a576001600160a01b0382168352600960205260408320546007541115610e1b57600354600554600254600454604051946001600160a01b03948516949093918116928116911667ffffffffffffffff6143a9870190811190871117610e0757918594939160c0936143a961133288396101c06143a98801526109566109406101c06143a98a01018d611240565b6143a98901810360206143a98b0101528d611240565b6001600160a01b038a166143a9890160408181019290925260608082019990995260808082019490945260a08181019590955287810195909552855160e08601526020860151610100860152850151610120850152958401516101408401528301516101608301528201516101808201529101516101a090910152039083f08015610686576004546001600160a01b03918216939116803b1561067a5760405162aa26ad60e51b8152600481018590526001600160a01b03841660248201529082908290604490829084905af1801561068657610df7575b50906040519460c0860186811067ffffffffffffffff821117610de35760409081528487526001600160a01b038381166020808a01918252428a850190815260608b0188815260808c018b815260a08d018881528b8b5260089094529589209b518c549086166001600160a01b0319918216178d55935160018d01805491909616941693909317909355915160028a01555160038901805460ff191691151560ff1691909117905590518051919791600483019167ffffffffffffffff8211610dcf57610afb8354611162565b601f8111610d8a575b50602090601f8311600114610d2357600594939291889183610d18575b50508160011b916000199060031b1c19161790555b01955195865167ffffffffffffffff8111610d0457610b558254611162565b601f8111610cbf575b506020978890601f8311600114610c3057879891947f6e6ae68e7d7d45fbd855c40d1eaafa8de46c5fbec3ee26f1af88730e400bc92c9484610bfd9560019b98610c0a958c92610c25575b5050600019600383901b1c1916908b1b1790555b888060a01b038716885260098b5260408820610bd981546112c3565b9055610be6600a546112c3565b600a55604051938493606085526060850190611240565b908382038c850152611240565b94426040830152878060a01b0316940390a355604051908152f35b015190503880610ba9565b8387528187209190601f198416885b818110610ca85750946001858b9c95610c0a95839d9a95610bfd997f6e6ae68e7d7d45fbd855c40d1eaafa8de46c5fbec3ee26f1af88730e400bc92c9b10610c8f575b505050811b019055610bbd565b015160001960f88460031b161c19169055388080610c82565b92938c600181928786015181550195019301610c3f565b82865260208620601f830160051c81019160208410610cfa575b601f0160051c01905b818110610cef5750610b5e565b868155600101610ce2565b9091508190610cd9565b634e487b7160e01b85526041600452602485fd5b015190503880610b21565b8388528188209190601f198416895b818110610d72575091600193918560059897969410610d59575b505050811b019055610b36565b015160001960f88460031b161c19169055388080610d4c565b92936020600181928786015181550195019301610d32565b83885260208820601f840160051c81019160208510610dc5575b601f0160051c01905b818110610dba5750610b04565b888155600101610dad565b9091508190610da4565b634e487b7160e01b87526041600452602487fd5b634e487b7160e01b84526041600452602484fd5b81610e01916110c7565b38610a2e565b634e487b7160e01b88526041600452602488fd5b633a4733d960e11b8352600483fd5b6282b42960e81b8352600483fd5b633ee5aeb560e01b8352600483fd5b5034610167576020366003190112610167576020906040906001600160a01b03610e6f6110ac565b168152600983522054604051908152f35b5034610167578060031936011261016757610e996112e8565b60015460ff811615610f035760ff19166001557f5db9ee0a495bf2e6ff9c91a7834c1ba4fdd244a5e8aa4e537bd38aeae4b073aa6020604051338152a17fe7fa21f5820cb7e78ee4403b3bf11ab50ddf891fb7ffa4ea15e2c646466862ac6020604051428152a180f35b638dfc202b60e01b8252600482fd5b503461016757602036600319011261016757610f2c6110ac565b610f346112e8565b6001600160a01b03168015610f5e576bffffffffffffffffffffffff60a01b600454161760045580f35b634726455360e11b8252600452602490fd5b5034610167578060031936011261016757610f896112e8565b4780610f93575080f35b610fd7828080808560018060a01b0360015460081c165af13d15611018573d610fbb816110ff565b90610fc960405192836110c7565b81528460203d92013e611281565b7f60a7c88de18dcf15e0ba20b353141ac7ad89227bcb286d53f9b78544bd72f985604060018060a01b0360015460081c16928151908152426020820152a280f35b611281565b5034610167576020366003190112610167576110376110ac565b61103f6112e8565b6001600160a01b03168015610f5e57600680546001600160a01b031916821790557f1304018cfe79741dcf02ba6b61d39cc4757d59395d03224d9925c7aa830021468280a280f35b90503461067a578160031936011261067a576003546001600160a01b03168152602090f35b600435906001600160a01b03821682036110c257565b600080fd5b90601f8019910116810190811067ffffffffffffffff8211176110e957604052565b634e487b7160e01b600052604160045260246000fd5b67ffffffffffffffff81116110e957601f01601f191660200190565b81601f820112156110c257803590611132826110ff565b9261114060405194856110c7565b828452602083830101116110c257816000926020809301838601378301015290565b90600182811c92168015611192575b602083101461117c57565b634e487b7160e01b600052602260045260246000fd5b91607f1691611171565b90604051918260008254926111b084611162565b808452936001811690811561121e57506001146111d7575b506111d5925003836110c7565b565b90506000929192526020600020906000915b8183106112025750509060206111d592820101386111c8565b60209193508060019154838589010152019101909184926111e9565b9050602092506111d594915060ff191682840152151560051b820101386111c8565b919082519283825260005b84811061126c575050826000602080949584010152601f8019910116010190565b8060208092840101518282860101520161124b565b1561128857565b60405162461bcd60e51b8152602060048201526013602482015272119959481d1c985b9cd9995c8819985a5b1959606a1b6044820152606490fd5b60001981146112d25760010190565b634e487b7160e01b600052601160045260246000fd5b60015460081c6001600160a01b031633036112ff57565b63118cdaa760e01b6000523360045260246000fd5b60ff6001541661132057565b63d93c066560e01b60005260046000fdfe6103208060405234610940576000906143a980380380916100208285610945565b8339810190808203926101c0841261093d5781516001600160401b03811161093b578361004e9184016109a1565b60208301519093906001600160401b03811161093757906100709184016109a1565b9161007d604082016109f5565b9161008a606083016109f5565b92610097608084016109f5565b906100a460a085016109f5565b9760e06100b360c087016109f5565b9160df190112610933576040519460e086016001600160401b0381118782101761091f57906101a09160405260e08101518752610100810151602088015261012081015160408801526101408101516060880152610160810151608088015261018081015160a0880152015160c086015260409889516101338b82610945565b60018152603160f81b602082015289516001600160401b03811161083157600354600181811c91168015610915575b602082101461081357601f81116108b6575b50806020601f8211600114610850578891610845575b508160011b916000199060031b1c1916176003555b88516001600160401b03811161083157600454600181811c91168015610827575b602082101461081357601f81116107b4575b50806020601f821160011461074f578891610744575b508160011b916000199060031b1c1916176004555b6102068a610a2e565b6101205261021381610bbf565b61014052895160208b0120908160e0526020815191012080610100524660a0528b519060208201927f8b73c3c69bb8fe3d512ecc4cf759cc79239f7b179b0ffacaa9a75d522b39400f84528d83015260608201524660808201523060a082015260a0815261028260c082610945565b5190206080523060c05260016008556001600160a01b03831696871561070e576001600160a01b03169283156106ca576001600160a01b03821615610695576001600160a01b0383161561065c5761026052336102a052610280526102c0526103005242610240526102e05281516101605260208201516101805260c0604083015192836101a05260608101516101c05260808101516101e05260a081015161020052015161022052816105bd575b5050507f7dcf0b62b3d9433b7d8be4fb0f593ac11dbc31884d09ef028740aaeaa8d867fd60018060a01b036102605116926102005192610391610220519161038388519460a0865260a0860190610a09565b908482036020860152610a09565b938683015260608201524260808201528030930390a3516136a79081610d02823960805181612829015260a051816128e6015260c051816127f3015260e051816128780152610100518161289e015261012051816110460152610140518161107001526101605181818161134301528181611a2a01528181611e1a01528181611eeb01528181611fc0015261207a0152610180518181816102d201528181611a4f01528181611e5401528181611f2401528181611ff901526120a601526101a0518161199501526101c05181818161152a01526129d901526101e0518181816116cf0152612f03015261020051816114ef01526102205181818161025301528181610f4201526130b9015261024051816112d0015261026051818181610f81015281816111f10152818161147301528181611b33015281816122a0015281816126eb01528181612aea01526134a4015261028051818181610b5401528181611289015281816126300152818161294001528181612a180152612e4001526102a051818181610f030152818161113d015281816113bc015281816119090152818161245401528181612b4d015261310101526102c0518181816105bd015281816109b801528181611746015281816121cb0152612d0e01526102e051818181610a0c01528181611716015261194e01526103005181818161039c015281816107a301528181610a7601528181610cce01528181610fe00152818161235601528181612a9b015261313b0152f35b50600254908082018092116106465782916002557fddf252ad1be2c89b69c2b068fc378daa952ba7f163c4a11628f55a4df523b3ef60206000928484528382528884208181540190558851908152a37f904a0b083f0255bd41f8cd7d66a07cbb7ef925ddc5c4ea304e9512cbeb83ce72846101a0518151908152426020820152a2388080610331565b634e487b7160e01b600052601160045260246000fd5b8a5162461bcd60e51b815260206004820152601260248201527124b73b30b634b210383937ba32b1ba34b7b760711b6044820152606490fd5b8a5162461bcd60e51b815260206004820152600e60248201526d496e76616c696420636f6e66696760901b6044820152606490fd5b8a5162461bcd60e51b815260206004820152601460248201527f496e76616c6964205553444320616464726573730000000000000000000000006044820152606490fd5b8a5162461bcd60e51b815260206004820152600f60248201526e24b73b30b634b21031b932b0ba37b960891b6044820152606490fd5b90508a0151386101e8565b600489528089209150601f198316895b8d82821061079c5750509083600194939210610783575b5050811b016004556101fd565b8c015160001960f88460031b161c191690553880610776565b6001849560209395849301518155019401920161075f565b600488527f8a35acfbc15ff81a39ae7d344fd709f28e8600b4aa8c65c6b64bfe7fe36bd19b601f830160051c81016020841061080c575b601f830160051c820181106108015750506101d2565b8981556001016107eb565b50806107eb565b634e487b7160e01b88526022600452602488fd5b90607f16906101c0565b634e487b7160e01b87526041600452602487fd5b90508b01513861018a565b91506003885281882088925b8d601f198416851061089f57506001935082601f19811610610886575b5050811b0160035561019f565b8d015160001960f88460031b161c191690553880610879565b81015182556020938401936001909201910161085c565b600388527fc2575a0e9e593c00f959f8c92f12db2869c3395a3b0502d05e2516446f71f85b601f830160051c81016020841061090e575b601f830160051c82018110610903575050610174565b8981556001016108ed565b50806108ed565b90607f1690610162565b634e487b7160e01b86526041600452602486fd5b8380fd5b8280fd5b505b80fd5b600080fd5b601f909101601f19168101906001600160401b0382119082101761096857604052565b634e487b7160e01b600052604160045260246000fd5b60005b8381106109915750506000910152565b8181015183820152602001610981565b81601f820112156109405780516001600160401b03811161096857604051926109d4601f8301601f191660200185610945565b81845260208284010111610940576109f2916020808501910161097e565b90565b51906001600160a01b038216820361094057565b90602091610a228151809281855285808601910161097e565b601f01601f1916010190565b90815160208110600014610a93575090601f815111610a6a576020815191015160208210610a5a571790565b6000198260200360031b1b161790565b60405163305a27a960e01b815260206004820152908190610a8f906024830190610a09565b0390fd5b6001600160401b03811161096857600554600181811c91168015610bb5575b6020821014610b9f57601f8111610b69575b50602092601f8211600114610b045792819293600092610af9575b50508160011b916000199060031b1c19161760055560ff90565b015190503880610adf565b601f198216936005600052806000209160005b868110610b515750836001959610610b38575b505050811b0160055560ff90565b015160001960f88460031b161c19169055388080610b2a565b91926020600181928685015181550194019201610b17565b6005600052601f6020600020910160051c810190601f830160051c015b818110610b935750610ac4565b60008155600101610b86565b634e487b7160e01b600052602260045260246000fd5b90607f1690610ab2565b90815160208110600014610beb575090601f815111610a6a576020815191015160208210610a5a571790565b6001600160401b03811161096857600654600181811c91168015610cf7575b6020821014610b9f57601f8111610cc1575b50602092601f8211600114610c5c5792819293600092610c51575b50508160011b916000199060031b1c19161760065560ff90565b015190503880610c37565b601f198216936006600052806000209160005b868110610ca95750836001959610610c90575b505050811b0160065560ff90565b015160001960f88460031b161c19169055388080610c82565b91926020600181928685015181550194019201610c6f565b6006600052601f6020600020910160051c810190601f830160051c015b818110610ceb5750610c1c565b60008155600101610cde565b90607f1690610c0a56fe608080604052600436101561001357600080fd5b600090813560e01c90816302d05d3f14611b1f5750806306fdde0314611a785780630902f1ac14611a02578063090c8ba3146119df578063095ea7b3146119b85780630ce0c9561461197d57806316e4cbf91461193857806316eebd1e146118f357806318160ddd146118d55780631898e2cf146116f25780631e4c7292146116b757806322f012841461168c57806323b872dd146115a657806324cc5f33146115875780632ceb2faa14611569578063313ce5671461154d5780633272f5051461151257806332cb6b0c146114d75780633644e515146114bc5780633f4ba83a146113a85780634fa1f104146113895780635c975abb146113665780636fb8320d1461132b57806370a08231146112f3578063790ca413146112b857806379502c55146112735780637ecebe001461123a5780638456cb591461112957806384b0196e1461102c578063878e1d451461100f57806389a3027114610fca57806391471e6c14610eef57806395d89b4114610e0c57806396eec7f214610c98578063a0855afa14610c7a578063a9059cbb14610c48578063a9952b8d14610b07578063aedcca81146109e7578063b8aed8ee146109a2578063bbffa9791461097a578063d505accf1461082b578063d6febde814610752578063d79875eb14610599578063db2e21bc1461034a578063dd62ed3e146102f5578063e90ceb9f146102ba578063eb91d37e14610297578063fa6c7584146102795763fcfc0c091461023c57600080fd5b3461027657806003193601126102765760206040517f00000000000000000000000000000000000000000000000000000000000000008152f35b80fd5b50346102765780600319360112610276576020600c54604051908152f35b503461027657806003193601126102765760206102b2612072565b604051908152f35b503461027657806003193601126102765760206040517f00000000000000000000000000000000000000000000000000000000000000008152f35b5034610276576040366003190112610276576040610311611ba3565b9161031a611bbe565b9260018060a01b031681526001602052209060018060a01b03166000526020526020604060002054604051908152f35b50346102765780600319360112610276576001600160a01b0361036b61292b565b16330361058b5760ff600d541661057c5760ff6009541615610540576040516370a0823160e01b81523060048201527f00000000000000000000000000000000000000000000000000000000000000006001600160a01b0316602082602481845afa91821561050157839261050c575b5060405163a9059cbb60e01b815233600482015260248101839052906020908290604490829087905af19081156105015783916104c3575b501561048a576040519081524260208201527fbb757047c2b5f3974fe26b7c10f732e7bce710b0952a71082702781e62ae059560403392a27f66e45f56ba7de695fa8cdac194a133e74234cae0e5f6c77c5dd10b6b279cb16e6080604051838152836020820152836040820152426060820152a180f35b60405162461bcd60e51b815260206004820152601160248201527015da5d1a191c985dd85b0819985a5b1959607a1b6044820152606490fd5b90506020813d6020116104f9575b816104de60209383611d3b565b810103126104f5576104ef90611d80565b38610413565b8280fd5b3d91506104d1565b6040513d85823e3d90fd5b9091506020813d602011610538575b8161052860209383611d3b565b810103126104f5575190386103db565b3d915061051b565b60405162461bcd60e51b8152602060048201526014602482015273135d5cdd081899481c185d5cd95908199a5c9cdd60621b6044820152606490fd5b63e6a0d45f60e01b8152600490fd5b6282b42960e81b8152600490fd5b5034610276576105a836611bfe565b6105b39291926120f4565b6105bb612116565b7f00000000000000000000000000000000000000000000000000000000000000006001600160a01b031690813b156104f557604051631c620cb960e11b81523060048201528381602481865afa801561074757908491610732575b505060ff600d5416610723578315610714573383528260205283604084205410610714579061068e9183604061064b87611df1565b9590946106588787611d5d565b8351635f7567ff60e01b815230600482015233602482015260448101919091526000606482015293849283919082906084820190565b03925af1801561070957859186916106d8575b50816106cf575b506106c0576106b8939433612175565b600160085580f35b63c154fd2d60e01b8452600484fd5b905015386106a8565b90506106fc915060403d604011610702575b6106f48183611d3b565b810190611d8d565b386106a1565b503d6106ea565b6040513d87823e3d90fd5b63162908e360e11b8352600483fd5b63e6a0d45f60e01b8352600483fd5b8161073c91611d3b565b6104f5578238610616565b6040513d86823e3d90fd5b50346102765761076136611bfe565b6107696120f4565b610771612116565b6040516323b872dd60e01b81523360048201523060248201526044810183905291602083606481876001600160a01b037f0000000000000000000000000000000000000000000000000000000000000000165af19283156107475784936107e6575b506107e06106b89361202f565b33612d0c565b92506020833d602011610823575b8161080160209383611d3b565b8101031261081f576107e06108186106b894611d80565b93506107d3565b8380fd5b3d91506107f4565b50346102765760e036600319011261027657610845611ba3565b9061084e611bbe565b604435906064359360843560ff81168103610976578542116109625761092261092b9160018060a01b03841697888852600760205260408820908154916001830190556040519060208201927f6e71edae12b1b97f4d1f60370fef10105fa2faae0126114a169c64845d6126c984528b604084015260018060a01b038916606084015289608084015260a083015260c082015260c081526108f060e082611d3b565b5190206108fb6127f0565b906040519161190160f01b83526002830152602282015260c43591604260a4359220613540565b909291926135c9565b6001600160a01b03169480860361094b5750610948939450613364565b80f35b6325c0072360e11b85526004869052602452604484fd5b63313c898160e11b85526004869052602485fd5b8480fd5b5034610276576020366003190112610276576020610999600435611df1565b50604051908152f35b50346102765780600319360112610276576040517f00000000000000000000000000000000000000000000000000000000000000006001600160a01b03168152602090f35b5034610276576109f636611bd4565b90610a029392936120f4565b610a0a612116565b7f0000000000000000000000000000000000000000000000000000000000000000936001600160a01b0385163303610af9576040516323b872dd60e01b81526001600160a01b0395861660048201523060248201526044810183905293946020908590606490829089907f0000000000000000000000000000000000000000000000000000000000000000165af1938415610709578594610ab8575b50610ab36106b89461202f565b612d0c565b93506020843d602011610af1575b81610ad360209383611d3b565b8101031261097657610ab3610aea6106b895611d80565b9450610aa6565b3d9150610ac6565b6282b42960e81b8452600484fd5b5034610276578060031936011261027657806060604051610b2781611cd1565b8281528260208201528260408201520152604051637e529df560e11b815260808160048160018060a01b037f0000000000000000000000000000000000000000000000000000000000000000165afa918215610c3c578092610bda575b826040810151610bd660608301519260208151910151612710610ba986600c54611dbe565b0491604051958695869192608093969594919660a084019784526020840152604083015260608201520152565b0390f35b9091506080823d608011610c34575b81610bf660809383611d3b565b810103126102765750606060405191610c0e83611cd1565b805183526020810151602084015260408101516040840152015160608201523880610b84565b3d9150610be9565b604051903d90823e3d90fd5b503461027657604036600319011261027657610c6f610c65611ba3565b60243590336126c9565b602060405160018152f35b50346102765780600319360112610276576020600b54604051908152f35b50346102765760c0366003190112610276576004356064359060ff82168092036104f557610cc46120f4565b610ccc612116565b7f00000000000000000000000000000000000000000000000000000000000000006001600160a01b0316918390833b15610e08576040519063d505accf60e01b82523360048301523060248301528360448301526044356064830152608482015260843560a482015260a43560c4820152818160e48183885af18015610dfd57610de8575b50506040516323b872dd60e01b815233600482015230602482015260448101829052916020908390606490829087905af1918215610501578392610da7575b50610d9d6106b89261202f565b6024359033612d0c565b91506020823d602011610de0575b81610dc260209383611d3b565b810103126104f557610d9d610dd96106b893611d80565b9250610d90565b3d9150610db5565b81610df291611d3b565b6104f5578238610d51565b6040513d84823e3d90fd5b5080fd5b5034610276578060031936011261027657604051908060045490610e2f82611c14565b8085529160018116908115610ec85750600114610e6b575b610bd684610e5781860382611d3b565b604051918291602083526020830190611b62565b600481527f8a35acfbc15ff81a39ae7d344fd709f28e8600b4aa8c65c6b64bfe7fe36bd19b939250905b808210610eae57509091508101602001610e5782610e47565b919260018160209254838588010152019101909291610e95565b60ff191660208087019190915292151560051b85019092019250610e579150839050610e47565b5034610276578060031936011261027657337f00000000000000000000000000000000000000000000000000000000000000006001600160a01b0316141580610fb0575b80610f7d575b61058b57600b547f000000000000000000000000000000000000000000000000000000000000000011610f6e576109486129a5565b63bb55fd2760e01b8152600490fd5b50337f00000000000000000000000000000000000000000000000000000000000000006001600160a01b03161415610f39565b506001600160a01b03610fc161292b565b16331415610f33565b50346102765780600319360112610276576040517f00000000000000000000000000000000000000000000000000000000000000006001600160a01b03168152602090f35b50346102765780600319360112610276576020604051610e108152f35b50346102765780600319360112610276576110cd9061106a7f00000000000000000000000000000000000000000000000000000000000000006133f7565b906110947f000000000000000000000000000000000000000000000000000000000000000061345b565b9060206110db604051936110a88386611d3b565b8385526000368137604051968796600f60f81b885260e08589015260e0880190611b62565b908682036040880152611b62565b904660608601523060808601528260a086015284820360c08601528080855193848152019401925b82811061111257505050500390f35b835185528695509381019392810192600101611103565b5034610276578060031936011261027657337f00000000000000000000000000000000000000000000000000000000000000006001600160a01b0316141580611220575b806111ed575b61058b5760ff600d541661057c57611189612116565b600160ff1960095416176009557f62e78cea01bee320cd4e420270b5ea74000d11b0c9f74754ebdbfc544b05a2586020604051338152a17f2373bf0304c12814b4e5027ba93d4676ec582cac29b464df6e01b17a44705ee96020604051428152a180f35b50337f00000000000000000000000000000000000000000000000000000000000000006001600160a01b03161415611173565b506001600160a01b0361123161292b565b1633141561116d565b5034610276576020366003190112610276576020906040906001600160a01b03611262611ba3565b168152600783522054604051908152f35b50346102765780600319360112610276576040517f00000000000000000000000000000000000000000000000000000000000000006001600160a01b03168152602090f35b503461027657806003193601126102765760206040517f00000000000000000000000000000000000000000000000000000000000000008152f35b5034610276576020366003190112610276576020906040906001600160a01b0361131b611ba3565b1681528083522054604051908152f35b503461027657806003193601126102765760206040517f00000000000000000000000000000000000000000000000000000000000000008152f35b5034610276578060031936011261027657602060ff600954166040519015158152f35b50346102765760203660031901126102765760206102b2600435611f8e565b5034610276578060031936011261027657337f00000000000000000000000000000000000000000000000000000000000000006001600160a01b03161415806114a2575b8061146f575b61058b5760095460ff8116156114605760ff19166009557f5db9ee0a495bf2e6ff9c91a7834c1ba4fdd244a5e8aa4e537bd38aeae4b073aa6020604051338152a17f21d78858c9357036e26ecdac6bd821a57e3a7a5cf66ef4d7ed37dc02eb36131e6020604051428152a180f35b638dfc202b60e01b8252600482fd5b50337f00000000000000000000000000000000000000000000000000000000000000006001600160a01b031614156113f2565b506001600160a01b036114b361292b565b163314156113ec565b503461027657806003193601126102765760206102b26127f0565b503461027657806003193601126102765760206040517f00000000000000000000000000000000000000000000000000000000000000008152f35b503461027657806003193601126102765760206040517f00000000000000000000000000000000000000000000000000000000000000008152f35b5034610276578060031936011261027657602060405160128152f35b50346102765780600319360112610276576020600a54604051908152f35b50346102765760203660031901126102765760206102b2600435611ed4565b5034610276576060366003190112610276576115c0611ba3565b6115c8611bbe565b6001600160a01b038216808452600160209081526040808620336000908152925290205460443593916000198210611607575b5050610c6f93506126c9565b84821061167157801561165d5733156116495785604091610c6f975260016020522060018060a01b0333166000526020528360406000209103905538806115fb565b634a1406b160e11b86526004869052602486fd5b63e602df0560e01b86526004869052602486fd5b6064868684637dc7a0d960e11b835233600452602452604452fd5b50346102765760203660031901126102765760406116ab600435611df1565b82519182526020820152f35b503461027657806003193601126102765760206040517f00000000000000000000000000000000000000000000000000000000000000008152f35b50346102765761170136611bd4565b61170c9392936120f4565b611714612116565b7f00000000000000000000000000000000000000000000000000000000000000006001600160a01b031633036118c7577f00000000000000000000000000000000000000000000000000000000000000006001600160a01b031691823b1561081f57604051631c620cb960e11b81523060048201528481602481875afa8015610709576118b3575b5060ff600d54166118a4578015611895576001600160a01b03851684526020849052604084205481116118955790816118286117da60409594611df1565b9590946117e78787611d5d565b8251635f7567ff60e01b81523060048201526001600160a01b038b1660248201526044810191909152600060648201529283919082908a9082906084820190565b03925af1801561188a5786918791611869575b5081611860575b50611851576106b89495612175565b63c154fd2d60e01b8552600485fd5b90501538611842565b9050611884915060403d604011610702576106f48183611d3b565b3861183b565b6040513d88823e3d90fd5b63162908e360e11b8452600484fd5b63e6a0d45f60e01b8452600484fd5b846118c091959295611d3b565b923861179c565b6282b42960e81b8352600483fd5b50346102765780600319360112610276576020600254604051908152f35b50346102765780600319360112610276576040517f00000000000000000000000000000000000000000000000000000000000000006001600160a01b03168152602090f35b50346102765780600319360112610276576040517f00000000000000000000000000000000000000000000000000000000000000006001600160a01b03168152602090f35b503461027657806003193601126102765760206040517f00000000000000000000000000000000000000000000000000000000000000008152f35b503461027657604036600319011261027657610c6f6119d5611ba3565b6024359033613364565b5034610276578060031936011261027657602060ff600d54166040519015158152f35b5034610276578060031936011261027657600b54600c546040805192835260208301919091527f0000000000000000000000000000000000000000000000000000000000000000908201527f00000000000000000000000000000000000000000000000000000000000000006060820152608090f35b5034610276578060031936011261027657604051908060035490611a9b82611c14565b8085529160018116908115610ec85750600114611ac257610bd684610e5781860382611d3b565b600381527fc2575a0e9e593c00f959f8c92f12db2869c3395a3b0502d05e2516446f71f85b939250905b808210611b0557509091508101602001610e5782610e47565b919260018160209254838588010152019101909291611aec565b905034610e085781600319360112610e08577f00000000000000000000000000000000000000000000000000000000000000006001600160a01b03168152602090f35b919082519283825260005b848110611b8e575050826000602080949584010152601f8019910116010190565b80602080928401015182828601015201611b6d565b600435906001600160a01b0382168203611bb957565b600080fd5b602435906001600160a01b0382168203611bb957565b6060906003190112611bb9576004356001600160a01b0381168103611bb957906024359060443590565b6040906003190112611bb9576004359060243590565b90600182811c92168015611c44575b6020831014611c2e57565b634e487b7160e01b600052602260045260246000fd5b91607f1691611c23565b60009291815491611c5e83611c14565b8083529260018116908115611cb45750600114611c7a57505050565b60009081526020812093945091925b838310611c9a575060209250010190565b600181602092949394548385870101520191019190611c89565b915050602093945060ff929192191683830152151560051b010190565b6080810190811067ffffffffffffffff821117611ced57604052565b634e487b7160e01b600052604160045260246000fd5b6060810190811067ffffffffffffffff821117611ced57604052565b60a0810190811067ffffffffffffffff821117611ced57604052565b90601f8019910116810190811067ffffffffffffffff821117611ced57604052565b91908201809211611d6a57565b634e487b7160e01b600052601160045260246000fd5b51908115158203611bb957565b9190826040910312611bb957611dae6020611da784611d80565b9301611d80565b90565b91908203918211611d6a57565b81810292918115918404141715611d6a57565b8115611ddb570490565b634e487b7160e01b600052601260045260246000fd5b908115611ecc57600c5491828111611ec357611e9b602091611e8a611e14612600565b95611e967f000000000000000000000000000000000000000000000000000000000000000091611e90600b5495611e8a611e4e8887611d5d565b91611e847f000000000000000000000000000000000000000000000000000000000000000093611e7e8786611db1565b90611dbe565b94611db1565b90611db1565b90611dd1565b611db1565b920151612710036127108111611d6a57612710611ebb611dae9285611dbe565b048093611db1565b50600091508190565b600091508190565b8015611f8857611f5b611ee5612600565b91611e967f0000000000000000000000000000000000000000000000000000000000000000611e96600b5493611e90611f1e8685611d5d565b91611e8a7f000000000000000000000000000000000000000000000000000000000000000091611f55600c5495611e7e8786611db1565b94611d5d565b906127108202918083046127101490151715611d6a5751612710036127108111611d6a57611dae91611dd1565b50600090565b8015611f8857611f9c612600565b51612710036127108111611d6a57611fba61271091611dae93611dbe565b04611e967f0000000000000000000000000000000000000000000000000000000000000000611e8a600b5491611e90611ff38483611d5d565b9561202a7f000000000000000000000000000000000000000000000000000000000000000095611f55600c5499611e7e8b8a611db1565b611d5d565b1561203657565b60405162461bcd60e51b81526020600482015260146024820152731554d110c81d1c985b9cd9995c8819985a5b195960621b6044820152606490fd5b61209e600b547f0000000000000000000000000000000000000000000000000000000000000000611d5d565b6120ca600c547f0000000000000000000000000000000000000000000000000000000000000000611db1565b670de0b6b3a7640000820291808304670de0b6b3a76400001490151715611d6a57611dae91611dd1565b600260085414612105576002600855565b633ee5aeb560e01b60005260046000fd5b60ff6009541661212257565b63d93c066560e01b60005260046000fd5b1561213a57565b60405162461bcd60e51b8152602060048201526013602482015272119959481d1c985b9cd9995c8819985a5b1959606a1b6044820152606490fd5b90929194939482106125ef5761218b8583611d5d565b600b549182600092116125e0576121ae6121a3612072565b93611e8a8987611d5d565b600b556121bd85600c54611db1565b600c556121c8612072565b967f00000000000000000000000000000000000000000000000000000000000000006001600160a01b031693843b1561081f576040516309b3fba760e21b81523060048201526001600160a01b0384166024820181905260448201839052606482018b90526084820188905260a482018690529590858160c48183865af1801561188a576125cc575b50803b1561097657604051633ab1d58360e21b8152306004820152602481018b9052604481019290925284908290606490829084905af18015610747579084916125b7575b505083156125a3577f00000000000000000000000000000000000000000000000000000000000000006001600160a01b031684148061259c575b8061258f575b6125805783835282602052604083205486811061256457869085855284602052036040842055856002540360025582847fddf252ad1be2c89b69c2b068fc378daa952ba7f163c4a11628f55a4df523b3ef60206040518a8152a360405163a9059cbb60e01b81526001600160a01b039283166004820152602481018690527f00000000000000000000000000000000000000000000000000000000000000009092169160208160448187875af18015610747578490612529575b61239a915061202f565b80612445575b50505084612440917fa3afd433eaa98ecd7cf80a2ca5f5576d84a37b5b410d59fa102332cc15283da46000805160206136528339815191529697600b5495612418600c549889896040519586954294879260a094919796959260c0850198855260208501526040840152606083015260808201520152565b0390a26040519384934292859094939260609260808301968352602083015260408201520152565b0390a1565b60405163a9059cbb60e01b81527f00000000000000000000000000000000000000000000000000000000000000006001600160a01b031660048201526024810191909152906020908290604490829086905af1918215610c3c5780926124cf575b505094612440916124c66000805160206136528339815191529697612133565b918196956123a0565b9091506020823d602011612521575b816124eb60209383611d3b565b81010312610276575094612440916124c66125156000805160206136528339815191529798611d80565b929796508193506124a6565b3d91506124de565b506020813d60201161255c575b8161254360209383611d3b565b8101031261081f5761255761239a91611d80565b612390565b3d9150612536565b63391434e360e21b845260048590526024526044869052606483fd5b6316df206560e01b8352600483fd5b5060ff600d5416156122d6565b50826122d0565b634b637e8f60e11b83526004839052602483fd5b816125c191611d3b565b6104f5578238612296565b856125d991969296611d3b565b9338612251565b63bb55fd2760e01b8252600482fd5b63428637bb60e11b60005260046000fd5b60006040805161260f81611d03565b828152602081018390520152604051632fdde06960e11b81526060816004817f00000000000000000000000000000000000000000000000000000000000000006001600160a01b03165afa9081156126bd5760009161266c575090565b90506060813d6060116126b5575b8161268760609383611d3b565b81010312611bb957604080519161269d83611d03565b80518352602081015160208401520151604082015290565b3d915061267a565b6040513d6000823e3d90fd5b6001600160a01b03169081156127da576001600160a01b03169182156127c4577f00000000000000000000000000000000000000000000000000000000000000006001600160a01b03168214806127bc575b806127af575b61279e5760008281528060205260408120548281106127845791604082827fddf252ad1be2c89b69c2b068fc378daa952ba7f163c4a11628f55a4df523b3ef958760209652828652038282205586815280845220818154019055604051908152a3565b916064928463391434e360e21b8452600452602452604452fd5b6316df206560e01b60005260046000fd5b5060ff600d541615612721565b50600161271b565b63ec442f0560e01b600052600060045260246000fd5b634b637e8f60e11b600052600060045260246000fd5b307f00000000000000000000000000000000000000000000000000000000000000006001600160a01b031614806128e3575b1561284b577f000000000000000000000000000000000000000000000000000000000000000090565b60405160208101907f8b73c3c69bb8fe3d512ecc4cf759cc79239f7b179b0ffacaa9a75d522b39400f82527f000000000000000000000000000000000000000000000000000000000000000060408201527f000000000000000000000000000000000000000000000000000000000000000060608201524660808201523060a082015260a081526128dd60c082611d3b565b51902090565b507f00000000000000000000000000000000000000000000000000000000000000004614612822565b90816020910312611bb957516001600160a01b0381168103611bb95790565b604051638da5cb5b60e01b81526020816004817f00000000000000000000000000000000000000000000000000000000000000006001600160a01b03165afa9081156126bd5760009161297c575090565b611dae915060203d60201161299e575b6129968183611d3b565b81019061290c565b503d61298c565b600d549060009160ff811661072357600a54610e108101809111612cf8574210612ce95742600a5560ff1916600117600d557f0000000000000000000000000000000000000000000000000000000000000000612a028130613492565b604051636e6b4d7960e11b8152906020826004817f00000000000000000000000000000000000000000000000000000000000000006001600160a01b03165afa918215610747578492612cc4575b5080612a60612a96928430613364565b600b5460405163095ea7b360e01b81526001600160a01b0385166004820152602481019190915291602090839081906044820190565b0381887f00000000000000000000000000000000000000000000000000000000000000006001600160a01b03165af1801561070957612c8a575b600b54604051634d5f347760e01b81526001600160a01b037f000000000000000000000000000000000000000000000000000000000000000081166004830152306024830152604482019390935260648101919091529260809250839160849183918891165af180156105015783849185938691612c41575b50857f00000000000000000000000000000000000000000000000000000000000000006001600160a01b0316803b15610e08578190602460405180948193631b76644960e31b83523060048401525af18015612c3657966124409392917f66e45f56ba7de695fa8cdac194a133e74234cae0e5f6c77c5dd10b6b279cb16e9798612c26575b50507fa5ac72dccacf16dccb06c647fa5f4903727524ed8872ffc489281b3ae005f5b6612418612bfc612072565b604080519485526020850188905284018590526060840152426080840152309290819060a0820190565b81612c3091611d3b565b38612bce565b6040513d89823e3d90fd5b93505050506080813d608011612c82575b81612c5f60809383611d3b565b810103126104f55780516020820151604083015160609093015190919038612b49565b3d9150612c52565b6020823d602011612cbc575b81612ca360209383611d3b565b8101031261097657612cb6608092611d80565b50612ad0565b3d9150612c96565b612a96919250612ce29060203d60201161299e576129968183611d3b565b9190612a50565b63ef4bf1cb60e01b8352600483fd5b634e487b7160e01b84526011600452602484fd5b7f00000000000000000000000000000000000000000000000000000000000000006001600160a01b0316939291843b15611bb957604051631260e74560e01b81523060048201526001600160a01b0383166024820152604481018290526001606482015260009590868160848183865af18015612c3657613350575b50803b1561333757604051631c620cb960e11b815230600482015286908181602481865afa8015610dfd5761333b575b5050803b156133375760405163448658fb60e11b81523060048201526001600160a01b03841660248201526044810183905286908181606481865afa8015610dfd57613322575b506080604051612e0e81611d1f565b828152826020820152826040820152826060820152015260405163562528f760e01b815260a081600481600180851b037f0000000000000000000000000000000000000000000000000000000000000000165afa908115612c365787916132b5575b5060ff600d54166132a6576080015182106132975760408051635f7567ff60e01b81523060048201526001600160a01b0385166024820152604481018490526001606482015290816084818a865af18015612c365787918891613276575b508161326d575b5061325e57612ee2612072565b92612eec83611f8e565b94851061324f57600c5490612f018683611d5d565b7f00000000000000000000000000000000000000000000000000000000000000001061324057612f2f612600565b5161271003612710811161322c5786612710612f4e612f6e9388611dbe565b0493612f66612f5d8689611db1565b95600b54611d5d565b600b55611d5d565b600c55612f79612072565b94833b15613228576040516309b3fba760e21b81523060048201526001600160a01b03831660248201819052604482018390526064820188905260848201879052600160a4830152948a91828160c48183865af1908115610501578391613213575b5050803b15610e0857604051633ab1d58360e21b815230600482015260248101899052604481019390935281908390606490829084905af19182156132065788926131e9575b505061302c91613492565b806130ea575b50600b54600c5460408051948552602085019690965294830184905260608301819052608083018590524260a084015294955060008051602061365283398151915293917fb176b33ad40225c8f67dc6ef0cba96c0c88f67afd36396e2198a3f48a44fc7a09060c090a26040805192835260208301859052820152426060820152608090a17f000000000000000000000000000000000000000000000000000000000000000011156130e057565b6130e86129a5565b565b60405163a9059cbb60e01b81526001600160a01b037f00000000000000000000000000000000000000000000000000000000000000001660048201526024810191909152602081806044810103818a7f00000000000000000000000000000000000000000000000000000000000000006001600160a01b03165af1968715610c3c578097613197575b505061318f600080516020613652833981519152949596612133565b859493613032565b9096506020873d6020116131e1575b816131b360209383611d3b565b81010312610276575061318f6131d9600080516020613652833981519152959697611d80565b969594613173565b3d91506131a6565b819250906131f691611d3b565b61320257858838613021565b8780fd5b50604051903d90823e3d90fd5b8161321d91611d3b565b610e08578138612fdb565b8880fd5b634e487b7160e01b89526011600452602489fd5b63c30436e960e01b8852600488fd5b63428637bb60e11b8752600487fd5b63c154fd2d60e01b8652600486fd5b90501538612ed5565b9050613291915060403d604011610702576106f48183611d3b565b38612ece565b63162908e360e11b8652600486fd5b63e6a0d45f60e01b8752600487fd5b905060a0813d60a01161331a575b816132d060a09383611d3b565b81010312613316576080604051916132e783611d1f565b805183526020810151602084015260408101516040840152606081015160608401520151608082015238612e70565b8680fd5b3d91506132c3565b8161332c91611d3b565b613337578538612dff565b8580fd5b8161334591611d3b565b613337578538612db8565b8661335d91979297611d3b565b9438612d88565b6001600160a01b03169081156133e1576001600160a01b03169182156133cb5760207f8c5be1e5ebec7d5bd14f71427d1e84f3dd0314c0f7b2291e5b200ac8c7c3b925918360005260018252604060002085600052825280604060002055604051908152a3565b634a1406b160e11b600052600060045260246000fd5b63e602df0560e01b600052600060045260246000fd5b60ff81146134415760ff811690601f821161343057604080519261341b8285611d3b565b6020808552840191601f190136833783525290565b632cd44ac360e21b60005260046000fd5b50604051611dae81613454816005611c4e565b0382611d3b565b60ff811461347f5760ff811690601f821161343057604080519261341b8285611d3b565b50604051611dae81613454816006611c4e565b6001600160a01b03169081156127c4577f00000000000000000000000000000000000000000000000000000000000000006001600160a01b03161580613538575b8061352b575b61279e576134e981600254611d5d565b6002557fddf252ad1be2c89b69c2b068fc378daa952ba7f163c4a11628f55a4df523b3ef602060009284845283825260408420818154019055604051908152a3565b5060ff600d5416156134d9565b5060016134d3565b91907f7fffffffffffffffffffffffffffffff5d576e7357a4501ddfe92f46681b20a084116135bd579160209360809260ff60009560405194855216868401526040830152606082015282805260015afa156126bd576000516001600160a01b038116156135b15790600090600090565b50600090600190600090565b50505060009160039190565b919091600481101561363b57806135df57509050565b6000600182036135fa5763f645eedf60e01b60005260046000fd5b5060028103613618578263fce698f760e01b60005260045260246000fd5b9091600360009214613628575050565b6335e2f38360e21b825260045260249150fd5b634e487b7160e01b600052602160045260246000fdfe50bb505bf12befaddbb5e878fe7ff845aef673dd789600f2dda0f7c22b0fe494a2646970667358221220f1a059043423ee14826ec1b337338c7a04f230890b91a87005759999f4b9f57264736f6c634300081b0033a2646970667358221220e57919b9b33c972e61e33217583d72db95d7b6b3d3f639870d40c95b9ec6b0fd64736f6c634300081b0033",
  "devdoc": {
    "author": "CarbonOpus",
    "errors": {
      "EnforcedPause()": [
        {
          "details": "The operation failed because the contract is paused."
        }
      ],
      "ExpectedPause()": [
        {
          "details": "The operation failed because the contract is not paused."
        }
      ],
      "OwnableInvalidOwner(address)": [
        {
          "details": "The owner is not a valid owner account. (eg. `address(0)`)"
        }
      ],
      "OwnableUnauthorizedAccount(address)": [
        {
          "details": "The caller account is not authorized to perform an operation."
        }
      ],
      "ReentrancyGuardReentrantCall()": [
        {
          "details": "Unauthorized reentrant call."
        }
      ]
    },
    "events": {
      "Paused(address)": {
        "details": "Emitted when the pause is triggered by `account`."
      },
      "Unpaused(address)": {
        "details": "Emitted when the pause is lifted by `account`."
      }
    },
    "kind": "dev",
    "methods": {
      "constructor": {
        "params": {
          "_configAddress": "The address of the CarbonCoinConfig contract.",
          "_paymasterAddress": "The address of the CarbonCoinPaymaster contract.",
          "_protectionAddress": "The address of the CarbonCoinProtection contract.",
          "_usdcAddress": "The address of the USDC token."
        }
      },
      "createToken(string,string,address,(uint256,uint256,uint256,uint256,uint256,uint256,uint256))": {
        "params": {
          "creatorAddress": "The address of the creator of the token.",
          "curveConfig": "The bonding curve configuration for the token.",
          "name": "The name of the token.",
          "symbol": "The symbol of the token."
        },
        "returns": {
          "_0": "The address of the newly created token."
        }
      },
      "markTokenGraduated(address)": {
        "params": {
          "tokenAddress": "The address of the token to mark as graduated."
        }
      },
      "owner()": {
        "details": "Returns the address of the current owner."
      },
      "paused()": {
        "details": "Returns true if the contract is paused, and false otherwise."
      },
      "renounceOwnership()": {
        "details": "Leaves the contract without owner. It will not be possible to call `onlyOwner` functions. Can only be called by the current owner. NOTE: Renouncing ownership will leave the contract without an owner, thereby disabling any functionality that is only available to the owner."
      },
      "setMaxTokensPerCreator(uint256)": {
        "params": {
          "_max": "The new maximum number of tokens."
        }
      },
      "transferOwnership(address)": {
        "details": "Transfers ownership of the contract to a new account (`newOwner`). Can only be called by the current owner."
      }
    },
    "title": "CarbonCoinLauncher",
    "version": 1
  },
  "userdoc": {
    "kind": "user",
    "methods": {
      "configAddress()": {
        "notice": "The address of the CarbonCoinConfig contract, which provides default configurations for new tokens."
      },
      "constructor": {
        "notice": "The constructor for the CarbonCoinLauncher contract."
      },
      "createToken(string,string,address,(uint256,uint256,uint256,uint256,uint256,uint256,uint256))": {
        "notice": "Creates a new CarbonCoin token."
      },
      "markTokenGraduated(address)": {
        "notice": "Marks a token as graduated. This can be called by the token contract itself or by the owner of the launcher contract."
      },
      "maxTokensPerCreator()": {
        "notice": "The maximum number of tokens that a single address can create."
      },
      "pause()": {
        "notice": "Pauses the contract, which prevents new tokens from being created."
      },
      "paymasterAddress()": {
        "notice": "The address of the CarbonCoinPaymaster contract."
      },
      "protectionAddress()": {
        "notice": "The address of the CarbonCoinProtection contract for initializing new tokens with protection features."
      },
      "setMaxTokensPerCreator(uint256)": {
        "notice": "Sets the maximum number of tokens that a single address can create."
      },
      "tokens(address)": {
        "notice": "A mapping from a token address to its TokenInfo struct."
      },
      "tokensCreatedByAddress(address)": {
        "notice": "A mapping from a creator's address to the number of tokens they have created."
      },
      "totalTokensCreated()": {
        "notice": "The total number of tokens that have been created."
      },
      "unpause()": {
        "notice": "Unpauses the contract, which allows new tokens to be created again."
      },
      "usdcAddress()": {
        "notice": "The address of the USDC token for payments."
      },
      "withdrawUsdcFees()": {
        "notice": "Withdraws the fees that have been collected from token creations."
      }
    },
    "notice": "This contract is responsible for creating and managing CarbonCoin tokens. It allows users to create their own tokens for a fee, and it keeps track of all the tokens created. The owner of the contract can manage the creation fee, the maximum number of tokens per creator, and can pause or unpause the contract. The contract also includes functions for withdrawing fees and transferring ownership.",
    "version": 1
  },
  "storageLayout": {
    "storage": [
      {
        "astId": 1387,
        "contract": "contracts/CarbonCoinLauncher.sol:CarbonCoinLauncher",
        "label": "_status",
        "offset": 0,
        "slot": "0",
        "type": "t_uint256"
      },
      {
        "astId": 1277,
        "contract": "contracts/CarbonCoinLauncher.sol:CarbonCoinLauncher",
        "label": "_paused",
        "offset": 0,
        "slot": "1",
        "type": "t_bool"
      },
      {
        "astId": 8,
        "contract": "contracts/CarbonCoinLauncher.sol:CarbonCoinLauncher",
        "label": "_owner",
        "offset": 1,
        "slot": "1",
        "type": "t_address"
      },
      {
        "astId": 9343,
        "contract": "contracts/CarbonCoinLauncher.sol:CarbonCoinLauncher",
        "label": "configAddress",
        "offset": 0,
        "slot": "2",
        "type": "t_address"
      },
      {
        "astId": 9346,
        "contract": "contracts/CarbonCoinLauncher.sol:CarbonCoinLauncher",
        "label": "usdcAddress",
        "offset": 0,
        "slot": "3",
        "type": "t_address"
      },
      {
        "astId": 9349,
        "contract": "contracts/CarbonCoinLauncher.sol:CarbonCoinLauncher",
        "label": "protectionAddress",
        "offset": 0,
        "slot": "4",
        "type": "t_address"
      },
      {
        "astId": 9352,
        "contract": "contracts/CarbonCoinLauncher.sol:CarbonCoinLauncher",
        "label": "paymasterAddress",
        "offset": 0,
        "slot": "5",
        "type": "t_address"
      },
      {
        "astId": 9355,
        "contract": "contracts/CarbonCoinLauncher.sol:CarbonCoinLauncher",
        "label": "_controller",
        "offset": 0,
        "slot": "6",
        "type": "t_address"
      },
      {
        "astId": 9359,
        "contract": "contracts/CarbonCoinLauncher.sol:CarbonCoinLauncher",
        "label": "maxTokensPerCreator",
        "offset": 0,
        "slot": "7",
        "type": "t_uint256"
      },
      {
        "astId": 9365,
        "contract": "contracts/CarbonCoinLauncher.sol:CarbonCoinLauncher",
        "label": "tokens",
        "offset": 0,
        "slot": "8",
        "type": "t_mapping(t_address,t_struct(TokenInfo)10494_storage)"
      },
      {
        "astId": 9370,
        "contract": "contracts/CarbonCoinLauncher.sol:CarbonCoinLauncher",
        "label": "tokensCreatedByAddress",
        "offset": 0,
        "slot": "9",
        "type": "t_mapping(t_address,t_uint256)"
      },
      {
        "astId": 9373,
        "contract": "contracts/CarbonCoinLauncher.sol:CarbonCoinLauncher",
        "label": "totalTokensCreated",
        "offset": 0,
        "slot": "10",
        "type": "t_uint256"
      }
    ],
    "types": {
      "t_address": {
        "encoding": "inplace",
        "label": "address",
        "numberOfBytes": "20"
      },
      "t_bool": {
        "encoding": "inplace",
        "label": "bool",
        "numberOfBytes": "1"
      },
      "t_mapping(t_address,t_struct(TokenInfo)10494_storage)": {
        "encoding": "mapping",
        "key": "t_address",
        "label": "mapping(address => struct ICarbonCoinLauncher.TokenInfo)",
        "numberOfBytes": "32",
        "value": "t_struct(TokenInfo)10494_storage"
      },
      "t_mapping(t_address,t_uint256)": {
        "encoding": "mapping",
        "key": "t_address",
        "label": "mapping(address => uint256)",
        "numberOfBytes": "32",
        "value": "t_uint256"
      },
      "t_string_storage": {
        "encoding": "bytes",
        "label": "string",
        "numberOfBytes": "32"
      },
      "t_struct(TokenInfo)10494_storage": {
        "encoding": "inplace",
        "label": "struct ICarbonCoinLauncher.TokenInfo",
        "members": [
          {
            "astId": 10483,
            "contract": "contracts/CarbonCoinLauncher.sol:CarbonCoinLauncher",
            "label": "tokenAddress",
            "offset": 0,
            "slot": "0",
            "type": "t_address"
          },
          {
            "astId": 10485,
            "contract": "contracts/CarbonCoinLauncher.sol:CarbonCoinLauncher",
            "label": "creator",
            "offset": 0,
            "slot": "1",
            "type": "t_address"
          },
          {
            "astId": 10487,
            "contract": "contracts/CarbonCoinLauncher.sol:CarbonCoinLauncher",
            "label": "createdAt",
            "offset": 0,
            "slot": "2",
            "type": "t_uint256"
          },
          {
            "astId": 10489,
            "contract": "contracts/CarbonCoinLauncher.sol:CarbonCoinLauncher",
            "label": "graduated",
            "offset": 0,
            "slot": "3",
            "type": "t_bool"
          },
          {
            "astId": 10491,
            "contract": "contracts/CarbonCoinLauncher.sol:CarbonCoinLauncher",
            "label": "name",
            "offset": 0,
            "slot": "4",
            "type": "t_string_storage"
          },
          {
            "astId": 10493,
            "contract": "contracts/CarbonCoinLauncher.sol:CarbonCoinLauncher",
            "label": "symbol",
            "offset": 0,
            "slot": "5",
            "type": "t_string_storage"
          }
        ],
        "numberOfBytes": "192"
      },
      "t_uint256": {
        "encoding": "inplace",
        "label": "uint256",
        "numberOfBytes": "32"
      }
    }
  }
}