{
  "address": "0x39962fC8E3E59bdF0C104D8aa273B76f481c2686",
  "abi": [
    {
      "inputs": [
        {
          "internalType": "address",
          "name": "_configAddress",
          "type": "address"
        },
        {
          "internalType": "address",
          "name": "_uniswapRouter",
          "type": "address"
        }
      ],
      "stateMutability": "nonpayable",
      "type": "constructor"
    },
    {
      "inputs": [],
      "name": "InsufficientFee",
      "type": "error"
    },
    {
      "inputs": [],
      "name": "InvalidParameters",
      "type": "error"
    },
    {
      "inputs": [],
      "name": "TooManyTokens",
      "type": "error"
    },
    {
      "inputs": [],
      "name": "Unauthorized",
      "type": "error"
    },
    {
      "anonymous": false,
      "inputs": [
        {
          "indexed": false,
          "internalType": "uint256",
          "name": "oldFee",
          "type": "uint256"
        },
        {
          "indexed": false,
          "internalType": "uint256",
          "name": "newFee",
          "type": "uint256"
        },
        {
          "indexed": false,
          "internalType": "uint256",
          "name": "timestamp",
          "type": "uint256"
        }
      ],
      "name": "CreationFeeUpdated",
      "type": "event"
    },
    {
      "anonymous": false,
      "inputs": [
        {
          "indexed": true,
          "internalType": "address",
          "name": "to",
          "type": "address"
        },
        {
          "indexed": false,
          "internalType": "uint256",
          "name": "amount",
          "type": "uint256"
        },
        {
          "indexed": false,
          "internalType": "uint256",
          "name": "timestamp",
          "type": "uint256"
        }
      ],
      "name": "FeesWithdrawn",
      "type": "event"
    },
    {
      "anonymous": false,
      "inputs": [
        {
          "indexed": false,
          "internalType": "uint256",
          "name": "timestamp",
          "type": "uint256"
        }
      ],
      "name": "LauncherPaused",
      "type": "event"
    },
    {
      "anonymous": false,
      "inputs": [
        {
          "indexed": false,
          "internalType": "uint256",
          "name": "timestamp",
          "type": "uint256"
        }
      ],
      "name": "LauncherUnpaused",
      "type": "event"
    },
    {
      "anonymous": false,
      "inputs": [
        {
          "indexed": false,
          "internalType": "uint256",
          "name": "oldMax",
          "type": "uint256"
        },
        {
          "indexed": false,
          "internalType": "uint256",
          "name": "newMax",
          "type": "uint256"
        },
        {
          "indexed": false,
          "internalType": "uint256",
          "name": "timestamp",
          "type": "uint256"
        }
      ],
      "name": "MaxTokensPerCreatorUpdated",
      "type": "event"
    },
    {
      "anonymous": false,
      "inputs": [
        {
          "indexed": true,
          "internalType": "address",
          "name": "previousOwner",
          "type": "address"
        },
        {
          "indexed": true,
          "internalType": "address",
          "name": "newOwner",
          "type": "address"
        }
      ],
      "name": "OwnershipTransferred",
      "type": "event"
    },
    {
      "anonymous": false,
      "inputs": [
        {
          "indexed": false,
          "internalType": "address",
          "name": "account",
          "type": "address"
        }
      ],
      "name": "Paused",
      "type": "event"
    },
    {
      "anonymous": false,
      "inputs": [
        {
          "indexed": true,
          "internalType": "address",
          "name": "tokenAddress",
          "type": "address"
        },
        {
          "indexed": true,
          "internalType": "address",
          "name": "creator",
          "type": "address"
        },
        {
          "indexed": false,
          "internalType": "string",
          "name": "name",
          "type": "string"
        },
        {
          "indexed": false,
          "internalType": "string",
          "name": "symbol",
          "type": "string"
        },
        {
          "indexed": false,
          "internalType": "uint256",
          "name": "timestamp",
          "type": "uint256"
        },
        {
          "indexed": false,
          "internalType": "uint256",
          "name": "creationFee",
          "type": "uint256"
        }
      ],
      "name": "TokenCreated",
      "type": "event"
    },
    {
      "anonymous": false,
      "inputs": [
        {
          "indexed": true,
          "internalType": "address",
          "name": "tokenAddress",
          "type": "address"
        },
        {
          "indexed": true,
          "internalType": "address",
          "name": "dexPair",
          "type": "address"
        },
        {
          "indexed": false,
          "internalType": "uint256",
          "name": "timestamp",
          "type": "uint256"
        }
      ],
      "name": "TokenGraduated",
      "type": "event"
    },
    {
      "anonymous": false,
      "inputs": [
        {
          "indexed": false,
          "internalType": "address",
          "name": "account",
          "type": "address"
        }
      ],
      "name": "Unpaused",
      "type": "event"
    },
    {
      "inputs": [],
      "name": "configAddress",
      "outputs": [
        {
          "internalType": "address",
          "name": "",
          "type": "address"
        }
      ],
      "stateMutability": "view",
      "type": "function"
    },
    {
      "inputs": [
        {
          "internalType": "string",
          "name": "name",
          "type": "string"
        },
        {
          "internalType": "string",
          "name": "symbol",
          "type": "string"
        },
        {
          "components": [
            {
              "internalType": "uint256",
              "name": "virtualEth",
              "type": "uint256"
            },
            {
              "internalType": "uint256",
              "name": "virtualTokens",
              "type": "uint256"
            },
            {
              "internalType": "uint256",
              "name": "maxSupply",
              "type": "uint256"
            },
            {
              "internalType": "uint256",
              "name": "graduationThreshold",
              "type": "uint256"
            }
          ],
          "internalType": "struct ICarbonCoin.BondingCurveConfig",
          "name": "curveConfig",
          "type": "tuple"
        }
      ],
      "name": "createToken",
      "outputs": [
        {
          "internalType": "address",
          "name": "",
          "type": "address"
        }
      ],
      "stateMutability": "payable",
      "type": "function"
    },
    {
      "inputs": [],
      "name": "creationFee",
      "outputs": [
        {
          "internalType": "uint256",
          "name": "",
          "type": "uint256"
        }
      ],
      "stateMutability": "view",
      "type": "function"
    },
    {
      "inputs": [],
      "name": "getStats",
      "outputs": [
        {
          "internalType": "uint256",
          "name": "_totalTokensCreated",
          "type": "uint256"
        },
        {
          "internalType": "uint256",
          "name": "_totalFeesCollected",
          "type": "uint256"
        },
        {
          "internalType": "uint256",
          "name": "_creationFee",
          "type": "uint256"
        }
      ],
      "stateMutability": "view",
      "type": "function"
    },
    {
      "inputs": [
        {
          "internalType": "address",
          "name": "tokenAddress",
          "type": "address"
        }
      ],
      "name": "markTokenGraduated",
      "outputs": [],
      "stateMutability": "nonpayable",
      "type": "function"
    },
    {
      "inputs": [],
      "name": "maxTokensPerCreator",
      "outputs": [
        {
          "internalType": "uint256",
          "name": "",
          "type": "uint256"
        }
      ],
      "stateMutability": "view",
      "type": "function"
    },
    {
      "inputs": [],
      "name": "owner",
      "outputs": [
        {
          "internalType": "address",
          "name": "",
          "type": "address"
        }
      ],
      "stateMutability": "view",
      "type": "function"
    },
    {
      "inputs": [],
      "name": "pause",
      "outputs": [],
      "stateMutability": "nonpayable",
      "type": "function"
    },
    {
      "inputs": [],
      "name": "paused",
      "outputs": [
        {
          "internalType": "bool",
          "name": "",
          "type": "bool"
        }
      ],
      "stateMutability": "view",
      "type": "function"
    },
    {
      "inputs": [],
      "name": "renounceOwnership",
      "outputs": [],
      "stateMutability": "nonpayable",
      "type": "function"
    },
    {
      "inputs": [
        {
          "internalType": "uint256",
          "name": "_fee",
          "type": "uint256"
        }
      ],
      "name": "setCreationFee",
      "outputs": [],
      "stateMutability": "nonpayable",
      "type": "function"
    },
    {
      "inputs": [
        {
          "internalType": "uint256",
          "name": "_max",
          "type": "uint256"
        }
      ],
      "name": "setMaxTokensPerCreator",
      "outputs": [],
      "stateMutability": "nonpayable",
      "type": "function"
    },
    {
      "inputs": [
        {
          "internalType": "address",
          "name": "",
          "type": "address"
        }
      ],
      "name": "tokens",
      "outputs": [
        {
          "internalType": "address",
          "name": "tokenAddress",
          "type": "address"
        },
        {
          "internalType": "address",
          "name": "creator",
          "type": "address"
        },
        {
          "internalType": "uint256",
          "name": "createdAt",
          "type": "uint256"
        },
        {
          "internalType": "bool",
          "name": "graduated",
          "type": "bool"
        },
        {
          "internalType": "string",
          "name": "name",
          "type": "string"
        },
        {
          "internalType": "string",
          "name": "symbol",
          "type": "string"
        }
      ],
      "stateMutability": "view",
      "type": "function"
    },
    {
      "inputs": [
        {
          "internalType": "address",
          "name": "",
          "type": "address"
        }
      ],
      "name": "tokensCreatedByAddress",
      "outputs": [
        {
          "internalType": "uint256",
          "name": "",
          "type": "uint256"
        }
      ],
      "stateMutability": "view",
      "type": "function"
    },
    {
      "inputs": [],
      "name": "totalFeesCollected",
      "outputs": [
        {
          "internalType": "uint256",
          "name": "",
          "type": "uint256"
        }
      ],
      "stateMutability": "view",
      "type": "function"
    },
    {
      "inputs": [],
      "name": "totalTokensCreated",
      "outputs": [
        {
          "internalType": "uint256",
          "name": "",
          "type": "uint256"
        }
      ],
      "stateMutability": "view",
      "type": "function"
    },
    {
      "inputs": [
        {
          "internalType": "address",
          "name": "newOwner",
          "type": "address"
        }
      ],
      "name": "transferOwnership",
      "outputs": [],
      "stateMutability": "nonpayable",
      "type": "function"
    },
    {
      "inputs": [],
      "name": "uniswapRouter",
      "outputs": [
        {
          "internalType": "address",
          "name": "",
          "type": "address"
        }
      ],
      "stateMutability": "view",
      "type": "function"
    },
    {
      "inputs": [],
      "name": "unpause",
      "outputs": [],
      "stateMutability": "nonpayable",
      "type": "function"
    },
    {
      "inputs": [],
      "name": "withdraw",
      "outputs": [],
      "stateMutability": "nonpayable",
      "type": "function"
    }
  ],
  "transactionHash": "0xa67b4d2afea4db10da10387a7e69f44aa6c22d680222c17b29679ea72f8e4361",
  "args": [
    "0x12F64E0410Fb551932b4a9CD7079E01B51727BAc",
    "0xb98c15a0dC1e271132e341250703c7e94c059e8D"
  ],
  "numDeployments": 1,
  "solcInputHash": "97ce927e5414bcdfba66ed74fe93f8f4",
  "bytecode": "0x60a03461012e57601f6159d538819003918201601f19168301916001600160401b0383118484101761013357808492604094855283398101031261012e57610052602061004b83610149565b9201610149565b6001600081815581546001600160a81b0319811633600881811b610100600160a81b03169290921790945560405195939291901c6001600160a01b0316907f8be0079c531659141344cd1fd0a4f28419497f9722a3daafe3b4186f6b6457e09080a3655af3107a400060035560016004556001600160a01b03168015801561011d575b61010c57600280546001600160a01b031916919091179055608052615877908161015e823960805181818161070001526108ed0152f35b630e52390960e41b60005260046000fd5b506001600160a01b038216156100d5565b600080fd5b634e487b7160e01b600052604160045260246000fd5b51906001600160a01b038216820361012e5756fe6080604052600436101561001257600080fd5b60003560e01c80633ccfd60b14610eff5780633f4ba83a14610e415780633f4e8b2314610e035780635c975abb14610de05780635e26fbc3146107ae57806360c6d8ae14610790578063715018a61461072f578063735de9f7146106ea5780638456cb59146106675780638da5cb5b1461063a578063abb2b6821461061c578063b7d8622514610571578063c59d48471461053f578063c5d3226e14610486578063d6c318711461045d578063dbb32248146102ca578063dce0b4e4146102ac578063e4860339146101f8578063f2fde38b1461011b5763fec7a978146100f857600080fd5b34610116576000366003190112610116576020600454604051908152f35b600080fd5b34610116576020366003190112610116576004356001600160a01b0381169081810361011657610149611199565b81156101a45760018054610100600160a81b03198116600893841b610100600160a81b031617909155901c6001600160a01b03167f8be0079c531659141344cd1fd0a4f28419497f9722a3daafe3b4186f6b6457e0600080a3005b60405162461bcd60e51b815260206004820152602660248201527f4f776e61626c653a206e6577206f776e657220697320746865207a65726f206160448201526564647265737360d01b6064820152608490fd5b34610116576020366003190112610116576004356001600160a01b03811690819003610116576000526005602052604060002060018060a01b038154166102a860018060a01b036001840154169261029a60028201549160ff60038201541661026f600561026860048501611075565b9301611075565b936040519788978852602088015260408701521515606086015260c0608086015260c0850190611119565b9083820360a0850152611119565b0390f35b34610116576000366003190112610116576020600354604051908152f35b34610116576020366003190112610116576004356001600160a01b03811690819003610116578033148015610443575b156103ef576000818152600560205260409020546001600160a01b031661031d57005b8060005260056020526003604060002001600160ff1982541617905560405163c816841b60e01b8152602081600481855afa9081156103e35760009161039a575b506040514281526001600160a01b0390911691907f70b5b5b20b694c936694a8281642d8b82f708ee091bbc31c6223383d5724cb4190602090a3005b6020813d6020116103db575b816103b360209383610fb6565b810103126103d75751906001600160a01b03821682036103d457508261035e565b80fd5b5080fd5b3d91506103a6565b6040513d6000823e3d90fd5b60405162461bcd60e51b815260206004820152602660248201527f4f6e6c7920746f6b656e206f72206f776e65722063616e206d61726b20677261604482015265191d585d195960d21b6064820152608490fd5b506001543360089190911c6001600160a01b0316146102fa565b34610116576000366003190112610116576002546040516001600160a01b039091168152602090f35b34610116576020366003190112610116576004356104a2611199565b80151580610534575b15610501577fba8d909889a0b0bcc117604ea9c9cf78cd8fa7f972b70cc68ef434a5b49c85c09060045490806004556104fc6040519283924291846040919493926060820195825260208201520152565b0390a1005b60405162461bcd60e51b815260206004820152600b60248201526a092dcecc2d8d2c840dac2f60ab1b6044820152606490fd5b5060648111156104ab565b346101165760003660031901126101165760085460075460035460408051938452602084019290925290820152606090f35b346101165760203660031901126101165760043561058d611199565b67016345785d8a000081116105e8577f872344107cff187ede7dfb71aef21f65ec8f042951811dfb8918300d789d0ce89060035490806003556104fc6040519283924291846040919493926060820195825260208201520152565b60405162461bcd60e51b815260206004820152600c60248201526b08ccaca40e8dede40d0d2ced60a31b6044820152606490fd5b34610116576000366003190112610116576020600854604051908152f35b346101165760003660031901126101165760015460405160089190911c6001600160a01b03168152602090f35b3461011657600036600319011261011657610680611199565b6106886111f4565b600160ff19815416176001557f62e78cea01bee320cd4e420270b5ea74000d11b0c9f74754ebdbfc544b05a2586020604051338152a17f1ef06086ebdde1dfe101afc819937ecafceba8abbcb1fe410bafb629f674d7726020604051428152a1005b34610116576000366003190112610116576040517f00000000000000000000000000000000000000000000000000000000000000006001600160a01b03168152602090f35b3461011657600036600319011261011657610748611199565b60018054610100600160a81b0319811690915560009060081c6001600160a01b03167f8be0079c531659141344cd1fd0a4f28419497f9722a3daafe3b4186f6b6457e08280a3005b34610116576000366003190112610116576020600754604051908152f35b60c03660031901126101165760043567ffffffffffffffff8111610116576107da903690600401610ff4565b60243567ffffffffffffffff8111610116576107fa903690600401610ff4565b6080366043190112610116576040516080810181811067ffffffffffffffff821117610c8c57604052604435815260208101906064358252604081016084358152606082019260a4358452600260005414610d9b57600260005561085c6111f4565b6003543410610d8b578551158015610d82575b610d71573360005260066020526040600020546004541115610d605760018060a01b03600254169160405194614609918287019387851067ffffffffffffffff861117610c8c57879661010094611239893961012086526108e56108d761012088018d611119565b87810360208901528b611119565b3360408801527f00000000000000000000000000000000000000000000000000000000000000006001600160a01b0316606088015260808701979097525160a08601525160c08501525160e08401525191015203906000f080156103e35760018060a01b03169160405160c0810181811067ffffffffffffffff821117610c8c576040908152848252336020808401918252428484019081526000606086018181526080870188815260a088018a81528b8452600590955295909120955186546001600160a01b039182166001600160a01b0319918216178855945160018801805491909216951694909417909355516002850155905160038401805460ff191691151560ff1691909117905590518051919291600483019167ffffffffffffffff8211610c8c57610a17835461103b565b601f8111610d18575b50602090601f8311600114610cad5760059493929160009183610ca2575b50508160011b916000199060031b1c19161790555b01905180519067ffffffffffffffff8211610c8c578190610a74845461103b565b601f8111610c39575b50602090601f8311600114610bd457600092610bc9575b50508160011b916000199060031b1c19161790555b3360005260066020526040600020610ac1815461118a565b9055600754348101809111610bb357600755610ade60085461118a565b600855827fc12630d761ddbf18b9530f31d91e67493535a2b635711bcff59fded8bf381cce610b2d60035494610b1f60405195608087526080870190611119565b908582036020870152611119565b924260408201528460608201528033940390a3803411610b58575b6020826001600055604051908152f35b3403348111610bb357600080808093335af1610b7261115a565b5015610b7e5781610b48565b60405162461bcd60e51b815260206004820152600d60248201526c1499599d5b990819985a5b1959609a1b6044820152606490fd5b634e487b7160e01b600052601160045260246000fd5b015190508680610a94565b60008581528281209350601f198516905b818110610c215750908460019594939210610c08575b505050811b019055610aa9565b015160001960f88460031b161c19169055868080610bfb565b92936020600181928786015181550195019301610be5565b909150836000526020600020601f840160051c81019160208510610c82575b90601f859493920160051c01905b818110610c735750610a7d565b60008155849350600101610c66565b9091508190610c58565b634e487b7160e01b600052604160045260246000fd5b015190508980610a3e565b90601f1983169184600052816000209260005b818110610d00575091600193918560059897969410610ce7575b505050811b019055610a53565b015160001960f88460031b161c19169055898080610cda565b92936020600181928786015181550195019301610cc0565b836000526020600020601f840160051c81019160208510610d56575b601f0160051c01905b818110610d4a5750610a20565b60008155600101610d3d565b9091508190610d34565b633a4733d960e11b60005260046000fd5b630e52390960e41b60005260046000fd5b5084511561086f565b62976f7560e21b60005260046000fd5b60405162461bcd60e51b815260206004820152601f60248201527f5265656e7472616e637947756172643a207265656e7472616e742063616c6c006044820152606490fd5b3461011657600036600319011261011657602060ff600154166040519015158152f35b34610116576020366003190112610116576004356001600160a01b038116908190036101165760005260066020526020604060002054604051908152f35b3461011657600036600319011261011657610e5a611199565b60015460ff811615610ec35760ff19166001557f5db9ee0a495bf2e6ff9c91a7834c1ba4fdd244a5e8aa4e537bd38aeae4b073aa6020604051338152a17fe7fa21f5820cb7e78ee4403b3bf11ab50ddf891fb7ffa4ea15e2c646466862ac6020604051428152a1005b60405162461bcd60e51b815260206004820152601460248201527314185d5cd8589b194e881b9bdd081c185d5cd95960621b6044820152606490fd5b3461011657600036600319011261011657610f18611199565b4760008080808460018060a01b0360015460081c165af1610f3761115a565b5015610f7d577fdeb5099d7943aa2b4c1142e5d53d2f7636aa8f7bd130ec79816f151572bcdf45604060018060a01b0360015460081c16928151908152426020820152a2005b60405162461bcd60e51b815260206004820152601160248201527015da5d1a191c985dd85b0819985a5b1959607a1b6044820152606490fd5b90601f8019910116810190811067ffffffffffffffff821117610c8c57604052565b67ffffffffffffffff8111610c8c57601f01601f191660200190565b81601f820112156101165780359061100b82610fd8565b926110196040519485610fb6565b8284526020838301011161011657816000926020809301838601378301015290565b90600182811c9216801561106b575b602083101461105557565b634e487b7160e01b600052602260045260246000fd5b91607f169161104a565b90604051918260008254926110898461103b565b80845293600181169081156110f757506001146110b0575b506110ae92500383610fb6565b565b90506000929192526020600020906000915b8183106110db5750509060206110ae92820101386110a1565b60209193508060019154838589010152019101909184926110c2565b9050602092506110ae94915060ff191682840152151560051b820101386110a1565b919082519283825260005b848110611145575050826000602080949584010152601f8019910116010190565b80602080928401015182828601015201611124565b3d15611185573d9061116b82610fd8565b916111796040519384610fb6565b82523d6000602084013e565b606090565b6000198114610bb35760010190565b60015460081c6001600160a01b031633036111b057565b606460405162461bcd60e51b815260206004820152602060248201527f4f776e61626c653a2063616c6c6572206973206e6f7420746865206f776e65726044820152fd5b60ff6001541661120057565b60405162461bcd60e51b815260206004820152601060248201526f14185d5cd8589b194e881c185d5cd95960821b6044820152606490fdfe6101a0604052346106c5576146098038038061001a816106ca565b92833981019080820361012081126106c55781516001600160401b0381116106c55783610048918401610712565b602083015190936001600160401b0382116106c557610068918401610712565b9261007560408401610762565b9361008260608501610762565b946080610090818701610762565b94609f1901126106c55760405194608086016001600160401b038111878210176105cd5760405260a0810151865260c08101516020870190815261010060e0830151926040890193845201519660608101978852855160018060401b0381116105cd57600354600181811c911680156106bb575b60208210146105ad57601f8111610656575b50806020601f82116001146105ee576000916105e3575b508160011b916000199060031b1c1916176003555b84516001600160401b0381116105cd57600454600181811c911680156105c3575b60208210146105ad57601f8111610548575b50806020601f82116001146104e2576000916104d7575b508160011b916000199060031b1c1916176004555b60016005556006805460ff191690556001600160a01b0384169889156104a0576001600160a01b0316801561046a576001600160a01b03881615610434577f7dcf0b62b3d9433b7d8be4fb0f593ac11dbc31884d09ef028740aaeaa8d867fd976102849561012052336101605261014052610180524261010052516080525160a05251948560c05251918260e0528660005260126020526040600020600160ff198254161790553360005260126020526040600020600160ff198254161790556102766040519460a0865260a0860190610776565b908482036020860152610776565b93604083015260608201524260808201528030930390a3604051613e6d908161079c823960805181818161118501528181611acf01528181611de201528181611f1d015281816127d701526128db015260a05181818161050e01528181611af401528181611e1b01528181611f56015281816128030152612914015260c05181818161176401528181612ed50152613799015260e05181818161034701528181610cfb015261391a0152610100518181816103ee015281816110cb01526122c60152610120518181816105ee015281816106cb015281816108d501528181610d3e01528181610ded01528181610ebb01528181610fe80152818161125d0152818161141e0152818161159801528181611bef015261304c01526101405181818161108401528181612af401528181612d1e01528181612ddf015281816132dc01526136d401526101605181818161054d0152818161064b0152818161077801528181610cbc01528181610da201528181610f35015281816112160152818161132e015281816114b5015281816119f501528181613531015261395b0152610180518181816111040152612f050152f35b60405162461bcd60e51b815260206004820152600e60248201526d496e76616c696420636f6e66696760901b6044820152606490fd5b60405162461bcd60e51b815260206004820152600e60248201526d24b73b30b634b2103937baba32b960911b6044820152606490fd5b60405162461bcd60e51b815260206004820152600f60248201526e24b73b30b634b21031b932b0ba37b960891b6044820152606490fd5b90508601513861018c565b600460009081528181209250601f198416905b81811061053057509083600194939210610517575b5050811b016004556101a1565b88015160001960f88460031b161c19169055388061050a565b9192602060018192868d0151815501940192016104f5565b60046000527f8a35acfbc15ff81a39ae7d344fd709f28e8600b4aa8c65c6b64bfe7fe36bd19b601f830160051c810191602084106105a3575b601f0160051c01905b8181106105975750610175565b6000815560010161058a565b9091508190610581565b634e487b7160e01b600052602260045260246000fd5b90607f1690610163565b634e487b7160e01b600052604160045260246000fd5b90508701513861012d565b600360009081528181209250601f198416905b8a82821061063e5750509083600194939210610625575b5050811b01600355610142565b89015160001960f88460031b161c191690553880610618565b60018495602093958493015181550194019201610601565b60036000527fc2575a0e9e593c00f959f8c92f12db2869c3395a3b0502d05e2516446f71f85b601f830160051c810191602084106106b1575b601f0160051c01905b8181106106a55750610116565b60008155600101610698565b909150819061068f565b90607f1690610104565b600080fd5b6040519190601f01601f191682016001600160401b038111838210176105cd57604052565b60005b8381106107025750506000910152565b81810151838201526020016106f2565b81601f820112156106c55780516001600160401b0381116105cd57610740601f8201601f19166020016106ca565b92818452602082840101116106c55761075f91602080850191016106ef565b90565b51906001600160a01b03821682036106c557565b9060209161078f815180928185528580860191016106ef565b601f01601f191601019056fe6080806040526004361015610055575b50361561001b57600080fd5b60405162461bcd60e51b81526020600482015260126024820152712ab9b290313abc941490333ab731ba34b7b760711b6044820152606490fd5b60003560e01c90816302d05d3f14611bdc5750806306fdde0314611b1d5780630902f1ac14611aa7578063090c8ba314611a84578063095ea7b314611a5e578063134daa8614611a2457806316eebd1e146119df57806318160ddd146119c15780631bc84124146118d95780631cc1a74a146118bb57806323b872dd146117fd57806324f09b79146117df57806329d03da4146117c15780632ceb2faa146117a3578063313ce5671461178757806332cb6b0c1461174c57806339509351146116fa5780633c6b3b51146116795780633d2fdbea146115e15780633f4ba83a146114a15780633fecc2e214611467578063455a4396146113055780634fa1f104146112e75780635a84b03c146112c95780635c975abb146112a657806361b242c5146111a85780636700c0c31461116d57806370a0823114611133578063735de9f7146110ee578063790ca413146110b357806379502c551461106e5780637ba996d5146110315780638456cb5914610f21578063878e1d4514610f045780638ab1d68114610d8757806391471e6c14610ca8578063948ce1d314610c8a57806395d89b4114610b7a5780639b19251a14610b3b578063a457c2d714610a94578063a6f1b7af14610a31578063a9059cbb14610a00578063a9952b8d146109a4578063c816841b1461097b578063d79875eb1461094c578063d96a094a1461091e578063db2e21bc14610765578063dd62ed3e14610714578063de5f8d9314610637578063e43252d714610531578063e90ceb9f146104f6578063eb8c8d4114610473578063eb91d37e14610458578063f6e95d0e146103d1578063fa6c7584146103b3578063fad504ff14610390578063fb5875d71461036a578063fcfc0c091461032f5763fe575a87146102eb573861000f565b3461032a57602036600319011261032a576001600160a01b0361030c611c5f565b166000526011602052602060ff604060002054166040519015158152f35b600080fd5b3461032a57600036600319011261032a5760206040517f00000000000000000000000000000000000000000000000000000000000000008152f35b3461032a57602036600319011261032a5760206103886004356128c2565b604051908152f35b3461032a57602036600319011261032a5760206103886103ae611c5f565b612851565b3461032a57600036600319011261032a576020600854604051908152f35b3461032a57600036600319011261032a5760c06103ec613692565b7f0000000000000000000000000000000000000000000000000000000000000000906104188242611d8b565b90610424815184611d68565b42106020820151906040606084015193015193604051958652602086015260408501526060840152608083015260a0820152f35b3461032a57600036600319011261032a5760206103886127cf565b3461032a57600036600319011261032a57608061048e6132be565b600b5480151591826104de575b82156104d6576104b260606104b992015183611d68565b4290611d8b565b600c54916040519315158452602084015260408301526060820152f35b5060006104b9565b91506104ee606083015182611d68565b42109161049b565b3461032a57600036600319011261032a5760206040517f00000000000000000000000000000000000000000000000000000000000000008152f35b3461032a57602036600319011261032a5761054a611c5f565b337f00000000000000000000000000000000000000000000000000000000000000006001600160a01b031614158061061d575b806105ea575b6105da5760018060a01b03168060005260126020526040600020600160ff198254161790557ff754ea90eae40356b027ad5939504598d0b5590361a4609ecc4d0c5cbefd88866040805160018152426020820152a2005b6282b42960e81b60005260046000fd5b50337f00000000000000000000000000000000000000000000000000000000000000006001600160a01b03161415610583565b506001600160a01b0361062e612dca565b1633141561057d565b3461032a57600036600319011261032a57337f00000000000000000000000000000000000000000000000000000000000000006001600160a01b03161415806106fa575b806106c7575b6105da576000600b556000600c5542600d5561069b612764565b7fcdce3dd4437cfe68002ed06c2f62be3eae06c268cb56d71b3c98825f4f9d7d346020604051428152a1005b50337f00000000000000000000000000000000000000000000000000000000000000006001600160a01b03161415610681565b506001600160a01b0361070b612dca565b1633141561067b565b3461032a57604036600319011261032a5761072d611c5f565b610735611c75565b6001600160a01b039182166000908152600160209081526040808320949093168252928352819020549051908152f35b3461032a57600036600319011261032a577f00000000000000000000000000000000000000000000000000000000000000006001600160a01b03163381141580610904575b806108d1575b6105da5760ff600954166108c05760ff60065416156108845747600080808084865af16107db612734565b501561084b5760407fbb757047c2b5f3974fe26b7c10f732e7bce710b0952a71082702781e62ae0595918151908152426020820152a27fff8ad2bb089a5dcfebe1e7c8ac0ceabd295685e4c3fb1f8c6e7d1ac7fbbaf59460606040516000815260006020820152426040820152a1005b60405162461bcd60e51b815260206004820152601160248201527015da5d1a191c985dd85b0819985a5b1959607a1b6044820152606490fd5b60405162461bcd60e51b8152602060048201526014602482015273135d5cdd081899481c185d5cd95908199a5c9cdd60621b6044820152606490fd5b63e6a0d45f60e01b60005260046000fd5b50337f00000000000000000000000000000000000000000000000000000000000000006001600160a01b031614156107b0565b506001600160a01b03610915612dca565b163314156107aa565b602036600319011261032a57610932613224565b61093a61327a565b61094560043561229a565b6001600555005b3461032a57604036600319011261032a57610965613224565b61096d61327a565b610945602435600435611f8c565b3461032a57600036600319011261032a576014546040516001600160a01b039091168152602090f35b3461032a57600036600319011261032a5760a06109bf612ad6565b60408101519060608101519060208151910151906127106109e284600854611d98565b04926040519485526020850152604084015260608301526080820152f35b3461032a57604036600319011261032a57610a26610a1c611c5f565b6024359033612b6f565b602060405160018152f35b3461032a57602036600319011261032a576001600160a01b03610a52611c5f565b1660005260106020526080604060002060ff815491600260018201549101549060405193845260208401528181161515604084015260081c1615156060820152f35b3461032a57604036600319011261032a57610aad611c5f565b60243590336000526001602052604060002060018060a01b03821660005260205260406000205491808310610ae857610a269203903361296d565b60405162461bcd60e51b815260206004820152602560248201527f45524332303a2064656372656173656420616c6c6f77616e63652062656c6f77604482015264207a65726f60d81b6064820152608490fd5b3461032a57602036600319011261032a576001600160a01b03610b5c611c5f565b166000526012602052602060ff604060002054166040519015158152f35b3461032a57600036600319011261032a5760405160006004548060011c90600181168015610c80575b602083108114610c6c57828552908115610c485750600114610be8575b610be483610bd081850382611cf5565b604051918291602083526020830190611c1e565b0390f35b91905060046000527f8a35acfbc15ff81a39ae7d344fd709f28e8600b4aa8c65c6b64bfe7fe36bd19b916000905b808210610c2e57509091508101602001610bd0610bc0565b919260018160209254838588010152019101909291610c16565b60ff191660208086019190915291151560051b84019091019150610bd09050610bc0565b634e487b7160e01b84526022600452602484fd5b91607f1691610ba3565b3461032a57600036600319011261032a576020600754604051908152f35b3461032a57600036600319011261032a57337f00000000000000000000000000000000000000000000000000000000000000006001600160a01b0316141580610d6d575b80610d3a575b6105da576007547f000000000000000000000000000000000000000000000000000000000000000011610d2957610d27612e9e565b005b63bb55fd2760e01b60005260046000fd5b50337f00000000000000000000000000000000000000000000000000000000000000006001600160a01b03161415610cf2565b506001600160a01b03610d7e612dca565b16331415610cec565b3461032a57602036600319011261032a57610da0611c5f565b7f00000000000000000000000000000000000000000000000000000000000000006001600160a01b0316903382141580610eea575b80610eb7575b6105da576001600160a01b03908116917f00000000000000000000000000000000000000000000000000000000000000009091168214159081610eac575b5015610e6757806000526012602052604060002060ff1981541690557ff754ea90eae40356b027ad5939504598d0b5590361a4609ecc4d0c5cbefd88866040805160008152426020820152a2005b60405162461bcd60e51b815260206004820152601c60248201527f43616e6e6f742072656d6f766520636f726520616464726573736573000000006044820152606490fd5b905081141582610e19565b50337f00000000000000000000000000000000000000000000000000000000000000006001600160a01b03161415610ddb565b506001600160a01b03610efb612dca565b16331415610dd5565b3461032a57600036600319011261032a576020604051610e108152f35b3461032a57600036600319011261032a57337f00000000000000000000000000000000000000000000000000000000000000006001600160a01b0316141580611017575b80610fe4575b6105da5760ff600954166108c057610f8161327a565b600160ff1960065416176006557f62e78cea01bee320cd4e420270b5ea74000d11b0c9f74754ebdbfc544b05a2586020604051338152a17f2373bf0304c12814b4e5027ba93d4676ec582cac29b464df6e01b17a44705ee96020604051428152a1005b50337f00000000000000000000000000000000000000000000000000000000000000006001600160a01b03161415610f6b565b506001600160a01b03611028612dca565b16331415610f65565b3461032a57602036600319011261032a57600435600a5481101561032a5761105a604091611d33565b506001815491015482519182526020820152f35b3461032a57600036600319011261032a576040517f00000000000000000000000000000000000000000000000000000000000000006001600160a01b03168152602090f35b3461032a57600036600319011261032a5760206040517f00000000000000000000000000000000000000000000000000000000000000008152f35b3461032a57600036600319011261032a576040517f00000000000000000000000000000000000000000000000000000000000000006001600160a01b03168152602090f35b3461032a57602036600319011261032a576001600160a01b03611154611c5f565b1660005260006020526020604060002054604051908152f35b3461032a57600036600319011261032a5760206040517f00000000000000000000000000000000000000000000000000000000000000008152f35b3461032a57602036600319011261032a5760043567ffffffffffffffff811161032a573660238201121561032a5780600401356111e481611d17565b916111f26040519384611cf5565b818352366024838301011161032a57816000926024602093018386013783010152337f00000000000000000000000000000000000000000000000000000000000000006001600160a01b031614158061128c575b80611259575b6105da57610d2790612e44565b50337f00000000000000000000000000000000000000000000000000000000000000006001600160a01b0316141561124c565b506001600160a01b0361129d612dca565b16331415611246565b3461032a57600036600319011261032a57602060ff600654166040519015158152f35b3461032a57600036600319011261032a576020600d54604051908152f35b3461032a57602036600319011261032a576020610388600435611eeb565b3461032a57604036600319011261032a5761131e611c5f565b60243580151580820361032a57337f00000000000000000000000000000000000000000000000000000000000000006001600160a01b031614158061144d575b8061141a575b6105da577f142d5045ab1341f66fef679656ba2034a2ebee260be07a6327b8512075d2dd2460409360018060a01b03169384928360005260116020528160002060ff1981541660ff83161790558151908152426020820152a26113c357005b7f5e6b49f449b7afc4293b35d571157a6ed3b29bcde814145c744a0fbcacefd166608060405160408152601460408201527313585b9d585b1b1e48189b1858dadb1a5cdd195960621b6060820152426020820152a2005b50337f00000000000000000000000000000000000000000000000000000000000000006001600160a01b03161415611364565b506001600160a01b0361145e612dca565b1633141561135e565b3461032a57602036600319011261032a576001600160a01b03611488611c5f565b16600052600e6020526020604060002054604051908152f35b3461032a57600036600319011261032a57337f00000000000000000000000000000000000000000000000000000000000000006001600160a01b03161415806115c7575b80611594575b6105da5760065460ff8116156115585760ff19166006557f5db9ee0a495bf2e6ff9c91a7834c1ba4fdd244a5e8aa4e537bd38aeae4b073aa6020604051338152a17f21d78858c9357036e26ecdac6bd821a57e3a7a5cf66ef4d7ed37dc02eb36131e6020604051428152a1005b60405162461bcd60e51b815260206004820152601460248201527314185d5cd8589b194e881b9bdd081c185d5cd95960621b6044820152606490fd5b50337f00000000000000000000000000000000000000000000000000000000000000006001600160a01b031614156114eb565b506001600160a01b036115d8612dca565b163314156114e5565b3461032a57600036600319011261032a5733600052601060205260406000206001810154156116685760ff600261161e92015460081c1615611e9f565b336000526010602052600060026040822082815582600182015501556040514281527f5a85297113666653c262560c44def86c873465350a9470fba7bf4a935c74901160203392a2005b6303d82f8960e21b60005260046000fd5b3461032a57602036600319011261032a576060611694611c5f565b600061169e612ad6565b6001600160a01b039092168152600f602052604081205491826116d55750506001425b604051928352602083015215156040820152f35b60206116e391015183611d68565b428111801592506116f55750426116c1565b6116c1565b3461032a57604036600319011261032a57610a26611716611c5f565b336000526001602052604060002060018060a01b03821660005260205261174560406000206024359054611d68565b903361296d565b3461032a57600036600319011261032a5760206040517f00000000000000000000000000000000000000000000000000000000000000008152f35b3461032a57600036600319011261032a57602060405160128152f35b3461032a57600036600319011261032a576020601354604051908152f35b3461032a57602036600319011261032a576020610388600435611dcb565b3461032a57600036600319011261032a576020600c54604051908152f35b3461032a57606036600319011261032a57611816611c5f565b61181e611c75565b6001600160a01b038216600090815260016020818152604080842033855290915290912054926044359291840161185a575b610a269350612b6f565b8284106118765761187183610a269503338361296d565b611850565b60405162461bcd60e51b815260206004820152601d60248201527f45524332303a20696e73756666696369656e7420616c6c6f77616e63650000006044820152606490fd5b3461032a57600036600319011261032a576020600b54604051908152f35b3461032a57602036600319011261032a5760c06118f4611c5f565b6118fc612ad6565b9060018060a01b0316600052601060205260406000206040519061191f82611c8b565b805492838352600182015492602060028183019486865201549260ff6060604085019482871615158652019460081c16151584520193611960855182611d68565b91511515925115948594856119b6575b8661199c575b5050604051958652602086015260408501526060840152156080830152151560a0820152f35b6119ab92965051905190611d68565b421015938780611976565b805115159650611970565b3461032a57600036600319011261032a576020600254604051908152f35b3461032a57600036600319011261032a576040517f00000000000000000000000000000000000000000000000000000000000000006001600160a01b03168152602090f35b3461032a57602036600319011261032a576001600160a01b03611a45611c5f565b16600052600f6020526020604060002054604051908152f35b3461032a57604036600319011261032a57610a26611a7a611c5f565b602435903361296d565b3461032a57600036600319011261032a57602060ff600954166040519015158152f35b3461032a57600036600319011261032a576007546008546040805192835260208301919091527f0000000000000000000000000000000000000000000000000000000000000000908201527f00000000000000000000000000000000000000000000000000000000000000006060820152608090f35b3461032a57600036600319011261032a5760405160006003548060011c90600181168015611bd2575b602083108114610c6c57828552908115610c485750600114611b7257610be483610bd081850382611cf5565b91905060036000527fc2575a0e9e593c00f959f8c92f12db2869c3395a3b0502d05e2516446f71f85b916000905b808210611bb857509091508101602001610bd0610bc0565b919260018160209254838588010152019101909291611ba0565b91607f1691611b46565b3461032a57600036600319011261032a577f00000000000000000000000000000000000000000000000000000000000000006001600160a01b03168152602090f35b919082519283825260005b848110611c4a575050826000602080949584010152601f8019910116010190565b80602080928401015182828601015201611c29565b600435906001600160a01b038216820361032a57565b602435906001600160a01b038216820361032a57565b6080810190811067ffffffffffffffff821117611ca757604052565b634e487b7160e01b600052604160045260246000fd5b6060810190811067ffffffffffffffff821117611ca757604052565b60a0810190811067ffffffffffffffff821117611ca757604052565b90601f8019910116810190811067ffffffffffffffff821117611ca757604052565b67ffffffffffffffff8111611ca757601f01601f191660200190565b600a54811015611d5257600a60005260206000209060011b0190600090565b634e487b7160e01b600052603260045260246000fd5b91908201809211611d7557565b634e487b7160e01b600052601160045260246000fd5b91908203918211611d7557565b81810292918115918404141715611d7557565b8115611db5570490565b634e487b7160e01b600052601260045260246000fd5b8015611e9957611e69611ddc612cee565b91611e647f0000000000000000000000000000000000000000000000000000000000000000611e6460075493611e5e611e158685611d68565b91611e587f000000000000000000000000000000000000000000000000000000000000000091611e5260085495611e4c8786611d8b565b90611d98565b94611d68565b90611d8b565b90611dab565b611d8b565b906127108202918083046127101490151715611d755751612710036127108111611d7557611e9691611dab565b90565b50600090565b15611ea657565b60405162461bcd60e51b815260206004820152601760248201527f496e74656e7420616c72656164792065786563757465640000000000000000006044820152606490fd5b8015611e9957611ef9612cee565b51612710036127108111611d7557611f1761271091611e9693611d98565b04611e647f0000000000000000000000000000000000000000000000000000000000000000611e5860075491611e5e611f508483611d68565b95611f877f000000000000000000000000000000000000000000000000000000000000000095611e5260085499611e4c8b8a611d8b565b611d68565b90611f956132be565b600b548061223e575b505060ff600954166108c057811561222d57336000526000602052816040600020541061222d57611fcd612ad6565b9033600052601260205260ff6040600020541615612200575b611fef836128c2565b9151821015806121e7575b61200a5761200892336133a6565b565b612012612ad6565b9233600052600f6020526040600020546121b2575b33600052601060205260406000209360018501805415612154575460209091015161205191611d68565b4210612143576002840180549460ff86166120fe5785612089846101009361208260ff6120e09b60081c1615611e9f565b5414613318565b61ff00191617905533600052600f60205242604060002055604051818152600060208201524260408201527ff645027d9dc4d64ac1796a51d321b0702e9a0d26364a12c5d7004de4921ad31260603392a2336133a6565b33600052601060205260006002604082208281558260018201550155565b60405162461bcd60e51b815260206004820152601b60248201527f496e74656e7420697320666f72206275792c206e6f742073656c6c00000000006044820152606490fd5b6301b57b7f60e71b60005260046000fd5b50602061216391015142611d68565b6040519182526000602083015260408201524260608201527fbebbacdf8904fd6336ecf768cb47262d6e3ccc8f0598377d44126c6d4f5c395460803392a263c154fd2d60e01b60005260046000fd5b33600052600f6020526121cf604060002054602086015190611d68565b421015612027576301130f0960e71b60005260046000fd5b5033600052601260205260ff6040600020541615611ffa565b612710612214600854606085015190611d98565b04831115611fe6576326f2a2bb60e21b60005260046000fd5b63162908e360e11b60005260046000fd5b606061224c92015190611d68565b4210156122645763ff0376e760e01b60005260046000fd5b6000600b557fcdce3dd4437cfe68002ed06c2f62be3eae06c268cb56d71b3c98825f4f9d7d346020604051428152a13880611f9e565b3233036126ef5733600052601160205260ff604060002054166126bc576122bf613692565b6122ea81517f0000000000000000000000000000000000000000000000000000000000000000611d68565b4210612656575b33600052601260205260ff60406000205416156125e7575b33600052600e602052426040600020556123216132be565b600b548061258b575b5050612334612ad6565b9033600052601260205260ff6040600020541615612543575b60ff600954166108c05760800151341061222d57513410158061252a575b61237a5761200890343361376e565b612382612ad6565b9033600052600f6020526040600020546124f5575b3360005260106020526040600020916001830180541561249757546020909101516123c191611d68565b4210612143576002820180549260ff84161561245257836123fa610100926123f260ff6120e09860081c1615611e9f565b543414613318565b61ff00191617905533600052600f60205242604060002055604051348152600160208201524260408201527ff645027d9dc4d64ac1796a51d321b0702e9a0d26364a12c5d7004de4921ad31260603392a2343361376e565b60405162461bcd60e51b815260206004820152601b60248201527f496e74656e7420697320666f722073656c6c2c206e6f742062757900000000006044820152606490fd5b6124a5602083015142611d68565b604051903482526001602083015260408201524260608201527fbebbacdf8904fd6336ecf768cb47262d6e3ccc8f0598377d44126c6d4f5c395460803392a263c154fd2d60e01b60005260046000fd5b33600052600f602052612512604060002054602084015190611d68565b421015612397576301130f0960e71b60005260046000fd5b5033600052601260205260ff604060002054161561236b565b604082015134111561234d5760405162461bcd60e51b815260206004820152601460248201527354726164652073697a6520746f6f206c6172676560601b6044820152606490fd5b606061259992015190611d68565b4210156125b15763ff0376e760e01b60005260046000fd5b6000600b557fcdce3dd4437cfe68002ed06c2f62be3eae06c268cb56d71b3c98825f4f9d7d346020604051428152a1388061232a565b33600052600e602052604060002054156123095733600052600e602052612618604060002054606083015190611d68565b4210156123095760405162461bcd60e51b815260206004820152600f60248201526e436f6f6c646f776e2061637469766560881b6044820152606490fd5b602081015134118015906126a4575b6122f15760405162461bcd60e51b8152602060048201526013602482015272084eaf240c2dadeeadce840e8dede40d0d2ced606b1b6044820152606490fd5b5033600052601260205260ff60406000205416612665565b60405162461bcd60e51b815260206004820152600b60248201526a109b1858dadb1a5cdd195960aa1b6044820152606490fd5b60405162461bcd60e51b815260206004820152601960248201527f436f6e74726163742063616c6c206e6f7420616c6c6f776564000000000000006044820152606490fd5b3d1561275f573d9061274582611d17565b916127536040519384611cf5565b82523d6000602084013e565b606090565b600a546000600a55806127745750565b6001600160ff1b0381168103611d7557600a60005260011b7fc65a7bb8d6351c1cf70c95a316cc6a92839c986682d98bc35f958f4883f9d2a8908101905b8181106127bd575050565b600080825560018201556002016127b2565b6127fb6007547f0000000000000000000000000000000000000000000000000000000000000000611d68565b6128276008547f0000000000000000000000000000000000000000000000000000000000000000611d8b565b670de0b6b3a7640000820291808304670de0b6b3a76400001490151715611d7557611e9691611dab565b6001600160a01b031660008181526012602052604090205460ff16611e995780600052600e60205260406000205415611e995761288c613692565b90600052600e60205260606128a660406000205442611d8b565b91015190818110156128bb57611e9691611d8b565b5050600090565b8015611e9957602061294b6128d5612cee565b92611e587f0000000000000000000000000000000000000000000000000000000000000000611e6460075493611e5e61290e8685611d68565b91611e587f00000000000000000000000000000000000000000000000000000000000000009161294560085495611e4c8786611d8b565b94611d8b565b91015161271003906127108211611d75576127109161296991611d98565b0490565b6001600160a01b0316908115612a24576001600160a01b03169182156129d45760207f8c5be1e5ebec7d5bd14f71427d1e84f3dd0314c0f7b2291e5b200ac8c7c3b925918360005260018252604060002085600052825280604060002055604051908152a3565b60405162461bcd60e51b815260206004820152602260248201527f45524332303a20617070726f766520746f20746865207a65726f206164647265604482015261737360f01b6064820152608490fd5b60405162461bcd60e51b8152602060048201526024808201527f45524332303a20617070726f76652066726f6d20746865207a65726f206164646044820152637265737360e01b6064820152608490fd5b60405190612a8282611c8b565b60006060838281528260208201528260408201520152565b919082608091031261032a57604051612ab281611c8b565b60608082948051845260208101516020850152604081015160408501520151910152565b612ade612a75565b50604051637e529df560e11b81526080816004817f00000000000000000000000000000000000000000000000000000000000000006001600160a01b03165afa908115612b6357600091612b30575090565b905060803d608011612b5c575b612b478183611cf5565b810160808282031261032a57611e9691612a9a565b503d612b3d565b6040513d6000823e3d90fd5b6001600160a01b0316908115612c9b576001600160a01b0316918215612c4a57816000526000602052604060002054818110612bf657817fddf252ad1be2c89b69c2b068fc378daa952ba7f163c4a11628f55a4df523b3ef9260209285600052600084520360406000205584600052600082526040600020818154019055604051908152a3565b60405162461bcd60e51b815260206004820152602660248201527f45524332303a207472616e7366657220616d6f756e7420657863656564732062604482015265616c616e636560d01b6064820152608490fd5b60405162461bcd60e51b815260206004820152602360248201527f45524332303a207472616e7366657220746f20746865207a65726f206164647260448201526265737360e81b6064820152608490fd5b60405162461bcd60e51b815260206004820152602560248201527f45524332303a207472616e736665722066726f6d20746865207a65726f206164604482015264647265737360d81b6064820152608490fd5b600060408051612cfd81611cbd565b828152602081018390520152604051632fdde06960e11b81526060816004817f00000000000000000000000000000000000000000000000000000000000000006001600160a01b03165afa908115612b6357600091612d5a575090565b90506060813d606011612da3575b81612d7560609383611cf5565b8101031261032a576040805191612d8b83611cbd565b80518352602081015160208401520151604082015290565b3d9150612d68565b9081602091031261032a57516001600160a01b038116810361032a5790565b604051638da5cb5b60e01b81526020816004817f00000000000000000000000000000000000000000000000000000000000000006001600160a01b03165afa908115612b6357600091612e1b575090565b611e96915060203d602011612e3d575b612e358183611cf5565b810190612dab565b503d612e2b565b612e8d7f523ad613567fbc3e5ab031387463d6181666216d2aff6391c50871593021ef1e916060612e736132be565b42600b550151604051928392606084526060840190611c1e565b9042602084015260408301520390a1565b60095460ff81166108c057601354610e108101809111611d75574210613213574260135560ff1916600117600955600854612ef9907f0000000000000000000000000000000000000000000000000000000000000000611d8b565b612f038130613abb565b7f00000000000000000000000000000000000000000000000000000000000000006001600160a01b0316612f3882823061296d565b60405163c45a015560e01b8152602081600481855afa908115612b63576000916131f4575b506040516315ab88c960e31b815290602082600481865afa908115612b6357604460209260009485916131d7575b506040516364e329cb60e11b81523060048201526001600160a01b0391821660248201529485938492165af1908115612b63576000916131b8575b5060018060a01b03166bffffffffffffffffffffffff60a01b6014541617601455600754605f830291838304605f1484151715611d7557605f820292828404605f1483151715611d755761012c420190814211611d755760405163f305d71960e01b815230600482015260248101879052606491829004604482015294819004908501527f00000000000000000000000000000000000000000000000000000000000000006001600160a01b0316608485015260a4840152606091839160c49183915af18060009260009261317d575b506130e8576130af8360ff196009541660095530613b5e565b60405162461bcd60e51b815260206004820152601160248201527011dc98591d585d1a5bdb8819985a5b1959607a1b6044820152606490fd5b6014546001600160a01b03169250907f8d0453dc55ff49f0c8c7ca816943faff3ced84a6a1a9b3831f8bcf12b4d700c3906131216127cf565b604080519283526020830194909452928101929092524260608301523091608090a37fff8ad2bb089a5dcfebe1e7c8ac0ceabd295685e4c3fb1f8c6e7d1ac7fbbaf59460606040516000815260006020820152426040820152a1565b925090506060823d6060116131b0575b8161319a60609383611cf5565b8101031261032a57602082519201519038613096565b3d915061318d565b6131d1915060203d602011612e3d57612e358183611cf5565b38612fc6565b6131ee9150843d8611612e3d57612e358183611cf5565b38612f8b565b61320d915060203d602011612e3d57612e358183611cf5565b38612f5d565b63ef4bf1cb60e01b60005260046000fd5b600260055414613235576002600555565b60405162461bcd60e51b815260206004820152601f60248201527f5265656e7472616e637947756172643a207265656e7472616e742063616c6c006044820152606490fd5b60ff6006541661328657565b60405162461bcd60e51b815260206004820152601060248201526f14185d5cd8589b194e881c185d5cd95960821b6044820152606490fd5b6132c6612a75565b50604051634c16e18360e11b81526080816004817f00000000000000000000000000000000000000000000000000000000000000006001600160a01b03165afa908115612b6357600091612b30575090565b1561331f57565b60405162461bcd60e51b815260206004820152601860248201527f416d6f756e74206d757374206d6174636820696e74656e7400000000000000006044820152606490fd5b1561336b57565b60405162461bcd60e51b8152602060048201526013602482015272119959481d1c985b9cd9995c8819985a5b1959606a1b6044820152606490fd5b929091811061368157600754808211610d29576133c1612cee565b6133c96132be565b9460206133d46127cf565b920151612710036127108111611d75576127106133f2879287611d98565b0491613408866134028582611d8b565b96611d8b565b60075561341782600854611d8b565b6008556134226127cf565b9360018060a01b0382169889600052601260205260ff60406000205416156135a2575b5050600080936134608294839461345b89613c68565b613b5e565b895af161346b612734565b5015613567577f50bb505bf12befaddbb5e878fe7ff845aef673dd789600f2dda0f7c22b0fe494948261351a9361351f575b5060075460085460408051978852602088019690965294860183905260608601819052608086018590524260a087015293947fa3afd433eaa98ecd7cf80a2ca5f5576d84a37b5b410d59fa102332cc15283da49060c090a26040519384934292859094939260609260808301968352602083015260408201520152565b0390a1565b60008080806135619460018060a01b037f0000000000000000000000000000000000000000000000000000000000000000165af161355b612734565b50613364565b3861349d565b60405162461bcd60e51b8152602060048201526013602482015272115512081d1c985b9cd9995c8819985a5b1959606a1b6044820152606490fd5b9092506135af8584611d8b565b6127108102908082046127101490151715611d755788936135cf91611dab565b9080518211156134455790919250887f177af0e89845edad3ca9a642b436cf54f5fb183a42e634641cd0180b7c97929960408051858152426020820152a251908160011b9180830460021490151715611d7557116136305785903880613445565b613670604051613641604082611cf5565b601f81527f457863657373697665206e6567617469766520707269636520696d70616374006020820152612e44565b637d98681d60e11b60005260046000fd5b63428637bb60e11b60005260046000fd5b600060806040516136a281611cd9565b828152826020820152826040820152826060820152015260405163562528f760e01b815260a081600481600180851b037f0000000000000000000000000000000000000000000000000000000000000000165afa908115612b6357600091613708575090565b905060a0813d60a011613766575b8161372360a09383611cf5565b8101031261032a5760806040519161373a83611cd9565b805183526020810151602084015260408101516040840152606081015160608401520151608082015290565b3d9150613716565b906137776127cf565b9061378181611eeb565b93841061368157600854916137968584611d68565b927f0000000000000000000000000000000000000000000000000000000000000000809411613aaa576137c7612cee565b916137d0613692565b926137d96132be565b9560018060a01b0388169485600052601260205260ff6040600020541615613a62575b50505161271003906127108211611d755761383f8861271061381f829589611d98565b049461383761382e878a611d8b565b96600754611d68565b600755611d68565b60085561384a6127cf565b9584600052601260205260ff604060002054161580613a50575b61398b575b505061389f907f50bb505bf12befaddbb5e878fe7ff845aef673dd789600f2dda0f7c22b0fe4949661389a87613c68565b613abb565b80613949575b5060075460085460408051948552602085019790975295830184905260608301819052608083018690524260a084015294917fb176b33ad40225c8f67dc6ef0cba96c0c88f67afd36396e2198a3f48a44fc7a09060c090a26040805192835260208301859052820152426060820152608090a17f0000000000000000000000000000000000000000000000000000000000000000111561394157565b612008612e9e565b60008080806139859460018060a01b037f0000000000000000000000000000000000000000000000000000000000000000165af161355b612734565b386138a5565b9091506139988287611d8b565b6127108102908082046127101490151715611d755788926139b891611dab565b90805182111561386957909150837f177af0e89845edad3ca9a642b436cf54f5fb183a42e634641cd0180b7c97929960408051858152426020820152a251908160011b9180830460021490151715611d755711613a1757853880613869565b613670604051613a28604082611cf5565b6016815275115e18d95cdcda5d99481c1c9a58d9481a5b5c1858dd60521b6020820152612e44565b50670de0b6b3a7640000861015613864565b612710916040613a7492015190611d98565b04846000526000602052613a8d89604060002054611d68565b11613a995738806137fc565b630ebe2dbd60e41b60005260046000fd5b63c30436e960e01b60005260046000fd5b6001600160a01b0316908115613b19577fddf252ad1be2c89b69c2b068fc378daa952ba7f163c4a11628f55a4df523b3ef602082613afd600094600254611d68565b60025584845283825260408420818154019055604051908152a3565b60405162461bcd60e51b815260206004820152601f60248201527f45524332303a206d696e7420746f20746865207a65726f2061646472657373006044820152606490fd5b6001600160a01b03168015613c195780600052600060205260406000205491808310613bc9576020817fddf252ad1be2c89b69c2b068fc378daa952ba7f163c4a11628f55a4df523b3ef926000958587528684520360408620558060025403600255604051908152a3565b60405162461bcd60e51b815260206004820152602260248201527f45524332303a206275726e20616d6f756e7420657863656564732062616c616e604482015261636560f01b6064820152608490fd5b60405162461bcd60e51b815260206004820152602160248201527f45524332303a206275726e2066726f6d20746865207a65726f206164647265736044820152607360f81b6064820152608490fd5b613c706132be565b90613c82600d54602084015190611d68565b4211613e21575b6040516040810181811067ffffffffffffffff821117611ca7576040528181526020810190428252600a5468010000000000000000811015611ca757806001613cd59201600a55611d33565b929092613e0b5760019151835551910155600a5460018111613cf657505050565b6001198101908111611d7557613d0b90611d33565b5054908180821115613dda57613d2091611d8b565b6127108102908082046127101490151715611d75576101f491613d4291611dab565b11613d4b575b50565b600c546000198114611d75576001604091019182600c5501518110613d485760407f0e0fe66968e0b8f5fb3583c3bebcbb7b89b16c306536baa169e51b7f4fcd4abe918151908152426020820152a1612008604051613dab604082611cf5565b601d81527f45786365737369766520766f6c6174696c6974792064657465637465640000006020820152612e44565b90613de491611d8b565b6127108102908082046127101490151715611d75576101f491613e0691611dab565b613d42565b634e487b7160e01b600052600060045260246000fd5b6000600c5542600d55613e32612764565b613c8956fea2646970667358221220cf201ca03b7a0d2292c39d68d36a8ba41718925d104e37c50d6f2365065d30ed64736f6c634300081b0033a264697066735822122034f39eafb2669e470a37cfb5954db2cbd90248b6a8800e943b66d88b76907d8c64736f6c634300081b0033",
  "devdoc": {
    "author": "CarbonOpus",
    "events": {
      "Paused(address)": {
        "details": "Emitted when the pause is triggered by `account`."
      },
      "Unpaused(address)": {
        "details": "Emitted when the pause is lifted by `account`."
      }
    },
    "kind": "dev",
    "methods": {
      "constructor": {
        "params": {
          "_uniswapRouter": "The address of the Uniswap router."
        }
      },
      "createToken(string,string,(uint256,uint256,uint256,uint256))": {
        "params": {
          "name": "The name of the token.",
          "symbol": "The symbol of the token."
        },
        "returns": {
          "_0": "The address of the newly created token."
        }
      },
      "getStats()": {
        "returns": {
          "_creationFee": "The current creation fee.",
          "_totalFeesCollected": "The total fees collected.",
          "_totalTokensCreated": "The total number of tokens created."
        }
      },
      "markTokenGraduated(address)": {
        "params": {
          "tokenAddress": "The address of the token to mark as graduated."
        }
      },
      "owner()": {
        "details": "Returns the address of the current owner."
      },
      "paused()": {
        "details": "Returns true if the contract is paused, and false otherwise."
      },
      "renounceOwnership()": {
        "details": "Leaves the contract without owner. It will not be possible to call `onlyOwner` functions. Can only be called by the current owner. NOTE: Renouncing ownership will leave the contract without an owner, thereby disabling any functionality that is only available to the owner."
      },
      "setCreationFee(uint256)": {
        "params": {
          "_fee": "The new creation fee."
        }
      },
      "setMaxTokensPerCreator(uint256)": {
        "params": {
          "_max": "The new maximum number of tokens."
        }
      },
      "transferOwnership(address)": {
        "details": "Transfers ownership of the contract to a new account (`newOwner`). Can only be called by the current owner."
      }
    },
    "title": "CarbonCoinLauncher",
    "version": 1
  },
  "userdoc": {
    "kind": "user",
    "methods": {
      "configAddress()": {
        "notice": "The address of the CarbonCoinConfig contract, which provides default configurations for new tokens."
      },
      "constructor": {
        "notice": "The constructor for the CarbonCoinLauncher contract."
      },
      "createToken(string,string,(uint256,uint256,uint256,uint256))": {
        "notice": "Creates a new CarbonCoin token."
      },
      "creationFee()": {
        "notice": "The fee for creating a new token."
      },
      "getStats()": {
        "notice": "Gets statistics about the contract."
      },
      "markTokenGraduated(address)": {
        "notice": "Marks a token as graduated. This can be called by the token contract itself or by the owner of the launcher contract."
      },
      "maxTokensPerCreator()": {
        "notice": "The maximum number of tokens that a single address can create."
      },
      "pause()": {
        "notice": "Pauses the contract, which prevents new tokens from being created."
      },
      "setCreationFee(uint256)": {
        "notice": "Sets the fee for creating a new token."
      },
      "setMaxTokensPerCreator(uint256)": {
        "notice": "Sets the maximum number of tokens that a single address can create."
      },
      "tokens(address)": {
        "notice": "A mapping from a token address to its TokenInfo struct."
      },
      "tokensCreatedByAddress(address)": {
        "notice": "A mapping from a creator's address to the number of tokens they have created."
      },
      "totalFeesCollected()": {
        "notice": "The total amount of fees collected from token creations."
      },
      "totalTokensCreated()": {
        "notice": "The total number of tokens that have been created."
      },
      "uniswapRouter()": {
        "notice": "The address of the Uniswap router, which is used for creating liquidity pairs."
      },
      "unpause()": {
        "notice": "Unpauses the contract, which allows new tokens to be created again."
      },
      "withdraw()": {
        "notice": "Withdraws the fees that have been collected from token creations."
      }
    },
    "notice": "This contract is responsible for creating and managing CarbonCoin tokens. It allows users to create their own tokens for a fee, and it keeps track of all the tokens created. The owner of the contract can manage the creation fee, the maximum number of tokens per creator, and can pause or unpause the contract. The contract also includes functions for withdrawing fees and transferring ownership.",
    "version": 1
  },
  "storageLayout": {
    "storage": [
      {
        "astId": 231,
        "contract": "contracts/CarbonCoinLauncher.sol:CarbonCoinLauncher",
        "label": "_status",
        "offset": 0,
        "slot": "0",
        "type": "t_uint256"
      },
      {
        "astId": 130,
        "contract": "contracts/CarbonCoinLauncher.sol:CarbonCoinLauncher",
        "label": "_paused",
        "offset": 0,
        "slot": "1",
        "type": "t_bool"
      },
      {
        "astId": 7,
        "contract": "contracts/CarbonCoinLauncher.sol:CarbonCoinLauncher",
        "label": "_owner",
        "offset": 1,
        "slot": "1",
        "type": "t_address"
      },
      {
        "astId": 4087,
        "contract": "contracts/CarbonCoinLauncher.sol:CarbonCoinLauncher",
        "label": "configAddress",
        "offset": 0,
        "slot": "2",
        "type": "t_address"
      },
      {
        "astId": 4094,
        "contract": "contracts/CarbonCoinLauncher.sol:CarbonCoinLauncher",
        "label": "creationFee",
        "offset": 0,
        "slot": "3",
        "type": "t_uint256"
      },
      {
        "astId": 4098,
        "contract": "contracts/CarbonCoinLauncher.sol:CarbonCoinLauncher",
        "label": "maxTokensPerCreator",
        "offset": 0,
        "slot": "4",
        "type": "t_uint256"
      },
      {
        "astId": 4104,
        "contract": "contracts/CarbonCoinLauncher.sol:CarbonCoinLauncher",
        "label": "tokens",
        "offset": 0,
        "slot": "5",
        "type": "t_mapping(t_address,t_struct(TokenInfo)5038_storage)"
      },
      {
        "astId": 4109,
        "contract": "contracts/CarbonCoinLauncher.sol:CarbonCoinLauncher",
        "label": "tokensCreatedByAddress",
        "offset": 0,
        "slot": "6",
        "type": "t_mapping(t_address,t_uint256)"
      },
      {
        "astId": 4112,
        "contract": "contracts/CarbonCoinLauncher.sol:CarbonCoinLauncher",
        "label": "totalFeesCollected",
        "offset": 0,
        "slot": "7",
        "type": "t_uint256"
      },
      {
        "astId": 4115,
        "contract": "contracts/CarbonCoinLauncher.sol:CarbonCoinLauncher",
        "label": "totalTokensCreated",
        "offset": 0,
        "slot": "8",
        "type": "t_uint256"
      }
    ],
    "types": {
      "t_address": {
        "encoding": "inplace",
        "label": "address",
        "numberOfBytes": "20"
      },
      "t_bool": {
        "encoding": "inplace",
        "label": "bool",
        "numberOfBytes": "1"
      },
      "t_mapping(t_address,t_struct(TokenInfo)5038_storage)": {
        "encoding": "mapping",
        "key": "t_address",
        "label": "mapping(address => struct ICarbonCoinLauncher.TokenInfo)",
        "numberOfBytes": "32",
        "value": "t_struct(TokenInfo)5038_storage"
      },
      "t_mapping(t_address,t_uint256)": {
        "encoding": "mapping",
        "key": "t_address",
        "label": "mapping(address => uint256)",
        "numberOfBytes": "32",
        "value": "t_uint256"
      },
      "t_string_storage": {
        "encoding": "bytes",
        "label": "string",
        "numberOfBytes": "32"
      },
      "t_struct(TokenInfo)5038_storage": {
        "encoding": "inplace",
        "label": "struct ICarbonCoinLauncher.TokenInfo",
        "members": [
          {
            "astId": 5027,
            "contract": "contracts/CarbonCoinLauncher.sol:CarbonCoinLauncher",
            "label": "tokenAddress",
            "offset": 0,
            "slot": "0",
            "type": "t_address"
          },
          {
            "astId": 5029,
            "contract": "contracts/CarbonCoinLauncher.sol:CarbonCoinLauncher",
            "label": "creator",
            "offset": 0,
            "slot": "1",
            "type": "t_address"
          },
          {
            "astId": 5031,
            "contract": "contracts/CarbonCoinLauncher.sol:CarbonCoinLauncher",
            "label": "createdAt",
            "offset": 0,
            "slot": "2",
            "type": "t_uint256"
          },
          {
            "astId": 5033,
            "contract": "contracts/CarbonCoinLauncher.sol:CarbonCoinLauncher",
            "label": "graduated",
            "offset": 0,
            "slot": "3",
            "type": "t_bool"
          },
          {
            "astId": 5035,
            "contract": "contracts/CarbonCoinLauncher.sol:CarbonCoinLauncher",
            "label": "name",
            "offset": 0,
            "slot": "4",
            "type": "t_string_storage"
          },
          {
            "astId": 5037,
            "contract": "contracts/CarbonCoinLauncher.sol:CarbonCoinLauncher",
            "label": "symbol",
            "offset": 0,
            "slot": "5",
            "type": "t_string_storage"
          }
        ],
        "numberOfBytes": "192"
      },
      "t_uint256": {
        "encoding": "inplace",
        "label": "uint256",
        "numberOfBytes": "32"
      }
    }
  }
}