{
  "address": "0x19A17d4702a37F32aff295aA4196794818B1A942",
  "abi": [
    {
      "inputs": [
        {
          "internalType": "address",
          "name": "_usdc",
          "type": "address"
        },
        {
          "internalType": "address",
          "name": "_router",
          "type": "address"
        },
        {
          "internalType": "address",
          "name": "_config",
          "type": "address"
        }
      ],
      "stateMutability": "nonpayable",
      "type": "constructor"
    },
    {
      "inputs": [],
      "name": "EnforcedPause",
      "type": "error"
    },
    {
      "inputs": [],
      "name": "ExpectedPause",
      "type": "error"
    },
    {
      "inputs": [
        {
          "internalType": "address",
          "name": "owner",
          "type": "address"
        }
      ],
      "name": "OwnableInvalidOwner",
      "type": "error"
    },
    {
      "inputs": [
        {
          "internalType": "address",
          "name": "account",
          "type": "address"
        }
      ],
      "name": "OwnableUnauthorizedAccount",
      "type": "error"
    },
    {
      "inputs": [],
      "name": "ReentrancyGuardReentrantCall",
      "type": "error"
    },
    {
      "inputs": [],
      "name": "Unauthorized",
      "type": "error"
    },
    {
      "anonymous": false,
      "inputs": [
        {
          "indexed": true,
          "internalType": "address",
          "name": "newConfig",
          "type": "address"
        },
        {
          "indexed": false,
          "internalType": "uint256",
          "name": "timestamp",
          "type": "uint256"
        }
      ],
      "name": "ConfigUpdated",
      "type": "event"
    },
    {
      "anonymous": false,
      "inputs": [
        {
          "indexed": false,
          "internalType": "uint256",
          "name": "timestamp",
          "type": "uint256"
        }
      ],
      "name": "DexPaused",
      "type": "event"
    },
    {
      "anonymous": false,
      "inputs": [
        {
          "indexed": false,
          "internalType": "uint256",
          "name": "timestamp",
          "type": "uint256"
        }
      ],
      "name": "DexUnpaused",
      "type": "event"
    },
    {
      "anonymous": false,
      "inputs": [
        {
          "indexed": true,
          "internalType": "address",
          "name": "token",
          "type": "address"
        },
        {
          "indexed": true,
          "internalType": "address",
          "name": "creator",
          "type": "address"
        },
        {
          "indexed": true,
          "internalType": "address",
          "name": "pair",
          "type": "address"
        },
        {
          "indexed": false,
          "internalType": "uint256",
          "name": "tokenAmount",
          "type": "uint256"
        },
        {
          "indexed": false,
          "internalType": "uint256",
          "name": "usdcAmount",
          "type": "uint256"
        },
        {
          "indexed": false,
          "internalType": "uint256",
          "name": "liquidity",
          "type": "uint256"
        },
        {
          "indexed": false,
          "internalType": "uint256",
          "name": "timestamp",
          "type": "uint256"
        }
      ],
      "name": "LiquidityDeployed",
      "type": "event"
    },
    {
      "anonymous": false,
      "inputs": [
        {
          "indexed": true,
          "internalType": "address",
          "name": "previousOwner",
          "type": "address"
        },
        {
          "indexed": true,
          "internalType": "address",
          "name": "newOwner",
          "type": "address"
        }
      ],
      "name": "OwnershipTransferred",
      "type": "event"
    },
    {
      "anonymous": false,
      "inputs": [
        {
          "indexed": false,
          "internalType": "address",
          "name": "account",
          "type": "address"
        }
      ],
      "name": "Paused",
      "type": "event"
    },
    {
      "anonymous": false,
      "inputs": [
        {
          "indexed": true,
          "internalType": "address",
          "name": "newRouter",
          "type": "address"
        },
        {
          "indexed": false,
          "internalType": "uint256",
          "name": "timestamp",
          "type": "uint256"
        }
      ],
      "name": "RouterUpdated",
      "type": "event"
    },
    {
      "anonymous": false,
      "inputs": [
        {
          "indexed": false,
          "internalType": "address",
          "name": "account",
          "type": "address"
        }
      ],
      "name": "Unpaused",
      "type": "event"
    },
    {
      "inputs": [],
      "name": "USDC",
      "outputs": [
        {
          "internalType": "contract IERC20",
          "name": "",
          "type": "address"
        }
      ],
      "stateMutability": "view",
      "type": "function"
    },
    {
      "inputs": [],
      "name": "config",
      "outputs": [
        {
          "internalType": "address",
          "name": "",
          "type": "address"
        }
      ],
      "stateMutability": "view",
      "type": "function"
    },
    {
      "inputs": [
        {
          "internalType": "address",
          "name": "creator",
          "type": "address"
        },
        {
          "internalType": "address",
          "name": "token",
          "type": "address"
        },
        {
          "internalType": "uint256",
          "name": "tokensAmount",
          "type": "uint256"
        },
        {
          "internalType": "uint256",
          "name": "usdcAmount",
          "type": "uint256"
        }
      ],
      "name": "deployLiquidity",
      "outputs": [
        {
          "internalType": "uint256",
          "name": "amountA",
          "type": "uint256"
        },
        {
          "internalType": "uint256",
          "name": "amountB",
          "type": "uint256"
        },
        {
          "internalType": "uint256",
          "name": "liquidity",
          "type": "uint256"
        }
      ],
      "stateMutability": "nonpayable",
      "type": "function"
    },
    {
      "inputs": [],
      "name": "dexRouter",
      "outputs": [
        {
          "internalType": "contract ISomniaExchangeRouter02",
          "name": "",
          "type": "address"
        }
      ],
      "stateMutability": "view",
      "type": "function"
    },
    {
      "inputs": [],
      "name": "owner",
      "outputs": [
        {
          "internalType": "address",
          "name": "",
          "type": "address"
        }
      ],
      "stateMutability": "view",
      "type": "function"
    },
    {
      "inputs": [],
      "name": "pause",
      "outputs": [],
      "stateMutability": "nonpayable",
      "type": "function"
    },
    {
      "inputs": [],
      "name": "paused",
      "outputs": [
        {
          "internalType": "bool",
          "name": "",
          "type": "bool"
        }
      ],
      "stateMutability": "view",
      "type": "function"
    },
    {
      "inputs": [],
      "name": "renounceOwnership",
      "outputs": [],
      "stateMutability": "nonpayable",
      "type": "function"
    },
    {
      "inputs": [
        {
          "internalType": "address",
          "name": "newOwner",
          "type": "address"
        }
      ],
      "name": "transferOwnership",
      "outputs": [],
      "stateMutability": "nonpayable",
      "type": "function"
    },
    {
      "inputs": [],
      "name": "unpause",
      "outputs": [],
      "stateMutability": "nonpayable",
      "type": "function"
    },
    {
      "inputs": [
        {
          "internalType": "address",
          "name": "newConfig",
          "type": "address"
        }
      ],
      "name": "updateConfig",
      "outputs": [],
      "stateMutability": "nonpayable",
      "type": "function"
    },
    {
      "inputs": [
        {
          "internalType": "address",
          "name": "newRouter",
          "type": "address"
        }
      ],
      "name": "updateRouter",
      "outputs": [],
      "stateMutability": "nonpayable",
      "type": "function"
    }
  ],
  "transactionHash": "0x3dba0e33c1af9822ebd29c2b0646dc2b49cf178d04ee69cb9b8c72d233821174",
  "args": [
    "0x70c5cEE69753f9359340b29967e2273C8908d774",
    "0xb98c15a0dC1e271132e341250703c7e94c059e8D",
    "0x80d807518F007DeCCEFF03767fd350D2936e48Bb"
  ],
  "numDeployments": 1,
  "solcInputHash": "b8a80f9f5eb866d81f2471dab4303a56",
  "bytecode": "0x60a0346101eb57601f610d4a38819003918201601f19168301916001600160401b038311848410176101f0578084926060946040528339810103126101eb5761004781610206565b61005f604061005860208501610206565b9301610206565b91600160005533156101d55760018054336001600160a01b0319821681179092556040519391906001600160a01b03167f8be0079c531659141344cd1fd0a4f28419497f9722a3daafe3b4186f6b6457e0600080a36001600160a01b031691821561019357506001600160a01b031691821561015d576001600160a01b03169081156101275760805260018060a01b0319600254161760025560018060a01b03196003541617600355604051610b2f908161021b82396080518181816101df015261069c0152f35b60405162461bcd60e51b815260206004820152600e60248201526d496e76616c696420636f6e66696760901b6044820152606490fd5b60405162461bcd60e51b815260206004820152600e60248201526d24b73b30b634b2103937baba32b960911b6044820152606490fd5b62461bcd60e51b815260206004820152601460248201527f496e76616c6964205553444320616464726573730000000000000000000000006044820152606490fd5b631e4fbdf760e01b600052600060045260246000fd5b600080fd5b634e487b7160e01b600052604160045260246000fd5b51906001600160a01b03821682036101eb5756fe608080604052600436101561001357600080fd5b60003560e01c9081630758d92414610575575080633f4ba83a146104da5780634d5f3477146103b45780635c975abb1461038e5780636cc919c814610320578063715018a6146102c357806379502c551461029a5780638456cb591461020e57806389a30271146101c95780638da5cb5b146101a0578063c851cc32146101325763f2fde38b146100a357600080fd5b3461012d57602036600319011261012d576100bc610599565b6100c4610ab0565b6001600160a01b0316801561011757600180546001600160a01b0319811683179091556001600160a01b03167f8be0079c531659141344cd1fd0a4f28419497f9722a3daafe3b4186f6b6457e0600080a3005b631e4fbdf760e01b600052600060045260246000fd5b600080fd5b3461012d57602036600319011261012d5761014b610599565b610153610ab0565b60018060a01b0316806bffffffffffffffffffffffff60a01b60035416176003557f65010bf8aa701515d017d4682c72f93e8722682a85afde7960fb222bb5c5bb546020604051428152a2005b3461012d57600036600319011261012d576001546040516001600160a01b039091168152602090f35b3461012d57600036600319011261012d576040517f00000000000000000000000000000000000000000000000000000000000000006001600160a01b03168152602090f35b3461012d57600036600319011261012d57610227610ab0565b61022f610ad9565b6001805460ff60a01b1916600160a01b1790556040513381527f62e78cea01bee320cd4e420270b5ea74000d11b0c9f74754ebdbfc544b05a25890602090a17fc5a972cc655b91116e1cd653bc6e0dbd82dd03bb71f7827b132714c58381a75c6020604051428152a1005b3461012d57600036600319011261012d576002546040516001600160a01b039091168152602090f35b3461012d57600036600319011261012d576102dc610ab0565b600180546001600160a01b031981169091556000906001600160a01b03167f8be0079c531659141344cd1fd0a4f28419497f9722a3daafe3b4186f6b6457e08280a3005b3461012d57602036600319011261012d57610339610599565b610341610ab0565b60018060a01b0316806bffffffffffffffffffffffff60a01b60025416176002557faf8839d80c9b3bbf95c97465eb8c8348db4098f5c15af186c3b425b1129981176020604051428152a2005b3461012d57600036600319011261012d57602060ff60015460a01c166040519015158152f35b3461012d57608036600319011261012d576103cd610599565b602435906001600160a01b03821680830361012d57600254604051638da5cb5b60e01b815290602090829060049082906001600160a01b03165afa9081156104ce5760009161049f575b506001600160a01b03163314159081610494575b50610484576002600054146104735760609161045b91600260005561044e610ad9565b606435916044359161061e565b90600160005560405192835260208301526040820152f35b633ee5aeb560e01b60005260046000fd5b6282b42960e81b60005260046000fd5b90503314158361042b565b6104c1915060203d6020116104c7575b6104b981836105af565b8101906105ff565b84610417565b503d6104af565b6040513d6000823e3d90fd5b3461012d57600036600319011261012d576104f3610ab0565b60015460ff8160a01c16156105645760ff60a01b19166001556040513381527f5db9ee0a495bf2e6ff9c91a7834c1ba4fdd244a5e8aa4e537bd38aeae4b073aa90602090a17f548b2908ef9697d85af51e26696fe462217da1bb8d62226b02846aec1c35db6d6020604051428152a1005b638dfc202b60e01b60005260046000fd5b3461012d57600036600319011261012d576003546001600160a01b03168152602090f35b600435906001600160a01b038216820361012d57565b90601f8019910116810190811067ffffffffffffffff8211176105d157604052565b634e487b7160e01b600052604160045260246000fd5b9081602091031261012d5751801515810361012d5790565b9081602091031261012d57516001600160a01b038116810361012d5790565b6040516323b872dd60e01b8152336004820152306024820152604481018490529394909390926001600160a01b039290921691906020816064816000875af19081156104ce57600091610a91575b5015610a54576040516323b872dd60e01b8152336004820152306024820152604481018690526001600160a01b037f00000000000000000000000000000000000000000000000000000000000000001691906020816064816000875af19081156104ce57600091610a35575b50156109f95760035460405163095ea7b360e01b81526001600160a01b039091166004820152602481018290526020816044816000885af180156104ce576109dc575b5060035460405163095ea7b360e01b81526001600160a01b039091166004820152602481018790526020816044816000875af180156104ce576109af575b50600354605f87810297916001600160a01b031690828904148215171561099957605f830296838804605f148415171561099957603c42019788421161099957604051998a95869562e8e33760e81b8752886004880152896024880152604487015260648601526064900460848501526064900460a4840152600160a01b6001900316968760c484015260e48301525a92600061010492606095f193600092858497859761094f575b5061084c5760405162461bcd60e51b815260206004820152601760248201527f4465706c6f79204c6971756964697479206661696c65640000000000000000006044820152606490fd5b60035460405163c45a015560e01b81529390602090859060049082906001600160a01b03165afa9384156104ce5760009461092d575b5060209060446040518096819363e6a4390560e01b8352866004840152602483015260018060a01b03165afa9283156104ce5760009361090c575b507fbf5e35dbf585721bceb8de58e6a707eb501af2245b177081480f94ec02066d5b60806040519460008652600060208701526000604087015242606087015260018060a01b031694a4929190565b61092691935060203d6020116104c7576104b981836105af565b91386108bd565b602091945061094890823d84116104c7576104b981836105af565b9390610882565b9491975095506060843d606011610991575b8161096e606093836105af565b8101031261098e5750825195604060208501519401519693969538610802565b80fd5b3d9150610961565b634e487b7160e01b600052601160045260246000fd5b6109d09060203d6020116109d5575b6109c881836105af565b8101906105e7565b610759565b503d6109be565b6109f49060203d6020116109d5576109c881836105af565b61071b565b60405162461bcd60e51b81526020600482015260146024820152731554d110c81d1c985b9cd9995c8819985a5b195960621b6044820152606490fd5b610a4e915060203d6020116109d5576109c881836105af565b386106d8565b60405162461bcd60e51b8152602060048201526015602482015274151bdad95b881d1c985b9cd9995c8819985a5b1959605a1b6044820152606490fd5b610aaa915060203d6020116109d5576109c881836105af565b3861066c565b6001546001600160a01b03163303610ac457565b63118cdaa760e01b6000523360045260246000fd5b60ff60015460a01c16610ae857565b63d93c066560e01b60005260046000fdfea26469706673582212206524664ea516fd6fad13af3d3d449f7b4be7967a1cfcbab6078a00f5299101f164736f6c634300081b0033",
  "devdoc": {
    "errors": {
      "EnforcedPause()": [
        {
          "details": "The operation failed because the contract is paused."
        }
      ],
      "ExpectedPause()": [
        {
          "details": "The operation failed because the contract is not paused."
        }
      ],
      "OwnableInvalidOwner(address)": [
        {
          "details": "The owner is not a valid owner account. (eg. `address(0)`)"
        }
      ],
      "OwnableUnauthorizedAccount(address)": [
        {
          "details": "The caller account is not authorized to perform an operation."
        }
      ],
      "ReentrancyGuardReentrantCall()": [
        {
          "details": "Unauthorized reentrant call."
        }
      ]
    },
    "events": {
      "ConfigUpdated(address,uint256)": {
        "params": {
          "newConfig": "The new config address",
          "timestamp": "The timestamp of the update"
        }
      },
      "DexPaused(uint256)": {
        "params": {
          "timestamp": "The timestamp of the pause"
        }
      },
      "DexUnpaused(uint256)": {
        "params": {
          "timestamp": "The timestamp of the unpause"
        }
      },
      "LiquidityDeployed(address,address,address,uint256,uint256,uint256,uint256)": {
        "params": {
          "creator": "The address of the token creator",
          "liquidity": "The amount of LP tokens minted",
          "pair": "The address of the DEX pair created",
          "timestamp": "The timestamp of the deployment",
          "token": "The address of the CarbonCoin token",
          "tokenAmount": "The amount of tokens added to liquidity",
          "usdcAmount": "The amount of USDC added to liquidity"
        }
      },
      "Paused(address)": {
        "details": "Emitted when the pause is triggered by `account`."
      },
      "RouterUpdated(address,uint256)": {
        "params": {
          "newRouter": "The new router address",
          "timestamp": "The timestamp of the update"
        }
      },
      "Unpaused(address)": {
        "details": "Emitted when the pause is lifted by `account`."
      }
    },
    "kind": "dev",
    "methods": {
      "constructor": {
        "params": {
          "_config": "The address of the token configuration contract.",
          "_router": "The address of the Somnia Exchange V2 router.",
          "_usdc": "The address of the USDC token contract."
        }
      },
      "deployLiquidity(address,address,uint256,uint256)": {
        "details": "Creates a USDC/Token liquidity pool."
      },
      "owner()": {
        "details": "Returns the address of the current owner."
      },
      "paused()": {
        "details": "Returns true if the contract is paused, and false otherwise."
      },
      "renounceOwnership()": {
        "details": "Leaves the contract without owner. It will not be possible to call `onlyOwner` functions. Can only be called by the current owner. NOTE: Renouncing ownership will leave the contract without an owner, thereby disabling any functionality that is only available to the owner."
      },
      "transferOwnership(address)": {
        "details": "Transfers ownership of the contract to a new account (`newOwner`). Can only be called by the current owner."
      }
    },
    "version": 1
  },
  "userdoc": {
    "events": {
      "ConfigUpdated(address,uint256)": {
        "notice": "Emitted when the config address is updated"
      },
      "DexPaused(uint256)": {
        "notice": "Emitted when the DEX is paused"
      },
      "DexUnpaused(uint256)": {
        "notice": "Emitted when the DEX is unpaused"
      },
      "LiquidityDeployed(address,address,address,uint256,uint256,uint256,uint256)": {
        "notice": "Emitted when liquidity is deployed for a graduated token"
      },
      "RouterUpdated(address,uint256)": {
        "notice": "Emitted when the router address is updated"
      }
    },
    "kind": "user",
    "methods": {
      "constructor": {
        "notice": "Constructor for the CarbonCoinDex contract."
      },
      "deployLiquidity(address,address,uint256,uint256)": {
        "notice": "Deploy Liquidity to Somnia Exchange with USDC/Token pair."
      },
      "pause()": {
        "notice": "Pause the DEX"
      },
      "unpause()": {
        "notice": "Unpause the DEX"
      },
      "updateConfig(address)": {
        "notice": "Update the config address"
      }
    },
    "version": 1
  },
  "storageLayout": {
    "storage": [
      {
        "astId": 1387,
        "contract": "contracts/CarbonCoinDex.sol:CarbonCoinDex",
        "label": "_status",
        "offset": 0,
        "slot": "0",
        "type": "t_uint256"
      },
      {
        "astId": 8,
        "contract": "contracts/CarbonCoinDex.sol:CarbonCoinDex",
        "label": "_owner",
        "offset": 0,
        "slot": "1",
        "type": "t_address"
      },
      {
        "astId": 1277,
        "contract": "contracts/CarbonCoinDex.sol:CarbonCoinDex",
        "label": "_paused",
        "offset": 20,
        "slot": "1",
        "type": "t_bool"
      },
      {
        "astId": 8908,
        "contract": "contracts/CarbonCoinDex.sol:CarbonCoinDex",
        "label": "config",
        "offset": 0,
        "slot": "2",
        "type": "t_address"
      },
      {
        "astId": 8911,
        "contract": "contracts/CarbonCoinDex.sol:CarbonCoinDex",
        "label": "dexRouter",
        "offset": 0,
        "slot": "3",
        "type": "t_contract(ISomniaExchangeRouter02)10928"
      }
    ],
    "types": {
      "t_address": {
        "encoding": "inplace",
        "label": "address",
        "numberOfBytes": "20"
      },
      "t_bool": {
        "encoding": "inplace",
        "label": "bool",
        "numberOfBytes": "1"
      },
      "t_contract(ISomniaExchangeRouter02)10928": {
        "encoding": "inplace",
        "label": "contract ISomniaExchangeRouter02",
        "numberOfBytes": "20"
      },
      "t_uint256": {
        "encoding": "inplace",
        "label": "uint256",
        "numberOfBytes": "32"
      }
    }
  }
}