{
  "address": "0x69EAf84fD275429955A4D99977aA745aa22770Df",
  "abi": [
    {
      "inputs": [
        {
          "internalType": "address",
          "name": "_usdc",
          "type": "address"
        },
        {
          "internalType": "address",
          "name": "_router",
          "type": "address"
        },
        {
          "internalType": "address",
          "name": "_config",
          "type": "address"
        }
      ],
      "stateMutability": "nonpayable",
      "type": "constructor"
    },
    {
      "inputs": [],
      "name": "EnforcedPause",
      "type": "error"
    },
    {
      "inputs": [],
      "name": "ExpectedPause",
      "type": "error"
    },
    {
      "inputs": [],
      "name": "ReentrancyGuardReentrantCall",
      "type": "error"
    },
    {
      "inputs": [],
      "name": "Unauthorized",
      "type": "error"
    },
    {
      "anonymous": false,
      "inputs": [
        {
          "indexed": false,
          "internalType": "address",
          "name": "account",
          "type": "address"
        }
      ],
      "name": "Paused",
      "type": "event"
    },
    {
      "anonymous": false,
      "inputs": [
        {
          "indexed": false,
          "internalType": "address",
          "name": "account",
          "type": "address"
        }
      ],
      "name": "Unpaused",
      "type": "event"
    },
    {
      "inputs": [],
      "name": "USDC",
      "outputs": [
        {
          "internalType": "contract IERC20",
          "name": "",
          "type": "address"
        }
      ],
      "stateMutability": "view",
      "type": "function"
    },
    {
      "inputs": [],
      "name": "config",
      "outputs": [
        {
          "internalType": "address",
          "name": "",
          "type": "address"
        }
      ],
      "stateMutability": "view",
      "type": "function"
    },
    {
      "inputs": [
        {
          "internalType": "address",
          "name": "creator",
          "type": "address"
        },
        {
          "internalType": "address",
          "name": "token",
          "type": "address"
        },
        {
          "internalType": "uint256",
          "name": "tokensAmount",
          "type": "uint256"
        },
        {
          "internalType": "uint256",
          "name": "usdcAmount",
          "type": "uint256"
        }
      ],
      "name": "deployLiquidity",
      "outputs": [
        {
          "internalType": "uint256",
          "name": "amountA",
          "type": "uint256"
        },
        {
          "internalType": "uint256",
          "name": "amountB",
          "type": "uint256"
        },
        {
          "internalType": "uint256",
          "name": "liquidity",
          "type": "uint256"
        }
      ],
      "stateMutability": "nonpayable",
      "type": "function"
    },
    {
      "inputs": [],
      "name": "dexRouter",
      "outputs": [
        {
          "internalType": "contract ISomniaExchangeRouter02",
          "name": "",
          "type": "address"
        }
      ],
      "stateMutability": "view",
      "type": "function"
    },
    {
      "inputs": [],
      "name": "paused",
      "outputs": [
        {
          "internalType": "bool",
          "name": "",
          "type": "bool"
        }
      ],
      "stateMutability": "view",
      "type": "function"
    }
  ],
  "transactionHash": "0x9672ec31649ffabcef2a695e78950874e108e1c40a02b9227159f6d5ca94e00b",
  "args": [
    "0x70c5cEE69753f9359340b29967e2273C8908d774",
    "0xb98c15a0dC1e271132e341250703c7e94c059e8D",
    "0x47D08E4451AD2c3bc20f8CC240c99CE94a756A2B"
  ],
  "numDeployments": 1,
  "solcInputHash": "d1ef56926905c862b6444c464678f320",
  "bytecode": "0x60e03461018c57601f61088e38819003918201601f19168301916001600160401b038311848410176101915780849260609460405283398101031261018c57610047816101a7565b61005f6040610058602085016101a7565b93016101a7565b60016000556001600160a01b03909116918215610147576001600160a01b0316918215610111576001600160a01b038216156100db5760805260a05260c0526040516106d290816101bc8239608051818181606c015261038b015260a05181818160b60152610156015260c05181818161029201526103e30152f35b60405162461bcd60e51b815260206004820152600e60248201526d496e76616c696420636f6e66696760901b6044820152606490fd5b60405162461bcd60e51b815260206004820152600e60248201526d24b73b30b634b2103937baba32b960911b6044820152606490fd5b60405162461bcd60e51b815260206004820152601460248201527f496e76616c6964205553444320616464726573730000000000000000000000006044820152606490fd5b600080fd5b634e487b7160e01b600052604160045260246000fd5b51906001600160a01b038216820361018c5756fe608080604052600436101561001357600080fd5b60003560e01c9081630758d9241461027f575080634d5f3477146101085780635c975abb146100e557806379502c55146100a0576389a302711461005657600080fd5b3461009b57600036600319011261009b576040517f00000000000000000000000000000000000000000000000000000000000000006001600160a01b03168152602090f35b600080fd5b3461009b57600036600319011261009b576040517f00000000000000000000000000000000000000000000000000000000000000006001600160a01b03168152602090f35b3461009b57600036600319011261009b57602060ff600154166040519015158152f35b3461009b57608036600319011261009b576004356001600160a01b038116810361009b57602435906001600160a01b03821680830361009b57604051638da5cb5b60e01b81526020816004817f00000000000000000000000000000000000000000000000000000000000000006001600160a01b03165afa9081156102735760009161022a575b506001600160a01b0316331415908161021f575b5061020f576002600054146101fe57600260005560ff600154166101ed576060916101d5916064359160443591610311565b90600160005560405192835260208301526040820152f35b63d93c066560e01b60005260046000fd5b633ee5aeb560e01b60005260046000fd5b6282b42960e81b60005260046000fd5b9050331415836101a3565b6020813d60201161026b575b81610243602093836102c1565b810103126102675751906001600160a01b038216820361026457508461018f565b80fd5b5080fd5b3d9150610236565b6040513d6000823e3d90fd5b3461009b57600036600319011261009b577f00000000000000000000000000000000000000000000000000000000000000006001600160a01b03168152602090f35b90601f8019910116810190811067ffffffffffffffff8211176102e357604052565b634e487b7160e01b600052604160045260246000fd5b9081602091031261009b5751801515810361009b5790565b6040516323b872dd60e01b8152336004820152306024820152604481018490529394936001600160a01b0392909216916020816064816000875af19081156102735760009161067d575b5015610640576040516323b872dd60e01b8152336004820152306024820152604481018690526001600160a01b037f000000000000000000000000000000000000000000000000000000000000000016906020816064816000865af190811561027357600091610621575b50156105e55760405163095ea7b360e01b81526001600160a01b037f000000000000000000000000000000000000000000000000000000000000000016600482018190526024820186905294906020816044816000895af18015610273576105c8575b5060405163095ea7b360e01b81526001600160a01b0386166004820152602481018890526020816044816000875af180156102735761059b575b50605f870294878604605f148815171561058557605f820293828504605f148315171561058557603c420190814211610585576064610104968160609a6000976040519e8f9c8d9b62e8e33760e81b8d5260048d015260248c015260448b0152828a01520460848801520460a486015260018060a01b031660c485015260e48401525af19060008281948294610543575b5061053e5760405162461bcd60e51b815260206004820152601760248201527f4465706c6f79204c6971756964697479206661696c65640000000000000000006044820152606490fd5b929190565b945092506060843d60601161057d575b81610560606093836102c1565b8101031261026457508251602084015160409094015192386104f4565b3d9150610553565b634e487b7160e01b600052601160045260246000fd5b6105bc9060203d6020116105c1575b6105b481836102c1565b8101906102f9565b610463565b503d6105aa565b6105e09060203d6020116105c1576105b481836102c1565b610429565b60405162461bcd60e51b81526020600482015260146024820152731554d110c81d1c985b9cd9995c8819985a5b195960621b6044820152606490fd5b61063a915060203d6020116105c1576105b481836102c1565b386103c6565b60405162461bcd60e51b8152602060048201526015602482015274151bdad95b881d1c985b9cd9995c8819985a5b1959605a1b6044820152606490fd5b610696915060203d6020116105c1576105b481836102c1565b3861035b56fea2646970667358221220ee306fb8ef966bda07b07363f155eb2086c80fef4e8a30ec4a4457dcafd447c564736f6c634300081b0033",
  "devdoc": {
    "errors": {
      "EnforcedPause()": [
        {
          "details": "The operation failed because the contract is paused."
        }
      ],
      "ExpectedPause()": [
        {
          "details": "The operation failed because the contract is not paused."
        }
      ],
      "ReentrancyGuardReentrantCall()": [
        {
          "details": "Unauthorized reentrant call."
        }
      ]
    },
    "events": {
      "Paused(address)": {
        "details": "Emitted when the pause is triggered by `account`."
      },
      "Unpaused(address)": {
        "details": "Emitted when the pause is lifted by `account`."
      }
    },
    "kind": "dev",
    "methods": {
      "constructor": {
        "params": {
          "_config": "The address of the token configuration contract.",
          "_router": "The address of the Somnia Exchange V2 router.",
          "_usdc": "The address of the USDC token contract."
        }
      },
      "deployLiquidity(address,address,uint256,uint256)": {
        "details": "Creates a USDC/Token liquidity pool."
      },
      "paused()": {
        "details": "Returns true if the contract is paused, and false otherwise."
      }
    },
    "version": 1
  },
  "userdoc": {
    "kind": "user",
    "methods": {
      "constructor": {
        "notice": "Constructor for the CarbonCoinDex contract."
      },
      "deployLiquidity(address,address,uint256,uint256)": {
        "notice": "Deploy Liquidity to Somnia Exchange with USDC/Token pair."
      }
    },
    "version": 1
  },
  "storageLayout": {
    "storage": [
      {
        "astId": 2825,
        "contract": "contracts/CarbonCoinDex.sol:CarbonCoinDex",
        "label": "_status",
        "offset": 0,
        "slot": "0",
        "type": "t_uint256"
      },
      {
        "astId": 2715,
        "contract": "contracts/CarbonCoinDex.sol:CarbonCoinDex",
        "label": "_paused",
        "offset": 0,
        "slot": "1",
        "type": "t_bool"
      }
    ],
    "types": {
      "t_bool": {
        "encoding": "inplace",
        "label": "bool",
        "numberOfBytes": "1"
      },
      "t_uint256": {
        "encoding": "inplace",
        "label": "uint256",
        "numberOfBytes": "32"
      }
    }
  }
}