{
  "address": "0xa0E550754C283B2c0943DeD4cBf23098740Bc1d0",
  "abi": [
    {
      "inputs": [
        {
          "internalType": "string",
          "name": "uri",
          "type": "string"
        }
      ],
      "stateMutability": "nonpayable",
      "type": "constructor"
    },
    {
      "inputs": [
        {
          "internalType": "address",
          "name": "sender",
          "type": "address"
        },
        {
          "internalType": "uint256",
          "name": "balance",
          "type": "uint256"
        },
        {
          "internalType": "uint256",
          "name": "needed",
          "type": "uint256"
        },
        {
          "internalType": "uint256",
          "name": "tokenId",
          "type": "uint256"
        }
      ],
      "name": "ERC1155InsufficientBalance",
      "type": "error"
    },
    {
      "inputs": [
        {
          "internalType": "address",
          "name": "approver",
          "type": "address"
        }
      ],
      "name": "ERC1155InvalidApprover",
      "type": "error"
    },
    {
      "inputs": [
        {
          "internalType": "uint256",
          "name": "idsLength",
          "type": "uint256"
        },
        {
          "internalType": "uint256",
          "name": "valuesLength",
          "type": "uint256"
        }
      ],
      "name": "ERC1155InvalidArrayLength",
      "type": "error"
    },
    {
      "inputs": [
        {
          "internalType": "address",
          "name": "operator",
          "type": "address"
        }
      ],
      "name": "ERC1155InvalidOperator",
      "type": "error"
    },
    {
      "inputs": [
        {
          "internalType": "address",
          "name": "receiver",
          "type": "address"
        }
      ],
      "name": "ERC1155InvalidReceiver",
      "type": "error"
    },
    {
      "inputs": [
        {
          "internalType": "address",
          "name": "sender",
          "type": "address"
        }
      ],
      "name": "ERC1155InvalidSender",
      "type": "error"
    },
    {
      "inputs": [
        {
          "internalType": "address",
          "name": "operator",
          "type": "address"
        },
        {
          "internalType": "address",
          "name": "owner",
          "type": "address"
        }
      ],
      "name": "ERC1155MissingApprovalForAll",
      "type": "error"
    },
    {
      "inputs": [
        {
          "internalType": "uint256",
          "name": "expected",
          "type": "uint256"
        },
        {
          "internalType": "uint256",
          "name": "actual",
          "type": "uint256"
        }
      ],
      "name": "IncorrectPrice",
      "type": "error"
    },
    {
      "inputs": [
        {
          "internalType": "address",
          "name": "addr",
          "type": "address"
        }
      ],
      "name": "InvalidAddress",
      "type": "error"
    },
    {
      "inputs": [
        {
          "internalType": "uint256",
          "name": "newFee",
          "type": "uint256"
        }
      ],
      "name": "InvalidFee",
      "type": "error"
    },
    {
      "inputs": [
        {
          "internalType": "address",
          "name": "account",
          "type": "address"
        }
      ],
      "name": "NoRewardsToClaim",
      "type": "error"
    },
    {
      "inputs": [
        {
          "internalType": "address",
          "name": "sender",
          "type": "address"
        },
        {
          "internalType": "uint256",
          "name": "tokenId",
          "type": "uint256"
        }
      ],
      "name": "NotArtist",
      "type": "error"
    },
    {
      "inputs": [
        {
          "internalType": "address",
          "name": "sender",
          "type": "address"
        }
      ],
      "name": "NotAuthorized",
      "type": "error"
    },
    {
      "inputs": [
        {
          "internalType": "address",
          "name": "owner",
          "type": "address"
        }
      ],
      "name": "OwnableInvalidOwner",
      "type": "error"
    },
    {
      "inputs": [
        {
          "internalType": "address",
          "name": "account",
          "type": "address"
        }
      ],
      "name": "OwnableUnauthorizedAccount",
      "type": "error"
    },
    {
      "inputs": [
        {
          "internalType": "uint256",
          "name": "newPct",
          "type": "uint256"
        }
      ],
      "name": "ReferralPercentTooHigh",
      "type": "error"
    },
    {
      "inputs": [
        {
          "internalType": "uint256",
          "name": "tokenId",
          "type": "uint256"
        }
      ],
      "name": "SongDoesNotExist",
      "type": "error"
    },
    {
      "inputs": [],
      "name": "TransferFailed",
      "type": "error"
    },
    {
      "anonymous": false,
      "inputs": [
        {
          "indexed": true,
          "internalType": "address",
          "name": "account",
          "type": "address"
        },
        {
          "indexed": true,
          "internalType": "address",
          "name": "operator",
          "type": "address"
        },
        {
          "indexed": false,
          "internalType": "bool",
          "name": "approved",
          "type": "bool"
        }
      ],
      "name": "ApprovalForAll",
      "type": "event"
    },
    {
      "anonymous": false,
      "inputs": [
        {
          "indexed": true,
          "internalType": "address",
          "name": "previousOwner",
          "type": "address"
        },
        {
          "indexed": true,
          "internalType": "address",
          "name": "newOwner",
          "type": "address"
        }
      ],
      "name": "OwnershipTransferred",
      "type": "event"
    },
    {
      "anonymous": false,
      "inputs": [
        {
          "indexed": true,
          "internalType": "address",
          "name": "newManager",
          "type": "address"
        }
      ],
      "name": "PriceScaleManagerUpdated",
      "type": "event"
    },
    {
      "anonymous": false,
      "inputs": [
        {
          "indexed": false,
          "internalType": "uint256",
          "name": "newFee",
          "type": "uint256"
        }
      ],
      "name": "ProtocolFeeUpdated",
      "type": "event"
    },
    {
      "anonymous": false,
      "inputs": [
        {
          "indexed": true,
          "internalType": "address",
          "name": "account",
          "type": "address"
        },
        {
          "indexed": false,
          "internalType": "uint256",
          "name": "amount",
          "type": "uint256"
        }
      ],
      "name": "RewardsClaimed",
      "type": "event"
    },
    {
      "anonymous": false,
      "inputs": [
        {
          "indexed": true,
          "internalType": "address",
          "name": "artist",
          "type": "address"
        },
        {
          "indexed": true,
          "internalType": "address",
          "name": "referrer",
          "type": "address"
        },
        {
          "indexed": false,
          "internalType": "uint256",
          "name": "artistAmount",
          "type": "uint256"
        },
        {
          "indexed": false,
          "internalType": "uint256",
          "name": "referrerAmount",
          "type": "uint256"
        },
        {
          "indexed": false,
          "internalType": "uint256",
          "name": "protocolFee",
          "type": "uint256"
        }
      ],
      "name": "RewardsDistributed",
      "type": "event"
    },
    {
      "anonymous": false,
      "inputs": [
        {
          "indexed": true,
          "internalType": "uint256",
          "name": "tokenId",
          "type": "uint256"
        },
        {
          "indexed": true,
          "internalType": "address",
          "name": "artist",
          "type": "address"
        },
        {
          "indexed": false,
          "internalType": "uint256",
          "name": "price",
          "type": "uint256"
        },
        {
          "indexed": false,
          "internalType": "uint256",
          "name": "referralPct",
          "type": "uint256"
        }
      ],
      "name": "SongMinted",
      "type": "event"
    },
    {
      "anonymous": false,
      "inputs": [
        {
          "indexed": true,
          "internalType": "uint256",
          "name": "tokenId",
          "type": "uint256"
        },
        {
          "indexed": false,
          "internalType": "uint256",
          "name": "newPrice",
          "type": "uint256"
        }
      ],
      "name": "SongPriceScaled",
      "type": "event"
    },
    {
      "anonymous": false,
      "inputs": [
        {
          "indexed": true,
          "internalType": "uint256",
          "name": "tokenId",
          "type": "uint256"
        },
        {
          "indexed": false,
          "internalType": "uint256",
          "name": "newPrice",
          "type": "uint256"
        }
      ],
      "name": "SongPriceUpdated",
      "type": "event"
    },
    {
      "anonymous": false,
      "inputs": [
        {
          "indexed": true,
          "internalType": "uint256",
          "name": "tokenId",
          "type": "uint256"
        },
        {
          "indexed": true,
          "internalType": "address",
          "name": "buyer",
          "type": "address"
        },
        {
          "indexed": true,
          "internalType": "address",
          "name": "referrer",
          "type": "address"
        },
        {
          "indexed": false,
          "internalType": "uint256",
          "name": "price",
          "type": "uint256"
        }
      ],
      "name": "SongPurchased",
      "type": "event"
    },
    {
      "anonymous": false,
      "inputs": [
        {
          "indexed": true,
          "internalType": "uint256",
          "name": "tokenId",
          "type": "uint256"
        },
        {
          "indexed": false,
          "internalType": "uint256",
          "name": "newPct",
          "type": "uint256"
        }
      ],
      "name": "SongReferralPctUpdated",
      "type": "event"
    },
    {
      "anonymous": false,
      "inputs": [
        {
          "indexed": true,
          "internalType": "address",
          "name": "operator",
          "type": "address"
        },
        {
          "indexed": true,
          "internalType": "address",
          "name": "from",
          "type": "address"
        },
        {
          "indexed": true,
          "internalType": "address",
          "name": "to",
          "type": "address"
        },
        {
          "indexed": false,
          "internalType": "uint256[]",
          "name": "ids",
          "type": "uint256[]"
        },
        {
          "indexed": false,
          "internalType": "uint256[]",
          "name": "values",
          "type": "uint256[]"
        }
      ],
      "name": "TransferBatch",
      "type": "event"
    },
    {
      "anonymous": false,
      "inputs": [
        {
          "indexed": true,
          "internalType": "address",
          "name": "operator",
          "type": "address"
        },
        {
          "indexed": true,
          "internalType": "address",
          "name": "from",
          "type": "address"
        },
        {
          "indexed": true,
          "internalType": "address",
          "name": "to",
          "type": "address"
        },
        {
          "indexed": false,
          "internalType": "uint256",
          "name": "id",
          "type": "uint256"
        },
        {
          "indexed": false,
          "internalType": "uint256",
          "name": "value",
          "type": "uint256"
        }
      ],
      "name": "TransferSingle",
      "type": "event"
    },
    {
      "anonymous": false,
      "inputs": [
        {
          "indexed": true,
          "internalType": "address",
          "name": "newTreasury",
          "type": "address"
        }
      ],
      "name": "TreasuryUpdated",
      "type": "event"
    },
    {
      "anonymous": false,
      "inputs": [
        {
          "indexed": false,
          "internalType": "string",
          "name": "value",
          "type": "string"
        },
        {
          "indexed": true,
          "internalType": "uint256",
          "name": "id",
          "type": "uint256"
        }
      ],
      "name": "URI",
      "type": "event"
    },
    {
      "inputs": [
        {
          "internalType": "address",
          "name": "account",
          "type": "address"
        },
        {
          "internalType": "uint256",
          "name": "id",
          "type": "uint256"
        }
      ],
      "name": "balanceOf",
      "outputs": [
        {
          "internalType": "uint256",
          "name": "",
          "type": "uint256"
        }
      ],
      "stateMutability": "view",
      "type": "function"
    },
    {
      "inputs": [
        {
          "internalType": "address[]",
          "name": "accounts",
          "type": "address[]"
        },
        {
          "internalType": "uint256[]",
          "name": "ids",
          "type": "uint256[]"
        }
      ],
      "name": "balanceOfBatch",
      "outputs": [
        {
          "internalType": "uint256[]",
          "name": "",
          "type": "uint256[]"
        }
      ],
      "stateMutability": "view",
      "type": "function"
    },
    {
      "inputs": [],
      "name": "claimRewards",
      "outputs": [],
      "stateMutability": "nonpayable",
      "type": "function"
    },
    {
      "inputs": [
        {
          "internalType": "address",
          "name": "account",
          "type": "address"
        },
        {
          "internalType": "address",
          "name": "operator",
          "type": "address"
        }
      ],
      "name": "isApprovedForAll",
      "outputs": [
        {
          "internalType": "bool",
          "name": "",
          "type": "bool"
        }
      ],
      "stateMutability": "view",
      "type": "function"
    },
    {
      "inputs": [
        {
          "internalType": "uint256",
          "name": "price",
          "type": "uint256"
        },
        {
          "internalType": "uint256",
          "name": "referralPct",
          "type": "uint256"
        }
      ],
      "name": "mintMusic",
      "outputs": [],
      "stateMutability": "nonpayable",
      "type": "function"
    },
    {
      "inputs": [
        {
          "internalType": "address",
          "name": "user",
          "type": "address"
        }
      ],
      "name": "musicBalance",
      "outputs": [
        {
          "internalType": "uint256[]",
          "name": "",
          "type": "uint256[]"
        },
        {
          "internalType": "uint256[]",
          "name": "",
          "type": "uint256[]"
        }
      ],
      "stateMutability": "view",
      "type": "function"
    },
    {
      "inputs": [],
      "name": "owner",
      "outputs": [
        {
          "internalType": "address",
          "name": "",
          "type": "address"
        }
      ],
      "stateMutability": "view",
      "type": "function"
    },
    {
      "inputs": [],
      "name": "protocolFee",
      "outputs": [
        {
          "internalType": "uint256",
          "name": "",
          "type": "uint256"
        }
      ],
      "stateMutability": "view",
      "type": "function"
    },
    {
      "inputs": [
        {
          "internalType": "uint256",
          "name": "tokenId",
          "type": "uint256"
        },
        {
          "internalType": "address",
          "name": "referrer",
          "type": "address"
        }
      ],
      "name": "purchaseMusic",
      "outputs": [],
      "stateMutability": "payable",
      "type": "function"
    },
    {
      "inputs": [],
      "name": "renounceOwnership",
      "outputs": [],
      "stateMutability": "nonpayable",
      "type": "function"
    },
    {
      "inputs": [
        {
          "internalType": "address",
          "name": "",
          "type": "address"
        }
      ],
      "name": "rewards",
      "outputs": [
        {
          "internalType": "uint256",
          "name": "",
          "type": "uint256"
        }
      ],
      "stateMutability": "view",
      "type": "function"
    },
    {
      "inputs": [
        {
          "internalType": "address",
          "name": "from",
          "type": "address"
        },
        {
          "internalType": "address",
          "name": "to",
          "type": "address"
        },
        {
          "internalType": "uint256[]",
          "name": "ids",
          "type": "uint256[]"
        },
        {
          "internalType": "uint256[]",
          "name": "values",
          "type": "uint256[]"
        },
        {
          "internalType": "bytes",
          "name": "data",
          "type": "bytes"
        }
      ],
      "name": "safeBatchTransferFrom",
      "outputs": [],
      "stateMutability": "nonpayable",
      "type": "function"
    },
    {
      "inputs": [
        {
          "internalType": "address",
          "name": "from",
          "type": "address"
        },
        {
          "internalType": "address",
          "name": "to",
          "type": "address"
        },
        {
          "internalType": "uint256",
          "name": "id",
          "type": "uint256"
        },
        {
          "internalType": "uint256",
          "name": "value",
          "type": "uint256"
        },
        {
          "internalType": "bytes",
          "name": "data",
          "type": "bytes"
        }
      ],
      "name": "safeTransferFrom",
      "outputs": [],
      "stateMutability": "nonpayable",
      "type": "function"
    },
    {
      "inputs": [
        {
          "internalType": "uint256",
          "name": "tokenId",
          "type": "uint256"
        },
        {
          "internalType": "uint256",
          "name": "newPrice",
          "type": "uint256"
        }
      ],
      "name": "scaleSongPrice",
      "outputs": [],
      "stateMutability": "nonpayable",
      "type": "function"
    },
    {
      "inputs": [
        {
          "internalType": "address",
          "name": "operator",
          "type": "address"
        },
        {
          "internalType": "bool",
          "name": "approved",
          "type": "bool"
        }
      ],
      "name": "setApprovalForAll",
      "outputs": [],
      "stateMutability": "nonpayable",
      "type": "function"
    },
    {
      "inputs": [
        {
          "internalType": "string",
          "name": "newUri",
          "type": "string"
        }
      ],
      "name": "setURI",
      "outputs": [],
      "stateMutability": "nonpayable",
      "type": "function"
    },
    {
      "inputs": [
        {
          "internalType": "uint256",
          "name": "",
          "type": "uint256"
        }
      ],
      "name": "songs",
      "outputs": [
        {
          "internalType": "address",
          "name": "artist",
          "type": "address"
        },
        {
          "internalType": "uint256",
          "name": "price",
          "type": "uint256"
        },
        {
          "internalType": "uint256",
          "name": "referralPct",
          "type": "uint256"
        }
      ],
      "stateMutability": "view",
      "type": "function"
    },
    {
      "inputs": [
        {
          "internalType": "bytes4",
          "name": "interfaceId",
          "type": "bytes4"
        }
      ],
      "name": "supportsInterface",
      "outputs": [
        {
          "internalType": "bool",
          "name": "",
          "type": "bool"
        }
      ],
      "stateMutability": "view",
      "type": "function"
    },
    {
      "inputs": [
        {
          "internalType": "address",
          "name": "newOwner",
          "type": "address"
        }
      ],
      "name": "transferOwnership",
      "outputs": [],
      "stateMutability": "nonpayable",
      "type": "function"
    },
    {
      "inputs": [
        {
          "internalType": "address",
          "name": "newManager",
          "type": "address"
        }
      ],
      "name": "updatePriceScaleManager",
      "outputs": [],
      "stateMutability": "nonpayable",
      "type": "function"
    },
    {
      "inputs": [
        {
          "internalType": "uint256",
          "name": "newFee",
          "type": "uint256"
        }
      ],
      "name": "updateProtocolFee",
      "outputs": [],
      "stateMutability": "nonpayable",
      "type": "function"
    },
    {
      "inputs": [
        {
          "internalType": "uint256",
          "name": "tokenId",
          "type": "uint256"
        },
        {
          "internalType": "uint256",
          "name": "newPrice",
          "type": "uint256"
        }
      ],
      "name": "updateSongPrice",
      "outputs": [],
      "stateMutability": "nonpayable",
      "type": "function"
    },
    {
      "inputs": [
        {
          "internalType": "uint256",
          "name": "tokenId",
          "type": "uint256"
        },
        {
          "internalType": "uint256",
          "name": "newPct",
          "type": "uint256"
        }
      ],
      "name": "updateSongReferralPct",
      "outputs": [],
      "stateMutability": "nonpayable",
      "type": "function"
    },
    {
      "inputs": [
        {
          "internalType": "address",
          "name": "newTreasury",
          "type": "address"
        }
      ],
      "name": "updateTreasury",
      "outputs": [],
      "stateMutability": "nonpayable",
      "type": "function"
    },
    {
      "inputs": [
        {
          "internalType": "uint256",
          "name": "",
          "type": "uint256"
        }
      ],
      "name": "uri",
      "outputs": [
        {
          "internalType": "string",
          "name": "",
          "type": "string"
        }
      ],
      "stateMutability": "view",
      "type": "function"
    }
  ],
  "transactionHash": "0x0302ad014ddbcfb6f81546622442a1b7e3d19a2449a606d742751d49f40cb5c8",
  "args": [
    "https://api.carbonopus.com/metadata/{id}.json"
  ],
  "numDeployments": 1,
  "solcInputHash": "7ac59546ce5deb2bfa4f5b14995e748c",
  "bytecode": "0x6080604052346102a75761209980380380610019816102ac565b9283398101906020818303126102a7578051906001600160401b0382116102a7570181601f820112156102a7578051906001600160401b03821161027c5761006a601f8301601f19166020016102ac565b92828452602083830101116102a75760005b82811061029257600083850160200152835184906001600160401b03811161027c57600254600181811c91168015610272575b602082101461025c57601f81116101f7575b50602091601f821160011461019357918192600092610188575b50508160011b916000199060031b1c1916176002555b33156101725760038054336001600160a01b03198216811790925560405191906001600160a01b03167f8be0079c531659141344cd1fd0a4f28419497f9722a3daafe3b4186f6b6457e0600080a360098054336001600160a01b03199182168117909255600a805490911690911790556064600855611dc790816102d28239f35b631e4fbdf760e01b600052600060045260246000fd5b0151905082806100db565b601f198216926002600052806000209160005b8581106101df575083600195106101c6575b505050811b016002556100f1565b015160001960f88460031b161c191690558280806101b8565b919260206001819286850151815501940192016101a6565b60026000527f405787fa12a823e0f2b7631cc41b3ba8828b3321ca811111fa75cd3aa3bb5ace601f830160051c81019160208410610252575b601f0160051c01905b81811061024657506100c1565b60008155600101610239565b9091508190610230565b634e487b7160e01b600052602260045260246000fd5b90607f16906100af565b634e487b7160e01b600052604160045260246000fd5b8060208092840101518282870101520161007c565b600080fd5b6040519190601f01601f191682016001600160401b0381118382101761027c5760405256fe6080604052600436101561001257600080fd5b60003560e01c8062fdd58e146101a657806301ffc9a7146101a157806302fe53051461019c5780630700037d146101975780630e89341c146101925780631a3701971461018d5780631cea2b5e146101885780632190edce1461018357806323a3cbba1461017e57806325e268eb146101795780632eb2c2d614610174578063304cff301461016f578063372500ab1461016a5780634256dd78146101655780634e1273f414610160578063715018a61461015b5780637f51bb1f146101565780638aeff8bf146101515780638da5cb5b1461014c578063a22cb46514610147578063b0e21e8a14610142578063dd484e401461013d578063e985e9c514610138578063f242432a146101335763f2fde38b1461012e57600080fd5b6112a1565b611191565b611134565b6110b7565b611099565b610fe4565b610fbb565b610edc565b610e73565b610e16565b610d55565b610cc9565b610c22565b610bd7565b610b4a565b610a3d565b6109d4565b6107cc565b610703565b610603565b610525565b610496565b610369565b61024f565b6101f0565b600435906001600160a01b03821682036101c157565b600080fd5b602435906001600160a01b03821682036101c157565b35906001600160a01b03821682036101c157565b346101c15760403660031901126101c157602061023461020e6101ab565b6024356000526000835260406000209060018060a01b0316600052602052604060002090565b54604051908152f35b6001600160e01b03198116036101c157565b346101c15760203660031901126101c157602060043561026e8161023d565b63ffffffff60e01b16636cdb3d1360e11b81149081156102ac575b811561029b575b506040519015158152f35b6301ffc9a760e01b14905038610290565b6303a24d0760e21b81149150610289565b634e487b7160e01b600052604160045260246000fd5b6060810190811067ffffffffffffffff8211176102ef57604052565b6102bd565b90601f8019910116810190811067ffffffffffffffff8211176102ef57604052565b67ffffffffffffffff81116102ef57601f01601f191660200190565b92919261033e82610316565b9161034c60405193846102f4565b8294818452818301116101c1578281602093846000960137010152565b346101c15760203660031901126101c15760043567ffffffffffffffff81116101c157366023820112156101c1576103ab903690602481600401359101610332565b6103b3611545565b805167ffffffffffffffff81116102ef576103d8816103d3600254611350565b61156e565b602091601f821160011461041857610408926000918361040d575b50508160011b916000199060031b1c19161790565b600255005b0151905038806103f3565b6002600052601f198216927f405787fa12a823e0f2b7631cc41b3ba8828b3321ca811111fa75cd3aa3bb5ace9160005b85811061047e57508360019510610465575b505050811b01600255005b015160001960f88460031b161c1916905538808061045a565b91926020600181928685015181550194019201610448565b346101c15760203660031901126101c1576001600160a01b036104b76101ab565b1660005260056020526020604060002054604051908152f35b919082519283825260005b8481106104fc575050826000602080949584010152601f8019910116010190565b806020809284010151828286010152016104db565b9060206105229281815201906104d0565b90565b346101c15760203660031901126101c157604051600060025461054781611350565b80845290600181169081156105df575060011461057f575b61057b8361056f818503826102f4565b60405191829182610511565b0390f35b91905060026000527f405787fa12a823e0f2b7631cc41b3ba8828b3321ca811111fa75cd3aa3bb5ace916000905b8082106105c55750909150810160200161056f61055f565b9192600181602092548385880101520191019092916105ad565b60ff191660208086019190915291151560051b8401909101915061056f905061055f565b346101c15760403660031901126101c157600435602435600082815260046020526040902080546001600160a01b0316330361069157611388821161067b576002018190556040519081527fec09a71042142cd1020fffd128f122f1da0201a08d9d7e4e32d0e87da8a0841a9080602081015b0390a2005b63a1f18acb60e01b600052600482905260246000fd5b82630168b1a760e31b6000523360045260245260446000fd5b906020808351928381520192019060005b8181106106c85750505090565b82518452602093840193909201916001016106bb565b90916106f5610522936040845260408401906106aa565b9160208184039101526106aa565b346101c15760203660031901126101c15761071c6101ab565b60018060a01b038116600052600660205260406000206040518082602082945493848152019060005260206000209260005b8181106107b3575050610763925003826102f4565b61076d815161138a565b9160005b82518110156107a2578061079161078a600193866113d2565b518461132b565b61079b82876113d2565b5201610771565b505061057b604051928392836106de565b845483526001948501948694506020909301920161074e565b60403660031901126101c1576004356107e36101c6565b906107f8816000526004602052604060002090565b80546001600160a01b0316156109be576001810154928334036109a457610983935061083161082960085434611401565b612710900490565b7f07f269db192de987f6138ac3ced504f0da8a4dcc0b49d59d964f33d19cfd4d97610863610829600286015434611401565b610876836108718334611414565b611414565b6009546108a1906001600160a01b03165b6001600160a01b0316600090815260056020526040902090565b6108ac858254611421565b90556001600160a01b038516958695838715158061099a575b1561098557506001600160a01b0316600090815260056020526040902061094191906108f2858254611421565b90555b8054610909906001600160a01b0316610887565b610914848254611421565b9055546001600160a01b039081161694604051938493846040919493926060820195825260208201520152565b0390a3604051348152339083907fd379cd15a6bbe73a5d3e3b7b686bc3e79bd8d2f8b82c074e68154d14e029f60290602090a461097c61142e565b90336115c1565b005b61099491506109419293611421565b916108f5565b50338814156108c5565b630145611560e21b60005260048490523460245260446000fd5b630161cbff60e01b600052600482905260246000fd5b346101c15760403660031901126101c157600435602435600082815260046020526040902080546001600160a01b0316330361069157817fff11d015db30c07855b17bcaba259bdd8870781076760ca39127228e730717f99260016020930155604051908152a2005b346101c15760203660031901126101c157610a566101ab565b610a5e611545565b6001600160a01b03168015610aa657600a80546001600160a01b031916821790557f486cfc56f2b0fb9f9d9f3ef72041edf74816b8163a2135fecceddd9b4324a8ce600080a2005b634726455360e11b60005260045260246000fd5b67ffffffffffffffff81116102ef5760051b60200190565b9080601f830112156101c1578135610ae981610aba565b92610af760405194856102f4565b81845260208085019260051b8201019283116101c157602001905b828210610b1f5750505090565b8135815260209182019101610b12565b9080601f830112156101c15781602061052293359101610332565b346101c15760a03660031901126101c157610b636101ab565b610b6b6101c6565b9060443567ffffffffffffffff81116101c157610b8c903690600401610ad2565b60643567ffffffffffffffff81116101c157610bac903690600401610ad2565b906084359367ffffffffffffffff85116101c157610bd1610983953690600401610b2f565b93611443565b346101c15760203660031901126101c15760043560005260046020526060604060002060018060a01b0381541690600260018201549101549060405192835260208301526040820152f35b346101c15760003660031901126101c1573360005260056020526040600020548015610cb45733600090815260056020526040812055600080808084335af1610c696114a2565b5015610ca35760405190815233907ffc30cddea38e2bf4d6ea7d3f9ed3b6ad7f176419f4963bd81318067a4aee73fe908060208101610676565b6312171d8360e31b60005260046000fd5b63371bbb2960e11b6000523360045260246000fd5b346101c15760203660031901126101c157600435610ce5611545565b601e81108015610d39575b610d25576020817fd10d75876659a287a59a6ccfa2e3fff42f84d94b542837acd30bc184d562de4092600855604051908152a1005b63179c637760e11b60005260045260246000fd5b506103e88111610cf0565b9060206105229281815201906106aa565b346101c15760403660031901126101c15760043567ffffffffffffffff81116101c157366023820112156101c157806004013590610d9282610aba565b91610da060405193846102f4565b8083526024602084019160051b830101913683116101c157602401905b828210610dfe578360243567ffffffffffffffff81116101c15761057b91610dec610df2923690600401610ad2565b906114d2565b60405191829182610d44565b60208091610e0b846101dc565b815201910190610dbd565b346101c15760003660031901126101c157610e2f611545565b600380546001600160a01b031981169091556000906001600160a01b03167f8be0079c531659141344cd1fd0a4f28419497f9722a3daafe3b4186f6b6457e08280a3005b346101c15760203660031901126101c157610e8c6101ab565b610e94611545565b6001600160a01b03168015610aa657600980546001600160a01b031916821790557f7dae230f18360d76a040c81f050aa14eb9d6dc7901b20fc5d855e2a20fe814d1600080a2005b346101c15760403660031901126101c157600435602435600754906000198214610fb657610fb17f21f4010c94f0466e51db33844aada01f7e201e4d8f489387f01250ed65506bba9160018401600755610f86604051610f3b816102d3565b3381526020808201888152604080840186815260008a815260049094529220925183546001600160a01b0319166001600160a01b039190911617835551600183015551600290910155565b610f98610f9161142e565b85336115c1565b6040805195865260208601919091523394918291820190565b0390a3005b6113eb565b346101c15760003660031901126101c1576003546040516001600160a01b039091168152602090f35b346101c15760403660031901126101c157610ffd6101ab565b6024358015158082036101c1576001600160a01b038316928315611084573360009081526001602090815260408083206001600160a01b039094168352929052209060ff801983541691161790557f17307eab39ab6107e8899845ad3d59bd9653f200f220920489ca2b5937696c3160405180610fb1339482919091602081019215159052565b62ced3e160e81b600052600060045260246000fd5b346101c15760003660031901126101c1576020600854604051908152f35b346101c15760403660031901126101c157600435602435600a546001600160a01b0316330361111f5760207f46d8b32e8859f386bab4aa8f49b1a4871de80e5b108559af37213b394dbdd6ab91836000526004825280600160406000200155604051908152a2005b634a0bfec160e01b6000523360045260246000fd5b346101c15760403660031901126101c157602060ff6111856111546101ab565b61115c6101c6565b6001600160a01b0391821660009081526001865260408082209290931681526020919091522090565b54166040519015158152f35b346101c15760a03660031901126101c1576111aa6101ab565b6111b26101c6565b604435906064359260843567ffffffffffffffff81116101c1576111da903690600401610b2f565b926001600160a01b038216338114158061127d575b611265576001600160a01b0384161561124f571561123a576109839461123260405192600184526020840152604083019160018352606084015260808301604052565b92909161172b565b626a0d4560e21b600052600060045260246000fd5b632bfa23e760e11b600052600060045260246000fd5b63711bec9160e11b6000523360045260245260446000fd5b50600081815260016020908152604080832033845290915290205460ff16156111ef565b346101c15760203660031901126101c1576112ba6101ab565b6112c2611545565b6001600160a01b0316801561131557600380546001600160a01b0319811683179091556001600160a01b03167f8be0079c531659141344cd1fd0a4f28419497f9722a3daafe3b4186f6b6457e0600080a3005b631e4fbdf760e01b600052600060045260246000fd5b6000918252602082815260408084206001600160a01b03909316845291905290205490565b90600182811c92168015611380575b602083101461136a57565b634e487b7160e01b600052602260045260246000fd5b91607f169161135f565b9061139482610aba565b6113a160405191826102f4565b82815280926113b2601f1991610aba565b0190602036910137565b634e487b7160e01b600052603260045260246000fd5b80518210156113e65760209160051b010190565b6113bc565b634e487b7160e01b600052601160045260246000fd5b81810292918115918404141715610fb657565b91908203918211610fb657565b91908201809211610fb657565b6040519061143d6020836102f4565b60008252565b939291906001600160a01b038516338114158061147e575b611265576001600160a01b0382161561124f571561123a5761147c9461172b565b565b50600081815260016020908152604080832033845290915290205460ff161561145b565b3d156114cd573d906114b382610316565b916114c160405193846102f4565b82523d6000602084013e565b606090565b9190918051835180820361152e5750506114ec815161138a565b9060005b8151811015611527578061151660019260051b602080828701015191890101519061132b565b61152082866113d2565b52016114f0565b5090925050565b635b05999160e01b60005260045260245260446000fd5b6003546001600160a01b0316330361155957565b63118cdaa760e01b6000523360045260246000fd5b601f811161157a575050565b60026000526020600020906020601f840160051c830193106115b7575b601f0160051c01905b8181106115ab575050565b600081556001016115a0565b9091508190611597565b9291906001600160a01b0384161561124f5760016115fc60405192600184526020840152604083019160018352606084015260808301604052565b92909160005b8351811015611660578061162261161b600193876113d2565b518861132b565b1561162e575b01611602565b6001600160a01b038716600090815260066020526040902061165b9061165483886113d2565b519061187e565b611628565b5090939290916001600160a01b03841615806116ca575b6116848383876000611bb4565b15611690575b50505050565b80516001036116b957906020806116b09593015191015191600033611a5c565b3880808061168a565b6116c593600033611927565b6116b0565b93909260005b845181101561172257806116f16116e9600193886113d2565b51600061132b565b6116fb82876113d2565b5114611708575b016116d0565b61171d61171582886113d2565b516000611b3b565b611702565b50929093611677565b919392906001600160a01b038316156117fa575b6001600160a01b03811615806117a0575b61175c83878487611bb4565b15611769575b5050505050565b845160010361178f576020806117859601519201519233611a5c565b3880808080611762565b61179b94919233611927565b611785565b9492939060005b84518110156117f057806117c061161b600193886113d2565b6117ca82876113d2565b51146117d7575b016117a7565b6117eb6117e482886113d2565b5188611b3b565b6117d1565b5090939294611750565b94916000949391945b845181101561185a578061182361181c600193886113d2565b518961132b565b1561182f575b01611803565b6001600160a01b03881660009081526006602052604090206118559061165483896113d2565b611829565b5091949390929361173f565b80548210156113e65760005260206000200190600090565b90815491680100000000000000008310156102ef57826118a691600161147c95018155611866565b90919082549060031b91821b91600019901b1916179055565b908160209103126101c157516105228161023d565b6001600160a01b0391821681529116602082015260a0604082018190526105229491939192611919929161190b91908601906106aa565b9084820360608601526106aa565b9160808184039101526104d0565b9091949293853b61193b575b505050505050565b60209361195d91604051968795869563bc197c8160e01b8752600487016118d4565b038160006001600160a01b0387165af1600091816119f2575b506119b257506119846114a2565b80519190826119ab57632bfa23e760e11b6000526001600160a01b03821660045260246000fd5b6020915001fd5b6001600160e01b0319166343e6837f60e01b016119d55750388080808080611933565b632bfa23e760e11b6000526001600160a01b031660045260246000fd5b611a1591925060203d602011611a1c575b611a0d81836102f4565b8101906118bf565b9038611976565b503d611a03565b6001600160a01b039182168152911660208201526040810191909152606081019190915260a060808201819052610522929101906104d0565b9091949293853b611a6f57505050505050565b602093611a9191604051968795869563f23a6e6160e01b875260048701611a23565b038160006001600160a01b0387165af160009181611adb575b50611ab857506119846114a2565b6001600160e01b031916630dc5919f60e01b016119d55750388080808080611933565b611af591925060203d602011611a1c57611a0d81836102f4565b9038611aaa565b80548015611b25576000190190611b138282611866565b8154906000199060031b1b1916905555565b634e487b7160e01b600052603160045260246000fd5b6001600160a01b03166000908152600660205260408120905b81548082101561168a5783611b698385611866565b90549060031b1c14611b7e5750600101611b54565b9092506000198101908111610fb65761147c926118a6611ba1611baf9385611866565b90549060031b1c9184611866565b611afc565b9392918051835190818103611d7a57505060005b8151811015611cd4578060051b90602080838501015192860101518460018060a01b038916611c51575b6001936001600160a01b038216611c0d575b50505001611bc8565b611c4791611c28611c3f926000526000602052604060002090565b9060018060a01b0316600052602052604060002090565b918254611421565b9055388481611c04565b509091611c6c88611c28836000526000602052604060002090565b54828110611c9d57829160019493879203611c958b611c28846000526000602052604060002090565b559350611bf2565b6040516303dee4c560e01b81526001600160a01b038a16600482015260248101919091526044810183905260648101829052608490fd5b508051939493919291600103611d37576020908101519181015160408051938452918301526001600160a01b03928316939092169133917fc3d58168c5ae7397731d063d5bbf3d657854427343f4c083240f7aacaa2d0f6291819081015b0390a4565b6040516001600160a01b03938416949093169233927f4a39dc06d4c0dbc64b70af90fd698a233a518aa5d07e595d983b8c0526c8f7fb928291611d3291836106de565b635b05999160e01b60005260045260245260446000fdfea2646970667358221220c8318eca08e164cea690ca4e11098ee5e27c70f2f4c9d68f496825490173784a64736f6c634300081b0033",
  "devdoc": {
    "errors": {
      "ERC1155InsufficientBalance(address,uint256,uint256,uint256)": [
        {
          "details": "Indicates an error related to the current `balance` of a `sender`. Used in transfers.",
          "params": {
            "balance": "Current balance for the interacting account.",
            "needed": "Minimum amount required to perform a transfer.",
            "sender": "Address whose tokens are being transferred.",
            "tokenId": "Identifier number of a token."
          }
        }
      ],
      "ERC1155InvalidApprover(address)": [
        {
          "details": "Indicates a failure with the `approver` of a token to be approved. Used in approvals.",
          "params": {
            "approver": "Address initiating an approval operation."
          }
        }
      ],
      "ERC1155InvalidArrayLength(uint256,uint256)": [
        {
          "details": "Indicates an array length mismatch between ids and values in a safeBatchTransferFrom operation. Used in batch transfers.",
          "params": {
            "idsLength": "Length of the array of token identifiers",
            "valuesLength": "Length of the array of token amounts"
          }
        }
      ],
      "ERC1155InvalidOperator(address)": [
        {
          "details": "Indicates a failure with the `operator` to be approved. Used in approvals.",
          "params": {
            "operator": "Address that may be allowed to operate on tokens without being their owner."
          }
        }
      ],
      "ERC1155InvalidReceiver(address)": [
        {
          "details": "Indicates a failure with the token `receiver`. Used in transfers.",
          "params": {
            "receiver": "Address to which tokens are being transferred."
          }
        }
      ],
      "ERC1155InvalidSender(address)": [
        {
          "details": "Indicates a failure with the token `sender`. Used in transfers.",
          "params": {
            "sender": "Address whose tokens are being transferred."
          }
        }
      ],
      "ERC1155MissingApprovalForAll(address,address)": [
        {
          "details": "Indicates a failure with the `operator`s approval. Used in transfers.",
          "params": {
            "operator": "Address that may be allowed to operate on tokens without being their owner.",
            "owner": "Address of the current owner of a token."
          }
        }
      ],
      "OwnableInvalidOwner(address)": [
        {
          "details": "The owner is not a valid owner account. (eg. `address(0)`)"
        }
      ],
      "OwnableUnauthorizedAccount(address)": [
        {
          "details": "The caller account is not authorized to perform an operation."
        }
      ]
    },
    "events": {
      "ApprovalForAll(address,address,bool)": {
        "details": "Emitted when `account` grants or revokes permission to `operator` to transfer their tokens, according to `approved`."
      },
      "TransferBatch(address,address,address,uint256[],uint256[])": {
        "details": "Equivalent to multiple {TransferSingle} events, where `operator`, `from` and `to` are the same for all transfers."
      },
      "TransferSingle(address,address,address,uint256,uint256)": {
        "details": "Emitted when `value` amount of tokens of type `id` are transferred from `from` to `to` by `operator`."
      },
      "URI(string,uint256)": {
        "details": "Emitted when the URI for token type `id` changes to `value`, if it is a non-programmatic URI. If an {URI} event was emitted for `id`, the standard https://eips.ethereum.org/EIPS/eip-1155#metadata-extensions[guarantees] that `value` will equal the value returned by {IERC1155MetadataURI-uri}."
      }
    },
    "kind": "dev",
    "methods": {
      "balanceOf(address,uint256)": {
        "details": "Returns the value of tokens of token type `id` owned by `account`."
      },
      "balanceOfBatch(address[],uint256[])": {
        "details": "See {IERC1155-balanceOfBatch}. Requirements: - `accounts` and `ids` must have the same length."
      },
      "isApprovedForAll(address,address)": {
        "details": "Returns true if `operator` is approved to transfer ``account``'s tokens. See {setApprovalForAll}."
      },
      "owner()": {
        "details": "Returns the address of the current owner."
      },
      "renounceOwnership()": {
        "details": "Leaves the contract without owner. It will not be possible to call `onlyOwner` functions. Can only be called by the current owner. NOTE: Renouncing ownership will leave the contract without an owner, thereby disabling any functionality that is only available to the owner."
      },
      "safeBatchTransferFrom(address,address,uint256[],uint256[],bytes)": {
        "details": "xref:ROOT:erc1155.adoc#batch-operations[Batched] version of {safeTransferFrom}. WARNING: This function can potentially allow a reentrancy attack when transferring tokens to an untrusted contract, when invoking {IERC1155Receiver-onERC1155BatchReceived} on the receiver. Ensure to follow the checks-effects-interactions pattern and consider employing reentrancy guards when interacting with untrusted contracts. Emits either a {TransferSingle} or a {TransferBatch} event, depending on the length of the array arguments. Requirements: - `ids` and `values` must have the same length. - If `to` refers to a smart contract, it must implement {IERC1155Receiver-onERC1155BatchReceived} and return the acceptance magic value."
      },
      "safeTransferFrom(address,address,uint256,uint256,bytes)": {
        "details": "Transfers a `value` amount of tokens of type `id` from `from` to `to`. WARNING: This function can potentially allow a reentrancy attack when transferring tokens to an untrusted contract, when invoking {IERC1155Receiver-onERC1155Received} on the receiver. Ensure to follow the checks-effects-interactions pattern and consider employing reentrancy guards when interacting with untrusted contracts. Emits a {TransferSingle} event. Requirements: - `to` cannot be the zero address. - If the caller is not `from`, it must have been approved to spend ``from``'s tokens via {setApprovalForAll}. - `from` must have a balance of tokens of type `id` of at least `value` amount. - If `to` refers to a smart contract, it must implement {IERC1155Receiver-onERC1155Received} and return the acceptance magic value."
      },
      "setApprovalForAll(address,bool)": {
        "details": "Grants or revokes permission to `operator` to transfer the caller's tokens, according to `approved`, Emits an {ApprovalForAll} event. Requirements: - `operator` cannot be the zero address."
      },
      "supportsInterface(bytes4)": {
        "details": "Returns true if this contract implements the interface defined by `interfaceId`. See the corresponding https://eips.ethereum.org/EIPS/eip-165#how-interfaces-are-identified[ERC section] to learn more about how these ids are created. This function call must use less than 30 000 gas."
      },
      "transferOwnership(address)": {
        "details": "Transfers ownership of the contract to a new account (`newOwner`). Can only be called by the current owner."
      },
      "uri(uint256)": {
        "details": "See {IERC1155MetadataURI-uri}. This implementation returns the same URI for *all* token types. It relies on the token type ID substitution mechanism https://eips.ethereum.org/EIPS/eip-1155#metadata[defined in the ERC]. Clients calling this function must replace the `\\{id\\}` substring with the actual token type ID."
      }
    },
    "version": 1
  },
  "userdoc": {
    "kind": "user",
    "methods": {},
    "version": 1
  },
  "storageLayout": {
    "storage": [
      {
        "astId": 326,
        "contract": "contracts/CarbonOpus.sol:CarbonOpus",
        "label": "_balances",
        "offset": 0,
        "slot": "0",
        "type": "t_mapping(t_uint256,t_mapping(t_address,t_uint256))"
      },
      {
        "astId": 332,
        "contract": "contracts/CarbonOpus.sol:CarbonOpus",
        "label": "_operatorApprovals",
        "offset": 0,
        "slot": "1",
        "type": "t_mapping(t_address,t_mapping(t_address,t_bool))"
      },
      {
        "astId": 334,
        "contract": "contracts/CarbonOpus.sol:CarbonOpus",
        "label": "_uri",
        "offset": 0,
        "slot": "2",
        "type": "t_string_storage"
      },
      {
        "astId": 8,
        "contract": "contracts/CarbonOpus.sol:CarbonOpus",
        "label": "_owner",
        "offset": 0,
        "slot": "3",
        "type": "t_address"
      },
      {
        "astId": 10612,
        "contract": "contracts/CarbonOpus.sol:CarbonOpus",
        "label": "songs",
        "offset": 0,
        "slot": "4",
        "type": "t_mapping(t_uint256,t_struct(Song)11944_storage)"
      },
      {
        "astId": 10616,
        "contract": "contracts/CarbonOpus.sol:CarbonOpus",
        "label": "rewards",
        "offset": 0,
        "slot": "5",
        "type": "t_mapping(t_address,t_uint256)"
      },
      {
        "astId": 10621,
        "contract": "contracts/CarbonOpus.sol:CarbonOpus",
        "label": "_userTokens",
        "offset": 0,
        "slot": "6",
        "type": "t_mapping(t_address,t_array(t_uint256)dyn_storage)"
      },
      {
        "astId": 10623,
        "contract": "contracts/CarbonOpus.sol:CarbonOpus",
        "label": "_nextTokenId",
        "offset": 0,
        "slot": "7",
        "type": "t_uint256"
      },
      {
        "astId": 10625,
        "contract": "contracts/CarbonOpus.sol:CarbonOpus",
        "label": "protocolFee",
        "offset": 0,
        "slot": "8",
        "type": "t_uint256"
      },
      {
        "astId": 10627,
        "contract": "contracts/CarbonOpus.sol:CarbonOpus",
        "label": "_treasury",
        "offset": 0,
        "slot": "9",
        "type": "t_address"
      },
      {
        "astId": 10629,
        "contract": "contracts/CarbonOpus.sol:CarbonOpus",
        "label": "_priceScaleManager",
        "offset": 0,
        "slot": "10",
        "type": "t_address"
      }
    ],
    "types": {
      "t_address": {
        "encoding": "inplace",
        "label": "address",
        "numberOfBytes": "20"
      },
      "t_array(t_uint256)dyn_storage": {
        "base": "t_uint256",
        "encoding": "dynamic_array",
        "label": "uint256[]",
        "numberOfBytes": "32"
      },
      "t_bool": {
        "encoding": "inplace",
        "label": "bool",
        "numberOfBytes": "1"
      },
      "t_mapping(t_address,t_array(t_uint256)dyn_storage)": {
        "encoding": "mapping",
        "key": "t_address",
        "label": "mapping(address => uint256[])",
        "numberOfBytes": "32",
        "value": "t_array(t_uint256)dyn_storage"
      },
      "t_mapping(t_address,t_bool)": {
        "encoding": "mapping",
        "key": "t_address",
        "label": "mapping(address => bool)",
        "numberOfBytes": "32",
        "value": "t_bool"
      },
      "t_mapping(t_address,t_mapping(t_address,t_bool))": {
        "encoding": "mapping",
        "key": "t_address",
        "label": "mapping(address => mapping(address => bool))",
        "numberOfBytes": "32",
        "value": "t_mapping(t_address,t_bool)"
      },
      "t_mapping(t_address,t_uint256)": {
        "encoding": "mapping",
        "key": "t_address",
        "label": "mapping(address => uint256)",
        "numberOfBytes": "32",
        "value": "t_uint256"
      },
      "t_mapping(t_uint256,t_mapping(t_address,t_uint256))": {
        "encoding": "mapping",
        "key": "t_uint256",
        "label": "mapping(uint256 => mapping(address => uint256))",
        "numberOfBytes": "32",
        "value": "t_mapping(t_address,t_uint256)"
      },
      "t_mapping(t_uint256,t_struct(Song)11944_storage)": {
        "encoding": "mapping",
        "key": "t_uint256",
        "label": "mapping(uint256 => struct ICarbonOpus.Song)",
        "numberOfBytes": "32",
        "value": "t_struct(Song)11944_storage"
      },
      "t_string_storage": {
        "encoding": "bytes",
        "label": "string",
        "numberOfBytes": "32"
      },
      "t_struct(Song)11944_storage": {
        "encoding": "inplace",
        "label": "struct ICarbonOpus.Song",
        "members": [
          {
            "astId": 11939,
            "contract": "contracts/CarbonOpus.sol:CarbonOpus",
            "label": "artist",
            "offset": 0,
            "slot": "0",
            "type": "t_address"
          },
          {
            "astId": 11941,
            "contract": "contracts/CarbonOpus.sol:CarbonOpus",
            "label": "price",
            "offset": 0,
            "slot": "1",
            "type": "t_uint256"
          },
          {
            "astId": 11943,
            "contract": "contracts/CarbonOpus.sol:CarbonOpus",
            "label": "referralPct",
            "offset": 0,
            "slot": "2",
            "type": "t_uint256"
          }
        ],
        "numberOfBytes": "96"
      },
      "t_uint256": {
        "encoding": "inplace",
        "label": "uint256",
        "numberOfBytes": "32"
      }
    }
  }
}