{
  "address": "0x1c4C0eB1e1C659D1863d0Ef33f0ec08C00b3105F",
  "abi": [
    {
      "inputs": [
        {
          "internalType": "string",
          "name": "name",
          "type": "string"
        },
        {
          "internalType": "string",
          "name": "symbol",
          "type": "string"
        },
        {
          "internalType": "address",
          "name": "_creator",
          "type": "address"
        },
        {
          "internalType": "address",
          "name": "_router",
          "type": "address"
        },
        {
          "internalType": "address",
          "name": "_config",
          "type": "address"
        },
        {
          "components": [
            {
              "internalType": "uint256",
              "name": "virtualEth",
              "type": "uint256"
            },
            {
              "internalType": "uint256",
              "name": "virtualTokens",
              "type": "uint256"
            },
            {
              "internalType": "uint256",
              "name": "maxSupply",
              "type": "uint256"
            },
            {
              "internalType": "uint256",
              "name": "graduationThreshold",
              "type": "uint256"
            }
          ],
          "internalType": "struct ICarbonCoin.BondingCurveConfig",
          "name": "bondingCurveConfig",
          "type": "tuple"
        }
      ],
      "stateMutability": "nonpayable",
      "type": "constructor"
    },
    {
      "inputs": [],
      "name": "AlreadyGraduated",
      "type": "error"
    },
    {
      "inputs": [],
      "name": "Blacklisted",
      "type": "error"
    },
    {
      "inputs": [],
      "name": "BuyAmountTooHigh",
      "type": "error"
    },
    {
      "inputs": [],
      "name": "CircuitBreakerActive",
      "type": "error"
    },
    {
      "inputs": [],
      "name": "ContractCallNotAllowed",
      "type": "error"
    },
    {
      "inputs": [],
      "name": "CooldownActive",
      "type": "error"
    },
    {
      "inputs": [
        {
          "internalType": "address",
          "name": "spender",
          "type": "address"
        },
        {
          "internalType": "uint256",
          "name": "allowance",
          "type": "uint256"
        },
        {
          "internalType": "uint256",
          "name": "needed",
          "type": "uint256"
        }
      ],
      "name": "ERC20InsufficientAllowance",
      "type": "error"
    },
    {
      "inputs": [
        {
          "internalType": "address",
          "name": "sender",
          "type": "address"
        },
        {
          "internalType": "uint256",
          "name": "balance",
          "type": "uint256"
        },
        {
          "internalType": "uint256",
          "name": "needed",
          "type": "uint256"
        }
      ],
      "name": "ERC20InsufficientBalance",
      "type": "error"
    },
    {
      "inputs": [
        {
          "internalType": "address",
          "name": "approver",
          "type": "address"
        }
      ],
      "name": "ERC20InvalidApprover",
      "type": "error"
    },
    {
      "inputs": [
        {
          "internalType": "address",
          "name": "receiver",
          "type": "address"
        }
      ],
      "name": "ERC20InvalidReceiver",
      "type": "error"
    },
    {
      "inputs": [
        {
          "internalType": "address",
          "name": "sender",
          "type": "address"
        }
      ],
      "name": "ERC20InvalidSender",
      "type": "error"
    },
    {
      "inputs": [
        {
          "internalType": "address",
          "name": "spender",
          "type": "address"
        }
      ],
      "name": "ERC20InvalidSpender",
      "type": "error"
    },
    {
      "inputs": [],
      "name": "EnforcedPause",
      "type": "error"
    },
    {
      "inputs": [],
      "name": "ExceedsMaxSupply",
      "type": "error"
    },
    {
      "inputs": [],
      "name": "ExceedsMaxWallet",
      "type": "error"
    },
    {
      "inputs": [],
      "name": "ExcessiveVolatility",
      "type": "error"
    },
    {
      "inputs": [],
      "name": "ExpectedPause",
      "type": "error"
    },
    {
      "inputs": [],
      "name": "FeeExceedsMaximum",
      "type": "error"
    },
    {
      "inputs": [],
      "name": "GraduationCooldownActive",
      "type": "error"
    },
    {
      "inputs": [],
      "name": "InsufficientLiquidity",
      "type": "error"
    },
    {
      "inputs": [],
      "name": "InvalidAmount",
      "type": "error"
    },
    {
      "inputs": [],
      "name": "NoWhaleIntentFound",
      "type": "error"
    },
    {
      "inputs": [],
      "name": "NotGraduated",
      "type": "error"
    },
    {
      "inputs": [],
      "name": "PriceImpactTooHigh",
      "type": "error"
    },
    {
      "inputs": [],
      "name": "ReentrancyGuardReentrantCall",
      "type": "error"
    },
    {
      "inputs": [],
      "name": "SellAmountTooLarge",
      "type": "error"
    },
    {
      "inputs": [],
      "name": "SlippageTooHigh",
      "type": "error"
    },
    {
      "inputs": [],
      "name": "TradeSizeTooLarge",
      "type": "error"
    },
    {
      "inputs": [],
      "name": "Unauthorized",
      "type": "error"
    },
    {
      "inputs": [],
      "name": "WhaleDelayActive",
      "type": "error"
    },
    {
      "inputs": [],
      "name": "WhaleIntentNotReady",
      "type": "error"
    },
    {
      "inputs": [],
      "name": "WhaleIntentRequired",
      "type": "error"
    },
    {
      "anonymous": false,
      "inputs": [
        {
          "indexed": true,
          "internalType": "address",
          "name": "account",
          "type": "address"
        },
        {
          "indexed": false,
          "internalType": "bool",
          "name": "blacklisted",
          "type": "bool"
        },
        {
          "indexed": false,
          "internalType": "uint256",
          "name": "timestamp",
          "type": "uint256"
        }
      ],
      "name": "AddressBlacklisted",
      "type": "event"
    },
    {
      "anonymous": false,
      "inputs": [
        {
          "indexed": true,
          "internalType": "address",
          "name": "account",
          "type": "address"
        },
        {
          "indexed": false,
          "internalType": "bool",
          "name": "whitelisted",
          "type": "bool"
        },
        {
          "indexed": false,
          "internalType": "uint256",
          "name": "timestamp",
          "type": "uint256"
        }
      ],
      "name": "AddressWhitelisted",
      "type": "event"
    },
    {
      "anonymous": false,
      "inputs": [
        {
          "indexed": true,
          "internalType": "address",
          "name": "owner",
          "type": "address"
        },
        {
          "indexed": true,
          "internalType": "address",
          "name": "spender",
          "type": "address"
        },
        {
          "indexed": false,
          "internalType": "uint256",
          "name": "value",
          "type": "uint256"
        }
      ],
      "name": "Approval",
      "type": "event"
    },
    {
      "anonymous": false,
      "inputs": [
        {
          "indexed": true,
          "internalType": "address",
          "name": "suspect",
          "type": "address"
        },
        {
          "indexed": false,
          "internalType": "string",
          "name": "reason",
          "type": "string"
        },
        {
          "indexed": false,
          "internalType": "uint256",
          "name": "timestamp",
          "type": "uint256"
        }
      ],
      "name": "BotDetected",
      "type": "event"
    },
    {
      "anonymous": false,
      "inputs": [
        {
          "indexed": false,
          "internalType": "uint256",
          "name": "timestamp",
          "type": "uint256"
        }
      ],
      "name": "CircuitBreakerReset",
      "type": "event"
    },
    {
      "anonymous": false,
      "inputs": [
        {
          "indexed": false,
          "internalType": "string",
          "name": "reason",
          "type": "string"
        },
        {
          "indexed": false,
          "internalType": "uint256",
          "name": "timestamp",
          "type": "uint256"
        },
        {
          "indexed": false,
          "internalType": "uint256",
          "name": "duration",
          "type": "uint256"
        }
      ],
      "name": "CircuitBreakerTriggered",
      "type": "event"
    },
    {
      "anonymous": false,
      "inputs": [
        {
          "indexed": true,
          "internalType": "address",
          "name": "to",
          "type": "address"
        },
        {
          "indexed": false,
          "internalType": "uint256",
          "name": "amount",
          "type": "uint256"
        },
        {
          "indexed": false,
          "internalType": "uint256",
          "name": "timestamp",
          "type": "uint256"
        }
      ],
      "name": "EmergencyWithdraw",
      "type": "event"
    },
    {
      "anonymous": false,
      "inputs": [
        {
          "indexed": true,
          "internalType": "address",
          "name": "token",
          "type": "address"
        },
        {
          "indexed": true,
          "internalType": "address",
          "name": "pair",
          "type": "address"
        },
        {
          "indexed": false,
          "internalType": "uint256",
          "name": "liquidityTokens",
          "type": "uint256"
        },
        {
          "indexed": false,
          "internalType": "uint256",
          "name": "liquidityEth",
          "type": "uint256"
        },
        {
          "indexed": false,
          "internalType": "uint256",
          "name": "finalPrice",
          "type": "uint256"
        },
        {
          "indexed": false,
          "internalType": "uint256",
          "name": "timestamp",
          "type": "uint256"
        }
      ],
      "name": "Graduated",
      "type": "event"
    },
    {
      "anonymous": false,
      "inputs": [
        {
          "indexed": true,
          "internalType": "address",
          "name": "trader",
          "type": "address"
        },
        {
          "indexed": false,
          "internalType": "uint256",
          "name": "priceImpact",
          "type": "uint256"
        },
        {
          "indexed": false,
          "internalType": "uint256",
          "name": "timestamp",
          "type": "uint256"
        }
      ],
      "name": "HighPriceImpact",
      "type": "event"
    },
    {
      "anonymous": false,
      "inputs": [
        {
          "indexed": false,
          "internalType": "uint256",
          "name": "ethReserves",
          "type": "uint256"
        },
        {
          "indexed": false,
          "internalType": "uint256",
          "name": "tokenSupply",
          "type": "uint256"
        },
        {
          "indexed": false,
          "internalType": "uint256",
          "name": "timestamp",
          "type": "uint256"
        }
      ],
      "name": "LiquiditySnapshot",
      "type": "event"
    },
    {
      "anonymous": false,
      "inputs": [
        {
          "indexed": false,
          "internalType": "address",
          "name": "account",
          "type": "address"
        }
      ],
      "name": "Paused",
      "type": "event"
    },
    {
      "anonymous": false,
      "inputs": [
        {
          "indexed": false,
          "internalType": "uint256",
          "name": "price",
          "type": "uint256"
        },
        {
          "indexed": false,
          "internalType": "uint256",
          "name": "ethReserves",
          "type": "uint256"
        },
        {
          "indexed": false,
          "internalType": "uint256",
          "name": "tokenSupply",
          "type": "uint256"
        },
        {
          "indexed": false,
          "internalType": "uint256",
          "name": "timestamp",
          "type": "uint256"
        }
      ],
      "name": "PriceUpdate",
      "type": "event"
    },
    {
      "anonymous": false,
      "inputs": [
        {
          "indexed": true,
          "internalType": "address",
          "name": "token",
          "type": "address"
        },
        {
          "indexed": true,
          "internalType": "address",
          "name": "creator",
          "type": "address"
        },
        {
          "indexed": false,
          "internalType": "string",
          "name": "name",
          "type": "string"
        },
        {
          "indexed": false,
          "internalType": "string",
          "name": "symbol",
          "type": "string"
        },
        {
          "indexed": false,
          "internalType": "uint256",
          "name": "maxSupply",
          "type": "uint256"
        },
        {
          "indexed": false,
          "internalType": "uint256",
          "name": "graduationThreshold",
          "type": "uint256"
        },
        {
          "indexed": false,
          "internalType": "uint256",
          "name": "timestamp",
          "type": "uint256"
        }
      ],
      "name": "TokenDeployed",
      "type": "event"
    },
    {
      "anonymous": false,
      "inputs": [
        {
          "indexed": true,
          "internalType": "address",
          "name": "buyer",
          "type": "address"
        },
        {
          "indexed": false,
          "internalType": "uint256",
          "name": "ethIn",
          "type": "uint256"
        },
        {
          "indexed": false,
          "internalType": "uint256",
          "name": "tokensOut",
          "type": "uint256"
        },
        {
          "indexed": false,
          "internalType": "uint256",
          "name": "newPrice",
          "type": "uint256"
        },
        {
          "indexed": false,
          "internalType": "uint256",
          "name": "realEthReserves",
          "type": "uint256"
        },
        {
          "indexed": false,
          "internalType": "uint256",
          "name": "realTokenSupply",
          "type": "uint256"
        },
        {
          "indexed": false,
          "internalType": "uint256",
          "name": "timestamp",
          "type": "uint256"
        }
      ],
      "name": "TokensPurchased",
      "type": "event"
    },
    {
      "anonymous": false,
      "inputs": [
        {
          "indexed": true,
          "internalType": "address",
          "name": "seller",
          "type": "address"
        },
        {
          "indexed": false,
          "internalType": "uint256",
          "name": "tokensIn",
          "type": "uint256"
        },
        {
          "indexed": false,
          "internalType": "uint256",
          "name": "ethOut",
          "type": "uint256"
        },
        {
          "indexed": false,
          "internalType": "uint256",
          "name": "newPrice",
          "type": "uint256"
        },
        {
          "indexed": false,
          "internalType": "uint256",
          "name": "realEthReserves",
          "type": "uint256"
        },
        {
          "indexed": false,
          "internalType": "uint256",
          "name": "realTokenSupply",
          "type": "uint256"
        },
        {
          "indexed": false,
          "internalType": "uint256",
          "name": "timestamp",
          "type": "uint256"
        }
      ],
      "name": "TokensSold",
      "type": "event"
    },
    {
      "anonymous": false,
      "inputs": [
        {
          "indexed": false,
          "internalType": "uint256",
          "name": "timestamp",
          "type": "uint256"
        }
      ],
      "name": "TradingPaused",
      "type": "event"
    },
    {
      "anonymous": false,
      "inputs": [
        {
          "indexed": false,
          "internalType": "uint256",
          "name": "timestamp",
          "type": "uint256"
        }
      ],
      "name": "TradingUnpaused",
      "type": "event"
    },
    {
      "anonymous": false,
      "inputs": [
        {
          "indexed": true,
          "internalType": "address",
          "name": "from",
          "type": "address"
        },
        {
          "indexed": true,
          "internalType": "address",
          "name": "to",
          "type": "address"
        },
        {
          "indexed": false,
          "internalType": "uint256",
          "name": "value",
          "type": "uint256"
        }
      ],
      "name": "Transfer",
      "type": "event"
    },
    {
      "anonymous": false,
      "inputs": [
        {
          "indexed": false,
          "internalType": "address",
          "name": "account",
          "type": "address"
        }
      ],
      "name": "Unpaused",
      "type": "event"
    },
    {
      "anonymous": false,
      "inputs": [
        {
          "indexed": false,
          "internalType": "uint256",
          "name": "moveCount",
          "type": "uint256"
        },
        {
          "indexed": false,
          "internalType": "uint256",
          "name": "timestamp",
          "type": "uint256"
        }
      ],
      "name": "VolatilityWarning",
      "type": "event"
    },
    {
      "anonymous": false,
      "inputs": [
        {
          "indexed": true,
          "internalType": "address",
          "name": "trader",
          "type": "address"
        },
        {
          "indexed": false,
          "internalType": "uint256",
          "name": "timestamp",
          "type": "uint256"
        }
      ],
      "name": "WhaleIntentCancelled",
      "type": "event"
    },
    {
      "anonymous": false,
      "inputs": [
        {
          "indexed": true,
          "internalType": "address",
          "name": "trader",
          "type": "address"
        },
        {
          "indexed": false,
          "internalType": "uint256",
          "name": "amount",
          "type": "uint256"
        },
        {
          "indexed": false,
          "internalType": "bool",
          "name": "isBuy",
          "type": "bool"
        },
        {
          "indexed": false,
          "internalType": "uint256",
          "name": "executeAfter",
          "type": "uint256"
        },
        {
          "indexed": false,
          "internalType": "uint256",
          "name": "timestamp",
          "type": "uint256"
        }
      ],
      "name": "WhaleIntentRegistered",
      "type": "event"
    },
    {
      "anonymous": false,
      "inputs": [
        {
          "indexed": true,
          "internalType": "address",
          "name": "trader",
          "type": "address"
        },
        {
          "indexed": false,
          "internalType": "uint256",
          "name": "amount",
          "type": "uint256"
        },
        {
          "indexed": false,
          "internalType": "bool",
          "name": "isBuy",
          "type": "bool"
        },
        {
          "indexed": false,
          "internalType": "uint256",
          "name": "timestamp",
          "type": "uint256"
        }
      ],
      "name": "WhaleTradeExecuted",
      "type": "event"
    },
    {
      "inputs": [],
      "name": "GRADUATION_COOLDOWN",
      "outputs": [
        {
          "internalType": "uint256",
          "name": "",
          "type": "uint256"
        }
      ],
      "stateMutability": "view",
      "type": "function"
    },
    {
      "inputs": [],
      "name": "GRADUATION_THRESHOLD",
      "outputs": [
        {
          "internalType": "uint256",
          "name": "",
          "type": "uint256"
        }
      ],
      "stateMutability": "view",
      "type": "function"
    },
    {
      "inputs": [],
      "name": "MAX_SUPPLY",
      "outputs": [
        {
          "internalType": "uint256",
          "name": "",
          "type": "uint256"
        }
      ],
      "stateMutability": "view",
      "type": "function"
    },
    {
      "inputs": [],
      "name": "VIRTUAL_ETH",
      "outputs": [
        {
          "internalType": "uint256",
          "name": "",
          "type": "uint256"
        }
      ],
      "stateMutability": "view",
      "type": "function"
    },
    {
      "inputs": [],
      "name": "VIRTUAL_TOKENS",
      "outputs": [
        {
          "internalType": "uint256",
          "name": "",
          "type": "uint256"
        }
      ],
      "stateMutability": "view",
      "type": "function"
    },
    {
      "inputs": [
        {
          "internalType": "address",
          "name": "account",
          "type": "address"
        }
      ],
      "name": "addToWhitelist",
      "outputs": [],
      "stateMutability": "nonpayable",
      "type": "function"
    },
    {
      "inputs": [
        {
          "internalType": "address",
          "name": "owner",
          "type": "address"
        },
        {
          "internalType": "address",
          "name": "spender",
          "type": "address"
        }
      ],
      "name": "allowance",
      "outputs": [
        {
          "internalType": "uint256",
          "name": "",
          "type": "uint256"
        }
      ],
      "stateMutability": "view",
      "type": "function"
    },
    {
      "inputs": [
        {
          "internalType": "address",
          "name": "spender",
          "type": "address"
        },
        {
          "internalType": "uint256",
          "name": "value",
          "type": "uint256"
        }
      ],
      "name": "approve",
      "outputs": [
        {
          "internalType": "bool",
          "name": "",
          "type": "bool"
        }
      ],
      "stateMutability": "nonpayable",
      "type": "function"
    },
    {
      "inputs": [
        {
          "internalType": "address",
          "name": "account",
          "type": "address"
        }
      ],
      "name": "balanceOf",
      "outputs": [
        {
          "internalType": "uint256",
          "name": "",
          "type": "uint256"
        }
      ],
      "stateMutability": "view",
      "type": "function"
    },
    {
      "inputs": [
        {
          "internalType": "address",
          "name": "account",
          "type": "address"
        },
        {
          "internalType": "bool",
          "name": "blacklisted",
          "type": "bool"
        }
      ],
      "name": "blacklistAddress",
      "outputs": [],
      "stateMutability": "nonpayable",
      "type": "function"
    },
    {
      "inputs": [
        {
          "internalType": "uint256",
          "name": "minTokensOut",
          "type": "uint256"
        }
      ],
      "name": "buy",
      "outputs": [],
      "stateMutability": "payable",
      "type": "function"
    },
    {
      "inputs": [
        {
          "internalType": "uint256",
          "name": "tokensOut",
          "type": "uint256"
        }
      ],
      "name": "calculateEthIn",
      "outputs": [
        {
          "internalType": "uint256",
          "name": "",
          "type": "uint256"
        }
      ],
      "stateMutability": "view",
      "type": "function"
    },
    {
      "inputs": [
        {
          "internalType": "uint256",
          "name": "tokensIn",
          "type": "uint256"
        }
      ],
      "name": "calculateEthOut",
      "outputs": [
        {
          "internalType": "uint256",
          "name": "",
          "type": "uint256"
        }
      ],
      "stateMutability": "view",
      "type": "function"
    },
    {
      "inputs": [
        {
          "internalType": "uint256",
          "name": "ethIn",
          "type": "uint256"
        }
      ],
      "name": "calculateTokensOut",
      "outputs": [
        {
          "internalType": "uint256",
          "name": "",
          "type": "uint256"
        }
      ],
      "stateMutability": "view",
      "type": "function"
    },
    {
      "inputs": [],
      "name": "cancelWhaleIntent",
      "outputs": [],
      "stateMutability": "nonpayable",
      "type": "function"
    },
    {
      "inputs": [],
      "name": "circuitBreakerTriggeredAt",
      "outputs": [
        {
          "internalType": "uint256",
          "name": "",
          "type": "uint256"
        }
      ],
      "stateMutability": "view",
      "type": "function"
    },
    {
      "inputs": [],
      "name": "config",
      "outputs": [
        {
          "internalType": "address",
          "name": "",
          "type": "address"
        }
      ],
      "stateMutability": "view",
      "type": "function"
    },
    {
      "inputs": [],
      "name": "creator",
      "outputs": [
        {
          "internalType": "address",
          "name": "",
          "type": "address"
        }
      ],
      "stateMutability": "view",
      "type": "function"
    },
    {
      "inputs": [],
      "name": "decimals",
      "outputs": [
        {
          "internalType": "uint8",
          "name": "",
          "type": "uint8"
        }
      ],
      "stateMutability": "view",
      "type": "function"
    },
    {
      "inputs": [],
      "name": "dexPair",
      "outputs": [
        {
          "internalType": "address",
          "name": "",
          "type": "address"
        }
      ],
      "stateMutability": "view",
      "type": "function"
    },
    {
      "inputs": [],
      "name": "dexRouter",
      "outputs": [
        {
          "internalType": "contract ISomniaExchangeRouter02",
          "name": "",
          "type": "address"
        }
      ],
      "stateMutability": "view",
      "type": "function"
    },
    {
      "inputs": [],
      "name": "emergencyWithdraw",
      "outputs": [],
      "stateMutability": "nonpayable",
      "type": "function"
    },
    {
      "inputs": [],
      "name": "forceGraduate",
      "outputs": [],
      "stateMutability": "nonpayable",
      "type": "function"
    },
    {
      "inputs": [],
      "name": "getAntiBotInfo",
      "outputs": [
        {
          "internalType": "uint256",
          "name": "_launchTime",
          "type": "uint256"
        },
        {
          "internalType": "uint256",
          "name": "_timeSinceLaunch",
          "type": "uint256"
        },
        {
          "internalType": "bool",
          "name": "_antiBotActive",
          "type": "bool"
        },
        {
          "internalType": "uint256",
          "name": "_maxBuyEarly",
          "type": "uint256"
        },
        {
          "internalType": "uint256",
          "name": "_cooldownPeriod",
          "type": "uint256"
        },
        {
          "internalType": "uint256",
          "name": "_maxWalletPercentage",
          "type": "uint256"
        }
      ],
      "stateMutability": "view",
      "type": "function"
    },
    {
      "inputs": [],
      "name": "getCircuitBreakerStatus",
      "outputs": [
        {
          "internalType": "bool",
          "name": "isActive",
          "type": "bool"
        },
        {
          "internalType": "uint256",
          "name": "triggeredAt",
          "type": "uint256"
        },
        {
          "internalType": "uint256",
          "name": "timeRemaining",
          "type": "uint256"
        },
        {
          "internalType": "uint256",
          "name": "volatilityMoves",
          "type": "uint256"
        }
      ],
      "stateMutability": "view",
      "type": "function"
    },
    {
      "inputs": [],
      "name": "getCurrentPrice",
      "outputs": [
        {
          "internalType": "uint256",
          "name": "",
          "type": "uint256"
        }
      ],
      "stateMutability": "view",
      "type": "function"
    },
    {
      "inputs": [],
      "name": "getReserves",
      "outputs": [
        {
          "internalType": "uint256",
          "name": "ethReserves",
          "type": "uint256"
        },
        {
          "internalType": "uint256",
          "name": "tokenSupply",
          "type": "uint256"
        },
        {
          "internalType": "uint256",
          "name": "virtualEth",
          "type": "uint256"
        },
        {
          "internalType": "uint256",
          "name": "virtualTokens",
          "type": "uint256"
        }
      ],
      "stateMutability": "view",
      "type": "function"
    },
    {
      "inputs": [],
      "name": "getTradeLimits",
      "outputs": [
        {
          "internalType": "uint256",
          "name": "_maxTradeSize",
          "type": "uint256"
        },
        {
          "internalType": "uint256",
          "name": "_maxSellPercentage",
          "type": "uint256"
        },
        {
          "internalType": "uint256",
          "name": "_whaleThreshold",
          "type": "uint256"
        },
        {
          "internalType": "uint256",
          "name": "_whaleDelay",
          "type": "uint256"
        },
        {
          "internalType": "uint256",
          "name": "currentMaxSellTokens",
          "type": "uint256"
        }
      ],
      "stateMutability": "view",
      "type": "function"
    },
    {
      "inputs": [
        {
          "internalType": "address",
          "name": "user",
          "type": "address"
        }
      ],
      "name": "getUserCooldown",
      "outputs": [
        {
          "internalType": "uint256",
          "name": "",
          "type": "uint256"
        }
      ],
      "stateMutability": "view",
      "type": "function"
    },
    {
      "inputs": [
        {
          "internalType": "address",
          "name": "trader",
          "type": "address"
        }
      ],
      "name": "getWhaleCooldown",
      "outputs": [
        {
          "internalType": "uint256",
          "name": "lastTradeTime",
          "type": "uint256"
        },
        {
          "internalType": "uint256",
          "name": "nextTradeAvailable",
          "type": "uint256"
        },
        {
          "internalType": "bool",
          "name": "canTradeNow",
          "type": "bool"
        }
      ],
      "stateMutability": "view",
      "type": "function"
    },
    {
      "inputs": [
        {
          "internalType": "address",
          "name": "trader",
          "type": "address"
        }
      ],
      "name": "getWhaleIntent",
      "outputs": [
        {
          "internalType": "uint256",
          "name": "amount",
          "type": "uint256"
        },
        {
          "internalType": "uint256",
          "name": "intentTime",
          "type": "uint256"
        },
        {
          "internalType": "uint256",
          "name": "executeAfter",
          "type": "uint256"
        },
        {
          "internalType": "bool",
          "name": "isBuy",
          "type": "bool"
        },
        {
          "internalType": "bool",
          "name": "executed",
          "type": "bool"
        },
        {
          "internalType": "bool",
          "name": "canExecute",
          "type": "bool"
        }
      ],
      "stateMutability": "view",
      "type": "function"
    },
    {
      "inputs": [],
      "name": "hasGraduated",
      "outputs": [
        {
          "internalType": "bool",
          "name": "",
          "type": "bool"
        }
      ],
      "stateMutability": "view",
      "type": "function"
    },
    {
      "inputs": [
        {
          "internalType": "address",
          "name": "",
          "type": "address"
        }
      ],
      "name": "isBlacklisted",
      "outputs": [
        {
          "internalType": "bool",
          "name": "",
          "type": "bool"
        }
      ],
      "stateMutability": "view",
      "type": "function"
    },
    {
      "inputs": [
        {
          "internalType": "address",
          "name": "",
          "type": "address"
        }
      ],
      "name": "lastBuyTime",
      "outputs": [
        {
          "internalType": "uint256",
          "name": "",
          "type": "uint256"
        }
      ],
      "stateMutability": "view",
      "type": "function"
    },
    {
      "inputs": [],
      "name": "lastGraduationAttempt",
      "outputs": [
        {
          "internalType": "uint256",
          "name": "",
          "type": "uint256"
        }
      ],
      "stateMutability": "view",
      "type": "function"
    },
    {
      "inputs": [],
      "name": "lastVolatilityReset",
      "outputs": [
        {
          "internalType": "uint256",
          "name": "",
          "type": "uint256"
        }
      ],
      "stateMutability": "view",
      "type": "function"
    },
    {
      "inputs": [
        {
          "internalType": "address",
          "name": "",
          "type": "address"
        }
      ],
      "name": "lastWhaleTradeTime",
      "outputs": [
        {
          "internalType": "uint256",
          "name": "",
          "type": "uint256"
        }
      ],
      "stateMutability": "view",
      "type": "function"
    },
    {
      "inputs": [],
      "name": "launchTime",
      "outputs": [
        {
          "internalType": "uint256",
          "name": "",
          "type": "uint256"
        }
      ],
      "stateMutability": "view",
      "type": "function"
    },
    {
      "inputs": [],
      "name": "launcher",
      "outputs": [
        {
          "internalType": "address",
          "name": "",
          "type": "address"
        }
      ],
      "stateMutability": "view",
      "type": "function"
    },
    {
      "inputs": [],
      "name": "name",
      "outputs": [
        {
          "internalType": "string",
          "name": "",
          "type": "string"
        }
      ],
      "stateMutability": "view",
      "type": "function"
    },
    {
      "inputs": [],
      "name": "pause",
      "outputs": [],
      "stateMutability": "nonpayable",
      "type": "function"
    },
    {
      "inputs": [],
      "name": "paused",
      "outputs": [
        {
          "internalType": "bool",
          "name": "",
          "type": "bool"
        }
      ],
      "stateMutability": "view",
      "type": "function"
    },
    {
      "inputs": [
        {
          "internalType": "address",
          "name": "",
          "type": "address"
        }
      ],
      "name": "pendingWhaleIntents",
      "outputs": [
        {
          "internalType": "uint256",
          "name": "amount",
          "type": "uint256"
        },
        {
          "internalType": "uint256",
          "name": "intentTime",
          "type": "uint256"
        },
        {
          "internalType": "bool",
          "name": "isBuy",
          "type": "bool"
        },
        {
          "internalType": "bool",
          "name": "executed",
          "type": "bool"
        }
      ],
      "stateMutability": "view",
      "type": "function"
    },
    {
      "inputs": [],
      "name": "realEthReserves",
      "outputs": [
        {
          "internalType": "uint256",
          "name": "",
          "type": "uint256"
        }
      ],
      "stateMutability": "view",
      "type": "function"
    },
    {
      "inputs": [],
      "name": "realTokenSupply",
      "outputs": [
        {
          "internalType": "uint256",
          "name": "",
          "type": "uint256"
        }
      ],
      "stateMutability": "view",
      "type": "function"
    },
    {
      "inputs": [
        {
          "internalType": "uint256",
          "name": "",
          "type": "uint256"
        }
      ],
      "name": "recentPrices",
      "outputs": [
        {
          "internalType": "uint256",
          "name": "price",
          "type": "uint256"
        },
        {
          "internalType": "uint256",
          "name": "timestamp",
          "type": "uint256"
        }
      ],
      "stateMutability": "view",
      "type": "function"
    },
    {
      "inputs": [
        {
          "internalType": "address",
          "name": "account",
          "type": "address"
        }
      ],
      "name": "removeFromWhitelist",
      "outputs": [],
      "stateMutability": "nonpayable",
      "type": "function"
    },
    {
      "inputs": [],
      "name": "resetCircuitBreaker",
      "outputs": [],
      "stateMutability": "nonpayable",
      "type": "function"
    },
    {
      "inputs": [
        {
          "internalType": "uint256",
          "name": "tokensIn",
          "type": "uint256"
        },
        {
          "internalType": "uint256",
          "name": "minEthOut",
          "type": "uint256"
        }
      ],
      "name": "sell",
      "outputs": [],
      "stateMutability": "nonpayable",
      "type": "function"
    },
    {
      "inputs": [],
      "name": "symbol",
      "outputs": [
        {
          "internalType": "string",
          "name": "",
          "type": "string"
        }
      ],
      "stateMutability": "view",
      "type": "function"
    },
    {
      "inputs": [],
      "name": "totalSupply",
      "outputs": [
        {
          "internalType": "uint256",
          "name": "",
          "type": "uint256"
        }
      ],
      "stateMutability": "view",
      "type": "function"
    },
    {
      "inputs": [
        {
          "internalType": "address",
          "name": "to",
          "type": "address"
        },
        {
          "internalType": "uint256",
          "name": "value",
          "type": "uint256"
        }
      ],
      "name": "transfer",
      "outputs": [
        {
          "internalType": "bool",
          "name": "",
          "type": "bool"
        }
      ],
      "stateMutability": "nonpayable",
      "type": "function"
    },
    {
      "inputs": [
        {
          "internalType": "address",
          "name": "from",
          "type": "address"
        },
        {
          "internalType": "address",
          "name": "to",
          "type": "address"
        },
        {
          "internalType": "uint256",
          "name": "value",
          "type": "uint256"
        }
      ],
      "name": "transferFrom",
      "outputs": [
        {
          "internalType": "bool",
          "name": "",
          "type": "bool"
        }
      ],
      "stateMutability": "nonpayable",
      "type": "function"
    },
    {
      "inputs": [
        {
          "internalType": "string",
          "name": "reason",
          "type": "string"
        }
      ],
      "name": "triggerCircuitBreaker",
      "outputs": [],
      "stateMutability": "nonpayable",
      "type": "function"
    },
    {
      "inputs": [],
      "name": "unpause",
      "outputs": [],
      "stateMutability": "nonpayable",
      "type": "function"
    },
    {
      "inputs": [],
      "name": "volatilityMoveCount",
      "outputs": [
        {
          "internalType": "uint256",
          "name": "",
          "type": "uint256"
        }
      ],
      "stateMutability": "view",
      "type": "function"
    },
    {
      "inputs": [
        {
          "internalType": "address",
          "name": "",
          "type": "address"
        }
      ],
      "name": "whitelist",
      "outputs": [
        {
          "internalType": "bool",
          "name": "",
          "type": "bool"
        }
      ],
      "stateMutability": "view",
      "type": "function"
    },
    {
      "stateMutability": "payable",
      "type": "receive"
    }
  ],
  "transactionHash": "0x75ddcea0349d3111510be48f61092481b65619dc51ee12da578434f9ba69832b",
  "args": [
    "Carbon Creator Coin",
    "CCC",
    "0x2BB8CBAd36D52708a43DE36a9Aa2782fFa0470F1",
    "0xb98c15a0dC1e271132e341250703c7e94c059e8D",
    "0x29BAf302f9FB7cB9fE4cB04CEFE17a1faF2d9E7E",
    {
      "virtualEth": "30000",
      "virtualTokens": "1073000000",
      "maxSupply": "1000000000",
      "graduationThreshold": "85000"
    }
  ],
  "numDeployments": 1,
  "solcInputHash": "7ac59546ce5deb2bfa4f5b14995e748c",
  "bytecode": "0x6101a0604052346106bb5761416a8038038061001a816106c0565b92833981019080820361012081126106bb5781516001600160401b0381116106bb5783610048918401610708565b602083015190936001600160401b0382116106bb57610068918401610708565b9261007560408401610758565b9361008260608501610758565b946080610090818701610758565b94609f1901126106bb5760405194608086016001600160401b038111878210176105c35760405260a0810151865260c08101516020870190815261010060e0830151926040890193845201519660608101978852855160018060401b0381116105c357600354600181811c911680156106b1575b60208210146105a357601f811161064c575b50806020601f82116001146105e4576000916105d9575b508160011b916000199060031b1c1916176003555b84516001600160401b0381116105c357600454600181811c911680156105b9575b60208210146105a357601f811161053e575b50806020601f82116001146104d8576000916104cd575b508160011b916000199060031b1c1916176004555b60016005556001600160a01b038416988915610496576001600160a01b03168015610460576001600160a01b0388161561042a577f7dcf0b62b3d9433b7d8be4fb0f593ac11dbc31884d09ef028740aaeaa8d867fd9761027a9561012052336101605261014052610180524261010052516080525160a05251948560c05251918260e0528660005260126020526040600020600160ff198254161790553360005260126020526040600020600160ff1982541617905561026c6040519460a0865260a086019061076c565b90848203602086015261076c565b93604083015260608201524260808201528030930390a36040516139d8908161079282396080518181816110830152818161198601528181611cde01528181611e19015281816126d301526127d7015260a051818181610521015281816119ab01528181611d1701528181611e52015281816126ff0152612810015260c0518181816115ec01528181612c0d015261336b015260e05181818161033101528181610c3e01526134ec0152610100518181816103d80152818161100e01526121c2015261012051818181610601015281816106de015281816108e801528181610c8101528181610d3001528181610dfe01528181610f2b0152818161115b015281816113230152818161147201528181611aeb0152612cd4015261014051818181610fc7015281816128e801528181612a5801528181612afa01528181612eae01526132a60152610160518181816105600152818161065e0152818161078b01528181610bff01528181610ce501528181610e78015281816111140152818161122c015281816113ba015281816118ac01528181613103015261352d0152610180518181816119ea0152612c3d0152f35b60405162461bcd60e51b815260206004820152600e60248201526d496e76616c696420636f6e66696760901b6044820152606490fd5b60405162461bcd60e51b815260206004820152600e60248201526d24b73b30b634b2103937baba32b960911b6044820152606490fd5b60405162461bcd60e51b815260206004820152600f60248201526e24b73b30b634b21031b932b0ba37b960891b6044820152606490fd5b90508601513861018c565b600460009081528181209250601f198416905b8181106105265750908360019493921061050d575b5050811b016004556101a1565b88015160001960f88460031b161c191690553880610500565b9192602060018192868d0151815501940192016104eb565b60046000527f8a35acfbc15ff81a39ae7d344fd709f28e8600b4aa8c65c6b64bfe7fe36bd19b601f830160051c81019160208410610599575b601f0160051c01905b81811061058d5750610175565b60008155600101610580565b9091508190610577565b634e487b7160e01b600052602260045260246000fd5b90607f1690610163565b634e487b7160e01b600052604160045260246000fd5b90508701513861012d565b600360009081528181209250601f198416905b8a828210610634575050908360019493921061061b575b5050811b01600355610142565b89015160001960f88460031b161c19169055388061060e565b600184956020939584930151815501940192016105f7565b60036000527fc2575a0e9e593c00f959f8c92f12db2869c3395a3b0502d05e2516446f71f85b601f830160051c810191602084106106a7575b601f0160051c01905b81811061069b5750610116565b6000815560010161068e565b9091508190610685565b90607f1690610104565b600080fd5b6040519190601f01601f191682016001600160401b038111838210176105c357604052565b60005b8381106106f85750506000910152565b81810151838201526020016106e8565b81601f820112156106bb5780516001600160401b0381116105c357610736601f8201601f19166020016106c0565b92818452602082840101116106bb5761075591602080850191016106e5565b90565b51906001600160a01b03821682036106bb57565b90602091610785815180928185528580860191016106e5565b601f01601f191601019056fe6080806040526004361015610055575b50361561001b57600080fd5b60405162461bcd60e51b81526020600482015260126024820152712ab9b290313abc941490333ab731ba34b7b760711b6044820152606490fd5b60003560e01c90816302d05d3f14611ad85750806306fdde0314611a195780630758d924146119d45780630902f1ac1461195e578063090c8ba31461193b578063095ea7b314611915578063134daa86146118db57806316eebd1e1461189657806318160ddd146118785780631bc84124146117905780631cc1a74a1461177257806323b872dd1461168557806324f09b791461166757806329d03da4146116495780632ceb2faa1461162b578063313ce5671461160f57806332cb6b0c146115d45780633c6b3b51146115535780633d2fdbea146114bb5780633f4ba83a146113a65780633fecc2e21461136c578063455a4396146112035780634fa1f104146111e55780635a84b03c146111c75780635c975abb146111a457806361b242c5146110a65780636700c0c31461106b57806370a0823114611031578063790ca41314610ff657806379502c5514610fb15780637ba996d514610f745780638456cb5914610e64578063878e1d4514610e475780638ab1d68114610cca57806391471e6c14610beb578063948ce1d314610bcd57806395d89b4114610abd5780639b19251a14610a7e578063a6f1b7af14610a1b578063a9059cbb146109ea578063a9952b8d1461098e578063d79875eb1461095f578063d96a094a14610931578063db2e21bc14610778578063dd62ed3e14610727578063de5f8d931461064a578063e43252d714610544578063e90ceb9f14610509578063eb8c8d4114610486578063eb91d37e1461046b578063f242ab4114610442578063f6e95d0e146103bb578063fa6c75841461039d578063fad504ff1461037a578063fb5875d714610354578063fcfc0c09146103195763fe575a87146102d5573861000f565b34610314576020366003190112610314576001600160a01b036102f6611b5b565b166000526011602052602060ff604060002054166040519015158152f35b600080fd5b346103145760003660031901126103145760206040517f00000000000000000000000000000000000000000000000000000000000000008152f35b346103145760203660031901126103145760206103726004356127be565b604051908152f35b34610314576020366003190112610314576020610372610398611b5b565b61274d565b34610314576000366003190112610314576020600854604051908152f35b346103145760003660031901126103145760c06103d6613264565b7f0000000000000000000000000000000000000000000000000000000000000000906104028242611c87565b9061040e815184611c64565b42106020820151906040606084015193015193604051958652602086015260408501526060840152608083015260a0820152f35b34610314576000366003190112610314576014546040516001600160a01b039091168152602090f35b346103145760003660031901126103145760206103726126cb565b346103145760003660031901126103145760806104a1612e90565b600b5480151591826104f1575b82156104e9576104c560606104cc92015183611c64565b4290611c87565b600c54916040519315158452602084015260408301526060820152f35b5060006104cc565b9150610501606083015182611c64565b4210916104ae565b346103145760003660031901126103145760206040517f00000000000000000000000000000000000000000000000000000000000000008152f35b346103145760203660031901126103145761055d611b5b565b337f00000000000000000000000000000000000000000000000000000000000000006001600160a01b0316141580610630575b806105fd575b6105ed5760018060a01b03168060005260126020526040600020600160ff198254161790557ff754ea90eae40356b027ad5939504598d0b5590361a4609ecc4d0c5cbefd88866040805160018152426020820152a2005b6282b42960e81b60005260046000fd5b50337f00000000000000000000000000000000000000000000000000000000000000006001600160a01b03161415610596565b506001600160a01b03610641612ae5565b16331415610590565b3461031457600036600319011261031457337f00000000000000000000000000000000000000000000000000000000000000006001600160a01b031614158061070d575b806106da575b6105ed576000600b556000600c5542600d556106ae612660565b7fcdce3dd4437cfe68002ed06c2f62be3eae06c268cb56d71b3c98825f4f9d7d346020604051428152a1005b50337f00000000000000000000000000000000000000000000000000000000000000006001600160a01b03161415610694565b506001600160a01b0361071e612ae5565b1633141561068e565b3461031457604036600319011261031457610740611b5b565b610748611b71565b6001600160a01b039182166000908152600160209081526040808320949093168252928352819020549051908152f35b34610314576000366003190112610314577f00000000000000000000000000000000000000000000000000000000000000006001600160a01b03163381141580610917575b806108e4575b6105ed5760ff600954166108d35760ff60065416156108975747600080808084865af16107ee612630565b501561085e5760407fbb757047c2b5f3974fe26b7c10f732e7bce710b0952a71082702781e62ae0595918151908152426020820152a27fff8ad2bb089a5dcfebe1e7c8ac0ceabd295685e4c3fb1f8c6e7d1ac7fbbaf59460606040516000815260006020820152426040820152a1005b60405162461bcd60e51b815260206004820152601160248201527015da5d1a191c985dd85b0819985a5b1959607a1b6044820152606490fd5b60405162461bcd60e51b8152602060048201526014602482015273135d5cdd081899481c185d5cd95908199a5c9cdd60621b6044820152606490fd5b63e6a0d45f60e01b60005260046000fd5b50337f00000000000000000000000000000000000000000000000000000000000000006001600160a01b031614156107c3565b506001600160a01b03610928612ae5565b163314156107bd565b602036600319011261031457610945612e51565b61094d612e73565b610958600435612196565b6001600555005b3461031457604036600319011261031457610978612e51565b610980612e73565b610958602435600435611e88565b346103145760003660031901126103145760a06109a96128ca565b60408101519060608101519060208151910151906127106109cc84600854611c94565b04926040519485526020850152604084015260608301526080820152f35b3461031457604036600319011261031457610a10610a06611b5b565b6024359033612963565b602060405160018152f35b34610314576020366003190112610314576001600160a01b03610a3c611b5b565b1660005260106020526080604060002060ff815491600260018201549101549060405193845260208401528181161515604084015260081c1615156060820152f35b34610314576020366003190112610314576001600160a01b03610a9f611b5b565b166000526012602052602060ff604060002054166040519015158152f35b346103145760003660031901126103145760405160006004548060011c90600181168015610bc3575b602083108114610baf57828552908115610b8b5750600114610b2b575b610b2783610b1381850382611bf1565b604051918291602083526020830190611b1a565b0390f35b91905060046000527f8a35acfbc15ff81a39ae7d344fd709f28e8600b4aa8c65c6b64bfe7fe36bd19b916000905b808210610b7157509091508101602001610b13610b03565b919260018160209254838588010152019101909291610b59565b60ff191660208086019190915291151560051b84019091019150610b139050610b03565b634e487b7160e01b84526022600452602484fd5b91607f1691610ae6565b34610314576000366003190112610314576020600754604051908152f35b3461031457600036600319011261031457337f00000000000000000000000000000000000000000000000000000000000000006001600160a01b0316141580610cb0575b80610c7d575b6105ed576007547f000000000000000000000000000000000000000000000000000000000000000011610c6c57610c6a612bd6565b005b63bb55fd2760e01b60005260046000fd5b50337f00000000000000000000000000000000000000000000000000000000000000006001600160a01b03161415610c35565b506001600160a01b03610cc1612ae5565b16331415610c2f565b3461031457602036600319011261031457610ce3611b5b565b7f00000000000000000000000000000000000000000000000000000000000000006001600160a01b0316903382141580610e2d575b80610dfa575b6105ed576001600160a01b03908116917f00000000000000000000000000000000000000000000000000000000000000009091168214159081610def575b5015610daa57806000526012602052604060002060ff1981541690557ff754ea90eae40356b027ad5939504598d0b5590361a4609ecc4d0c5cbefd88866040805160008152426020820152a2005b60405162461bcd60e51b815260206004820152601c60248201527f43616e6e6f742072656d6f766520636f726520616464726573736573000000006044820152606490fd5b905081141582610d5c565b50337f00000000000000000000000000000000000000000000000000000000000000006001600160a01b03161415610d1e565b506001600160a01b03610e3e612ae5565b16331415610d18565b34610314576000366003190112610314576020604051610e108152f35b3461031457600036600319011261031457337f00000000000000000000000000000000000000000000000000000000000000006001600160a01b0316141580610f5a575b80610f27575b6105ed5760ff600954166108d357610ec4612e73565b600160ff1960065416176006557f62e78cea01bee320cd4e420270b5ea74000d11b0c9f74754ebdbfc544b05a2586020604051338152a17f2373bf0304c12814b4e5027ba93d4676ec582cac29b464df6e01b17a44705ee96020604051428152a1005b50337f00000000000000000000000000000000000000000000000000000000000000006001600160a01b03161415610eae565b506001600160a01b03610f6b612ae5565b16331415610ea8565b3461031457602036600319011261031457600435600a5481101561031457610f9d604091611c2f565b506001815491015482519182526020820152f35b34610314576000366003190112610314576040517f00000000000000000000000000000000000000000000000000000000000000006001600160a01b03168152602090f35b346103145760003660031901126103145760206040517f00000000000000000000000000000000000000000000000000000000000000008152f35b34610314576020366003190112610314576001600160a01b03611052611b5b565b1660005260006020526020604060002054604051908152f35b346103145760003660031901126103145760206040517f00000000000000000000000000000000000000000000000000000000000000008152f35b346103145760203660031901126103145760043567ffffffffffffffff811161031457366023820112156103145780600401356110e281611c13565b916110f06040519384611bf1565b818352366024838301011161031457816000926024602093018386013783010152337f00000000000000000000000000000000000000000000000000000000000000006001600160a01b031614158061118a575b80611157575b6105ed57610c6a90612b7c565b50337f00000000000000000000000000000000000000000000000000000000000000006001600160a01b0316141561114a565b506001600160a01b0361119b612ae5565b16331415611144565b3461031457600036600319011261031457602060ff600654166040519015158152f35b34610314576000366003190112610314576020600d54604051908152f35b34610314576020366003190112610314576020610372600435611de7565b346103145760403660031901126103145761121c611b5b565b60243580151580820361031457337f00000000000000000000000000000000000000000000000000000000000000006001600160a01b0316141580611352575b8061131f575b6105ed577f142d5045ab1341f66fef679656ba2034a2ebee260be07a6327b8512075d2dd249260018060a01b0316928391826000526011602052604060002060ff1981541660ff831617905560405190815242602082015260408180030190a26112c857005b7f5e6b49f449b7afc4293b35d571157a6ed3b29bcde814145c744a0fbcacefd166608060405160408152601460408201527313585b9d585b1b1e48189b1858dadb1a5cdd195960621b6060820152426020820152a2005b50337f00000000000000000000000000000000000000000000000000000000000000006001600160a01b03161415611262565b506001600160a01b03611363612ae5565b1633141561125c565b34610314576020366003190112610314576001600160a01b0361138d611b5b565b16600052600e6020526020604060002054604051908152f35b3461031457600036600319011261031457337f00000000000000000000000000000000000000000000000000000000000000006001600160a01b03161415806114a1575b8061146e575b6105ed5760065460ff81161561145d5760ff19166006557f5db9ee0a495bf2e6ff9c91a7834c1ba4fdd244a5e8aa4e537bd38aeae4b073aa6020604051338152a17f21d78858c9357036e26ecdac6bd821a57e3a7a5cf66ef4d7ed37dc02eb36131e6020604051428152a1005b638dfc202b60e01b60005260046000fd5b50337f00000000000000000000000000000000000000000000000000000000000000006001600160a01b031614156113f0565b506001600160a01b036114b2612ae5565b163314156113ea565b346103145760003660031901126103145733600052601060205260406000206001810154156115425760ff60026114f892015460081c1615611d9b565b336000526010602052600060026040822082815582600182015501556040514281527f5a85297113666653c262560c44def86c873465350a9470fba7bf4a935c74901160203392a2005b6303d82f8960e21b60005260046000fd5b3461031457602036600319011261031457606061156e611b5b565b60006115786128ca565b6001600160a01b039092168152600f602052604081205491826115af5750506001425b604051928352602083015215156040820152f35b60206115bd91015183611c64565b428111801592506115cf57504261159b565b61159b565b346103145760003660031901126103145760206040517f00000000000000000000000000000000000000000000000000000000000000008152f35b3461031457600036600319011261031457602060405160128152f35b34610314576000366003190112610314576020601354604051908152f35b34610314576020366003190112610314576020610372600435611cc7565b34610314576000366003190112610314576020600c54604051908152f35b346103145760603660031901126103145761169e611b5b565b6116a6611b71565b6001600160a01b03821660008181526001602090815260408083203384529091529020549092604435929160001981106116e6575b50610a109350612963565b83811061175557841561173f57331561172957610a10946000526001602052604060002060018060a01b03331660005260205283604060002091039055846116db565b634a1406b160e11b600052600060045260246000fd5b63e602df0560e01b600052600060045260246000fd5b8390637dc7a0d960e11b6000523360045260245260445260646000fd5b34610314576000366003190112610314576020600b54604051908152f35b346103145760203660031901126103145760c06117ab611b5b565b6117b36128ca565b9060018060a01b031660005260106020526040600020604051906117d682611b87565b805492838352600182015492602060028183019486865201549260ff6060604085019482871615158652019460081c16151584520193611817855182611c64565b915115159251159485948561186d575b86611853575b5050604051958652602086015260408501526060840152156080830152151560a0820152f35b61186292965051905190611c64565b42101593878061182d565b805115159650611827565b34610314576000366003190112610314576020600254604051908152f35b34610314576000366003190112610314576040517f00000000000000000000000000000000000000000000000000000000000000006001600160a01b03168152602090f35b34610314576020366003190112610314576001600160a01b036118fc611b5b565b16600052600f6020526020604060002054604051908152f35b3461031457604036600319011261031457610a10611931611b5b565b602435903361368d565b3461031457600036600319011261031457602060ff600954166040519015158152f35b34610314576000366003190112610314576007546008546040805192835260208301919091527f0000000000000000000000000000000000000000000000000000000000000000908201527f00000000000000000000000000000000000000000000000000000000000000006060820152608090f35b34610314576000366003190112610314576040517f00000000000000000000000000000000000000000000000000000000000000006001600160a01b03168152602090f35b346103145760003660031901126103145760405160006003548060011c90600181168015611ace575b602083108114610baf57828552908115610b8b5750600114611a6e57610b2783610b1381850382611bf1565b91905060036000527fc2575a0e9e593c00f959f8c92f12db2869c3395a3b0502d05e2516446f71f85b916000905b808210611ab457509091508101602001610b13610b03565b919260018160209254838588010152019101909291611a9c565b91607f1691611a42565b34610314576000366003190112610314577f00000000000000000000000000000000000000000000000000000000000000006001600160a01b03168152602090f35b919082519283825260005b848110611b46575050826000602080949584010152601f8019910116010190565b80602080928401015182828601015201611b25565b600435906001600160a01b038216820361031457565b602435906001600160a01b038216820361031457565b6080810190811067ffffffffffffffff821117611ba357604052565b634e487b7160e01b600052604160045260246000fd5b6060810190811067ffffffffffffffff821117611ba357604052565b60a0810190811067ffffffffffffffff821117611ba357604052565b90601f8019910116810190811067ffffffffffffffff821117611ba357604052565b67ffffffffffffffff8111611ba357601f01601f191660200190565b600a54811015611c4e57600a60005260206000209060011b0190600090565b634e487b7160e01b600052603260045260246000fd5b91908201809211611c7157565b634e487b7160e01b600052601160045260246000fd5b91908203918211611c7157565b81810292918115918404141715611c7157565b8115611cb1570490565b634e487b7160e01b600052601260045260246000fd5b8015611d9557611d65611cd8612a28565b91611d607f0000000000000000000000000000000000000000000000000000000000000000611d6060075493611d5a611d118685611c64565b91611d547f000000000000000000000000000000000000000000000000000000000000000091611d4e60085495611d488786611c87565b90611c94565b94611c64565b90611c87565b90611ca7565b611c87565b906127108202918083046127101490151715611c715751612710036127108111611c7157611d9291611ca7565b90565b50600090565b15611da257565b60405162461bcd60e51b815260206004820152601760248201527f496e74656e7420616c72656164792065786563757465640000000000000000006044820152606490fd5b8015611d9557611df5612a28565b51612710036127108111611c7157611e1361271091611d9293611c94565b04611d607f0000000000000000000000000000000000000000000000000000000000000000611d5460075491611d5a611e4c8483611c64565b95611e837f000000000000000000000000000000000000000000000000000000000000000095611d4e60085499611d488b8a611c87565b611c64565b90611e91612e90565b600b548061213a575b505060ff600954166108d357811561212957336000526000602052816040600020541061212957611ec96128ca565b9033600052601260205260ff60406000205416156120fc575b611eeb836127be565b9151821015806120e3575b611f0657611f049233612f78565b565b611f0e6128ca565b9233600052600f6020526040600020546120ae575b336000526010602052604060002093600185018054156120505754602090910151611f4d91611c64565b421061203f576002840180549460ff8616611ffa5785611f858461010093611f7e60ff611fdc9b60081c1615611d9b565b5414612eea565b61ff00191617905533600052600f60205242604060002055604051818152600060208201524260408201527ff645027d9dc4d64ac1796a51d321b0702e9a0d26364a12c5d7004de4921ad31260603392a233612f78565b33600052601060205260006002604082208281558260018201550155565b60405162461bcd60e51b815260206004820152601b60248201527f496e74656e7420697320666f72206275792c206e6f742073656c6c00000000006044820152606490fd5b6301b57b7f60e71b60005260046000fd5b50602061205f91015142611c64565b6040519182526000602083015260408201524260608201527fbebbacdf8904fd6336ecf768cb47262d6e3ccc8f0598377d44126c6d4f5c395460803392a263c154fd2d60e01b60005260046000fd5b33600052600f6020526120cb604060002054602086015190611c64565b421015611f23576301130f0960e71b60005260046000fd5b5033600052601260205260ff6040600020541615611ef6565b612710612110600854606085015190611c94565b04831115611ee2576326f2a2bb60e21b60005260046000fd5b63162908e360e11b60005260046000fd5b606061214892015190611c64565b4210156121605763ff0376e760e01b60005260046000fd5b6000600b557fcdce3dd4437cfe68002ed06c2f62be3eae06c268cb56d71b3c98825f4f9d7d346020604051428152a13880611e9a565b3233036125eb5733600052601160205260ff604060002054166125b8576121bb613264565b6121e681517f0000000000000000000000000000000000000000000000000000000000000000611c64565b4210612552575b33600052601260205260ff60406000205416156124e3575b33600052600e6020524260406000205561221d612e90565b600b5480612487575b50506122306128ca565b9033600052601260205260ff604060002054161561243f575b60ff600954166108d357608001513410612129575134101580612426575b61227657611f04903433613340565b61227e6128ca565b9033600052600f6020526040600020546123f1575b3360005260106020526040600020916001830180541561239357546020909101516122bd91611c64565b421061203f576002820180549260ff84161561234e57836122f6610100926122ee60ff611fdc9860081c1615611d9b565b543414612eea565b61ff00191617905533600052600f60205242604060002055604051348152600160208201524260408201527ff645027d9dc4d64ac1796a51d321b0702e9a0d26364a12c5d7004de4921ad31260603392a23433613340565b60405162461bcd60e51b815260206004820152601b60248201527f496e74656e7420697320666f722073656c6c2c206e6f742062757900000000006044820152606490fd5b6123a1602083015142611c64565b604051903482526001602083015260408201524260608201527fbebbacdf8904fd6336ecf768cb47262d6e3ccc8f0598377d44126c6d4f5c395460803392a263c154fd2d60e01b60005260046000fd5b33600052600f60205261240e604060002054602084015190611c64565b421015612293576301130f0960e71b60005260046000fd5b5033600052601260205260ff6040600020541615612267565b60408201513411156122495760405162461bcd60e51b815260206004820152601460248201527354726164652073697a6520746f6f206c6172676560601b6044820152606490fd5b606061249592015190611c64565b4210156124ad5763ff0376e760e01b60005260046000fd5b6000600b557fcdce3dd4437cfe68002ed06c2f62be3eae06c268cb56d71b3c98825f4f9d7d346020604051428152a13880612226565b33600052600e602052604060002054156122055733600052600e602052612514604060002054606083015190611c64565b4210156122055760405162461bcd60e51b815260206004820152600f60248201526e436f6f6c646f776e2061637469766560881b6044820152606490fd5b602081015134118015906125a0575b6121ed5760405162461bcd60e51b8152602060048201526013602482015272084eaf240c2dadeeadce840e8dede40d0d2ced606b1b6044820152606490fd5b5033600052601260205260ff60406000205416612561565b60405162461bcd60e51b815260206004820152600b60248201526a109b1858dadb1a5cdd195960aa1b6044820152606490fd5b60405162461bcd60e51b815260206004820152601960248201527f436f6e74726163742063616c6c206e6f7420616c6c6f776564000000000000006044820152606490fd5b3d1561265b573d9061264182611c13565b9161264f6040519384611bf1565b82523d6000602084013e565b606090565b600a546000600a55806126705750565b6001600160ff1b0381168103611c7157600a60005260011b7fc65a7bb8d6351c1cf70c95a316cc6a92839c986682d98bc35f958f4883f9d2a8908101905b8181106126b9575050565b600080825560018201556002016126ae565b6126f76007547f0000000000000000000000000000000000000000000000000000000000000000611c64565b6127236008547f0000000000000000000000000000000000000000000000000000000000000000611c87565b670de0b6b3a7640000820291808304670de0b6b3a76400001490151715611c7157611d9291611ca7565b6001600160a01b031660008181526012602052604090205460ff16611d955780600052600e60205260406000205415611d9557612788613264565b90600052600e60205260606127a260406000205442611c87565b91015190818110156127b757611d9291611c87565b5050600090565b8015611d955760206128476127d1612a28565b92611d547f0000000000000000000000000000000000000000000000000000000000000000611d6060075493611d5a61280a8685611c64565b91611d547f00000000000000000000000000000000000000000000000000000000000000009161284160085495611d488786611c87565b94611c87565b91015161271003906127108211611c71576127109161286591611c94565b0490565b6040519061287682611b87565b60006060838281528260208201528260408201520152565b9190826080910312610314576040516128a681611b87565b60608082948051845260208101516020850152604081015160408501520151910152565b6128d2612869565b50604051637e529df560e11b81526080816004817f00000000000000000000000000000000000000000000000000000000000000006001600160a01b03165afa90811561295757600091612924575090565b905060803d608011612950575b61293b8183611bf1565b810160808282031261031457611d929161288e565b503d612931565b6040513d6000823e3d90fd5b6001600160a01b0316908115612a12576001600160a01b03169182156129fc5760008281528060205260408120548281106129e25791604082827fddf252ad1be2c89b69c2b068fc378daa952ba7f163c4a11628f55a4df523b3ef958760209652828652038282205586815280845220818154019055604051908152a3565b916064928463391434e360e21b8452600452602452604452fd5b63ec442f0560e01b600052600060045260246000fd5b634b637e8f60e11b600052600060045260246000fd5b600060408051612a3781611bb9565b828152602081018390520152604051632fdde06960e11b81526060816004817f00000000000000000000000000000000000000000000000000000000000000006001600160a01b03165afa90811561295757600091612a94575090565b90506060813d606011612add575b81612aaf60609383611bf1565b81010312610314576040805191612ac583611bb9565b80518352602081015160208401520151604082015290565b3d9150612aa2565b604051638da5cb5b60e01b81526020816004817f00000000000000000000000000000000000000000000000000000000000000006001600160a01b03165afa90811561295757600091612b36575090565b6020813d602011612b74575b81612b4f60209383611bf1565b81010312612b705751906001600160a01b0382168203612b6d575090565b80fd5b5080fd5b3d9150612b42565b612bc57f523ad613567fbc3e5ab031387463d6181666216d2aff6391c50871593021ef1e916060612bab612e90565b42600b550151604051928392606084526060840190611b1a565b9042602084015260408301520390a1565b60095460ff81166108d357601354610e108101809111611c71574210612e40574260135560ff1916600117600955600854612c31907f0000000000000000000000000000000000000000000000000000000000000000611c87565b612c3b81306136f4565b7f00000000000000000000000000000000000000000000000000000000000000006001600160a01b0316612c7082823061368d565b600754605f830291838304605f1484151715611c7157605f820292828404605f1483151715611c7157603c420190814211611c715760405163f305d71960e01b815230600482015260248101879052606491829004604482015294819004908501527f00000000000000000000000000000000000000000000000000000000000000006001600160a01b0316608485015260a4840152606091839160c49183915af180600092600092612e05575b50612d7057612d378360ff196009541660095530613752565b60405162461bcd60e51b815260206004820152601160248201527011dc98591d585d1a5bdb8819985a5b1959607a1b6044820152606490fd5b6014546001600160a01b03169250907f8d0453dc55ff49f0c8c7ca816943faff3ced84a6a1a9b3831f8bcf12b4d700c390612da96126cb565b604080519283526020830194909452928101929092524260608301523091608090a37fff8ad2bb089a5dcfebe1e7c8ac0ceabd295685e4c3fb1f8c6e7d1ac7fbbaf59460606040516000815260006020820152426040820152a1565b925090506060823d606011612e38575b81612e2260609383611bf1565b8101031261031457602082519201519038612d1e565b3d9150612e15565b63ef4bf1cb60e01b60005260046000fd5b600260055414612e62576002600555565b633ee5aeb560e01b60005260046000fd5b60ff60065416612e7f57565b63d93c066560e01b60005260046000fd5b612e98612869565b50604051634c16e18360e11b81526080816004817f00000000000000000000000000000000000000000000000000000000000000006001600160a01b03165afa90811561295757600091612924575090565b15612ef157565b60405162461bcd60e51b815260206004820152601860248201527f416d6f756e74206d757374206d6174636820696e74656e7400000000000000006044820152606490fd5b15612f3d57565b60405162461bcd60e51b8152602060048201526013602482015272119959481d1c985b9cd9995c8819985a5b1959606a1b6044820152606490fd5b929091811061325357600754808211610c6c57612f93612a28565b612f9b612e90565b946020612fa66126cb565b920151612710036127108111611c7157612710612fc4879287611c94565b0491612fda86612fd48582611c87565b96611c87565b600755612fe982600854611c87565b600855612ff46126cb565b9360018060a01b0382169889600052601260205260ff6040600020541615613174575b5050600080936130328294839461302d896137d3565b613752565b895af161303d612630565b5015613139577f50bb505bf12befaddbb5e878fe7ff845aef673dd789600f2dda0f7c22b0fe49494826130ec936130f1575b5060075460085460408051978852602088019690965294860183905260608601819052608086018590524260a087015293947fa3afd433eaa98ecd7cf80a2ca5f5576d84a37b5b410d59fa102332cc15283da49060c090a26040519384934292859094939260609260808301968352602083015260408201520152565b0390a1565b60008080806131339460018060a01b037f0000000000000000000000000000000000000000000000000000000000000000165af161312d612630565b50612f36565b3861306f565b60405162461bcd60e51b8152602060048201526013602482015272115512081d1c985b9cd9995c8819985a5b1959606a1b6044820152606490fd5b9092506131818584611c87565b6127108102908082046127101490151715611c715788936131a191611ca7565b9080518211156130175790919250887f177af0e89845edad3ca9a642b436cf54f5fb183a42e634641cd0180b7c97929960408051858152426020820152a251908160011b9180830460021490151715611c7157116132025785903880613017565b613242604051613213604082611bf1565b601f81527f457863657373697665206e6567617469766520707269636520696d70616374006020820152612b7c565b637d98681d60e11b60005260046000fd5b63428637bb60e11b60005260046000fd5b6000608060405161327481611bd5565b828152826020820152826040820152826060820152015260405163562528f760e01b815260a081600481600180851b037f0000000000000000000000000000000000000000000000000000000000000000165afa908115612957576000916132da575090565b905060a0813d60a011613338575b816132f560a09383611bf1565b810103126103145760806040519161330c83611bd5565b805183526020810151602084015260408101516040840152606081015160608401520151608082015290565b3d91506132e8565b906133496126cb565b9061335381611de7565b93841061325357600854916133688584611c64565b927f000000000000000000000000000000000000000000000000000000000000000080941161367c57613399612a28565b916133a2613264565b926133ab612e90565b9560018060a01b0388169485600052601260205260ff6040600020541615613634575b50505161271003906127108211611c7157613411886127106133f1829589611c94565b0494613409613400878a611c87565b96600754611c64565b600755611c64565b60085561341c6126cb565b9584600052601260205260ff604060002054161580613622575b61355d575b5050613471907f50bb505bf12befaddbb5e878fe7ff845aef673dd789600f2dda0f7c22b0fe4949661346c876137d3565b6136f4565b8061351b575b5060075460085460408051948552602085019790975295830184905260608301819052608083018690524260a084015294917fb176b33ad40225c8f67dc6ef0cba96c0c88f67afd36396e2198a3f48a44fc7a09060c090a26040805192835260208301859052820152426060820152608090a17f0000000000000000000000000000000000000000000000000000000000000000111561351357565b611f04612bd6565b60008080806135579460018060a01b037f0000000000000000000000000000000000000000000000000000000000000000165af161312d612630565b38613477565b90915061356a8287611c87565b6127108102908082046127101490151715611c7157889261358a91611ca7565b90805182111561343b57909150837f177af0e89845edad3ca9a642b436cf54f5fb183a42e634641cd0180b7c97929960408051858152426020820152a251908160011b9180830460021490151715611c7157116135e95785388061343b565b6132426040516135fa604082611bf1565b6016815275115e18d95cdcda5d99481c1c9a58d9481a5b5c1858dd60521b6020820152612b7c565b50670de0b6b3a7640000861015613436565b61271091604061364692015190611c94565b0484600052600060205261365f89604060002054611c64565b1161366b5738806133ce565b630ebe2dbd60e41b60005260046000fd5b63c30436e960e01b60005260046000fd5b6001600160a01b031690811561173f576001600160a01b03169182156117295760207f8c5be1e5ebec7d5bd14f71427d1e84f3dd0314c0f7b2291e5b200ac8c7c3b925918360005260018252604060002085600052825280604060002055604051908152a3565b6001600160a01b03169081156129fc5761371081600254611c64565b6002557fddf252ad1be2c89b69c2b068fc378daa952ba7f163c4a11628f55a4df523b3ef602060009284845283825260408420818154019055604051908152a3565b6001600160a01b03168015612a12576000918183528260205260408320548181106137ba57817fddf252ad1be2c89b69c2b068fc378daa952ba7f163c4a11628f55a4df523b3ef926020928587528684520360408620558060025403600255604051908152a3565b6064939263391434e360e21b8452600452602452604452fd5b6137db612e90565b906137ed600d54602084015190611c64565b421161398c575b6040516040810181811067ffffffffffffffff821117611ba3576040528181526020810190428252600a5468010000000000000000811015611ba3578060016138409201600a55611c2f565b9290926139765760019151835551910155600a546001811161386157505050565b6001198101908111611c715761387690611c2f565b50549081808211156139455761388b91611c87565b6127108102908082046127101490151715611c71576101f4916138ad91611ca7565b116138b6575b50565b600c546000198114611c71576001604091019182600c55015181106138b35760407f0e0fe66968e0b8f5fb3583c3bebcbb7b89b16c306536baa169e51b7f4fcd4abe918151908152426020820152a1611f04604051613916604082611bf1565b601d81527f45786365737369766520766f6c6174696c6974792064657465637465640000006020820152612b7c565b9061394f91611c87565b6127108102908082046127101490151715611c71576101f49161397191611ca7565b6138ad565b634e487b7160e01b600052600060045260246000fd5b6000600c5542600d5561399d612660565b6137f456fea26469706673582212207ed68aac4bb79e256eb313b9246f12cfd00f4fb44c5d70886c2cb124a2969d1164736f6c634300081b0033",
  "devdoc": {
    "errors": {
      "ERC20InsufficientAllowance(address,uint256,uint256)": [
        {
          "details": "Indicates a failure with the `spender`s `allowance`. Used in transfers.",
          "params": {
            "allowance": "Amount of tokens a `spender` is allowed to operate with.",
            "needed": "Minimum amount required to perform a transfer.",
            "spender": "Address that may be allowed to operate on tokens without being their owner."
          }
        }
      ],
      "ERC20InsufficientBalance(address,uint256,uint256)": [
        {
          "details": "Indicates an error related to the current `balance` of a `sender`. Used in transfers.",
          "params": {
            "balance": "Current balance for the interacting account.",
            "needed": "Minimum amount required to perform a transfer.",
            "sender": "Address whose tokens are being transferred."
          }
        }
      ],
      "ERC20InvalidApprover(address)": [
        {
          "details": "Indicates a failure with the `approver` of a token to be approved. Used in approvals.",
          "params": {
            "approver": "Address initiating an approval operation."
          }
        }
      ],
      "ERC20InvalidReceiver(address)": [
        {
          "details": "Indicates a failure with the token `receiver`. Used in transfers.",
          "params": {
            "receiver": "Address to which tokens are being transferred."
          }
        }
      ],
      "ERC20InvalidSender(address)": [
        {
          "details": "Indicates a failure with the token `sender`. Used in transfers.",
          "params": {
            "sender": "Address whose tokens are being transferred."
          }
        }
      ],
      "ERC20InvalidSpender(address)": [
        {
          "details": "Indicates a failure with the `spender` to be approved. Used in approvals.",
          "params": {
            "spender": "Address that may be allowed to operate on tokens without being their owner."
          }
        }
      ],
      "EnforcedPause()": [
        {
          "details": "The operation failed because the contract is paused."
        }
      ],
      "ExpectedPause()": [
        {
          "details": "The operation failed because the contract is not paused."
        }
      ],
      "ReentrancyGuardReentrantCall()": [
        {
          "details": "Unauthorized reentrant call."
        }
      ]
    },
    "events": {
      "Approval(address,address,uint256)": {
        "details": "Emitted when the allowance of a `spender` for an `owner` is set by a call to {approve}. `value` is the new allowance."
      },
      "Paused(address)": {
        "details": "Emitted when the pause is triggered by `account`."
      },
      "Transfer(address,address,uint256)": {
        "details": "Emitted when `value` tokens are moved from one account (`from`) to another (`to`). Note that `value` may be zero."
      },
      "Unpaused(address)": {
        "details": "Emitted when the pause is lifted by `account`."
      }
    },
    "kind": "dev",
    "methods": {
      "allowance(address,address)": {
        "details": "Returns the remaining number of tokens that `spender` will be allowed to spend on behalf of `owner` through {transferFrom}. This is zero by default. This value changes when {approve} or {transferFrom} are called."
      },
      "approve(address,uint256)": {
        "details": "See {IERC20-approve}. NOTE: If `value` is the maximum `uint256`, the allowance is not updated on `transferFrom`. This is semantically equivalent to an infinite approval. Requirements: - `spender` cannot be the zero address."
      },
      "balanceOf(address)": {
        "details": "Returns the value of tokens owned by `account`."
      },
      "buy(uint256)": {
        "details": "This function is the main entry point for purchasing tokens. It includes anti-bot, circuit breaker, and trade size checks. If the trade is identified as a whale trade, it is delegated to the _handleWhaleBuy function.",
        "params": {
          "minTokensOut": "The minimum number of tokens the user is willing to accept for their ETH."
        }
      },
      "calculateEthIn(uint256)": {
        "details": "The calculation is based on the bonding curve formula and includes the buy fee.",
        "params": {
          "tokensOut": "The desired amount of tokens."
        },
        "returns": {
          "_0": "The amount of ETH required to purchase the specified tokens."
        }
      },
      "calculateEthOut(uint256)": {
        "details": "The calculation is based on the bonding curve formula and includes the sell fee.",
        "params": {
          "tokensIn": "The amount of tokens to be sold."
        },
        "returns": {
          "_0": "The amount of ETH that will be received."
        }
      },
      "calculateTokensOut(uint256)": {
        "details": "The calculation is based on the bonding curve formula and includes the buy fee.",
        "params": {
          "ethIn": "The amount of ETH to be spent."
        },
        "returns": {
          "_0": "The amount of tokens that will be received."
        }
      },
      "constructor": {
        "details": "Initializes the token with its name, symbol, creator, and Somnia Exchange router. It also whitelists the creator and the launcher contract to bypass certain restrictions.",
        "params": {
          "_config": "The address of the token configuration contract.",
          "_creator": "The address of the token creator.",
          "_router": "The address of the Somnia Exchange V2 router.",
          "bondingCurveConfig": "The bonding curve parameters.",
          "name": "The name of the token.",
          "symbol": "The symbol of the token."
        }
      },
      "decimals()": {
        "details": "Returns the number of decimals used to get its user representation. For example, if `decimals` equals `2`, a balance of `505` tokens should be displayed to a user as `5.05` (`505 / 10 ** 2`). Tokens usually opt for a value of 18, imitating the relationship between Ether and Wei. This is the default value returned by this function, unless it's overridden. NOTE: This information is only used for _display_ purposes: it in no way affects any of the arithmetic of the contract, including {IERC20-balanceOf} and {IERC20-transfer}."
      },
      "getCurrentPrice()": {
        "details": "Calculates the price based on the bonding curve's virtual and real reserves.",
        "returns": {
          "_0": "The current price of one token in ETH."
        }
      },
      "name()": {
        "details": "Returns the name of the token."
      },
      "paused()": {
        "details": "Returns true if the contract is paused, and false otherwise."
      },
      "sell(uint256,uint256)": {
        "details": "This function is the main entry point for selling tokens. It includes checks for graduation, amount, and balance. It also enforces sell limits and delegates to _handleWhaleSell if the trade is large enough.",
        "params": {
          "minEthOut": "The minimum amount of ETH the user is willing to accept.",
          "tokensIn": "The amount of tokens to sell."
        }
      },
      "symbol()": {
        "details": "Returns the symbol of the token, usually a shorter version of the name."
      },
      "totalSupply()": {
        "details": "Returns the value of tokens in existence."
      },
      "transfer(address,uint256)": {
        "details": "See {IERC20-transfer}. Requirements: - `to` cannot be the zero address. - the caller must have a balance of at least `value`."
      },
      "transferFrom(address,address,uint256)": {
        "details": "See {IERC20-transferFrom}. Skips emitting an {Approval} event indicating an allowance update. This is not required by the ERC. See {xref-ERC20-_approve-address-address-uint256-bool-}[_approve]. NOTE: Does not update the allowance if the current allowance is the maximum `uint256`. Requirements: - `from` and `to` cannot be the zero address. - `from` must have a balance of at least `value`. - the caller must have allowance for ``from``'s tokens of at least `value`."
      }
    },
    "version": 1
  },
  "userdoc": {
    "kind": "user",
    "methods": {
      "buy(uint256)": {
        "notice": "Allows a user to buy tokens with ETH."
      },
      "calculateEthIn(uint256)": {
        "notice": "Calculate the amount of ETH needed to buy a specific amount of tokens."
      },
      "calculateEthOut(uint256)": {
        "notice": "Calculate the amount of ETH received when selling a specific amount of tokens."
      },
      "calculateTokensOut(uint256)": {
        "notice": "Calculate the amount of tokens received for a given ETH input."
      },
      "constructor": {
        "notice": "Constructor for the CarbonCoin contract."
      },
      "getCurrentPrice()": {
        "notice": "Get the current token price in ETH."
      },
      "sell(uint256,uint256)": {
        "notice": "Allows a user to sell tokens for ETH."
      }
    },
    "version": 1
  },
  "storageLayout": {
    "storage": [
      {
        "astId": 1559,
        "contract": "contracts/CarbonCoin.sol:CarbonCoin",
        "label": "_balances",
        "offset": 0,
        "slot": "0",
        "type": "t_mapping(t_address,t_uint256)"
      },
      {
        "astId": 1565,
        "contract": "contracts/CarbonCoin.sol:CarbonCoin",
        "label": "_allowances",
        "offset": 0,
        "slot": "1",
        "type": "t_mapping(t_address,t_mapping(t_address,t_uint256))"
      },
      {
        "astId": 1567,
        "contract": "contracts/CarbonCoin.sol:CarbonCoin",
        "label": "_totalSupply",
        "offset": 0,
        "slot": "2",
        "type": "t_uint256"
      },
      {
        "astId": 1569,
        "contract": "contracts/CarbonCoin.sol:CarbonCoin",
        "label": "_name",
        "offset": 0,
        "slot": "3",
        "type": "t_string_storage"
      },
      {
        "astId": 1571,
        "contract": "contracts/CarbonCoin.sol:CarbonCoin",
        "label": "_symbol",
        "offset": 0,
        "slot": "4",
        "type": "t_string_storage"
      },
      {
        "astId": 3366,
        "contract": "contracts/CarbonCoin.sol:CarbonCoin",
        "label": "_status",
        "offset": 0,
        "slot": "5",
        "type": "t_uint256"
      },
      {
        "astId": 3256,
        "contract": "contracts/CarbonCoin.sol:CarbonCoin",
        "label": "_paused",
        "offset": 0,
        "slot": "6",
        "type": "t_bool"
      },
      {
        "astId": 7134,
        "contract": "contracts/CarbonCoin.sol:CarbonCoin",
        "label": "realEthReserves",
        "offset": 0,
        "slot": "7",
        "type": "t_uint256"
      },
      {
        "astId": 7136,
        "contract": "contracts/CarbonCoin.sol:CarbonCoin",
        "label": "realTokenSupply",
        "offset": 0,
        "slot": "8",
        "type": "t_uint256"
      },
      {
        "astId": 7146,
        "contract": "contracts/CarbonCoin.sol:CarbonCoin",
        "label": "hasGraduated",
        "offset": 0,
        "slot": "9",
        "type": "t_bool"
      },
      {
        "astId": 7150,
        "contract": "contracts/CarbonCoin.sol:CarbonCoin",
        "label": "recentPrices",
        "offset": 0,
        "slot": "10",
        "type": "t_array(t_struct(PriceSnapshot)11328_storage)dyn_storage"
      },
      {
        "astId": 7152,
        "contract": "contracts/CarbonCoin.sol:CarbonCoin",
        "label": "circuitBreakerTriggeredAt",
        "offset": 0,
        "slot": "11",
        "type": "t_uint256"
      },
      {
        "astId": 7154,
        "contract": "contracts/CarbonCoin.sol:CarbonCoin",
        "label": "volatilityMoveCount",
        "offset": 0,
        "slot": "12",
        "type": "t_uint256"
      },
      {
        "astId": 7156,
        "contract": "contracts/CarbonCoin.sol:CarbonCoin",
        "label": "lastVolatilityReset",
        "offset": 0,
        "slot": "13",
        "type": "t_uint256"
      },
      {
        "astId": 7160,
        "contract": "contracts/CarbonCoin.sol:CarbonCoin",
        "label": "lastBuyTime",
        "offset": 0,
        "slot": "14",
        "type": "t_mapping(t_address,t_uint256)"
      },
      {
        "astId": 7164,
        "contract": "contracts/CarbonCoin.sol:CarbonCoin",
        "label": "lastWhaleTradeTime",
        "offset": 0,
        "slot": "15",
        "type": "t_mapping(t_address,t_uint256)"
      },
      {
        "astId": 7169,
        "contract": "contracts/CarbonCoin.sol:CarbonCoin",
        "label": "pendingWhaleIntents",
        "offset": 0,
        "slot": "16",
        "type": "t_mapping(t_address,t_struct(WhaleIntent)11337_storage)"
      },
      {
        "astId": 7173,
        "contract": "contracts/CarbonCoin.sol:CarbonCoin",
        "label": "isBlacklisted",
        "offset": 0,
        "slot": "17",
        "type": "t_mapping(t_address,t_bool)"
      },
      {
        "astId": 7177,
        "contract": "contracts/CarbonCoin.sol:CarbonCoin",
        "label": "whitelist",
        "offset": 0,
        "slot": "18",
        "type": "t_mapping(t_address,t_bool)"
      },
      {
        "astId": 7179,
        "contract": "contracts/CarbonCoin.sol:CarbonCoin",
        "label": "lastGraduationAttempt",
        "offset": 0,
        "slot": "19",
        "type": "t_uint256"
      },
      {
        "astId": 7187,
        "contract": "contracts/CarbonCoin.sol:CarbonCoin",
        "label": "dexPair",
        "offset": 0,
        "slot": "20",
        "type": "t_address"
      }
    ],
    "types": {
      "t_address": {
        "encoding": "inplace",
        "label": "address",
        "numberOfBytes": "20"
      },
      "t_array(t_struct(PriceSnapshot)11328_storage)dyn_storage": {
        "base": "t_struct(PriceSnapshot)11328_storage",
        "encoding": "dynamic_array",
        "label": "struct ICarbonCoin.PriceSnapshot[]",
        "numberOfBytes": "32"
      },
      "t_bool": {
        "encoding": "inplace",
        "label": "bool",
        "numberOfBytes": "1"
      },
      "t_mapping(t_address,t_bool)": {
        "encoding": "mapping",
        "key": "t_address",
        "label": "mapping(address => bool)",
        "numberOfBytes": "32",
        "value": "t_bool"
      },
      "t_mapping(t_address,t_mapping(t_address,t_uint256))": {
        "encoding": "mapping",
        "key": "t_address",
        "label": "mapping(address => mapping(address => uint256))",
        "numberOfBytes": "32",
        "value": "t_mapping(t_address,t_uint256)"
      },
      "t_mapping(t_address,t_struct(WhaleIntent)11337_storage)": {
        "encoding": "mapping",
        "key": "t_address",
        "label": "mapping(address => struct ICarbonCoin.WhaleIntent)",
        "numberOfBytes": "32",
        "value": "t_struct(WhaleIntent)11337_storage"
      },
      "t_mapping(t_address,t_uint256)": {
        "encoding": "mapping",
        "key": "t_address",
        "label": "mapping(address => uint256)",
        "numberOfBytes": "32",
        "value": "t_uint256"
      },
      "t_string_storage": {
        "encoding": "bytes",
        "label": "string",
        "numberOfBytes": "32"
      },
      "t_struct(PriceSnapshot)11328_storage": {
        "encoding": "inplace",
        "label": "struct ICarbonCoin.PriceSnapshot",
        "members": [
          {
            "astId": 11325,
            "contract": "contracts/CarbonCoin.sol:CarbonCoin",
            "label": "price",
            "offset": 0,
            "slot": "0",
            "type": "t_uint256"
          },
          {
            "astId": 11327,
            "contract": "contracts/CarbonCoin.sol:CarbonCoin",
            "label": "timestamp",
            "offset": 0,
            "slot": "1",
            "type": "t_uint256"
          }
        ],
        "numberOfBytes": "64"
      },
      "t_struct(WhaleIntent)11337_storage": {
        "encoding": "inplace",
        "label": "struct ICarbonCoin.WhaleIntent",
        "members": [
          {
            "astId": 11330,
            "contract": "contracts/CarbonCoin.sol:CarbonCoin",
            "label": "amount",
            "offset": 0,
            "slot": "0",
            "type": "t_uint256"
          },
          {
            "astId": 11332,
            "contract": "contracts/CarbonCoin.sol:CarbonCoin",
            "label": "intentTime",
            "offset": 0,
            "slot": "1",
            "type": "t_uint256"
          },
          {
            "astId": 11334,
            "contract": "contracts/CarbonCoin.sol:CarbonCoin",
            "label": "isBuy",
            "offset": 0,
            "slot": "2",
            "type": "t_bool"
          },
          {
            "astId": 11336,
            "contract": "contracts/CarbonCoin.sol:CarbonCoin",
            "label": "executed",
            "offset": 1,
            "slot": "2",
            "type": "t_bool"
          }
        ],
        "numberOfBytes": "96"
      },
      "t_uint256": {
        "encoding": "inplace",
        "label": "uint256",
        "numberOfBytes": "32"
      }
    }
  }
}