{
  "address": "0x978c2dC96eAdc9703C7af3ae88B89D1e39606Ea4",
  "abi": [
    {
      "inputs": [],
      "stateMutability": "nonpayable",
      "type": "constructor"
    },
    {
      "inputs": [],
      "name": "ECDSAInvalidSignature",
      "type": "error"
    },
    {
      "inputs": [
        {
          "internalType": "uint256",
          "name": "length",
          "type": "uint256"
        }
      ],
      "name": "ECDSAInvalidSignatureLength",
      "type": "error"
    },
    {
      "inputs": [
        {
          "internalType": "bytes32",
          "name": "s",
          "type": "bytes32"
        }
      ],
      "name": "ECDSAInvalidSignatureS",
      "type": "error"
    },
    {
      "inputs": [
        {
          "internalType": "address",
          "name": "sender",
          "type": "address"
        },
        {
          "internalType": "uint256",
          "name": "tokenId",
          "type": "uint256"
        },
        {
          "internalType": "address",
          "name": "owner",
          "type": "address"
        }
      ],
      "name": "ERC721IncorrectOwner",
      "type": "error"
    },
    {
      "inputs": [
        {
          "internalType": "address",
          "name": "operator",
          "type": "address"
        },
        {
          "internalType": "uint256",
          "name": "tokenId",
          "type": "uint256"
        }
      ],
      "name": "ERC721InsufficientApproval",
      "type": "error"
    },
    {
      "inputs": [
        {
          "internalType": "address",
          "name": "approver",
          "type": "address"
        }
      ],
      "name": "ERC721InvalidApprover",
      "type": "error"
    },
    {
      "inputs": [
        {
          "internalType": "address",
          "name": "operator",
          "type": "address"
        }
      ],
      "name": "ERC721InvalidOperator",
      "type": "error"
    },
    {
      "inputs": [
        {
          "internalType": "address",
          "name": "owner",
          "type": "address"
        }
      ],
      "name": "ERC721InvalidOwner",
      "type": "error"
    },
    {
      "inputs": [
        {
          "internalType": "address",
          "name": "receiver",
          "type": "address"
        }
      ],
      "name": "ERC721InvalidReceiver",
      "type": "error"
    },
    {
      "inputs": [
        {
          "internalType": "address",
          "name": "sender",
          "type": "address"
        }
      ],
      "name": "ERC721InvalidSender",
      "type": "error"
    },
    {
      "inputs": [
        {
          "internalType": "uint256",
          "name": "tokenId",
          "type": "uint256"
        }
      ],
      "name": "ERC721NonexistentToken",
      "type": "error"
    },
    {
      "inputs": [],
      "name": "InvalidShortString",
      "type": "error"
    },
    {
      "inputs": [
        {
          "internalType": "address",
          "name": "owner",
          "type": "address"
        }
      ],
      "name": "OwnableInvalidOwner",
      "type": "error"
    },
    {
      "inputs": [
        {
          "internalType": "address",
          "name": "account",
          "type": "address"
        }
      ],
      "name": "OwnableUnauthorizedAccount",
      "type": "error"
    },
    {
      "inputs": [],
      "name": "ReentrancyGuardReentrantCall",
      "type": "error"
    },
    {
      "inputs": [
        {
          "internalType": "address",
          "name": "token",
          "type": "address"
        }
      ],
      "name": "SafeERC20FailedOperation",
      "type": "error"
    },
    {
      "inputs": [],
      "name": "SoulBoundToken",
      "type": "error"
    },
    {
      "inputs": [
        {
          "internalType": "string",
          "name": "str",
          "type": "string"
        }
      ],
      "name": "StringTooLong",
      "type": "error"
    },
    {
      "anonymous": false,
      "inputs": [
        {
          "indexed": true,
          "internalType": "address",
          "name": "owner",
          "type": "address"
        },
        {
          "indexed": true,
          "internalType": "address",
          "name": "approved",
          "type": "address"
        },
        {
          "indexed": true,
          "internalType": "uint256",
          "name": "tokenId",
          "type": "uint256"
        }
      ],
      "name": "Approval",
      "type": "event"
    },
    {
      "anonymous": false,
      "inputs": [
        {
          "indexed": true,
          "internalType": "address",
          "name": "owner",
          "type": "address"
        },
        {
          "indexed": true,
          "internalType": "address",
          "name": "operator",
          "type": "address"
        },
        {
          "indexed": false,
          "internalType": "bool",
          "name": "approved",
          "type": "bool"
        }
      ],
      "name": "ApprovalForAll",
      "type": "event"
    },
    {
      "anonymous": false,
      "inputs": [],
      "name": "EIP712DomainChanged",
      "type": "event"
    },
    {
      "anonymous": false,
      "inputs": [
        {
          "indexed": true,
          "internalType": "address",
          "name": "caller",
          "type": "address"
        },
        {
          "indexed": false,
          "internalType": "uint256",
          "name": "amountToken",
          "type": "uint256"
        },
        {
          "indexed": false,
          "internalType": "uint256",
          "name": "amountUSDC",
          "type": "uint256"
        },
        {
          "indexed": false,
          "internalType": "uint256",
          "name": "liquidity",
          "type": "uint256"
        }
      ],
      "name": "LiquidityCreated",
      "type": "event"
    },
    {
      "anonymous": false,
      "inputs": [
        {
          "indexed": true,
          "internalType": "address",
          "name": "previousOwner",
          "type": "address"
        },
        {
          "indexed": true,
          "internalType": "address",
          "name": "newOwner",
          "type": "address"
        }
      ],
      "name": "OwnershipTransferred",
      "type": "event"
    },
    {
      "anonymous": false,
      "inputs": [
        {
          "indexed": true,
          "internalType": "address",
          "name": "owner",
          "type": "address"
        },
        {
          "indexed": false,
          "internalType": "uint256",
          "name": "newTokenId",
          "type": "uint256"
        }
      ],
      "name": "PhoenixBurned",
      "type": "event"
    },
    {
      "anonymous": false,
      "inputs": [
        {
          "indexed": true,
          "internalType": "address",
          "name": "owner",
          "type": "address"
        },
        {
          "indexed": false,
          "internalType": "uint256",
          "name": "totalPhx",
          "type": "uint256"
        }
      ],
      "name": "PhxClaimed",
      "type": "event"
    },
    {
      "anonymous": false,
      "inputs": [
        {
          "indexed": true,
          "internalType": "address",
          "name": "from",
          "type": "address"
        },
        {
          "indexed": true,
          "internalType": "address",
          "name": "to",
          "type": "address"
        },
        {
          "indexed": true,
          "internalType": "uint256",
          "name": "tokenId",
          "type": "uint256"
        }
      ],
      "name": "Transfer",
      "type": "event"
    },
    {
      "inputs": [],
      "name": "DOMAIN_SEPARATOR",
      "outputs": [
        {
          "internalType": "bytes32",
          "name": "",
          "type": "bytes32"
        }
      ],
      "stateMutability": "view",
      "type": "function"
    },
    {
      "inputs": [],
      "name": "_BASIS_POINTS",
      "outputs": [
        {
          "internalType": "uint256",
          "name": "",
          "type": "uint256"
        }
      ],
      "stateMutability": "view",
      "type": "function"
    },
    {
      "inputs": [],
      "name": "_PHX_PER_BURN",
      "outputs": [
        {
          "internalType": "uint256",
          "name": "",
          "type": "uint256"
        }
      ],
      "stateMutability": "view",
      "type": "function"
    },
    {
      "inputs": [],
      "name": "_PHX_PER_REFERRAL",
      "outputs": [
        {
          "internalType": "uint256",
          "name": "",
          "type": "uint256"
        }
      ],
      "stateMutability": "view",
      "type": "function"
    },
    {
      "inputs": [],
      "name": "_PHX_PER_VOTE",
      "outputs": [
        {
          "internalType": "uint256",
          "name": "",
          "type": "uint256"
        }
      ],
      "stateMutability": "view",
      "type": "function"
    },
    {
      "inputs": [],
      "name": "_POOL_USDC_BP",
      "outputs": [
        {
          "internalType": "uint256",
          "name": "",
          "type": "uint256"
        }
      ],
      "stateMutability": "view",
      "type": "function"
    },
    {
      "inputs": [],
      "name": "_RESERVE_USDC_BP",
      "outputs": [
        {
          "internalType": "uint256",
          "name": "",
          "type": "uint256"
        }
      ],
      "stateMutability": "view",
      "type": "function"
    },
    {
      "inputs": [],
      "name": "_phoenixDex",
      "outputs": [
        {
          "internalType": "contract IPhoenixDex",
          "name": "",
          "type": "address"
        }
      ],
      "stateMutability": "view",
      "type": "function"
    },
    {
      "inputs": [],
      "name": "_phoenixNft",
      "outputs": [
        {
          "internalType": "contract IPhoenixNFT",
          "name": "",
          "type": "address"
        }
      ],
      "stateMutability": "view",
      "type": "function"
    },
    {
      "inputs": [],
      "name": "_phoenixToken",
      "outputs": [
        {
          "internalType": "address",
          "name": "",
          "type": "address"
        }
      ],
      "stateMutability": "view",
      "type": "function"
    },
    {
      "inputs": [],
      "name": "_phoenixTreasury",
      "outputs": [
        {
          "internalType": "address",
          "name": "",
          "type": "address"
        }
      ],
      "stateMutability": "view",
      "type": "function"
    },
    {
      "inputs": [],
      "name": "_usdcToken",
      "outputs": [
        {
          "internalType": "address",
          "name": "",
          "type": "address"
        }
      ],
      "stateMutability": "view",
      "type": "function"
    },
    {
      "inputs": [
        {
          "internalType": "address",
          "name": "to",
          "type": "address"
        },
        {
          "internalType": "uint256",
          "name": "tokenId",
          "type": "uint256"
        }
      ],
      "name": "approve",
      "outputs": [],
      "stateMutability": "nonpayable",
      "type": "function"
    },
    {
      "inputs": [
        {
          "internalType": "address",
          "name": "owner",
          "type": "address"
        }
      ],
      "name": "balanceOf",
      "outputs": [
        {
          "internalType": "uint256",
          "name": "",
          "type": "uint256"
        }
      ],
      "stateMutability": "view",
      "type": "function"
    },
    {
      "inputs": [
        {
          "internalType": "address",
          "name": "referrer",
          "type": "address"
        },
        {
          "internalType": "uint256",
          "name": "deadline",
          "type": "uint256"
        },
        {
          "components": [
            {
              "internalType": "uint8",
              "name": "v",
              "type": "uint8"
            },
            {
              "internalType": "bytes32",
              "name": "r",
              "type": "bytes32"
            },
            {
              "internalType": "bytes32",
              "name": "s",
              "type": "bytes32"
            }
          ],
          "internalType": "struct PhoenixEggs.Signature",
          "name": "sig1",
          "type": "tuple"
        },
        {
          "components": [
            {
              "internalType": "uint8",
              "name": "v",
              "type": "uint8"
            },
            {
              "internalType": "bytes32",
              "name": "r",
              "type": "bytes32"
            },
            {
              "internalType": "bytes32",
              "name": "s",
              "type": "bytes32"
            }
          ],
          "internalType": "struct PhoenixEggs.Signature",
          "name": "sig2",
          "type": "tuple"
        },
        {
          "components": [
            {
              "internalType": "uint8",
              "name": "v",
              "type": "uint8"
            },
            {
              "internalType": "bytes32",
              "name": "r",
              "type": "bytes32"
            },
            {
              "internalType": "bytes32",
              "name": "s",
              "type": "bytes32"
            }
          ],
          "internalType": "struct PhoenixEggs.Signature",
          "name": "sig3",
          "type": "tuple"
        }
      ],
      "name": "burn",
      "outputs": [],
      "stateMutability": "nonpayable",
      "type": "function"
    },
    {
      "inputs": [],
      "name": "claimPhx",
      "outputs": [],
      "stateMutability": "nonpayable",
      "type": "function"
    },
    {
      "inputs": [],
      "name": "createLiquidity",
      "outputs": [],
      "stateMutability": "nonpayable",
      "type": "function"
    },
    {
      "inputs": [],
      "name": "eip712Domain",
      "outputs": [
        {
          "internalType": "bytes1",
          "name": "fields",
          "type": "bytes1"
        },
        {
          "internalType": "string",
          "name": "name",
          "type": "string"
        },
        {
          "internalType": "string",
          "name": "version",
          "type": "string"
        },
        {
          "internalType": "uint256",
          "name": "chainId",
          "type": "uint256"
        },
        {
          "internalType": "address",
          "name": "verifyingContract",
          "type": "address"
        },
        {
          "internalType": "bytes32",
          "name": "salt",
          "type": "bytes32"
        },
        {
          "internalType": "uint256[]",
          "name": "extensions",
          "type": "uint256[]"
        }
      ],
      "stateMutability": "view",
      "type": "function"
    },
    {
      "inputs": [
        {
          "internalType": "uint256",
          "name": "tokenId",
          "type": "uint256"
        }
      ],
      "name": "getApproved",
      "outputs": [
        {
          "internalType": "address",
          "name": "",
          "type": "address"
        }
      ],
      "stateMutability": "pure",
      "type": "function"
    },
    {
      "inputs": [],
      "name": "getBurnPrice",
      "outputs": [
        {
          "internalType": "uint256",
          "name": "",
          "type": "uint256"
        }
      ],
      "stateMutability": "view",
      "type": "function"
    },
    {
      "inputs": [],
      "name": "getLiquidityCreationTimestamp",
      "outputs": [
        {
          "internalType": "uint256",
          "name": "",
          "type": "uint256"
        }
      ],
      "stateMutability": "view",
      "type": "function"
    },
    {
      "inputs": [],
      "name": "getMaxNfts",
      "outputs": [
        {
          "internalType": "uint256",
          "name": "",
          "type": "uint256"
        }
      ],
      "stateMutability": "view",
      "type": "function"
    },
    {
      "inputs": [],
      "name": "getNumBurnedEggs",
      "outputs": [
        {
          "internalType": "uint256",
          "name": "",
          "type": "uint256"
        }
      ],
      "stateMutability": "view",
      "type": "function"
    },
    {
      "inputs": [
        {
          "internalType": "address",
          "name": "owner",
          "type": "address"
        },
        {
          "internalType": "address",
          "name": "operator",
          "type": "address"
        }
      ],
      "name": "isApprovedForAll",
      "outputs": [
        {
          "internalType": "bool",
          "name": "",
          "type": "bool"
        }
      ],
      "stateMutability": "pure",
      "type": "function"
    },
    {
      "inputs": [
        {
          "internalType": "uint256",
          "name": "tokenId",
          "type": "uint256"
        }
      ],
      "name": "isEggBurned",
      "outputs": [
        {
          "internalType": "bool",
          "name": "",
          "type": "bool"
        }
      ],
      "stateMutability": "view",
      "type": "function"
    },
    {
      "inputs": [],
      "name": "isMaxReached",
      "outputs": [
        {
          "internalType": "bool",
          "name": "",
          "type": "bool"
        }
      ],
      "stateMutability": "view",
      "type": "function"
    },
    {
      "inputs": [],
      "name": "name",
      "outputs": [
        {
          "internalType": "string",
          "name": "",
          "type": "string"
        }
      ],
      "stateMutability": "pure",
      "type": "function"
    },
    {
      "inputs": [],
      "name": "owner",
      "outputs": [
        {
          "internalType": "address",
          "name": "",
          "type": "address"
        }
      ],
      "stateMutability": "view",
      "type": "function"
    },
    {
      "inputs": [
        {
          "internalType": "uint256",
          "name": "tokenId",
          "type": "uint256"
        }
      ],
      "name": "ownerOf",
      "outputs": [
        {
          "internalType": "address",
          "name": "",
          "type": "address"
        }
      ],
      "stateMutability": "view",
      "type": "function"
    },
    {
      "inputs": [],
      "name": "phoenixDexAddress",
      "outputs": [
        {
          "internalType": "address",
          "name": "",
          "type": "address"
        }
      ],
      "stateMutability": "view",
      "type": "function"
    },
    {
      "inputs": [
        {
          "internalType": "address",
          "name": "owner",
          "type": "address"
        }
      ],
      "name": "phxBalanceOf",
      "outputs": [
        {
          "internalType": "uint256",
          "name": "",
          "type": "uint256"
        }
      ],
      "stateMutability": "view",
      "type": "function"
    },
    {
      "inputs": [],
      "name": "phxInitialPriceEstimate",
      "outputs": [
        {
          "internalType": "uint256",
          "name": "",
          "type": "uint256"
        }
      ],
      "stateMutability": "view",
      "type": "function"
    },
    {
      "inputs": [],
      "name": "phxTokenAddress",
      "outputs": [
        {
          "internalType": "address",
          "name": "",
          "type": "address"
        }
      ],
      "stateMutability": "view",
      "type": "function"
    },
    {
      "inputs": [],
      "name": "phxTotalSupply",
      "outputs": [
        {
          "internalType": "uint256",
          "name": "",
          "type": "uint256"
        }
      ],
      "stateMutability": "view",
      "type": "function"
    },
    {
      "inputs": [
        {
          "internalType": "uint256",
          "name": "tokenId",
          "type": "uint256"
        },
        {
          "internalType": "uint256",
          "name": "deadline",
          "type": "uint256"
        },
        {
          "internalType": "uint8",
          "name": "v",
          "type": "uint8"
        },
        {
          "internalType": "bytes32",
          "name": "r",
          "type": "bytes32"
        },
        {
          "internalType": "bytes32",
          "name": "s",
          "type": "bytes32"
        }
      ],
      "name": "recoverSigner",
      "outputs": [
        {
          "internalType": "address",
          "name": "signer",
          "type": "address"
        }
      ],
      "stateMutability": "view",
      "type": "function"
    },
    {
      "inputs": [],
      "name": "renounceOwnership",
      "outputs": [],
      "stateMutability": "nonpayable",
      "type": "function"
    },
    {
      "inputs": [
        {
          "internalType": "address",
          "name": "from",
          "type": "address"
        },
        {
          "internalType": "address",
          "name": "to",
          "type": "address"
        },
        {
          "internalType": "uint256",
          "name": "tokenId",
          "type": "uint256"
        }
      ],
      "name": "safeTransferFrom",
      "outputs": [],
      "stateMutability": "nonpayable",
      "type": "function"
    },
    {
      "inputs": [
        {
          "internalType": "address",
          "name": "from",
          "type": "address"
        },
        {
          "internalType": "address",
          "name": "to",
          "type": "address"
        },
        {
          "internalType": "uint256",
          "name": "tokenId",
          "type": "uint256"
        },
        {
          "internalType": "bytes",
          "name": "data",
          "type": "bytes"
        }
      ],
      "name": "safeTransferFrom",
      "outputs": [],
      "stateMutability": "nonpayable",
      "type": "function"
    },
    {
      "inputs": [
        {
          "internalType": "address",
          "name": "operator",
          "type": "address"
        },
        {
          "internalType": "bool",
          "name": "approved",
          "type": "bool"
        }
      ],
      "name": "setApprovalForAll",
      "outputs": [],
      "stateMutability": "nonpayable",
      "type": "function"
    },
    {
      "inputs": [
        {
          "internalType": "string",
          "name": "newBase",
          "type": "string"
        }
      ],
      "name": "setBaseURI",
      "outputs": [],
      "stateMutability": "nonpayable",
      "type": "function"
    },
    {
      "inputs": [
        {
          "internalType": "uint256",
          "name": "maxNfts",
          "type": "uint256"
        }
      ],
      "name": "setMaxNfts",
      "outputs": [],
      "stateMutability": "nonpayable",
      "type": "function"
    },
    {
      "inputs": [
        {
          "internalType": "uint256",
          "name": "maxTeamEggs",
          "type": "uint256"
        }
      ],
      "name": "setMaxTeamEggs",
      "outputs": [],
      "stateMutability": "nonpayable",
      "type": "function"
    },
    {
      "inputs": [
        {
          "internalType": "address",
          "name": "phoenixDex",
          "type": "address"
        }
      ],
      "name": "setPhoenixDex",
      "outputs": [],
      "stateMutability": "nonpayable",
      "type": "function"
    },
    {
      "inputs": [
        {
          "internalType": "address",
          "name": "phoenixNft",
          "type": "address"
        }
      ],
      "name": "setPhoenixNFT",
      "outputs": [],
      "stateMutability": "nonpayable",
      "type": "function"
    },
    {
      "inputs": [
        {
          "internalType": "address",
          "name": "phoenixToken",
          "type": "address"
        }
      ],
      "name": "setPhoenixToken",
      "outputs": [],
      "stateMutability": "nonpayable",
      "type": "function"
    },
    {
      "inputs": [
        {
          "internalType": "address",
          "name": "treasury",
          "type": "address"
        }
      ],
      "name": "setPhoenixTreasury",
      "outputs": [],
      "stateMutability": "nonpayable",
      "type": "function"
    },
    {
      "inputs": [
        {
          "internalType": "uint256",
          "name": "newPrice",
          "type": "uint256"
        }
      ],
      "name": "setPrice",
      "outputs": [],
      "stateMutability": "nonpayable",
      "type": "function"
    },
    {
      "inputs": [
        {
          "internalType": "address",
          "name": "usdcToken",
          "type": "address"
        }
      ],
      "name": "setUsdcToken",
      "outputs": [],
      "stateMutability": "nonpayable",
      "type": "function"
    },
    {
      "inputs": [
        {
          "internalType": "bytes4",
          "name": "interfaceId",
          "type": "bytes4"
        }
      ],
      "name": "supportsInterface",
      "outputs": [
        {
          "internalType": "bool",
          "name": "",
          "type": "bool"
        }
      ],
      "stateMutability": "view",
      "type": "function"
    },
    {
      "inputs": [],
      "name": "symbol",
      "outputs": [
        {
          "internalType": "string",
          "name": "",
          "type": "string"
        }
      ],
      "stateMutability": "pure",
      "type": "function"
    },
    {
      "inputs": [
        {
          "internalType": "address payable",
          "name": "owner",
          "type": "address"
        }
      ],
      "name": "teamBurn",
      "outputs": [],
      "stateMutability": "nonpayable",
      "type": "function"
    },
    {
      "inputs": [
        {
          "internalType": "address",
          "name": "owner",
          "type": "address"
        }
      ],
      "name": "tokenOf",
      "outputs": [
        {
          "internalType": "uint256",
          "name": "",
          "type": "uint256"
        }
      ],
      "stateMutability": "view",
      "type": "function"
    },
    {
      "inputs": [
        {
          "internalType": "uint256",
          "name": "tokenId",
          "type": "uint256"
        }
      ],
      "name": "tokenURI",
      "outputs": [
        {
          "internalType": "string",
          "name": "",
          "type": "string"
        }
      ],
      "stateMutability": "view",
      "type": "function"
    },
    {
      "inputs": [
        {
          "internalType": "address",
          "name": "from",
          "type": "address"
        },
        {
          "internalType": "address",
          "name": "to",
          "type": "address"
        },
        {
          "internalType": "uint256",
          "name": "tokenId",
          "type": "uint256"
        }
      ],
      "name": "transferFrom",
      "outputs": [],
      "stateMutability": "nonpayable",
      "type": "function"
    },
    {
      "inputs": [
        {
          "internalType": "address",
          "name": "newOwner",
          "type": "address"
        }
      ],
      "name": "transferOwnership",
      "outputs": [],
      "stateMutability": "nonpayable",
      "type": "function"
    },
    {
      "inputs": [],
      "name": "usdcBalance",
      "outputs": [
        {
          "internalType": "uint256",
          "name": "",
          "type": "uint256"
        }
      ],
      "stateMutability": "view",
      "type": "function"
    },
    {
      "inputs": [],
      "name": "usdcTokenAddress",
      "outputs": [
        {
          "internalType": "address",
          "name": "",
          "type": "address"
        }
      ],
      "stateMutability": "view",
      "type": "function"
    }
  ],
  "transactionHash": "0x78fbd841f08a150c19049c458b66e883c7b7c44bcbe231439ebd1b9331a888ab",
  "args": [],
  "numDeployments": 1,
  "solcInputHash": "93b26cf8648f15fc0e7330d4d06c5df5",
  "bytecode": "0x6101606040523461048e57604051610018604082610493565b600b81526a50686f656e69782045676760a81b602082015260405161003e604082610493565b60048152635048584560e01b602082015260405161005d604082610493565b600b815260208101906a50686f656e69784567677360a81b825260405191610086604084610493565b600183526020830191603160f81b835233156104785760008054336001600160a01b0319821681178355916001600160a01b03909116907f8be0079c531659141344cd1fd0a4f28419497f9722a3daafe3b4186f6b6457e09080a36100ea816104b6565b610120526100f784610664565b61014052519020918260e05251902080610100524660a0526040519060208201927f8b73c3c69bb8fe3d512ecc4cf759cc79239f7b179b0ffacaa9a75d522b39400f8452604083015260608201524660808201523060a082015260a0815261016060c082610493565b5190206080523060c05281516001600160401b03811161038357600354600181811c9116801561046e575b602082101461036357601f8111610409575b50602092601f82116001146103a45792819293600092610399575b50508160011b916000199060031b1c1916176003555b80516001600160401b03811161038357600454600181811c91168015610379575b602082101461036357601f81116102fe575b50602091601f821160011461029a5791819260009261028f575b50508160011b916000199060031b1c1916176004555b6001600955630bebc200601455604051612c24908161080382396080518161251c015260a051816125d9015260c051816124e6015260e0518161256b015261010051816125910152610120518161158f015261014051816115b90152f35b01519050388061021b565b601f198216926004600052806000209160005b8581106102e6575083600195106102cd575b505050811b01600455610231565b015160001960f88460031b161c191690553880806102bf565b919260206001819286850151815501940192016102ad565b60046000527f8a35acfbc15ff81a39ae7d344fd709f28e8600b4aa8c65c6b64bfe7fe36bd19b601f830160051c81019160208410610359575b601f0160051c01905b81811061034d5750610201565b60008155600101610340565b9091508190610337565b634e487b7160e01b600052602260045260246000fd5b90607f16906101ef565b634e487b7160e01b600052604160045260246000fd5b0151905038806101b8565b601f198216936003600052806000209160005b8681106103f157508360019596106103d8575b505050811b016003556101ce565b015160001960f88460031b161c191690553880806103ca565b919260206001819286850151815501940192016103b7565b60036000527fc2575a0e9e593c00f959f8c92f12db2869c3395a3b0502d05e2516446f71f85b601f830160051c81019160208410610464575b601f0160051c01905b818110610458575061019d565b6000815560010161044b565b9091508190610442565b90607f169061018b565b631e4fbdf760e01b600052600060045260246000fd5b600080fd5b601f909101601f19168101906001600160401b0382119082101761038357604052565b9081516020811060001461054e575090601f8151116104f25760208151910151602082106104e2571790565b6000198260200360031b1b161790565b6040519063305a27a960e01b8252602060048301528181519182602483015260005b8381106105365750508160006044809484010152601f80199101168101030190fd5b60208282018101516044878401015285935001610514565b6001600160401b03811161038357600154600181811c9116801561065a575b602082101461036357601f8111610624575b50602092601f82116001146105bf57928192936000926105b4575b50508160011b916000199060031b1c19161760015560ff90565b01519050388061059a565b601f198216936001600052806000209160005b86811061060c57508360019596106105f3575b505050811b0160015560ff90565b015160001960f88460031b161c191690553880806105e5565b919260206001819286850151815501940192016105d2565b6001600052601f6020600020910160051c810190601f830160051c015b81811061064e575061057f565b60008155600101610641565b90607f169061056d565b908151602081106000146106ec575090601f8151116106905760208151910151602082106104e2571790565b6040519063305a27a960e01b8252602060048301528181519182602483015260005b8381106106d45750508160006044809484010152601f80199101168101030190fd5b602082820181015160448784010152859350016106b2565b6001600160401b03811161038357600254600181811c911680156107f8575b602082101461036357601f81116107c2575b50602092601f821160011461075d5792819293600092610752575b50508160011b916000199060031b1c19161760025560ff90565b015190503880610738565b601f198216936002600052806000209160005b8681106107aa5750836001959610610791575b505050811b0160025560ff90565b015160001960f88460031b161c19169055388080610783565b91926020600181928685015181550194019201610770565b6002600052601f6020600020910160051c810190601f830160051c015b8181106107ec575061071d565b600081556001016107df565b90607f169061070b56fe6080604052600436101561001257600080fd5b6000803560e01c80630192f93114611dc257806301ffc9a714611d5357806306fdde0314611d04578063081812fc14611ce7578063095ea7b314611ccd5780630cab545914611caf5780631dc838d914611c8b57806323b872dd14611c7657806324ea006b14611c535780632ae6218d14611c3557806335fac3b114611c185780633644e51514611bfd5780633a329d9514611bc35780633db09d1314611b8c57806342842e0e14611b6757806342ec38e214611b4357806353ef152714611a555780635419ccb914611a3857806355f804b31461189f5780635d886f221461185f578063604500441461181f5780636352211e146117ee5780636c2d886b146117d357806370a0823114611746578063715018a6146116ec57806373688e56146116d157806377b53ece1461152f5780637ae205d0146116a85780637ee797de1461167157806384b0196e14611575578063856a6e24146115585780638923d5a21461152f5780638da5cb5b1461150857806391531f6b1461146557806391b7f5ed1461144257806395d89b41146113fa5780639689102c146113d15780639b6a3567146113915780639cb517091461138c578063a22458321461136e578063a22cb46514611345578063a808158514611322578063b25c8be1146102bb578063b5eb0062146112f9578063b88d4fde146112a0578063c6ae397214610e33578063c7af2a9c14610961578063c87b56dd14610929578063d771d90014610836578063e850ba2b146107f6578063e985e9c5146107c7578063eabcbbd8146107ab578063f2fde38b14610725578063f333349614610378578063fb676f29146102e4578063fc0aca1f146102bb5763fc9dc8311461029057600080fd5b346102b857806003193601126102b857600c546040516001600160a01b039091168152602090f35b80fd5b50346102b857806003193601126102b857600b546040516001600160a01b039091168152602090f35b50346102b857806003193601126102b857600a546040516318160ddd60e01b81529190602090839060049082906001600160a01b03165afa90811561036c5790610334575b602090604051908152f35b506020813d602011610364575b8161034e60209383611ebe565b8101031261035f5760209051610329565b600080fd5b3d9150610341565b604051903d90823e3d90fd5b50346102b85760203660031901126102b8576004356001600160a01b03811690819003610721576103a76124ba565b600a546004906020906001600160a01b03166103c4811515611f33565b6040516318160ddd60e01b815292839182905afa9081156107165783916106e4575b5060105411156106ad578082526017602052604082208054906064820180921161069957556012546000198114610685576001016012556104268161203f565b600a546001600160a01b031661043d811515611f33565b828452601660205260ff60408520541661064f576020600491604051928380926318160ddd60e01b82525afa90811561059a57849161061d575b50600f54146105ea576013546105a557600d5461049e906001600160a01b0316151561281c565b818352601660205260408320600160ff1982541617905582602060018060a01b03600a541660446040518094819363cfea617560e01b83528860048401528160248401525af190811561059a578491610548575b507f9c7d27ec8217f7c8e52f4596bb3f2194f4ea4ab9ccee924f62231224310fbcf5916020916040519186867fddf252ad1be2c89b69c2b068fc378daa952ba7f163c4a11628f55a4df523b3ef8280a48152a280f35b90506020813d602011610592575b8161056360209383611ebe565b8101031261035f57517f9c7d27ec8217f7c8e52f4596bb3f2194f4ea4ab9ccee924f62231224310fbcf56104f2565b3d9150610556565b6040513d86823e3d90fd5b60405162461bcd60e51b815260206004820152601760248201527f6c6971756964697479206576656e7420737461727465640000000000000000006044820152606490fd5b60405162461bcd60e51b815260206004820152600b60248201526a195b99081c995858da195960aa1b6044820152606490fd5b90506020813d602011610647575b8161063860209383611ebe565b8101031261035f575138610477565b3d915061062b565b60405162461bcd60e51b815260206004820152600e60248201526d185b1c9958591e48189d5c9b995960921b6044820152606490fd5b634e487b7160e01b83526011600452602483fd5b634e487b7160e01b84526011600452602484fd5b60405162461bcd60e51b815260206004820152600f60248201526e1d19585b4b589d5c9b88195b991959608a1b6044820152606490fd5b90506020813d60201161070e575b816106ff60209383611ebe565b8101031261035f5751386103e6565b3d91506106f2565b6040513d85823e3d90fd5b5080fd5b50346102b85760203660031901126102b85761073f611e26565b6107476124ba565b6001600160a01b031680156107975781546001600160a01b03198116821783556001600160a01b03167f8be0079c531659141344cd1fd0a4f28419497f9722a3daafe3b4186f6b6457e08380a380f35b631e4fbdf760e01b82526004829052602482fd5b50346102b857806003193601126102b857602060405160fa8152f35b50346102b85760403660031901126102b8576020906107e4611e26565b506107ed611e3c565b50604051908152f35b50346102b85760203660031901126102b857610810611e26565b6108186124ba565b60018060a01b03166001600160601b0360a01b600b541617600b5580f35b50346102b857806003193601126102b857601354156108eb5761085833612480565b80156108b45733808352601760205260408320839055600c546108859183916001600160a01b0316612b35565b6040519081527f8d00b39a29972064bf47776c3e70113dbbe0111e7d7a820fe98893da415816f560203392a280f35b60405162461bcd60e51b815260206004820152600f60248201526e6e6f2050485820746f20636c61696d60881b6044820152606490fd5b60405162461bcd60e51b8152602060048201526016602482015275696e73756666696369656e74206c697175696469747960501b6044820152606490fd5b50346102b85760203660031901126102b85761095d610949600435612230565b604051918291602083526020830190611e01565b0390f35b50346102b857806003193601126102b85761097a6124ba565b600e546001600160a01b031615610e0057600b546001600160a01b031615610dd257600d546001600160a01b03166109b381151561281c565b601354610d9b576020602491604051928380926370a0823160e01b82523060048301525afa908115610d90578291610d5e575b50611b58810290801591818104611b5814831715610699576127109004916101f48202908282046101f41417156106995790610a2a83612710610a2f9404926125ff565b6125ff565b90610a3861260c565b8060011b9080820460021481151715610d4a57600c5485906001600160a01b0316803b15610721578190602460405180948193630a2827a560e21b83528860048401525af18015610d3f57610d2b575b50600c546040516370a0823160e01b81523060048201526001600160a01b039091169290602081602481875afa908115610d20578791610cee575b5003610cbb57600b5460405163095ea7b360e01b81526001600160a01b03909116600482015260248101829052916020908390604490829089905af1918215610c9357610b4f92610c9e575b50600d54600b5460405163095ea7b360e01b81526001600160a01b0391821660048201526024810186905293602092859216908290899082906044820190565b03925af1918215610c9357606092610c66575b50600b54600e546040516312e7a9cb60e31b81526001600160a01b039182166004820152602481019390935260448301949094529092839160649183918891165af190811561071657839284918593610c1e575b504260135580610bfb575b50604051928352602083015260408201527fc115e794fdb74e9fcd1aee2797ea2d4ff66a67a23d002f7280b18199c426e1e460603392a280f35b600d54600e54610c1892916001600160a01b039182169116612b35565b38610bc1565b93509150506060823d606011610c5e575b81610c3c60609383611ebe565b81010312610c5a578151604060208401519301519092909138610bb6565b8280fd5b3d9150610c2f565b610c879060203d602011610c8c575b610c7f8183611ebe565b810190612852565b610b62565b503d610c75565b6040513d87823e3d90fd5b610cb69060203d602011610c8c57610c7f8183611ebe565b610b0f565b60405162461bcd60e51b815260206004820152600b60248201526a1b5a5b9d0819985a5b195960aa1b6044820152606490fd5b90506020813d602011610d18575b81610d0960209383611ebe565b8101031261035f575138610ac3565b3d9150610cfc565b6040513d89823e3d90fd5b85610d3891969296611ebe565b9338610a88565b6040513d88823e3d90fd5b634e487b7160e01b85526011600452602485fd5b90506020813d602011610d88575b81610d7960209383611ebe565b810103126107215751386109e6565b3d9150610d6c565b6040513d84823e3d90fd5b60405162461bcd60e51b815260206004820152600f60248201526e185b1c9958591e4818dc99585d1959608a1b6044820152606490fd5b60405162461bcd60e51b81526020600482015260066024820152650dcde40c8caf60d31b6044820152606490fd5b60405162461bcd60e51b815260206004820152600b60248201526a6e6f20747265617375727960a81b6044820152606490fd5b50346102b8576101603660031901126102b857610e4e611e26565b602435906060366043190112610c5a5760405191610e6b83611e8c565b60443560ff811681036112945783526064356020840152608435604084015260603660a319011261129c57604051610ea281611e8c565b60a43560ff8116810361129857815260c435602082015260e435604082015260603661010319011261129457604051610eda81611e8c565b6101043560ff8116810361129057815261012435602082015261014435604082015260026009541461128157610f35906002600955610f2e610f26610f1e3361203f565b978689612742565b938588612742565b9386612742565b916001600160a01b039081169116808214158061126e575b8061125b575b15611222573386526017602052604086208054906064820180921161120e57558552601760205260408520805490606482018092116111fa57558452601760205260408420805490606482018092116111e657556001600160a01b0316835260176020526040832080546064810191908210610d4a57556001600160a01b0316801515806111dc575b6111ab575b50600a546001600160a01b0316610ff9811515611f33565b338352601660205260ff60408420541661064f576020600491604051928380926318160ddd60e01b82525afa908115610716578391611179575b50600f54146105ea576013546105a557600d54611098906001600160a01b031661105e81151561281c565b60145490604051916323b872dd60e01b6020840152336024840152306044840152606483015260648252611093608483611ebe565b612b73565b338252601660205260408220600160ff1982541617905581602060018060a01b03600a541660446040518094819363cfea617560e01b83523360048401528160248401525af1908115610716578391611147575b506040519183337fddf252ad1be2c89b69c2b068fc378daa952ba7f163c4a11628f55a4df523b3ef8280a481527f9c7d27ec8217f7c8e52f4596bb3f2194f4ea4ab9ccee924f62231224310fbcf560203392a2600160095580f35b90506020813d602011611171575b8161116260209383611ebe565b81010312610c5a5751386110ec565b3d9150611155565b90506020813d6020116111a3575b8161119460209383611ebe565b81010312610c5a575138611033565b3d9150611187565b825260176020526040822080549060fa82018092116106995755601154600181018091116106855760115538610fe1565b5033811415610fdc565b634e487b7160e01b86526011600452602486fd5b634e487b7160e01b87526011600452602487fd5b634e487b7160e01b88526011600452602488fd5b60405162461bcd60e51b81526020600482015260116024820152706475706c6963617465207369676e65727360781b6044820152606490fd5b506001600160a01b038316821415610f53565b506001600160a01b038316811415610f4d565b633ee5aeb560e01b8652600486fd5b8680fd5b8480fd5b8580fd5b8380fd5b50346102b85760803660031901126102b8576112ba611e26565b506112c3611e3c565b5060643567ffffffffffffffff81116107215736602382011215610721576112f5903690602481600401359101611efc565b5080f35b50346102b857806003193601126102b857600e546040516001600160a01b039091168152602090f35b50346102b857806003193601126102b857602061133d61214b565b604051908152f35b50346102b85760403660031901126102b85761135f611e26565b50602435801515036102b85780f35b50346102b857806003193601126102b8576020600f54604051908152f35b611dc2565b50346102b85760203660031901126102b8576113ab611e26565b6113b36124ba565b60018060a01b03166001600160601b0360a01b600e541617600e5580f35b50346102b857806003193601126102b857600c546040516001600160a01b039091168152602090f35b50346102b857806003193601126102b8575061095d60405161141d604082611ebe565b60048152635048584560e01b6020820152604051918291602083526020830190611e01565b50346102b85760203660031901126102b85761145c6124ba565b60043560145580f35b50346102b857806003193601126102b857600f548015159081611490575b6020826040519015158152f35b600a546040516318160ddd60e01b8152919250602090829060049082906001600160a01b03165afa9081156107165783916114d2575b50602092501438611483565b90506020813d602011611500575b816114ed60209383611ebe565b81010312610c5a576020925051386114c6565b3d91506114e0565b50346102b857806003193601126102b857546040516001600160a01b039091168152602090f35b50346102b857806003193601126102b857600d546040516001600160a01b039091168152602090f35b50346102b857806003193601126102b85760206040516101f48152f35b50346102b857806003193601126102b857611615906115b37f000000000000000000000000000000000000000000000000000000000000000061297b565b906115dd7f0000000000000000000000000000000000000000000000000000000000000000612a7b565b906020611623604051936115f18386611ebe565b83855283368137604051968796600f60f81b885260e08589015260e0880190611e01565b908682036040880152611e01565b904660608601523060808601528260a086015284820360c08601528080855193848152019401925b82811061165a57505050500390f35b83518552869550938101939281019260010161164b565b50346102b85760203660031901126102b85760ff604060209260018060a01b03600435168152601684522054166040519015158152f35b50346102b857806003193601126102b857600a546040516001600160a01b039091168152602090f35b50346102b857806003193601126102b857602061133d6120ce565b50346102b857806003193601126102b8576117056124ba565b80546001600160a01b03198116825581906001600160a01b03167f8be0079c531659141344cd1fd0a4f28419497f9722a3daafe3b4186f6b6457e08280a380f35b50346102b85760203660031901126102b8576001600160a01b03611768611e26565b16801561179c5781526016602052604081205460ff1615611792576020905b60ff60405191168152f35b5060206001611787565b60405162461bcd60e51b815260206004820152600f60248201526e696e76616c6964206164647265737360881b6044820152606490fd5b50346102b857806003193601126102b857602061133d61260c565b50346102b85760203660031901126102b857602061180d6004356120a1565b6040516001600160a01b039091168152f35b50346102b85760203660031901126102b857611839611e26565b6118416124ba565b60018060a01b03166001600160601b0360a01b600c541617600c5580f35b50346102b85760203660031901126102b857611879611e26565b6118816124ba565b60018060a01b03166001600160601b0360a01b600d541617600d5580f35b50346102b85760203660031901126102b85760043567ffffffffffffffff81116107215736602382011215610721576118e2903690602481600401359101611efc565b906118eb6124ba565b815167ffffffffffffffff8111611a2457611907601554612067565b601f81116119b9575b50602092601f821160011461194d57928293829392611942575b50508160011b916000199060031b1c19161760155580f35b01519050388061192a565b60158352601f19821693600080516020612bcf83398151915291845b8681106119a15750836001959610611988575b505050811b0160155580f35b015160001960f88460031b161c1916905538808061197c565b91926020600181928685015181550194019201611969565b60158352601f820160051c600080516020612bcf833981519152019060208310611a0e575b601f0160051c600080516020612bcf83398151915201905b818110611a035750611910565b8381556001016119f6565b600080516020612bcf83398151915291506119de565b634e487b7160e01b82526041600452602482fd5b50346102b857806003193601126102b8576020604051611b588152f35b50346102b85760203660031901126102b857611a6f611e26565b611a776124ba565b600a54906001600160a01b03821680611aa9575b506001600160a01b03166001600160a01b03199190911617600a5580f35b6020600491604051928380926318160ddd60e01b82525afa90811561059a578491611b11575b50611ada5738611a8b565b60405162461bcd60e51b815260206004820152600f60248201526e185b1c9958591e481cdd185c9d1959608a1b6044820152606490fd5b90506020813d602011611b3b575b81611b2c60209383611ebe565b8101031261129c575138611acf565b3d9150611b1f565b50346102b85760203660031901126102b857602061133d611b62611e26565b61203f565b50346102b857611b7636611e52565b50505080604051611b88602082611ebe565b5280f35b50346102b85760a03660031901126102b8576044359060ff821682036102b857602061180d60843560643585602435600435611f6c565b50346102b85760203660031901126102b857611bdd6124ba565b600a54611bf4906001600160a01b03161515611f33565b600435600f5580f35b50346102b857806003193601126102b857602061133d6124e3565b50346102b857806003193601126102b85760206040516127108152f35b50346102b857806003193601126102b8576020601454604051908152f35b50346102b85760203660031901126102b857611c6d6124ba565b60043560105580f35b50346102b857611c8536611e52565b50505080f35b50346102b85760203660031901126102b857602061133d611caa611e26565b612480565b50346102b857806003193601126102b8576020601354604051908152f35b50346102b85760403660031901126102b8576112f5611e26565b50346102b85760203660031901126102b857602090604051908152f35b50346102b857806003193601126102b8575061095d604051611d27604082611ebe565b600b81526a50686f656e69784567677360a81b6020820152604051918291602083526020830190611e01565b50346102b85760203660031901126102b85760043563ffffffff60e01b8116809103610721576020906380ac58cd60e01b8114908115611db1575b8115611da0575b506040519015158152f35b6301ffc9a760e01b14905082611d95565b635b5e139f60e01b81149150611d8e565b3461035f57600036600319011261035f57602060405160648152f35b60005b838110611df15750506000910152565b8181015183820152602001611de1565b90602091611e1a81518092818552858086019101611dde565b601f01601f1916010190565b600435906001600160a01b038216820361035f57565b602435906001600160a01b038216820361035f57565b606090600319011261035f576004356001600160a01b038116810361035f57906024356001600160a01b038116810361035f579060443590565b6060810190811067ffffffffffffffff821117611ea857604052565b634e487b7160e01b600052604160045260246000fd5b90601f8019910116810190811067ffffffffffffffff821117611ea857604052565b67ffffffffffffffff8111611ea857601f01601f191660200190565b929192611f0882611ee0565b91611f166040519384611ebe565b82948184528183011161035f578281602093846000960137010152565b15611f3a57565b60405162461bcd60e51b815260206004820152600a6024820152690dcde40e0d0decadcd2f60b31b6044820152606490fd5b92909391844211611ffa576042611fee94611ff7966040519060208201927f1db3f87487756d14490dccd22b2b97ef46d73e78661e7ed6b883377afcfb53b684526040830152606082015260608152611fc6608082611ebe565b519020611fd16124e3565b906040519161190160f01b8352600283015260228201522061286a565b909291926128f3565b90565b60405162461bcd60e51b815260206004820152601c60248201527f50686f656e69785369673a206578706972656420646561646c696e65000000006044820152606490fd5b6001600160a01b031660008181526016602052604090205460ff166120615790565b50600090565b90600182811c92168015612097575b602083101461208157565b634e487b7160e01b600052602260045260246000fd5b91607f1691612076565b600160a01b8111612061576001600160a01b031660008181526016602052604090205460ff166120615790565b600d546001600160a01b03168015612061576020602491604051928380926370a0823160e01b82523060048301525afa90811561213f57600091612110575090565b90506020813d602011612137575b8161212b60209383611ebe565b8101031261035f575190565b3d915061211e565b6040513d6000823e3d90fd5b600d546001600160a01b03168015612061576020602491604051928380926370a0823160e01b82523060048301525afa90811561213f576000916121f1575b50611b58810290808204611b5814901517156121db576121a861260c565b908115806121d3576121bd5761271090040490565b634e487b7160e01b600052601260045260246000fd5b505050600090565b634e487b7160e01b600052601160045260246000fd5b906020823d60201161221b575b8161220b60209383611ebe565b810103126102b85750513861218a565b3d91506121fe565b919082018092116121db57565b600160a01b811161246a576000818072184f03e93ff9f4daa797ed6e38ed64bf6a1f0160401b811015612444575b50806d04ee2d6d415b85acef8100000000600a921015612429575b662386f26fc10000811015612415575b6305f5e100811015612404575b6127108110156123f5575b60648110156123e7575b10156123df575b6001810191600a60216122dd6122c786611ee0565b956122d56040519788611ebe565b808752611ee0565b602086019490601f19013686378501015b60001901916f181899199a1a9b1b9c1cb0b131b232b360811b8282061a835304801561231d57600a90916122ee565b5050604051809260009060155461233381612067565b90600181169081156123bb575060011461236a575b5061235b611ff794839251938491611dde565b0103601f198101835282611ebe565b9391506015600052600080516020612bcf8339815191529360005b81811061239f57509193509082016020019061235b612348565b8554602082890181019190915260019096019587955001612385565b60ff19166020868101919091528215159092028501909101925061235b9050612348565b6001016122b2565b6064600291049201916122ab565b612710600491049201916122a1565b6305f5e10060089104920191612296565b662386f26fc1000060109104920191612289565b6d04ee2d6d415b85acef810000000060209104920191612279565b6040925072184f03e93ff9f4daa797ed6e38ed64bf6a1f0160401b90049050600a61225e565b50604051612479602082611ebe565b6000815290565b60018060a01b03166000526017602052604060002054670de0b6b3a7640000810290808204670de0b6b3a764000014901517156121db5790565b6000546001600160a01b031633036124ce57565b63118cdaa760e01b6000523360045260246000fd5b307f00000000000000000000000000000000000000000000000000000000000000006001600160a01b031614806125d6575b1561253e577f000000000000000000000000000000000000000000000000000000000000000090565b60405160208101907f8b73c3c69bb8fe3d512ecc4cf759cc79239f7b179b0ffacaa9a75d522b39400f82527f000000000000000000000000000000000000000000000000000000000000000060408201527f000000000000000000000000000000000000000000000000000000000000000060608201524660808201523060a082015260a081526125d060c082611ebe565b51902090565b507f00000000000000000000000000000000000000000000000000000000000000004614612515565b919082039182116121db57565b600a546040516318160ddd60e01b8152906001600160a01b0316602082600481845afa91821561213f5760009261270d575b506020612650600493601254906125ff565b91604051938480926318160ddd60e01b82525afa91821561213f576000926126d9575b50816064029160648304036121db578061012c029061012c8204036121db5761269b91612223565b6011548060fa029060fa8204036121db576126b591612223565b670de0b6b3a7640000810290808204670de0b6b3a764000014901517156121db5790565b90916020823d602011612705575b816126f460209383611ebe565b810103126102b85750519038612673565b3d91506126e7565b91506020823d60201161273a575b8161272860209383611ebe565b8101031261035f57905190602061263e565b3d915061271b565b909161275e9260ff825116906040602084015193015193611f6c565b600a546040516370a0823160e01b81526001600160a01b038381166004830152909160209183916024918391165afa90811561213f576000916127ea575b50156127a55790565b60405162461bcd60e51b815260206004820152601760248201527f5369676e6572206973206e6f7420612050686f656e69780000000000000000006044820152606490fd5b90506020813d602011612814575b8161280560209383611ebe565b8101031261035f57513861279c565b3d91506127f8565b1561282357565b60405162461bcd60e51b81526020600482015260076024820152666e6f207573646360c81b6044820152606490fd5b9081602091031261035f5751801515810361035f5790565b91907f7fffffffffffffffffffffffffffffff5d576e7357a4501ddfe92f46681b20a084116128e7579160209360809260ff60009560405194855216868401526040830152606082015282805260015afa1561213f576000516001600160a01b038116156128db5790600090600090565b50600090600190600090565b50505060009160039190565b9190916004811015612965578061290957509050565b6000600182036129245763f645eedf60e01b60005260046000fd5b5060028103612942578263fce698f760e01b60005260045260246000fd5b9091600360009214612952575050565b6335e2f38360e21b825260045260249150fd5b634e487b7160e01b600052602160045260246000fd5b60ff81146129c55760ff811690601f82116129b457604080519261299f8285611ebe565b6020808552840191601f190136833783525290565b632cd44ac360e21b60005260046000fd5b506040516001548160006129d883612067565b8083529260018116908115612a5c57506001146129fc575b611ff792500382611ebe565b506001600090815290917fb10e2d527612073b26eecdfd717e6a320cf44b4afac2b0732d9fcbe2b7fa0cf65b818310612a40575050906020611ff7928201016129f0565b6020919350806001915483858801015201910190918392612a28565b60209250611ff794915060ff191682840152151560051b8201016129f0565b60ff8114612a9f5760ff811690601f82116129b457604080519261299f8285611ebe565b50604051600254816000612ab283612067565b8083529260018116908115612a5c5750600114612ad557611ff792500382611ebe565b506002600090815290917f405787fa12a823e0f2b7631cc41b3ba8828b3321ca811111fa75cd3aa3bb5ace5b818310612b19575050906020611ff7928201016129f0565b6020919350806001915483858801015201910190918392612b01565b60405163a9059cbb60e01b60208201526001600160a01b03929092166024830152604480830193909352918152612b7191611093606483611ebe565b565b906000602091828151910182855af11561213f576000513d612bc557506001600160a01b0381163b155b612ba45750565b635274afe760e01b60009081526001600160a01b0391909116600452602490fd5b60011415612b9d56fe55f448fdea98c4d29eb340757ef0a66cd03dbb9538908a6a81d96026b71ec475a2646970667358221220e1ea81a3461ec3247b0feb87c9f231d9e7ee5832ba31f1949e27871b94da91b064736f6c634300081b0033",
  "devdoc": {
    "custom:security-contact": "info@charged.fi",
    "errors": {
      "ECDSAInvalidSignature()": [
        {
          "details": "The signature derives the `address(0)`."
        }
      ],
      "ECDSAInvalidSignatureLength(uint256)": [
        {
          "details": "The signature has an invalid length."
        }
      ],
      "ECDSAInvalidSignatureS(bytes32)": [
        {
          "details": "The signature has an S value that is in the upper half order."
        }
      ],
      "ERC721IncorrectOwner(address,uint256,address)": [
        {
          "details": "Indicates an error related to the ownership over a particular token. Used in transfers.",
          "params": {
            "owner": "Address of the current owner of a token.",
            "sender": "Address whose tokens are being transferred.",
            "tokenId": "Identifier number of a token."
          }
        }
      ],
      "ERC721InsufficientApproval(address,uint256)": [
        {
          "details": "Indicates a failure with the `operator`’s approval. Used in transfers.",
          "params": {
            "operator": "Address that may be allowed to operate on tokens without being their owner.",
            "tokenId": "Identifier number of a token."
          }
        }
      ],
      "ERC721InvalidApprover(address)": [
        {
          "details": "Indicates a failure with the `approver` of a token to be approved. Used in approvals.",
          "params": {
            "approver": "Address initiating an approval operation."
          }
        }
      ],
      "ERC721InvalidOperator(address)": [
        {
          "details": "Indicates a failure with the `operator` to be approved. Used in approvals.",
          "params": {
            "operator": "Address that may be allowed to operate on tokens without being their owner."
          }
        }
      ],
      "ERC721InvalidOwner(address)": [
        {
          "details": "Indicates that an address can't be an owner. For example, `address(0)` is a forbidden owner in ERC-20. Used in balance queries.",
          "params": {
            "owner": "Address of the current owner of a token."
          }
        }
      ],
      "ERC721InvalidReceiver(address)": [
        {
          "details": "Indicates a failure with the token `receiver`. Used in transfers.",
          "params": {
            "receiver": "Address to which tokens are being transferred."
          }
        }
      ],
      "ERC721InvalidSender(address)": [
        {
          "details": "Indicates a failure with the token `sender`. Used in transfers.",
          "params": {
            "sender": "Address whose tokens are being transferred."
          }
        }
      ],
      "ERC721NonexistentToken(uint256)": [
        {
          "details": "Indicates a `tokenId` whose `owner` is the zero address.",
          "params": {
            "tokenId": "Identifier number of a token."
          }
        }
      ],
      "OwnableInvalidOwner(address)": [
        {
          "details": "The owner is not a valid owner account. (eg. `address(0)`)"
        }
      ],
      "OwnableUnauthorizedAccount(address)": [
        {
          "details": "The caller account is not authorized to perform an operation."
        }
      ],
      "ReentrancyGuardReentrantCall()": [
        {
          "details": "Unauthorized reentrant call."
        }
      ],
      "SafeERC20FailedOperation(address)": [
        {
          "details": "An operation with an ERC-20 token failed."
        }
      ]
    },
    "events": {
      "Approval(address,address,uint256)": {
        "details": "Emitted when `owner` enables `approved` to manage the `tokenId` token."
      },
      "ApprovalForAll(address,address,bool)": {
        "details": "Emitted when `owner` enables or disables (`approved`) `operator` to manage all of its assets."
      },
      "EIP712DomainChanged()": {
        "details": "MAY be emitted to signal that the domain could have changed."
      },
      "Transfer(address,address,uint256)": {
        "details": "Emitted when `tokenId` token is transferred from `from` to `to`."
      }
    },
    "kind": "dev",
    "methods": {
      "approve(address,uint256)": {
        "details": "Disable Approvals"
      },
      "balanceOf(address)": {
        "details": "See {IERC721-balanceOf}."
      },
      "burn(address,uint256,(uint8,bytes32,bytes32),(uint8,bytes32,bytes32),(uint8,bytes32,bytes32))": {
        "details": "Burn the Phoenix Egg to Release the Phoenix"
      },
      "eip712Domain()": {
        "details": "returns the fields and values that describe the domain separator used by this contract for EIP-712 signature."
      },
      "getApproved(uint256)": {
        "details": "Returns the account approved for `tokenId` token. Requirements: - `tokenId` must exist."
      },
      "isApprovedForAll(address,address)": {
        "details": "Returns if the `operator` is allowed to manage all of the assets of `owner`. See {setApprovalForAll}"
      },
      "name()": {
        "details": "See {IERC721Metadata-name}."
      },
      "owner()": {
        "details": "Returns the address of the current owner."
      },
      "ownerOf(uint256)": {
        "details": "See {IERC721-ownerOf}."
      },
      "renounceOwnership()": {
        "details": "Leaves the contract without owner. It will not be possible to call `onlyOwner` functions. Can only be called by the current owner. NOTE: Renouncing ownership will leave the contract without an owner, thereby disabling any functionality that is only available to the owner."
      },
      "safeTransferFrom(address,address,uint256)": {
        "details": "Safely transfers `tokenId` token from `from` to `to`, checking first that contract recipients are aware of the ERC-721 protocol to prevent tokens from being forever locked. Requirements: - `from` cannot be the zero address. - `to` cannot be the zero address. - `tokenId` token must exist and be owned by `from`. - If the caller is not `from`, it must have been allowed to move this token by either {approve} or   {setApprovalForAll}. - If `to` refers to a smart contract, it must implement {IERC721Receiver-onERC721Received}, which is called upon   a safe transfer. Emits a {Transfer} event."
      },
      "safeTransferFrom(address,address,uint256,bytes)": {
        "details": "Safely transfers `tokenId` token from `from` to `to`. Requirements: - `from` cannot be the zero address. - `to` cannot be the zero address. - `tokenId` token must exist and be owned by `from`. - If the caller is not `from`, it must be approved to move this token by either {approve} or {setApprovalForAll}. - If `to` refers to a smart contract, it must implement {IERC721Receiver-onERC721Received}, which is called upon   a safe transfer. Emits a {Transfer} event."
      },
      "setApprovalForAll(address,bool)": {
        "details": "Approve or remove `operator` as an operator for the caller. Operators can call {transferFrom} or {safeTransferFrom} for any token owned by the caller. Requirements: - The `operator` cannot be the address zero. Emits an {ApprovalForAll} event."
      },
      "setBaseURI(string)": {
        "details": "Set Base URI for Metadata - Only Owner"
      },
      "setMaxNfts(uint256)": {
        "details": "Set the Max Amount of NFTs that can be Minted - Only Owner"
      },
      "setMaxTeamEggs(uint256)": {
        "details": "Set the Max Amount of Team Eggs that can be Burned - Only Owner"
      },
      "setPhoenixDex(address)": {
        "details": "Set Phoenix DEX Contract - Only Owner"
      },
      "setPhoenixNFT(address)": {
        "details": "Set Phoenix NFT Contract - Only Owner"
      },
      "setPhoenixToken(address)": {
        "details": "Set Phoenix Token Contract - Only Owner"
      },
      "setPhoenixTreasury(address)": {
        "details": "Set Phoenix Treasury Contract - Only Owner"
      },
      "setPrice(uint256)": {
        "details": "Set the Minimum Price to Burn - Only Owner"
      },
      "setUsdcToken(address)": {
        "details": "Set USDC Token Contract - Only Owner"
      },
      "supportsInterface(bytes4)": {
        "details": "Returns true if this contract implements the interface defined by `interfaceId`. See the corresponding https://eips.ethereum.org/EIPS/eip-165#how-interfaces-are-identified[ERC section] to learn more about how these ids are created. This function call must use less than 30 000 gas."
      },
      "symbol()": {
        "details": "See {IERC721Metadata-symbol}."
      },
      "teamBurn(address)": {
        "details": "First Dozen Eggs is Team Pre-mint in order to Kick-Start Voting - Only Owner"
      },
      "tokenURI(uint256)": {
        "details": "Returns the Uniform Resource Identifier (URI) for `tokenId` token."
      },
      "transferFrom(address,address,uint256)": {
        "details": "Disable Transfers"
      },
      "transferOwnership(address)": {
        "details": "Transfers ownership of the contract to a new account (`newOwner`). Can only be called by the current owner."
      }
    },
    "version": 1
  },
  "userdoc": {
    "kind": "user",
    "methods": {},
    "version": 1
  },
  "storageLayout": {
    "storage": [
      {
        "astId": 8,
        "contract": "contracts/PhoenixEggs.sol:PhoenixEggs",
        "label": "_owner",
        "offset": 0,
        "slot": "0",
        "type": "t_address"
      },
      {
        "astId": 6193,
        "contract": "contracts/PhoenixEggs.sol:PhoenixEggs",
        "label": "_nameFallback",
        "offset": 0,
        "slot": "1",
        "type": "t_string_storage"
      },
      {
        "astId": 6195,
        "contract": "contracts/PhoenixEggs.sol:PhoenixEggs",
        "label": "_versionFallback",
        "offset": 0,
        "slot": "2",
        "type": "t_string_storage"
      },
      {
        "astId": 1874,
        "contract": "contracts/PhoenixEggs.sol:PhoenixEggs",
        "label": "_name",
        "offset": 0,
        "slot": "3",
        "type": "t_string_storage"
      },
      {
        "astId": 1876,
        "contract": "contracts/PhoenixEggs.sol:PhoenixEggs",
        "label": "_symbol",
        "offset": 0,
        "slot": "4",
        "type": "t_string_storage"
      },
      {
        "astId": 1880,
        "contract": "contracts/PhoenixEggs.sol:PhoenixEggs",
        "label": "_owners",
        "offset": 0,
        "slot": "5",
        "type": "t_mapping(t_uint256,t_address)"
      },
      {
        "astId": 1884,
        "contract": "contracts/PhoenixEggs.sol:PhoenixEggs",
        "label": "_balances",
        "offset": 0,
        "slot": "6",
        "type": "t_mapping(t_address,t_uint256)"
      },
      {
        "astId": 1888,
        "contract": "contracts/PhoenixEggs.sol:PhoenixEggs",
        "label": "_tokenApprovals",
        "offset": 0,
        "slot": "7",
        "type": "t_mapping(t_uint256,t_address)"
      },
      {
        "astId": 1894,
        "contract": "contracts/PhoenixEggs.sol:PhoenixEggs",
        "label": "_operatorApprovals",
        "offset": 0,
        "slot": "8",
        "type": "t_mapping(t_address,t_mapping(t_address,t_bool))"
      },
      {
        "astId": 4007,
        "contract": "contracts/PhoenixEggs.sol:PhoenixEggs",
        "label": "_status",
        "offset": 0,
        "slot": "9",
        "type": "t_uint256"
      },
      {
        "astId": 13435,
        "contract": "contracts/PhoenixEggs.sol:PhoenixEggs",
        "label": "_phoenixNft",
        "offset": 0,
        "slot": "10",
        "type": "t_contract(IPhoenixNFT)16193"
      },
      {
        "astId": 13438,
        "contract": "contracts/PhoenixEggs.sol:PhoenixEggs",
        "label": "_phoenixDex",
        "offset": 0,
        "slot": "11",
        "type": "t_contract(IPhoenixDex)16145"
      },
      {
        "astId": 13440,
        "contract": "contracts/PhoenixEggs.sol:PhoenixEggs",
        "label": "_phoenixToken",
        "offset": 0,
        "slot": "12",
        "type": "t_address"
      },
      {
        "astId": 13442,
        "contract": "contracts/PhoenixEggs.sol:PhoenixEggs",
        "label": "_usdcToken",
        "offset": 0,
        "slot": "13",
        "type": "t_address"
      },
      {
        "astId": 13444,
        "contract": "contracts/PhoenixEggs.sol:PhoenixEggs",
        "label": "_phoenixTreasury",
        "offset": 0,
        "slot": "14",
        "type": "t_address"
      },
      {
        "astId": 13446,
        "contract": "contracts/PhoenixEggs.sol:PhoenixEggs",
        "label": "_maxNfts",
        "offset": 0,
        "slot": "15",
        "type": "t_uint256"
      },
      {
        "astId": 13448,
        "contract": "contracts/PhoenixEggs.sol:PhoenixEggs",
        "label": "_maxTeamEggs",
        "offset": 0,
        "slot": "16",
        "type": "t_uint256"
      },
      {
        "astId": 13450,
        "contract": "contracts/PhoenixEggs.sol:PhoenixEggs",
        "label": "_totalReferrals",
        "offset": 0,
        "slot": "17",
        "type": "t_uint256"
      },
      {
        "astId": 13452,
        "contract": "contracts/PhoenixEggs.sol:PhoenixEggs",
        "label": "_totalTeamBurns",
        "offset": 0,
        "slot": "18",
        "type": "t_uint256"
      },
      {
        "astId": 13454,
        "contract": "contracts/PhoenixEggs.sol:PhoenixEggs",
        "label": "_liquidityCreatedTimestamp",
        "offset": 0,
        "slot": "19",
        "type": "t_uint256"
      },
      {
        "astId": 13456,
        "contract": "contracts/PhoenixEggs.sol:PhoenixEggs",
        "label": "_price",
        "offset": 0,
        "slot": "20",
        "type": "t_uint256"
      },
      {
        "astId": 13458,
        "contract": "contracts/PhoenixEggs.sol:PhoenixEggs",
        "label": "_baseUri",
        "offset": 0,
        "slot": "21",
        "type": "t_string_storage"
      },
      {
        "astId": 13462,
        "contract": "contracts/PhoenixEggs.sol:PhoenixEggs",
        "label": "_burned",
        "offset": 0,
        "slot": "22",
        "type": "t_mapping(t_address,t_bool)"
      },
      {
        "astId": 13466,
        "contract": "contracts/PhoenixEggs.sol:PhoenixEggs",
        "label": "_ownerPhxEarnings",
        "offset": 0,
        "slot": "23",
        "type": "t_mapping(t_address,t_uint256)"
      }
    ],
    "types": {
      "t_address": {
        "encoding": "inplace",
        "label": "address",
        "numberOfBytes": "20"
      },
      "t_bool": {
        "encoding": "inplace",
        "label": "bool",
        "numberOfBytes": "1"
      },
      "t_contract(IPhoenixDex)16145": {
        "encoding": "inplace",
        "label": "contract IPhoenixDex",
        "numberOfBytes": "20"
      },
      "t_contract(IPhoenixNFT)16193": {
        "encoding": "inplace",
        "label": "contract IPhoenixNFT",
        "numberOfBytes": "20"
      },
      "t_mapping(t_address,t_bool)": {
        "encoding": "mapping",
        "key": "t_address",
        "label": "mapping(address => bool)",
        "numberOfBytes": "32",
        "value": "t_bool"
      },
      "t_mapping(t_address,t_mapping(t_address,t_bool))": {
        "encoding": "mapping",
        "key": "t_address",
        "label": "mapping(address => mapping(address => bool))",
        "numberOfBytes": "32",
        "value": "t_mapping(t_address,t_bool)"
      },
      "t_mapping(t_address,t_uint256)": {
        "encoding": "mapping",
        "key": "t_address",
        "label": "mapping(address => uint256)",
        "numberOfBytes": "32",
        "value": "t_uint256"
      },
      "t_mapping(t_uint256,t_address)": {
        "encoding": "mapping",
        "key": "t_uint256",
        "label": "mapping(uint256 => address)",
        "numberOfBytes": "32",
        "value": "t_address"
      },
      "t_string_storage": {
        "encoding": "bytes",
        "label": "string",
        "numberOfBytes": "32"
      },
      "t_uint256": {
        "encoding": "inplace",
        "label": "uint256",
        "numberOfBytes": "32"
      }
    }
  }
}