{
  "address": "0xE0e31277327F73B1a3D07Fbb486C514E9aaB4bE7",
  "abi": [
    {
      "inputs": [
        {
          "internalType": "address",
          "name": "_usdc",
          "type": "address"
        },
        {
          "internalType": "address",
          "name": "_phx",
          "type": "address"
        },
        {
          "internalType": "address",
          "name": "_eggs",
          "type": "address"
        },
        {
          "internalType": "address",
          "name": "_router",
          "type": "address"
        }
      ],
      "stateMutability": "nonpayable",
      "type": "constructor"
    },
    {
      "inputs": [
        {
          "internalType": "address",
          "name": "owner",
          "type": "address"
        }
      ],
      "name": "OwnableInvalidOwner",
      "type": "error"
    },
    {
      "inputs": [
        {
          "internalType": "address",
          "name": "account",
          "type": "address"
        }
      ],
      "name": "OwnableUnauthorizedAccount",
      "type": "error"
    },
    {
      "inputs": [],
      "name": "ReentrancyGuardReentrantCall",
      "type": "error"
    },
    {
      "inputs": [],
      "name": "Unauthorized",
      "type": "error"
    },
    {
      "anonymous": false,
      "inputs": [
        {
          "indexed": true,
          "internalType": "address",
          "name": "creator",
          "type": "address"
        },
        {
          "indexed": true,
          "internalType": "address",
          "name": "pair",
          "type": "address"
        },
        {
          "indexed": false,
          "internalType": "uint256",
          "name": "tokenAmount",
          "type": "uint256"
        },
        {
          "indexed": false,
          "internalType": "uint256",
          "name": "usdcAmount",
          "type": "uint256"
        },
        {
          "indexed": false,
          "internalType": "uint256",
          "name": "liquidity",
          "type": "uint256"
        },
        {
          "indexed": false,
          "internalType": "uint256",
          "name": "timestamp",
          "type": "uint256"
        }
      ],
      "name": "LiquidityDeployed",
      "type": "event"
    },
    {
      "anonymous": false,
      "inputs": [
        {
          "indexed": true,
          "internalType": "address",
          "name": "to",
          "type": "address"
        },
        {
          "indexed": false,
          "internalType": "uint256",
          "name": "amountA",
          "type": "uint256"
        },
        {
          "indexed": false,
          "internalType": "uint256",
          "name": "amountB",
          "type": "uint256"
        },
        {
          "indexed": false,
          "internalType": "uint256",
          "name": "timestamp",
          "type": "uint256"
        }
      ],
      "name": "LiquidityRemoved",
      "type": "event"
    },
    {
      "anonymous": false,
      "inputs": [
        {
          "indexed": true,
          "internalType": "address",
          "name": "previousOwner",
          "type": "address"
        },
        {
          "indexed": true,
          "internalType": "address",
          "name": "newOwner",
          "type": "address"
        }
      ],
      "name": "OwnershipTransferred",
      "type": "event"
    },
    {
      "anonymous": false,
      "inputs": [
        {
          "indexed": true,
          "internalType": "address",
          "name": "newRouter",
          "type": "address"
        },
        {
          "indexed": false,
          "internalType": "uint256",
          "name": "timestamp",
          "type": "uint256"
        }
      ],
      "name": "RouterUpdated",
      "type": "event"
    },
    {
      "anonymous": false,
      "inputs": [
        {
          "indexed": true,
          "internalType": "address",
          "name": "to",
          "type": "address"
        },
        {
          "indexed": false,
          "internalType": "uint256",
          "name": "amountIn",
          "type": "uint256"
        },
        {
          "indexed": false,
          "internalType": "uint256",
          "name": "amountOut",
          "type": "uint256"
        },
        {
          "indexed": false,
          "internalType": "address[]",
          "name": "path",
          "type": "address[]"
        },
        {
          "indexed": false,
          "internalType": "uint256",
          "name": "timestamp",
          "type": "uint256"
        }
      ],
      "name": "TokensSwapped",
      "type": "event"
    },
    {
      "inputs": [],
      "name": "PHX",
      "outputs": [
        {
          "internalType": "contract IERC20",
          "name": "",
          "type": "address"
        }
      ],
      "stateMutability": "view",
      "type": "function"
    },
    {
      "inputs": [],
      "name": "USDC",
      "outputs": [
        {
          "internalType": "contract IERC20",
          "name": "",
          "type": "address"
        }
      ],
      "stateMutability": "view",
      "type": "function"
    },
    {
      "inputs": [
        {
          "internalType": "address",
          "name": "creator",
          "type": "address"
        },
        {
          "internalType": "uint256",
          "name": "phxAmount",
          "type": "uint256"
        },
        {
          "internalType": "uint256",
          "name": "usdcAmount",
          "type": "uint256"
        }
      ],
      "name": "deployLiquidity",
      "outputs": [
        {
          "internalType": "uint256",
          "name": "amountA",
          "type": "uint256"
        },
        {
          "internalType": "uint256",
          "name": "amountB",
          "type": "uint256"
        },
        {
          "internalType": "uint256",
          "name": "liquidity",
          "type": "uint256"
        }
      ],
      "stateMutability": "nonpayable",
      "type": "function"
    },
    {
      "inputs": [],
      "name": "dexRouter",
      "outputs": [
        {
          "internalType": "contract ISomniaExchangeRouter02",
          "name": "",
          "type": "address"
        }
      ],
      "stateMutability": "view",
      "type": "function"
    },
    {
      "inputs": [],
      "name": "factory",
      "outputs": [
        {
          "internalType": "contract ISomniaExchangeFactory",
          "name": "",
          "type": "address"
        }
      ],
      "stateMutability": "view",
      "type": "function"
    },
    {
      "inputs": [],
      "name": "owner",
      "outputs": [
        {
          "internalType": "address",
          "name": "",
          "type": "address"
        }
      ],
      "stateMutability": "view",
      "type": "function"
    },
    {
      "inputs": [],
      "name": "pair",
      "outputs": [
        {
          "internalType": "address",
          "name": "",
          "type": "address"
        }
      ],
      "stateMutability": "view",
      "type": "function"
    },
    {
      "inputs": [],
      "name": "phoenixEggs",
      "outputs": [
        {
          "internalType": "address",
          "name": "",
          "type": "address"
        }
      ],
      "stateMutability": "view",
      "type": "function"
    },
    {
      "inputs": [
        {
          "internalType": "address",
          "name": "to",
          "type": "address"
        },
        {
          "internalType": "uint256",
          "name": "liquidity",
          "type": "uint256"
        }
      ],
      "name": "removeLiquidity",
      "outputs": [
        {
          "internalType": "uint256",
          "name": "amountA",
          "type": "uint256"
        },
        {
          "internalType": "uint256",
          "name": "amountB",
          "type": "uint256"
        }
      ],
      "stateMutability": "nonpayable",
      "type": "function"
    },
    {
      "inputs": [],
      "name": "renounceOwnership",
      "outputs": [],
      "stateMutability": "nonpayable",
      "type": "function"
    },
    {
      "inputs": [
        {
          "internalType": "address",
          "name": "newOwner",
          "type": "address"
        }
      ],
      "name": "transferOwnership",
      "outputs": [],
      "stateMutability": "nonpayable",
      "type": "function"
    },
    {
      "inputs": [
        {
          "internalType": "address",
          "name": "newRouter",
          "type": "address"
        }
      ],
      "name": "updateRouter",
      "outputs": [],
      "stateMutability": "nonpayable",
      "type": "function"
    }
  ],
  "transactionHash": "0xb0fef85b7aa2dfbe788ebdfa0ca138c5c934980adf04dc4fea5d0c03fa999fdf",
  "args": [
    "0x0673aDBDc50F3501A3a5FaE4acd723D8430e9f18",
    "0x2aEF61f7e8ce921139d0a724E0C10f016F572d32",
    "0x978c2dC96eAdc9703C7af3ae88B89D1e39606Ea4",
    "0xb98c15a0dC1e271132e341250703c7e94c059e8D"
  ],
  "numDeployments": 1,
  "solcInputHash": "9275ff37cecc4b0b3196d3683d2e4453",
  "bytecode": "0x60e0806040523461023557608081610f37803803809161001f82856103a0565b83398101031261023557610032816103d9565b61003e602083016103d9565b916100576060610050604084016103d9565b92016103d9565b926001600055331561038a5760018054336001600160a01b0319821681179092556040519491906001600160a01b03167f8be0079c531659141344cd1fd0a4f28419497f9722a3daafe3b4186f6b6457e0600080a36001600160a01b031692831561034857506001600160a01b0316928315610303576001600160a01b038216156102be576001600160a01b03169081156102885760049360209360805260a05260c0528060018060a01b031960025416176002556040519283809263c45a015560e01b82525afa9081156102425760009161024e575b50600480546001600160a01b0319166001600160a01b03928316908117825560805160a05160405163e6a4390560e01b81529185169382019390935291909216602482015290602090829060449082905afa90811561024257600091610203575b50600380546001600160a01b0319166001600160a01b0392909216919091179055604051610b4990816103ee82396080518181816103360152818161062b01526109b2015260a05181818161018d0152818161035e01526105c0015260c05181818160b90152818161052701526109440152f35b90506020813d60201161023a575b8161021e602093836103a0565b810103126102355761022f906103d9565b3861018f565b600080fd5b3d9150610211565b6040513d6000823e3d90fd5b90506020813d602011610280575b81610269602093836103a0565b810103126102355761027a906103d9565b3861012e565b3d915061025c565b60405162461bcd60e51b815260206004820152600e60248201526d24b73b30b634b2103937baba32b960911b6044820152606490fd5b60405162461bcd60e51b815260206004820152601460248201527f496e76616c6964204567677320616464726573730000000000000000000000006044820152606490fd5b60405162461bcd60e51b815260206004820152601360248201527f496e76616c6964205048582061646472657373000000000000000000000000006044820152606490fd5b62461bcd60e51b815260206004820152601460248201527f496e76616c6964205553444320616464726573730000000000000000000000006044820152606490fd5b631e4fbdf760e01b600052600060045260246000fd5b601f909101601f19168101906001600160401b038211908210176103c357604052565b634e487b7160e01b600052604160045260246000fd5b51906001600160a01b03821682036102355756fe608080604052600436101561001357600080fd5b60003560e01c9081630758d92414610a3e57508063715018a6146109e157806389a302711461099c5780638da5cb5b14610973578063973d4e5814610556578063a201ccf61461027c578063a8aa1b3114610253578063c45a01551461022a578063c851cc32146101bc578063cd8766d814610177578063f2fde38b146100ed5763fb5bb0e5146100a357600080fd5b346100e85760003660031901126100e8576040517f00000000000000000000000000000000000000000000000000000000000000006001600160a01b03168152602090f35b600080fd5b346100e85760203660031901126100e857610106610a62565b61010e610ac8565b6001600160a01b0316801561016157600180546001600160a01b0319811683179091556001600160a01b03167f8be0079c531659141344cd1fd0a4f28419497f9722a3daafe3b4186f6b6457e0600080a3005b631e4fbdf760e01b600052600060045260246000fd5b346100e85760003660031901126100e8576040517f00000000000000000000000000000000000000000000000000000000000000006001600160a01b03168152602090f35b346100e85760203660031901126100e8576101d5610a62565b6101dd610ac8565b60018060a01b0316806bffffffffffffffffffffffff60a01b60025416176002557f65010bf8aa701515d017d4682c72f93e8722682a85afde7960fb222bb5c5bb546020604051428152a2005b346100e85760003660031901126100e8576004546040516001600160a01b039091168152602090f35b346100e85760003660031901126100e8576003546040516001600160a01b039091168152602090f35b346100e85760403660031901126100e857610295610a62565b6024359060018060a01b036001541633141580610523575b610513576102b9610af1565b6001600160a01b031680156104dc5781156104985760035460025460405163095ea7b360e01b81526001600160a01b03918216600482015260248101859052939160209185916044918391600091165af190811561045f5760009360409261046b575b506002548251635d5155ef60e11b81526001600160a01b037f0000000000000000000000000000000000000000000000000000000000000000811660048301527f0000000000000000000000000000000000000000000000000000000000000000811660248301526044820193909352606481018690526084810186905260a481018590524260c482015294859260e492849291165af190811561045f57600092839261041e575b60408484847f1dc8bb69df2b8e91fbdcbfcf93d951b3f0000f085a95fe3f7946d6161439245d84518061040a428688846040919493926060820195825260208201520152565b0390a2600160005582519182526020820152f35b91506040823d604011610457575b8161043960409383610a78565b8101031261045357604092506020825192015191926103c4565b8280fd5b3d915061042c565b6040513d6000823e3d90fd5b61048c9060203d602011610491575b6104848183610a78565b810190610ab0565b61031c565b503d61047a565b606460405162461bcd60e51b815260206004820152602060248201527f4c6971756964697479206d7573742062652067726561746572207468616e20306044820152fd5b60405162461bcd60e51b815260206004820152600f60248201526e496e76616c6964206164647265737360881b6044820152606490fd5b6282b42960e81b60005260046000fd5b50337f00000000000000000000000000000000000000000000000000000000000000006001600160a01b031614156102ad565b346100e85760603660031901126100e85761056f610a62565b6024356044359060018060a01b036001541633141580610940575b61051357610596610af1565b6040516323b872dd60e01b8152336004820152306024820152604481018290526001600160a01b037f000000000000000000000000000000000000000000000000000000000000000016906020816064816000865af190811561045f57600091610921575b50156108e6576040516323b872dd60e01b8152336004820152306024820152604481018490526001600160a01b037f000000000000000000000000000000000000000000000000000000000000000016906020816064816000865af190811561045f576000916108c7575b501561088b5760025460405163095ea7b360e01b81526001600160a01b039091166004820152602481018490526020816044816000875af1801561045f5761086e575b5060025460405163095ea7b360e01b81526001600160a01b039091166004820152602481018590526020816044816000865af1801561045f57610851575b5060018060a01b036002541690605f850293858504605f148615171561083b57605f810292818404605f148215171561083b57606461010494816060986000956040519b8c9a8b9962e8e33760e81b8b5260048b015260248a01526044890152828801520460848601520460a48401528160c48401524260e48401525af1801561045f57600090819282916107f6575b5060035460408051848152602081018690529081018390524260608201526107f292916001600160a01b0390811691908716907f431211b4ec79d77163aed11f8403b3e2d0c8f7d717500418b2e6e4b2f5c91ee290608090a36001600055604051938493846040919493926060820195825260208201520152565b0390f35b9250506060823d606011610833575b8161081260609383610a78565b810103126108305750805160208201516040909201516107f2610777565b80fd5b3d9150610805565b634e487b7160e01b600052601160045260246000fd5b6108699060203d602011610491576104848183610a78565b6106e7565b6108869060203d602011610491576104848183610a78565b6106a9565b60405162461bcd60e51b81526020600482015260146024820152731554d110c81d1c985b9cd9995c8819985a5b195960621b6044820152606490fd5b6108e0915060203d602011610491576104848183610a78565b86610666565b60405162461bcd60e51b8152602060048201526013602482015272141216081d1c985b9cd9995c8819985a5b1959606a1b6044820152606490fd5b61093a915060203d602011610491576104848183610a78565b856105fb565b50337f00000000000000000000000000000000000000000000000000000000000000006001600160a01b0316141561058a565b346100e85760003660031901126100e8576001546040516001600160a01b039091168152602090f35b346100e85760003660031901126100e8576040517f00000000000000000000000000000000000000000000000000000000000000006001600160a01b03168152602090f35b346100e85760003660031901126100e8576109fa610ac8565b600180546001600160a01b031981169091556000906001600160a01b03167f8be0079c531659141344cd1fd0a4f28419497f9722a3daafe3b4186f6b6457e08280a3005b346100e85760003660031901126100e8576002546001600160a01b03168152602090f35b600435906001600160a01b03821682036100e857565b90601f8019910116810190811067ffffffffffffffff821117610a9a57604052565b634e487b7160e01b600052604160045260246000fd5b908160209103126100e8575180151581036100e85790565b6001546001600160a01b03163303610adc57565b63118cdaa760e01b6000523360045260246000fd5b600260005414610b02576002600055565b633ee5aeb560e01b60005260046000fdfea264697066735822122083e47aa017c009553c89df91cd92766ba39cd942886b3e1bc77a8a73e87cff7e64736f6c634300081b0033",
  "devdoc": {
    "errors": {
      "OwnableInvalidOwner(address)": [
        {
          "details": "The owner is not a valid owner account. (eg. `address(0)`)"
        }
      ],
      "OwnableUnauthorizedAccount(address)": [
        {
          "details": "The caller account is not authorized to perform an operation."
        }
      ],
      "ReentrancyGuardReentrantCall()": [
        {
          "details": "Unauthorized reentrant call."
        }
      ]
    },
    "kind": "dev",
    "methods": {
      "constructor": {
        "params": {
          "_router": "The address of the Somnia Exchange V2 router.",
          "_usdc": "The address of the USDC token contract."
        }
      },
      "deployLiquidity(address,uint256,uint256)": {
        "details": "Creates a USDC/Token liquidity pool."
      },
      "owner()": {
        "details": "Returns the address of the current owner."
      },
      "renounceOwnership()": {
        "details": "Leaves the contract without owner. It will not be possible to call `onlyOwner` functions. Can only be called by the current owner. NOTE: Renouncing ownership will leave the contract without an owner, thereby disabling any functionality that is only available to the owner."
      },
      "transferOwnership(address)": {
        "details": "Transfers ownership of the contract to a new account (`newOwner`). Can only be called by the current owner."
      }
    },
    "version": 1
  },
  "userdoc": {
    "kind": "user",
    "methods": {
      "constructor": {
        "notice": "Constructor for the PhoenixDex contract."
      },
      "deployLiquidity(address,uint256,uint256)": {
        "notice": "Deploy Liquidity to Somnia Exchange with USDC/Token pair."
      }
    },
    "version": 1
  },
  "storageLayout": {
    "storage": [
      {
        "astId": 266,
        "contract": "contracts/PhoenixDex.sol:PhoenixDex",
        "label": "_status",
        "offset": 0,
        "slot": "0",
        "type": "t_uint256"
      },
      {
        "astId": 8,
        "contract": "contracts/PhoenixDex.sol:PhoenixDex",
        "label": "_owner",
        "offset": 0,
        "slot": "1",
        "type": "t_address"
      },
      {
        "astId": 833,
        "contract": "contracts/PhoenixDex.sol:PhoenixDex",
        "label": "dexRouter",
        "offset": 0,
        "slot": "2",
        "type": "t_contract(ISomniaExchangeRouter02)2158"
      },
      {
        "astId": 835,
        "contract": "contracts/PhoenixDex.sol:PhoenixDex",
        "label": "pair",
        "offset": 0,
        "slot": "3",
        "type": "t_address"
      },
      {
        "astId": 838,
        "contract": "contracts/PhoenixDex.sol:PhoenixDex",
        "label": "factory",
        "offset": 0,
        "slot": "4",
        "type": "t_contract(ISomniaExchangeFactory)1520"
      }
    ],
    "types": {
      "t_address": {
        "encoding": "inplace",
        "label": "address",
        "numberOfBytes": "20"
      },
      "t_contract(ISomniaExchangeFactory)1520": {
        "encoding": "inplace",
        "label": "contract ISomniaExchangeFactory",
        "numberOfBytes": "20"
      },
      "t_contract(ISomniaExchangeRouter02)2158": {
        "encoding": "inplace",
        "label": "contract ISomniaExchangeRouter02",
        "numberOfBytes": "20"
      },
      "t_uint256": {
        "encoding": "inplace",
        "label": "uint256",
        "numberOfBytes": "32"
      }
    }
  }
}