{
  "address": "0x7329cE38b205E63663EC4a9e33aE1F421FFf8255",
  "abi": [
    {
      "inputs": [],
      "stateMutability": "nonpayable",
      "type": "constructor"
    },
    {
      "inputs": [],
      "name": "ERC721EnumerableForbiddenBatchMint",
      "type": "error"
    },
    {
      "inputs": [
        {
          "internalType": "address",
          "name": "sender",
          "type": "address"
        },
        {
          "internalType": "uint256",
          "name": "tokenId",
          "type": "uint256"
        },
        {
          "internalType": "address",
          "name": "owner",
          "type": "address"
        }
      ],
      "name": "ERC721IncorrectOwner",
      "type": "error"
    },
    {
      "inputs": [
        {
          "internalType": "address",
          "name": "operator",
          "type": "address"
        },
        {
          "internalType": "uint256",
          "name": "tokenId",
          "type": "uint256"
        }
      ],
      "name": "ERC721InsufficientApproval",
      "type": "error"
    },
    {
      "inputs": [
        {
          "internalType": "address",
          "name": "approver",
          "type": "address"
        }
      ],
      "name": "ERC721InvalidApprover",
      "type": "error"
    },
    {
      "inputs": [
        {
          "internalType": "address",
          "name": "operator",
          "type": "address"
        }
      ],
      "name": "ERC721InvalidOperator",
      "type": "error"
    },
    {
      "inputs": [
        {
          "internalType": "address",
          "name": "owner",
          "type": "address"
        }
      ],
      "name": "ERC721InvalidOwner",
      "type": "error"
    },
    {
      "inputs": [
        {
          "internalType": "address",
          "name": "receiver",
          "type": "address"
        }
      ],
      "name": "ERC721InvalidReceiver",
      "type": "error"
    },
    {
      "inputs": [
        {
          "internalType": "address",
          "name": "sender",
          "type": "address"
        }
      ],
      "name": "ERC721InvalidSender",
      "type": "error"
    },
    {
      "inputs": [
        {
          "internalType": "uint256",
          "name": "tokenId",
          "type": "uint256"
        }
      ],
      "name": "ERC721NonexistentToken",
      "type": "error"
    },
    {
      "inputs": [
        {
          "internalType": "address",
          "name": "owner",
          "type": "address"
        },
        {
          "internalType": "uint256",
          "name": "index",
          "type": "uint256"
        }
      ],
      "name": "ERC721OutOfBoundsIndex",
      "type": "error"
    },
    {
      "inputs": [],
      "name": "FailedCall",
      "type": "error"
    },
    {
      "inputs": [
        {
          "internalType": "uint256",
          "name": "balance",
          "type": "uint256"
        },
        {
          "internalType": "uint256",
          "name": "needed",
          "type": "uint256"
        }
      ],
      "name": "InsufficientBalance",
      "type": "error"
    },
    {
      "inputs": [
        {
          "internalType": "address",
          "name": "owner",
          "type": "address"
        }
      ],
      "name": "OwnableInvalidOwner",
      "type": "error"
    },
    {
      "inputs": [
        {
          "internalType": "address",
          "name": "account",
          "type": "address"
        }
      ],
      "name": "OwnableUnauthorizedAccount",
      "type": "error"
    },
    {
      "inputs": [
        {
          "internalType": "address",
          "name": "token",
          "type": "address"
        }
      ],
      "name": "SafeERC20FailedOperation",
      "type": "error"
    },
    {
      "anonymous": false,
      "inputs": [
        {
          "indexed": true,
          "internalType": "address",
          "name": "owner",
          "type": "address"
        },
        {
          "indexed": true,
          "internalType": "address",
          "name": "approved",
          "type": "address"
        },
        {
          "indexed": true,
          "internalType": "uint256",
          "name": "tokenId",
          "type": "uint256"
        }
      ],
      "name": "Approval",
      "type": "event"
    },
    {
      "anonymous": false,
      "inputs": [
        {
          "indexed": true,
          "internalType": "address",
          "name": "owner",
          "type": "address"
        },
        {
          "indexed": true,
          "internalType": "address",
          "name": "operator",
          "type": "address"
        },
        {
          "indexed": false,
          "internalType": "bool",
          "name": "approved",
          "type": "bool"
        }
      ],
      "name": "ApprovalForAll",
      "type": "event"
    },
    {
      "anonymous": false,
      "inputs": [
        {
          "indexed": true,
          "internalType": "address",
          "name": "previousOwner",
          "type": "address"
        },
        {
          "indexed": true,
          "internalType": "address",
          "name": "newOwner",
          "type": "address"
        }
      ],
      "name": "OwnershipTransferred",
      "type": "event"
    },
    {
      "anonymous": false,
      "inputs": [
        {
          "indexed": false,
          "internalType": "address",
          "name": "owner",
          "type": "address"
        },
        {
          "indexed": false,
          "internalType": "uint256",
          "name": "oldTokenId",
          "type": "uint256"
        },
        {
          "indexed": false,
          "internalType": "address",
          "name": "newPhoenix",
          "type": "address"
        },
        {
          "indexed": false,
          "internalType": "uint256",
          "name": "newTokenId",
          "type": "uint256"
        }
      ],
      "name": "PhoenixBurned",
      "type": "event"
    },
    {
      "anonymous": false,
      "inputs": [
        {
          "indexed": false,
          "internalType": "address",
          "name": "owner",
          "type": "address"
        },
        {
          "indexed": false,
          "internalType": "uint256",
          "name": "tokenId",
          "type": "uint256"
        },
        {
          "indexed": false,
          "internalType": "uint256",
          "name": "customTraits",
          "type": "uint256"
        }
      ],
      "name": "PhoenixSpawned",
      "type": "event"
    },
    {
      "anonymous": false,
      "inputs": [
        {
          "indexed": true,
          "internalType": "address",
          "name": "from",
          "type": "address"
        },
        {
          "indexed": true,
          "internalType": "address",
          "name": "to",
          "type": "address"
        },
        {
          "indexed": true,
          "internalType": "uint256",
          "name": "tokenId",
          "type": "uint256"
        }
      ],
      "name": "Transfer",
      "type": "event"
    },
    {
      "anonymous": false,
      "inputs": [
        {
          "indexed": true,
          "internalType": "address",
          "name": "receiver",
          "type": "address"
        },
        {
          "indexed": true,
          "internalType": "address",
          "name": "tokenAddress",
          "type": "address"
        },
        {
          "indexed": true,
          "internalType": "uint256",
          "name": "tokenId",
          "type": "uint256"
        },
        {
          "indexed": false,
          "internalType": "uint256",
          "name": "amount",
          "type": "uint256"
        }
      ],
      "name": "WithdrawStuckERC1155",
      "type": "event"
    },
    {
      "anonymous": false,
      "inputs": [
        {
          "indexed": true,
          "internalType": "address",
          "name": "receiver",
          "type": "address"
        },
        {
          "indexed": true,
          "internalType": "address",
          "name": "tokenAddress",
          "type": "address"
        },
        {
          "indexed": false,
          "internalType": "uint256",
          "name": "amount",
          "type": "uint256"
        }
      ],
      "name": "WithdrawStuckERC20",
      "type": "event"
    },
    {
      "anonymous": false,
      "inputs": [
        {
          "indexed": true,
          "internalType": "address",
          "name": "receiver",
          "type": "address"
        },
        {
          "indexed": true,
          "internalType": "address",
          "name": "tokenAddress",
          "type": "address"
        },
        {
          "indexed": true,
          "internalType": "uint256",
          "name": "tokenId",
          "type": "uint256"
        }
      ],
      "name": "WithdrawStuckERC721",
      "type": "event"
    },
    {
      "anonymous": false,
      "inputs": [
        {
          "indexed": true,
          "internalType": "address",
          "name": "receiver",
          "type": "address"
        },
        {
          "indexed": false,
          "internalType": "uint256",
          "name": "amount",
          "type": "uint256"
        }
      ],
      "name": "WithdrawStuckEther",
      "type": "event"
    },
    {
      "inputs": [
        {
          "internalType": "address",
          "name": "to",
          "type": "address"
        },
        {
          "internalType": "uint256",
          "name": "tokenId",
          "type": "uint256"
        }
      ],
      "name": "approve",
      "outputs": [],
      "stateMutability": "nonpayable",
      "type": "function"
    },
    {
      "inputs": [
        {
          "internalType": "address",
          "name": "owner",
          "type": "address"
        }
      ],
      "name": "balanceOf",
      "outputs": [
        {
          "internalType": "uint256",
          "name": "",
          "type": "uint256"
        }
      ],
      "stateMutability": "view",
      "type": "function"
    },
    {
      "inputs": [
        {
          "internalType": "uint256",
          "name": "tokenId",
          "type": "uint256"
        }
      ],
      "name": "burn",
      "outputs": [],
      "stateMutability": "nonpayable",
      "type": "function"
    },
    {
      "inputs": [
        {
          "internalType": "uint256",
          "name": "tokenId",
          "type": "uint256"
        }
      ],
      "name": "getApproved",
      "outputs": [
        {
          "internalType": "address",
          "name": "",
          "type": "address"
        }
      ],
      "stateMutability": "view",
      "type": "function"
    },
    {
      "inputs": [
        {
          "internalType": "uint256",
          "name": "tokenId",
          "type": "uint256"
        }
      ],
      "name": "getCustomTraits",
      "outputs": [
        {
          "internalType": "uint256",
          "name": "",
          "type": "uint256"
        }
      ],
      "stateMutability": "view",
      "type": "function"
    },
    {
      "inputs": [
        {
          "internalType": "address",
          "name": "owner",
          "type": "address"
        },
        {
          "internalType": "address",
          "name": "operator",
          "type": "address"
        }
      ],
      "name": "isApprovedForAll",
      "outputs": [
        {
          "internalType": "bool",
          "name": "",
          "type": "bool"
        }
      ],
      "stateMutability": "view",
      "type": "function"
    },
    {
      "inputs": [],
      "name": "name",
      "outputs": [
        {
          "internalType": "string",
          "name": "",
          "type": "string"
        }
      ],
      "stateMutability": "view",
      "type": "function"
    },
    {
      "inputs": [],
      "name": "owner",
      "outputs": [
        {
          "internalType": "address",
          "name": "",
          "type": "address"
        }
      ],
      "stateMutability": "view",
      "type": "function"
    },
    {
      "inputs": [
        {
          "internalType": "uint256",
          "name": "tokenId",
          "type": "uint256"
        }
      ],
      "name": "ownerOf",
      "outputs": [
        {
          "internalType": "address",
          "name": "",
          "type": "address"
        }
      ],
      "stateMutability": "view",
      "type": "function"
    },
    {
      "inputs": [],
      "name": "renounceOwnership",
      "outputs": [],
      "stateMutability": "nonpayable",
      "type": "function"
    },
    {
      "inputs": [
        {
          "internalType": "address",
          "name": "from",
          "type": "address"
        },
        {
          "internalType": "address",
          "name": "to",
          "type": "address"
        },
        {
          "internalType": "uint256",
          "name": "tokenId",
          "type": "uint256"
        }
      ],
      "name": "safeTransferFrom",
      "outputs": [],
      "stateMutability": "nonpayable",
      "type": "function"
    },
    {
      "inputs": [
        {
          "internalType": "address",
          "name": "from",
          "type": "address"
        },
        {
          "internalType": "address",
          "name": "to",
          "type": "address"
        },
        {
          "internalType": "uint256",
          "name": "tokenId",
          "type": "uint256"
        },
        {
          "internalType": "bytes",
          "name": "data",
          "type": "bytes"
        }
      ],
      "name": "safeTransferFrom",
      "outputs": [],
      "stateMutability": "nonpayable",
      "type": "function"
    },
    {
      "inputs": [
        {
          "internalType": "address",
          "name": "operator",
          "type": "address"
        },
        {
          "internalType": "bool",
          "name": "approved",
          "type": "bool"
        }
      ],
      "name": "setApprovalForAll",
      "outputs": [],
      "stateMutability": "nonpayable",
      "type": "function"
    },
    {
      "inputs": [
        {
          "internalType": "string",
          "name": "newBase",
          "type": "string"
        }
      ],
      "name": "setBaseURI",
      "outputs": [],
      "stateMutability": "nonpayable",
      "type": "function"
    },
    {
      "inputs": [
        {
          "internalType": "address",
          "name": "phoenixNft",
          "type": "address"
        }
      ],
      "name": "setLastPhoenix",
      "outputs": [],
      "stateMutability": "nonpayable",
      "type": "function"
    },
    {
      "inputs": [
        {
          "internalType": "address",
          "name": "phoenixNft",
          "type": "address"
        }
      ],
      "name": "setNextPhoenix",
      "outputs": [],
      "stateMutability": "nonpayable",
      "type": "function"
    },
    {
      "inputs": [
        {
          "internalType": "address",
          "name": "receiver",
          "type": "address"
        },
        {
          "internalType": "uint256",
          "name": "customTraits",
          "type": "uint256"
        }
      ],
      "name": "spawnFromAshes",
      "outputs": [
        {
          "internalType": "uint256",
          "name": "tokenId",
          "type": "uint256"
        }
      ],
      "stateMutability": "nonpayable",
      "type": "function"
    },
    {
      "inputs": [
        {
          "internalType": "bytes4",
          "name": "interfaceId",
          "type": "bytes4"
        }
      ],
      "name": "supportsInterface",
      "outputs": [
        {
          "internalType": "bool",
          "name": "",
          "type": "bool"
        }
      ],
      "stateMutability": "view",
      "type": "function"
    },
    {
      "inputs": [],
      "name": "symbol",
      "outputs": [
        {
          "internalType": "string",
          "name": "",
          "type": "string"
        }
      ],
      "stateMutability": "view",
      "type": "function"
    },
    {
      "inputs": [
        {
          "internalType": "uint256",
          "name": "index",
          "type": "uint256"
        }
      ],
      "name": "tokenByIndex",
      "outputs": [
        {
          "internalType": "uint256",
          "name": "",
          "type": "uint256"
        }
      ],
      "stateMutability": "view",
      "type": "function"
    },
    {
      "inputs": [
        {
          "internalType": "address",
          "name": "owner",
          "type": "address"
        },
        {
          "internalType": "uint256",
          "name": "index",
          "type": "uint256"
        }
      ],
      "name": "tokenOfOwnerByIndex",
      "outputs": [
        {
          "internalType": "uint256",
          "name": "",
          "type": "uint256"
        }
      ],
      "stateMutability": "view",
      "type": "function"
    },
    {
      "inputs": [
        {
          "internalType": "uint256",
          "name": "tokenId",
          "type": "uint256"
        }
      ],
      "name": "tokenURI",
      "outputs": [
        {
          "internalType": "string",
          "name": "",
          "type": "string"
        }
      ],
      "stateMutability": "view",
      "type": "function"
    },
    {
      "inputs": [],
      "name": "totalSupply",
      "outputs": [
        {
          "internalType": "uint256",
          "name": "",
          "type": "uint256"
        }
      ],
      "stateMutability": "view",
      "type": "function"
    },
    {
      "inputs": [
        {
          "internalType": "address",
          "name": "from",
          "type": "address"
        },
        {
          "internalType": "address",
          "name": "to",
          "type": "address"
        },
        {
          "internalType": "uint256",
          "name": "tokenId",
          "type": "uint256"
        }
      ],
      "name": "transferFrom",
      "outputs": [],
      "stateMutability": "nonpayable",
      "type": "function"
    },
    {
      "inputs": [
        {
          "internalType": "address",
          "name": "newOwner",
          "type": "address"
        }
      ],
      "name": "transferOwnership",
      "outputs": [],
      "stateMutability": "nonpayable",
      "type": "function"
    },
    {
      "inputs": [
        {
          "internalType": "address payable",
          "name": "receiver",
          "type": "address"
        },
        {
          "internalType": "address",
          "name": "tokenAddress",
          "type": "address"
        },
        {
          "internalType": "uint256",
          "name": "tokenId",
          "type": "uint256"
        },
        {
          "internalType": "uint256",
          "name": "amount",
          "type": "uint256"
        }
      ],
      "name": "withdrawERC1155",
      "outputs": [],
      "stateMutability": "nonpayable",
      "type": "function"
    },
    {
      "inputs": [
        {
          "internalType": "address payable",
          "name": "receiver",
          "type": "address"
        },
        {
          "internalType": "address",
          "name": "tokenAddress",
          "type": "address"
        },
        {
          "internalType": "uint256",
          "name": "tokenId",
          "type": "uint256"
        }
      ],
      "name": "withdrawERC721",
      "outputs": [],
      "stateMutability": "nonpayable",
      "type": "function"
    },
    {
      "inputs": [
        {
          "internalType": "address payable",
          "name": "receiver",
          "type": "address"
        },
        {
          "internalType": "address",
          "name": "tokenAddress",
          "type": "address"
        },
        {
          "internalType": "uint256",
          "name": "amount",
          "type": "uint256"
        }
      ],
      "name": "withdrawErc20",
      "outputs": [],
      "stateMutability": "nonpayable",
      "type": "function"
    },
    {
      "inputs": [
        {
          "internalType": "address payable",
          "name": "receiver",
          "type": "address"
        },
        {
          "internalType": "uint256",
          "name": "amount",
          "type": "uint256"
        }
      ],
      "name": "withdrawEther",
      "outputs": [],
      "stateMutability": "nonpayable",
      "type": "function"
    }
  ],
  "transactionHash": "0x2aafdff83e47d9f46beb67aba0848ed7b0510bd0b66022256fe6a7cc594be45f",
  "args": [],
  "numDeployments": 1,
  "solcInputHash": "93b26cf8648f15fc0e7330d4d06c5df5",
  "bytecode": "0x60806040523461054f57604080519081016001600160401b03811182821017610363576040908152600d82526c50686f656e69784e46545f763160981b602083015280519081016001600160401b0381118282101761036357604090815260068252655048585f563160d01b602083015251608081016001600160401b0381118282101761036357604052604881527f68747470733a2f2f75732d63656e7472616c312d70686f656e69782d6775696c60208201527f642d6e66742e636c6f756466756e6374696f6e732e6e65742f6170692f6e66746040820152676d6574615f76312f60c01b606082015233156105395760008054336001600160a01b0319821681178355916001600160a01b03909116907f8be0079c531659141344cd1fd0a4f28419497f9722a3daafe3b4186f6b6457e09080a382516001600160401b03811161036357600154600181811c9116801561052f575b602082101461034357601f81116104ca575b506020601f82116001146104635781929394600092610458575b50508160011b916000199060031b1c1916176001555b81516001600160401b03811161036357600254600181811c9116801561044e575b602082101461034357601f81116103e9575b50602092601f82116001146103845792819293600092610379575b50508160011b916000199060031b1c1916176002555b80516001600160401b03811161036357600e54600181811c91168015610359575b602082101461034357601f81116102de575b50602091601f821160011461027a5791819260009261026f575b50508160011b916000199060031b1c191617600e555b60405161211a90816105558239f35b01519050388061024a565b601f19821692600e600052806000209160005b8581106102c6575083600195106102ad575b505050811b01600e55610260565b015160001960f88460031b161c1916905538808061029f565b9192602060018192868501518155019401920161028d565b600e6000527fbb7b4a454dc3493923482f07822329ed19e8244eff582cc204f8554c3620c3fd601f830160051c81019160208410610339575b601f0160051c01905b81811061032d5750610230565b60008155600101610320565b9091508190610317565b634e487b7160e01b600052602260045260246000fd5b90607f169061021e565b634e487b7160e01b600052604160045260246000fd5b0151905038806101e7565b601f198216936002600052806000209160005b8681106103d157508360019596106103b8575b505050811b016002556101fd565b015160001960f88460031b161c191690553880806103aa565b91926020600181928685015181550194019201610397565b60026000527f405787fa12a823e0f2b7631cc41b3ba8828b3321ca811111fa75cd3aa3bb5ace601f830160051c81019160208410610444575b601f0160051c01905b81811061043857506101cc565b6000815560010161042b565b9091508190610422565b90607f16906101ba565b015190503880610183565b601f198216906001600052806000209160005b8181106104b257509583600195969710610499575b505050811b01600155610199565b015160001960f88460031b161c1916905538808061048b565b9192602060018192868b015181550194019201610476565b60016000527fb10e2d527612073b26eecdfd717e6a320cf44b4afac2b0732d9fcbe2b7fa0cf6601f830160051c81019160208410610525575b601f0160051c01905b8181106105195750610169565b6000815560010161050c565b9091508190610503565b90607f1690610157565b631e4fbdf760e01b600052600060045260246000fd5b600080fdfe608080604052600436101561001357600080fd5b600090813560e01c90816301ffc9a7146119bf5750806306fdde0314611918578063081812fc146118db578063095ea7b3146117f35780631593dee11461169d57806318160ddd1461167f57806323b872dd146116675780632f745c59146115ef5780634025feb2146114aa57806342842e0e1461147a57806342966c68146110a25780634f6ccce714611052578063522f681514610f8657806355f804b314610de95780636352211e14610db857806370a0823114610d8c578063715018a614610d3257806371d8b8ad14610cf25780637b26528114610cb25780638da5cb5b14610c8b57806395d89b4114610bbc578063a0edb48b14610a42578063a22cb4651461099e578063b88d4fde1461092a578063c87b56dd14610673578063ca2f8e2b14610649578063cfea617514610242578063e985e9c5146101e85763f2fde38b1461016057600080fd5b346101e55760203660031901126101e557610179611a8e565b610181611f1e565b6001600160a01b031680156101d15781546001600160a01b03198116821783556001600160a01b03167f8be0079c531659141344cd1fd0a4f28419497f9722a3daafe3b4186f6b6457e08380a380f35b631e4fbdf760e01b82526004829052602482fd5b80fd5b50346101e55760403660031901126101e5576040610204611a8e565b9161020d611aa4565b9260018060a01b031681526006602052209060018060a01b0316600052602052602060ff604060002054166040519015158152f35b50346101e55760403660031901126101e55761025c611a8e565b600c54602435906001600160a01b0316330361061057600b5490600182018092116105fc5781600b55602093604051936102968686611af4565b8185526001600160a01b0381169081156105e8578483526003875260408320546001600160a01b0316801580159190826105b4575b84865260048a5260408087208054600101905588875260038b52862080546001600160a01b031916861790558785837fddf252ad1be2c89b69c2b068fc378daa952ba7f163c4a11628f55a4df523b3ef8980a41561053e57600954878652600a8a52806040872055600160401b81101561052a578761035382600161036c9401600955611e80565b90919082549060031b91821b91600019901b1916179055565b8381036104da575b506104c65786903b6103cb575b9450907f3187f0d4e996d92399bcf8aee87b91c7f0fe623bc9e1ef3f62f3a268cd0f98406060604093845190815286888201528585820152a1838152600f85522055604051908152f35b610407919493929560405180938192630a85bd0160e11b8352336004840152896024840152876044840152608060648401526084830190611a69565b038188885af1859181610482575b5061044857505050610425611f7f565b805193908461044257633250574960e11b84526004839052602484fd5b84925001fd5b9193909290916001600160e01b03191663757a42ff60e11b0161046f578392919085610381565b633250574960e11b825260045260249150fd5b9091508681813d83116104bf575b61049a8183611af4565b810103126104bb57516001600160e01b0319811681036104bb579038610415565b8580fd5b503d610490565b6339e3563760e11b83526004839052602483fd5b6104e383611eb1565b60001981019081116105165784865260078a52604086208187528a5287604087205587865260088a526040862055610374565b634e487b7160e01b86526011600452602486fd5b634e487b7160e01b86526041600452602486fd5b80841461036c5761054e81611eb1565b87865260088a5260408620549082875260078b52604087209181810361058c575b5088875260088b528660408120558652895284604081205561036c565b818852828c526040882054818952838d528060408a2055885260088c5260408820553861056f565b600088815260056020526040902080546001600160a01b031916905581865260048a526040862080546000190190556102cb565b633250574960e11b83526004839052602483fd5b634e487b7160e01b84526011600452602484fd5b60405162461bcd60e51b81526020600482015260116024820152700dedcd8f240d8c2e6e840e0d0decadcd2f607b1b6044820152606490fd5b50346101e55760203660031901126101e55760406020916004358152600f83522054604051908152f35b50346101e55760203660031901126101e5576004359061069282611ee7565b50604051600e54929082816106a686611b7f565b91828252602082019660018116908160001461090e57506001146108c2575b6106d192500382611af4565b8051156108a5578182849372184f03e93ff9f4daa797ed6e38ed64bf6a1f0160401b81101561087f575b50806d04ee2d6d415b85acef8100000000600a921015610864575b662386f26fc10000811015610850575b6305f5e10081101561083f575b612710811015610830575b6064811015610822575b1015610817575b600a6021600185019461077a61076487611b2c565b966107726040519889611af4565b808852611b2c565b602087019790601f1901368937508501015b60001901916f181899199a1a9b1b9c1cb0b131b232b360811b8282061a8353049081156107bb57600a9061078c565b505060206107e0936107ff936107ef6108139760405197889651809287890190611a46565b85019151809385840190611a46565b010103601f198101835282611af4565b604051918291602083526020830190611a69565b0390f35b60019092019161074f565b606460029104940193610748565b6127106004910494019361073e565b6305f5e10060089104940193610733565b662386f26fc1000060109104940193610726565b6d04ee2d6d415b85acef810000000060209104940193610716565b6040945072184f03e93ff9f4daa797ed6e38ed64bf6a1f0160401b90049050600a6106fb565b50506108139150604051906108bb602083611af4565b81526107ff565b50600e85529084906000805160206120c58339815191525b8183106108f25750509060206106d1928201016106c5565b60209193508060019154838588010152019101909183926108da565b60ff19168852506106d192151560051b820160200190506106c5565b50346101e55760803660031901126101e557610944611a8e565b61094c611aa4565b906044356064359267ffffffffffffffff841161099a573660238501121561099a57610985610997943690602481600401359101611b48565b92610991838383611bb9565b33611faf565b80f35b8480fd5b50346101e55760403660031901126101e5576109b8611a8e565b60243590811515809203610a3e576001600160a01b0316908115610a2a5733835260066020526040832082600052602052604060002060ff1981541660ff83161790556040519081527f17307eab39ab6107e8899845ad3d59bd9653f200f220920489ca2b5937696c3160203392a380f35b630b61174360e31b83526004829052602483fd5b8280fd5b50346101e55760803660031901126101e557610a5c611a8e565b610a64611aa4565b906044359160643591610a75611f1e565b6001600160a01b031690610a8a821515611f47565b604051627eeac760e11b8152306004820152602481018590526001600160a01b03919091169290602081604481875afa8015610bb15782918791610b77575b501015610ad4578480f35b823b1561099a5784604051637921219560e11b815230600482015283602482015285604482015282606482015260a060848201528160a4820152818160c48183895af18015610b6c57610b57575b505060207f620337bf89eea2b9ae2657beead83b5fa620452817118348aff96e201d52598b91604051908152a4388080808480f35b81610b6191611af4565b61099a578438610b22565b6040513d84823e3d90fd5b9150506020813d602011610ba9575b81610b9360209383611af4565b81010312610ba45781905138610ac9565b600080fd5b3d9150610b86565b6040513d88823e3d90fd5b50346101e557806003193601126101e557604051908060025490610bdf82611b7f565b8085529160018116908115610c645750600114610c07575b610813846107ff81860382611af4565b600281527f405787fa12a823e0f2b7631cc41b3ba8828b3321ca811111fa75cd3aa3bb5ace939250905b808210610c4a575090915081016020016107ff82610bf7565b919260018160209254838588010152019101909291610c31565b60ff191660208087019190915292151560051b850190920192506107ff9150839050610bf7565b50346101e557806003193601126101e557546040516001600160a01b039091168152602090f35b50346101e55760203660031901126101e557610ccc611a8e565b610cd4611f1e565b60018060a01b03166001600160601b0360a01b600d541617600d5580f35b50346101e55760203660031901126101e557610d0c611a8e565b610d14611f1e565b60018060a01b03166001600160601b0360a01b600c541617600c5580f35b50346101e557806003193601126101e557610d4b611f1e565b80546001600160a01b03198116825581906001600160a01b03167f8be0079c531659141344cd1fd0a4f28419497f9722a3daafe3b4186f6b6457e08280a380f35b50346101e55760203660031901126101e5576020610db0610dab611a8e565b611eb1565b604051908152f35b50346101e55760203660031901126101e5576020610dd7600435611ee7565b6040516001600160a01b039091168152f35b50346101e55760203660031901126101e55760043567ffffffffffffffff8111610f825736602382011215610f8257610e2c903690602481600401359101611b48565b90610e35611f1e565b815167ffffffffffffffff8111610f6e57610e51600e54611b7f565b601f8111610f03575b50602092601f8211600114610e9757928293829392610e8c575b50508160011b916000199060031b1c191617600e5580f35b015190503880610e74565b600e8352601f198216936000805160206120c583398151915291845b868110610eeb5750836001959610610ed2575b505050811b01600e5580f35b015160001960f88460031b161c19169055388080610ec6565b91926020600181928685015181550194019201610eb3565b600e8352601f820160051c6000805160206120c5833981519152019060208310610f58575b601f0160051c6000805160206120c583398151915201905b818110610f4d5750610e5a565b838155600101610f40565b6000805160206120c58339815191529150610f28565b634e487b7160e01b82526041600452602482fd5b5080fd5b50346101e55760403660031901126101e557610fa0611a8e565b60243590610fac611f1e565b6001600160a01b031690610fc1821515611f47565b80471015610fcd578280f35b80471061103c578280808084865af1610fe4611f7f565b901561101b575060207eddb683bb45cd5d0ad8a200c6fae7152b1c236ee90a4a37db692407f5cc38bd91604051908152a238808280f35b805184901561102d5750602081519101fd5b63d6bda27560e01b8152600490fd5b63cf47918160e01b835247600452602452604482fd5b50346101e55760203660031901126101e5576004359060095482101561108c57602061107d83611e80565b90549060031b1c604051908152f35b60449163295f44f760e21b825281600452602452fd5b50346101e55760203660031901126101e5576004356110c081611ee7565b6001600160a01b03811691903383900361143f57818452600f6020526040842054600d549091906001600160a01b03161561140657828552600360205260408520546001600160a01b03168015908115806113d1575b85885260036020526040882080546001600160a01b03191690558588837fddf252ad1be2c89b69c2b068fc378daa952ba7f163c4a11628f55a4df523b3ef8280a482156113565750600954858852600a602052806040892055600160401b811015611342578561035382600161118f9401600955611e80565b600954600019810190811161132e57858852600a6020526111b4604089205491611e80565b90549060031b1c6111c88161035384611e80565b8852600a6020526040882055848752600a602052866040812055600954801561131a57600019016111f881611e80565b8154906000199060031b1b191690556009555061130657600d5460405163cfea617560e01b81526001600160a01b0392831660048201526024810193909352919291602091849160449183918991165af19182156112fb5784926112a5575b50600d546040805194855260208501929092526001600160a01b03169083015260608201527f6bda704cb5e946973e3eb30a28cfd15b43f49f1de869c6c839fa3230d3f64d9990608090a180f35b9150916020823d6020116112f3575b816112c160209383611af4565b81010312610ba457905190917f6bda704cb5e946973e3eb30a28cfd15b43f49f1de869c6c839fa3230d3f64d99611257565b3d91506112b4565b6040513d86823e3d90fd5b637e27328960e01b85526004839052602485fd5b634e487b7160e01b88526031600452602488fd5b634e487b7160e01b88526011600452602488fd5b634e487b7160e01b88526041600452602488fd5b1561118f5761136481611eb1565b8588526008602052604088205490828952600760205260408920918181036113a6575b508689526008602052886040812055885260205286604081205561118f565b818a528260205260408a2054818b52836020528060408c20558a52600860205260408a205538611387565b600086815260056020526040902080546001600160a01b03191690558188526004602052604088208054600019019055611116565b60405162461bcd60e51b815260206004820152601160248201527070686f656e6978206e6f7420726561647960781b6044820152606490fd5b60405162461bcd60e51b815260206004820152601360248201527236bab9ba103132903a37b5b2b71037bbb732b960691b6044820152606490fd5b50346101e55761099761148c36611aba565b906040519261149c602085611af4565b858452610991838383611bb9565b50346101e5576114b936611aba565b916114c2611f1e565b6001600160a01b0316906114d7821515611f47565b6040516331a9108f60e11b8152600481018490526001600160a01b03919091169190602081602481865afa90811561159e5785916115ad575b506001600160a01b03163014611524578380f35b813b156115a9576040516323b872dd60e01b8152306004820152816024820152836044820152848160648183875af1801561159e5761158a575b507ffefe036cac4ee3a4aca074a81cbcc4376e1484693289078dbec149c890101d5b8480a43880808380f35b8461159791959295611af4565b923861155e565b6040513d87823e3d90fd5b8380fd5b90506020813d6020116115e7575b816115c860209383611af4565b8101031261099a57516001600160a01b038116810361099a5738611510565b3d91506115bb565b50346101e55760403660031901126101e557611609611a8e565b9060243561161683611eb1565b811015611644579060409160209360018060a01b031682526007845282822090825283522054604051908152f35b63295f44f760e21b82526001600160a01b03909216600452602491909152604490fd5b50346101e55761099761167936611aba565b91611bb9565b50346101e557806003193601126101e5576020600954604051908152f35b50346101e5576116ac36611aba565b916116b5611f1e565b6001600160a01b0316906116ca821515611f47565b6040516370a0823160e01b81523060048201526001600160a01b03919091169290602081602481875afa801561159e57829186916117be575b50101561170e578380f35b60405163a9059cbb60e01b60208083019182526001600160a01b03851660248401526044808401859052835291869190611749606482611af4565b519082875af1156117b35783513d6117aa5750823b155b6117965760207f6c9d637297625e945b296ff73a71fcfbd0a9e062652b6491a921c4c60194176b91604051908152a33880808380f35b635274afe760e01b84526004839052602484fd5b60011415611760565b6040513d85823e3d90fd5b9150506020813d6020116117eb575b816117da60209383611af4565b8101031261099a5781905138611703565b3d91506117cd565b50346101e55760403660031901126101e55761180d611a8e565b60243561181981611ee7565b331515806118c8575b8061189d575b61188a5781906001600160a01b0384811691167f8c5be1e5ebec7d5bd14f71427d1e84f3dd0314c0f7b2291e5b200ac8c7c3b9258680a4825260056020526040822080546001600160a01b0319166001600160a01b0390921691909117905580f35b63a9fbf51f60e01b845233600452602484fd5b506001600160a01b038116845260066020908152604080862033875290915284205460ff1615611828565b506001600160a01b038116331415611822565b50346101e55760203660031901126101e5576020906004356118fc81611ee7565b50815260058252604060018060a01b0391205416604051908152f35b50346101e557806003193601126101e55760405190806001549061193b82611b7f565b8085529160018116908115610c64575060011461196257610813846107ff81860382611af4565b600181527fb10e2d527612073b26eecdfd717e6a320cf44b4afac2b0732d9fcbe2b7fa0cf6939250905b8082106119a5575090915081016020016107ff82610bf7565b91926001816020925483858801015201910190929161198c565b905034610f82576020366003190112610f825760043563ffffffff60e01b8116809103610a3e576020925063780e9d6360e01b8114908115611a03575b5015158152f35b6380ac58cd60e01b811491508115611a35575b8115611a24575b50386119fc565b6301ffc9a760e01b14905038611a1d565b635b5e139f60e01b81149150611a16565b60005b838110611a595750506000910152565b8181015183820152602001611a49565b90602091611a8281518092818552858086019101611a46565b601f01601f1916010190565b600435906001600160a01b0382168203610ba457565b602435906001600160a01b0382168203610ba457565b6060906003190112610ba4576004356001600160a01b0381168103610ba457906024356001600160a01b0381168103610ba4579060443590565b90601f8019910116810190811067ffffffffffffffff821117611b1657604052565b634e487b7160e01b600052604160045260246000fd5b67ffffffffffffffff8111611b1657601f01601f191660200190565b929192611b5482611b2c565b91611b626040519384611af4565b829481845281830111610ba4578281602093846000960137010152565b90600182811c92168015611baf575b6020831014611b9957565b634e487b7160e01b600052602260045260246000fd5b91607f1691611b8e565b9091906001600160a01b0383168015611e6a576000838152600360205260408120546001600160a01b03169433151580611ddb575b5085158015611da6575b83835260046020526040832060018154019055858352600360205260408320846001600160601b0360a01b8254161790558584887fddf252ad1be2c89b69c2b068fc378daa952ba7f163c4a11628f55a4df523b3ef8680a415611d2957600954858352600a602052806040842055600160401b811015611d155785610353826001611c869401600955611e80565b828603611cc0575b5050506001600160a01b0316808303611ca657505050565b6364283d7b60e01b60005260045260245260445260646000fd5b611cc990611eb1565b600019810192908311611d01579060409181526007602052818120838252602052848282205584815260086020522055388080611c8e565b634e487b7160e01b82526011600452602482fd5b634e487b7160e01b83526041600452602483fd5b858314611c8657611d3986611eb1565b858352600860205260408320549087845260076020526040842091818103611d7b575b5086845260086020528360408120558352602052816040812055611c86565b8185528260205260408520548186528360205280604087205585526008602052604085205538611d5c565b600086815260056020526040902080546001600160a01b03191690558683526004602052604083208054600019019055611bf8565b80611e1b575b15611dec5738611bee565b848287611e0557602491637e27328960e01b8252600452fd5b60449163177e802f60e01b825233600452602452fd5b503386148015611e49575b80611de15750848252600560205260408220546001600160a01b03163314611de1565b5085825260066020908152604080842033855290915282205460ff16611e26565b633250574960e11b600052600060045260246000fd5b600954811015611e9b57600960005260206000200190600090565b634e487b7160e01b600052603260045260246000fd5b6001600160a01b03168015611ed157600052600460205260406000205490565b6322718ad960e21b600052600060045260246000fd5b6000818152600360205260409020546001600160a01b0316908115611f0a575090565b637e27328960e01b60005260045260246000fd5b6000546001600160a01b03163303611f3257565b63118cdaa760e01b6000523360045260246000fd5b15611f4e57565b60405162461bcd60e51b81526020600482015260096024820152684248503a452d34303360b81b6044820152606490fd5b3d15611faa573d90611f9082611b2c565b91611f9e6040519384611af4565b82523d6000602084013e565b606090565b823b611fbd575b5050505050565b604051630a85bd0160e11b81526001600160a01b039182166004820152918116602483015260448201939093526080606482015291169160209082908190612009906084830190611a69565b03816000865af18091600091612081575b509061204b5750612029611f7f565b805190816120465782633250574960e11b60005260045260246000fd5b602001fd5b6001600160e01b03191663757a42ff60e11b0161206d57503880808080611fb6565b633250574960e11b60005260045260246000fd5b6020813d6020116120bc575b8161209a60209383611af4565b81010312610f825751906001600160e01b0319821682036101e557503861201a565b3d915061208d56febb7b4a454dc3493923482f07822329ed19e8244eff582cc204f8554c3620c3fda264697066735822122091b647ca59ecfcbf7f8dba6c98727b6e9b3bc900998e4298411264e110ea99df64736f6c634300081b0033",
  "devdoc": {
    "custom:security-contact": "info@charged.fi",
    "errors": {
      "ERC721EnumerableForbiddenBatchMint()": [
        {
          "details": "Batch mint is not allowed."
        }
      ],
      "ERC721IncorrectOwner(address,uint256,address)": [
        {
          "details": "Indicates an error related to the ownership over a particular token. Used in transfers.",
          "params": {
            "owner": "Address of the current owner of a token.",
            "sender": "Address whose tokens are being transferred.",
            "tokenId": "Identifier number of a token."
          }
        }
      ],
      "ERC721InsufficientApproval(address,uint256)": [
        {
          "details": "Indicates a failure with the `operator`’s approval. Used in transfers.",
          "params": {
            "operator": "Address that may be allowed to operate on tokens without being their owner.",
            "tokenId": "Identifier number of a token."
          }
        }
      ],
      "ERC721InvalidApprover(address)": [
        {
          "details": "Indicates a failure with the `approver` of a token to be approved. Used in approvals.",
          "params": {
            "approver": "Address initiating an approval operation."
          }
        }
      ],
      "ERC721InvalidOperator(address)": [
        {
          "details": "Indicates a failure with the `operator` to be approved. Used in approvals.",
          "params": {
            "operator": "Address that may be allowed to operate on tokens without being their owner."
          }
        }
      ],
      "ERC721InvalidOwner(address)": [
        {
          "details": "Indicates that an address can't be an owner. For example, `address(0)` is a forbidden owner in ERC-20. Used in balance queries.",
          "params": {
            "owner": "Address of the current owner of a token."
          }
        }
      ],
      "ERC721InvalidReceiver(address)": [
        {
          "details": "Indicates a failure with the token `receiver`. Used in transfers.",
          "params": {
            "receiver": "Address to which tokens are being transferred."
          }
        }
      ],
      "ERC721InvalidSender(address)": [
        {
          "details": "Indicates a failure with the token `sender`. Used in transfers.",
          "params": {
            "sender": "Address whose tokens are being transferred."
          }
        }
      ],
      "ERC721NonexistentToken(uint256)": [
        {
          "details": "Indicates a `tokenId` whose `owner` is the zero address.",
          "params": {
            "tokenId": "Identifier number of a token."
          }
        }
      ],
      "ERC721OutOfBoundsIndex(address,uint256)": [
        {
          "details": "An `owner`'s token query was out of bounds for `index`. NOTE: The owner being `address(0)` indicates a global out of bounds index."
        }
      ],
      "FailedCall()": [
        {
          "details": "A call to an address target failed. The target may have reverted."
        }
      ],
      "InsufficientBalance(uint256,uint256)": [
        {
          "details": "The ETH balance of the account is not enough to perform the operation."
        }
      ],
      "OwnableInvalidOwner(address)": [
        {
          "details": "The owner is not a valid owner account. (eg. `address(0)`)"
        }
      ],
      "OwnableUnauthorizedAccount(address)": [
        {
          "details": "The caller account is not authorized to perform an operation."
        }
      ],
      "SafeERC20FailedOperation(address)": [
        {
          "details": "An operation with an ERC-20 token failed."
        }
      ]
    },
    "events": {
      "Approval(address,address,uint256)": {
        "details": "Emitted when `owner` enables `approved` to manage the `tokenId` token."
      },
      "ApprovalForAll(address,address,bool)": {
        "details": "Emitted when `owner` enables or disables (`approved`) `operator` to manage all of its assets."
      },
      "Transfer(address,address,uint256)": {
        "details": "Emitted when `tokenId` token is transferred from `from` to `to`."
      }
    },
    "kind": "dev",
    "methods": {
      "approve(address,uint256)": {
        "details": "Gives permission to `to` to transfer `tokenId` token to another account. The approval is cleared when the token is transferred. Only a single account can be approved at a time, so approving the zero address clears previous approvals. Requirements: - The caller must own the token or be an approved operator. - `tokenId` must exist. Emits an {Approval} event."
      },
      "balanceOf(address)": {
        "details": "Returns the number of tokens in ``owner``'s account."
      },
      "getApproved(uint256)": {
        "details": "Returns the account approved for `tokenId` token. Requirements: - `tokenId` must exist."
      },
      "isApprovedForAll(address,address)": {
        "details": "Returns if the `operator` is allowed to manage all of the assets of `owner`. See {setApprovalForAll}"
      },
      "name()": {
        "details": "Returns the token collection name."
      },
      "owner()": {
        "details": "Returns the address of the current owner."
      },
      "ownerOf(uint256)": {
        "details": "Returns the owner of the `tokenId` token. Requirements: - `tokenId` must exist."
      },
      "renounceOwnership()": {
        "details": "Leaves the contract without owner. It will not be possible to call `onlyOwner` functions. Can only be called by the current owner. NOTE: Renouncing ownership will leave the contract without an owner, thereby disabling any functionality that is only available to the owner."
      },
      "safeTransferFrom(address,address,uint256)": {
        "details": "Safely transfers `tokenId` token from `from` to `to`, checking first that contract recipients are aware of the ERC-721 protocol to prevent tokens from being forever locked. Requirements: - `from` cannot be the zero address. - `to` cannot be the zero address. - `tokenId` token must exist and be owned by `from`. - If the caller is not `from`, it must have been allowed to move this token by either {approve} or   {setApprovalForAll}. - If `to` refers to a smart contract, it must implement {IERC721Receiver-onERC721Received}, which is called upon   a safe transfer. Emits a {Transfer} event."
      },
      "safeTransferFrom(address,address,uint256,bytes)": {
        "details": "Safely transfers `tokenId` token from `from` to `to`. Requirements: - `from` cannot be the zero address. - `to` cannot be the zero address. - `tokenId` token must exist and be owned by `from`. - If the caller is not `from`, it must be approved to move this token by either {approve} or {setApprovalForAll}. - If `to` refers to a smart contract, it must implement {IERC721Receiver-onERC721Received}, which is called upon   a safe transfer. Emits a {Transfer} event."
      },
      "setApprovalForAll(address,bool)": {
        "details": "Approve or remove `operator` as an operator for the caller. Operators can call {transferFrom} or {safeTransferFrom} for any token owned by the caller. Requirements: - The `operator` cannot be the address zero. Emits an {ApprovalForAll} event."
      },
      "setBaseURI(string)": {
        "details": "Set Base URI for Metadata - Only Owner"
      },
      "setLastPhoenix(address)": {
        "details": "Set the Last Phoenix Contract - Only Owner"
      },
      "setNextPhoenix(address)": {
        "details": "Set the Next Phoenix Contract - Only Owner"
      },
      "supportsInterface(bytes4)": {
        "details": "Returns true if this contract implements the interface defined by `interfaceId`. See the corresponding https://eips.ethereum.org/EIPS/eip-165#how-interfaces-are-identified[ERC section] to learn more about how these ids are created. This function call must use less than 30 000 gas."
      },
      "symbol()": {
        "details": "Returns the token collection symbol."
      },
      "tokenByIndex(uint256)": {
        "details": "Returns a token ID at a given `index` of all the tokens stored by the contract. Use along with {totalSupply} to enumerate all tokens."
      },
      "tokenOfOwnerByIndex(address,uint256)": {
        "details": "Returns a token ID owned by `owner` at a given `index` of its token list. Use along with {balanceOf} to enumerate all of ``owner``'s tokens."
      },
      "tokenURI(uint256)": {
        "details": "Returns the Uniform Resource Identifier (URI) for `tokenId` token."
      },
      "totalSupply()": {
        "details": "Returns the total amount of tokens stored by the contract."
      },
      "transferFrom(address,address,uint256)": {
        "details": "Transfers `tokenId` token from `from` to `to`. WARNING: Note that the caller is responsible to confirm that the recipient is capable of receiving ERC-721 or else they may be permanently lost. Usage of {safeTransferFrom} prevents loss, though the caller must understand this adds an external call which potentially creates a reentrancy vulnerability. Requirements: - `from` cannot be the zero address. - `to` cannot be the zero address. - `tokenId` token must be owned by `from`. - If the caller is not `from`, it must be approved to move this token by either {approve} or {setApprovalForAll}. Emits a {Transfer} event."
      },
      "transferOwnership(address)": {
        "details": "Transfers ownership of the contract to a new account (`newOwner`). Can only be called by the current owner."
      }
    },
    "version": 1
  },
  "userdoc": {
    "kind": "user",
    "methods": {},
    "version": 1
  },
  "storageLayout": {
    "storage": [
      {
        "astId": 8,
        "contract": "contracts/PhoenixNFT_v1.sol:PhoenixNFT_v1",
        "label": "_owner",
        "offset": 0,
        "slot": "0",
        "type": "t_address"
      },
      {
        "astId": 1874,
        "contract": "contracts/PhoenixNFT_v1.sol:PhoenixNFT_v1",
        "label": "_name",
        "offset": 0,
        "slot": "1",
        "type": "t_string_storage"
      },
      {
        "astId": 1876,
        "contract": "contracts/PhoenixNFT_v1.sol:PhoenixNFT_v1",
        "label": "_symbol",
        "offset": 0,
        "slot": "2",
        "type": "t_string_storage"
      },
      {
        "astId": 1880,
        "contract": "contracts/PhoenixNFT_v1.sol:PhoenixNFT_v1",
        "label": "_owners",
        "offset": 0,
        "slot": "3",
        "type": "t_mapping(t_uint256,t_address)"
      },
      {
        "astId": 1884,
        "contract": "contracts/PhoenixNFT_v1.sol:PhoenixNFT_v1",
        "label": "_balances",
        "offset": 0,
        "slot": "4",
        "type": "t_mapping(t_address,t_uint256)"
      },
      {
        "astId": 1888,
        "contract": "contracts/PhoenixNFT_v1.sol:PhoenixNFT_v1",
        "label": "_tokenApprovals",
        "offset": 0,
        "slot": "5",
        "type": "t_mapping(t_uint256,t_address)"
      },
      {
        "astId": 1894,
        "contract": "contracts/PhoenixNFT_v1.sol:PhoenixNFT_v1",
        "label": "_operatorApprovals",
        "offset": 0,
        "slot": "6",
        "type": "t_mapping(t_address,t_mapping(t_address,t_bool))"
      },
      {
        "astId": 2952,
        "contract": "contracts/PhoenixNFT_v1.sol:PhoenixNFT_v1",
        "label": "_ownedTokens",
        "offset": 0,
        "slot": "7",
        "type": "t_mapping(t_address,t_mapping(t_uint256,t_uint256))"
      },
      {
        "astId": 2956,
        "contract": "contracts/PhoenixNFT_v1.sol:PhoenixNFT_v1",
        "label": "_ownedTokensIndex",
        "offset": 0,
        "slot": "8",
        "type": "t_mapping(t_uint256,t_uint256)"
      },
      {
        "astId": 2959,
        "contract": "contracts/PhoenixNFT_v1.sol:PhoenixNFT_v1",
        "label": "_allTokens",
        "offset": 0,
        "slot": "9",
        "type": "t_array(t_uint256)dyn_storage"
      },
      {
        "astId": 2963,
        "contract": "contracts/PhoenixNFT_v1.sol:PhoenixNFT_v1",
        "label": "_allTokensIndex",
        "offset": 0,
        "slot": "10",
        "type": "t_mapping(t_uint256,t_uint256)"
      },
      {
        "astId": 17217,
        "contract": "contracts/PhoenixNFT_v1.sol:PhoenixNFT_v1",
        "label": "_tokenIdCounter",
        "offset": 0,
        "slot": "11",
        "type": "t_uint256"
      },
      {
        "astId": 17219,
        "contract": "contracts/PhoenixNFT_v1.sol:PhoenixNFT_v1",
        "label": "_lastPhoenix",
        "offset": 0,
        "slot": "12",
        "type": "t_address"
      },
      {
        "astId": 17221,
        "contract": "contracts/PhoenixNFT_v1.sol:PhoenixNFT_v1",
        "label": "_nextPhoenix",
        "offset": 0,
        "slot": "13",
        "type": "t_address"
      },
      {
        "astId": 17223,
        "contract": "contracts/PhoenixNFT_v1.sol:PhoenixNFT_v1",
        "label": "_baseUri",
        "offset": 0,
        "slot": "14",
        "type": "t_string_storage"
      },
      {
        "astId": 14705,
        "contract": "contracts/PhoenixNFT_v1.sol:PhoenixNFT_v1",
        "label": "_customTraits",
        "offset": 0,
        "slot": "15",
        "type": "t_mapping(t_uint256,t_uint256)"
      }
    ],
    "types": {
      "t_address": {
        "encoding": "inplace",
        "label": "address",
        "numberOfBytes": "20"
      },
      "t_array(t_uint256)dyn_storage": {
        "base": "t_uint256",
        "encoding": "dynamic_array",
        "label": "uint256[]",
        "numberOfBytes": "32"
      },
      "t_bool": {
        "encoding": "inplace",
        "label": "bool",
        "numberOfBytes": "1"
      },
      "t_mapping(t_address,t_bool)": {
        "encoding": "mapping",
        "key": "t_address",
        "label": "mapping(address => bool)",
        "numberOfBytes": "32",
        "value": "t_bool"
      },
      "t_mapping(t_address,t_mapping(t_address,t_bool))": {
        "encoding": "mapping",
        "key": "t_address",
        "label": "mapping(address => mapping(address => bool))",
        "numberOfBytes": "32",
        "value": "t_mapping(t_address,t_bool)"
      },
      "t_mapping(t_address,t_mapping(t_uint256,t_uint256))": {
        "encoding": "mapping",
        "key": "t_address",
        "label": "mapping(address => mapping(uint256 => uint256))",
        "numberOfBytes": "32",
        "value": "t_mapping(t_uint256,t_uint256)"
      },
      "t_mapping(t_address,t_uint256)": {
        "encoding": "mapping",
        "key": "t_address",
        "label": "mapping(address => uint256)",
        "numberOfBytes": "32",
        "value": "t_uint256"
      },
      "t_mapping(t_uint256,t_address)": {
        "encoding": "mapping",
        "key": "t_uint256",
        "label": "mapping(uint256 => address)",
        "numberOfBytes": "32",
        "value": "t_address"
      },
      "t_mapping(t_uint256,t_uint256)": {
        "encoding": "mapping",
        "key": "t_uint256",
        "label": "mapping(uint256 => uint256)",
        "numberOfBytes": "32",
        "value": "t_uint256"
      },
      "t_string_storage": {
        "encoding": "bytes",
        "label": "string",
        "numberOfBytes": "32"
      },
      "t_uint256": {
        "encoding": "inplace",
        "label": "uint256",
        "numberOfBytes": "32"
      }
    }
  }
}