{
  "address": "0x39af2c049b52D9408E3f63Ef55f3eD28f0d7750a",
  "abi": [
    {
      "inputs": [
        {
          "internalType": "address",
          "name": "_usdc",
          "type": "address"
        },
        {
          "internalType": "address",
          "name": "_router",
          "type": "address"
        },
        {
          "internalType": "address",
          "name": "_config",
          "type": "address"
        },
        {
          "internalType": "int24",
          "name": "_tickLower",
          "type": "int24"
        },
        {
          "internalType": "int24",
          "name": "_tickUpper",
          "type": "int24"
        }
      ],
      "stateMutability": "nonpayable",
      "type": "constructor"
    },
    {
      "inputs": [],
      "name": "EnforcedPause",
      "type": "error"
    },
    {
      "inputs": [],
      "name": "ExpectedPause",
      "type": "error"
    },
    {
      "inputs": [
        {
          "internalType": "address",
          "name": "owner",
          "type": "address"
        }
      ],
      "name": "OwnableInvalidOwner",
      "type": "error"
    },
    {
      "inputs": [
        {
          "internalType": "address",
          "name": "account",
          "type": "address"
        }
      ],
      "name": "OwnableUnauthorizedAccount",
      "type": "error"
    },
    {
      "inputs": [],
      "name": "ReentrancyGuardReentrantCall",
      "type": "error"
    },
    {
      "inputs": [],
      "name": "Unauthorized",
      "type": "error"
    },
    {
      "anonymous": false,
      "inputs": [
        {
          "indexed": true,
          "internalType": "address",
          "name": "newConfig",
          "type": "address"
        },
        {
          "indexed": false,
          "internalType": "uint256",
          "name": "timestamp",
          "type": "uint256"
        }
      ],
      "name": "ConfigUpdated",
      "type": "event"
    },
    {
      "anonymous": false,
      "inputs": [
        {
          "indexed": false,
          "internalType": "uint256",
          "name": "timestamp",
          "type": "uint256"
        }
      ],
      "name": "DexPaused",
      "type": "event"
    },
    {
      "anonymous": false,
      "inputs": [
        {
          "indexed": false,
          "internalType": "uint256",
          "name": "timestamp",
          "type": "uint256"
        }
      ],
      "name": "DexUnpaused",
      "type": "event"
    },
    {
      "anonymous": false,
      "inputs": [
        {
          "indexed": true,
          "internalType": "address",
          "name": "token",
          "type": "address"
        },
        {
          "indexed": true,
          "internalType": "address",
          "name": "creator",
          "type": "address"
        },
        {
          "indexed": false,
          "internalType": "uint256",
          "name": "lpTokenId",
          "type": "uint256"
        },
        {
          "indexed": false,
          "internalType": "uint256",
          "name": "tokenAmount",
          "type": "uint256"
        },
        {
          "indexed": false,
          "internalType": "uint256",
          "name": "usdcAmount",
          "type": "uint256"
        },
        {
          "indexed": false,
          "internalType": "uint256",
          "name": "liquidity",
          "type": "uint256"
        },
        {
          "indexed": false,
          "internalType": "uint256",
          "name": "timestamp",
          "type": "uint256"
        }
      ],
      "name": "LiquidityDeployed",
      "type": "event"
    },
    {
      "anonymous": false,
      "inputs": [
        {
          "indexed": true,
          "internalType": "address",
          "name": "previousOwner",
          "type": "address"
        },
        {
          "indexed": true,
          "internalType": "address",
          "name": "newOwner",
          "type": "address"
        }
      ],
      "name": "OwnershipTransferred",
      "type": "event"
    },
    {
      "anonymous": false,
      "inputs": [
        {
          "indexed": false,
          "internalType": "address",
          "name": "account",
          "type": "address"
        }
      ],
      "name": "Paused",
      "type": "event"
    },
    {
      "anonymous": false,
      "inputs": [
        {
          "indexed": true,
          "internalType": "address",
          "name": "newRouter",
          "type": "address"
        },
        {
          "indexed": false,
          "internalType": "uint256",
          "name": "timestamp",
          "type": "uint256"
        }
      ],
      "name": "RouterUpdated",
      "type": "event"
    },
    {
      "anonymous": false,
      "inputs": [
        {
          "indexed": false,
          "internalType": "address",
          "name": "account",
          "type": "address"
        }
      ],
      "name": "Unpaused",
      "type": "event"
    },
    {
      "inputs": [],
      "name": "USDC",
      "outputs": [
        {
          "internalType": "contract IERC20",
          "name": "",
          "type": "address"
        }
      ],
      "stateMutability": "view",
      "type": "function"
    },
    {
      "inputs": [],
      "name": "config",
      "outputs": [
        {
          "internalType": "address",
          "name": "",
          "type": "address"
        }
      ],
      "stateMutability": "view",
      "type": "function"
    },
    {
      "inputs": [
        {
          "internalType": "address",
          "name": "creator",
          "type": "address"
        },
        {
          "internalType": "address",
          "name": "token",
          "type": "address"
        },
        {
          "internalType": "uint256",
          "name": "tokensAmount",
          "type": "uint256"
        },
        {
          "internalType": "uint256",
          "name": "usdcAmount",
          "type": "uint256"
        }
      ],
      "name": "deployLiquidity",
      "outputs": [
        {
          "internalType": "uint256",
          "name": "amount0",
          "type": "uint256"
        },
        {
          "internalType": "uint256",
          "name": "amount1",
          "type": "uint256"
        },
        {
          "internalType": "uint256",
          "name": "liquidity",
          "type": "uint256"
        },
        {
          "internalType": "uint256",
          "name": "lpTokenId",
          "type": "uint256"
        }
      ],
      "stateMutability": "nonpayable",
      "type": "function"
    },
    {
      "inputs": [],
      "name": "dexRouter",
      "outputs": [
        {
          "internalType": "contract INonfungiblePositionManager",
          "name": "",
          "type": "address"
        }
      ],
      "stateMutability": "view",
      "type": "function"
    },
    {
      "inputs": [],
      "name": "owner",
      "outputs": [
        {
          "internalType": "address",
          "name": "",
          "type": "address"
        }
      ],
      "stateMutability": "view",
      "type": "function"
    },
    {
      "inputs": [],
      "name": "pause",
      "outputs": [],
      "stateMutability": "nonpayable",
      "type": "function"
    },
    {
      "inputs": [],
      "name": "paused",
      "outputs": [
        {
          "internalType": "bool",
          "name": "",
          "type": "bool"
        }
      ],
      "stateMutability": "view",
      "type": "function"
    },
    {
      "inputs": [],
      "name": "renounceOwnership",
      "outputs": [],
      "stateMutability": "nonpayable",
      "type": "function"
    },
    {
      "inputs": [
        {
          "internalType": "address",
          "name": "newOwner",
          "type": "address"
        }
      ],
      "name": "transferOwnership",
      "outputs": [],
      "stateMutability": "nonpayable",
      "type": "function"
    },
    {
      "inputs": [],
      "name": "unpause",
      "outputs": [],
      "stateMutability": "nonpayable",
      "type": "function"
    },
    {
      "inputs": [
        {
          "internalType": "address",
          "name": "newConfig",
          "type": "address"
        }
      ],
      "name": "updateConfig",
      "outputs": [],
      "stateMutability": "nonpayable",
      "type": "function"
    },
    {
      "inputs": [
        {
          "internalType": "address",
          "name": "newRouter",
          "type": "address"
        }
      ],
      "name": "updateRouter",
      "outputs": [],
      "stateMutability": "nonpayable",
      "type": "function"
    }
  ],
  "transactionHash": "0xf0669f3d1a029efa2e0c28220159ce1f0787a4c9a9d91513ba7f6847926f2005",
  "args": [
    "0x54F9A3f294dBd6f5a100084647bd0E6EcD4b653e",
    "0xe294d5Eb435807cD21017013Bef620ed1AeafbeB",
    "0xd7240874cf781531520ce59373624B30d788d27f",
    "-887220",
    "887220"
  ],
  "numDeployments": 1,
  "solcInputHash": "4e342e65289038e2149a5138205f7d54",
  "bytecode": "0x60a03461022157601f610d2b38819003918201601f19168301916001600160401b038311848410176102265780849260a094604052833981010312610221576100478161023c565b906100546020820161023c565b916100616040830161023c565b9061007a608061007360608601610250565b9401610250565b936001600055331561020b5760018054336001600160a01b0319821681179092556040519391906001600160a01b03167f8be0079c531659141344cd1fd0a4f28419497f9722a3daafe3b4186f6b6457e0600080a36001600160a01b03169182156101c957506001600160a01b0316918215610193576001600160a01b031690811561015d5760805260018060a01b031960025416176002556003549260b81b62ffffff60b81b169260018060d01b031916179060a01b62ffffff60a01b161717600355604051610acc908161025f82396080518181816101df01526104b30152f35b60405162461bcd60e51b815260206004820152600e60248201526d496e76616c696420636f6e66696760901b6044820152606490fd5b60405162461bcd60e51b815260206004820152600e60248201526d24b73b30b634b2103937baba32b960911b6044820152606490fd5b62461bcd60e51b815260206004820152601460248201527f496e76616c6964205553444320616464726573730000000000000000000000006044820152606490fd5b631e4fbdf760e01b600052600060045260246000fd5b600080fd5b634e487b7160e01b600052604160045260246000fd5b51906001600160a01b038216820361022157565b51908160020b82036102215756fe608080604052600436101561001357600080fd5b60003560e01c9081630758d924146109d9575080633f4ba83a1461093e5780634d5f3477146103b45780635c975abb1461038e5780636cc919c814610320578063715018a6146102c357806379502c551461029a5780638456cb591461020e57806389a30271146101c95780638da5cb5b146101a0578063c851cc32146101325763f2fde38b146100a357600080fd5b3461012d57602036600319011261012d576100bc6109fd565b6100c4610a4d565b6001600160a01b0316801561011757600180546001600160a01b0319811683179091556001600160a01b03167f8be0079c531659141344cd1fd0a4f28419497f9722a3daafe3b4186f6b6457e0600080a3005b631e4fbdf760e01b600052600060045260246000fd5b600080fd5b3461012d57602036600319011261012d5761014b6109fd565b610153610a4d565b60018060a01b0316806bffffffffffffffffffffffff60a01b60035416176003557f65010bf8aa701515d017d4682c72f93e8722682a85afde7960fb222bb5c5bb546020604051428152a2005b3461012d57600036600319011261012d576001546040516001600160a01b039091168152602090f35b3461012d57600036600319011261012d576040517f00000000000000000000000000000000000000000000000000000000000000006001600160a01b03168152602090f35b3461012d57600036600319011261012d57610227610a4d565b61022f610a76565b6001805460ff60a01b1916600160a01b1790556040513381527f62e78cea01bee320cd4e420270b5ea74000d11b0c9f74754ebdbfc544b05a25890602090a17fc5a972cc655b91116e1cd653bc6e0dbd82dd03bb71f7827b132714c58381a75c6020604051428152a1005b3461012d57600036600319011261012d576002546040516001600160a01b039091168152602090f35b3461012d57600036600319011261012d576102dc610a4d565b600180546001600160a01b031981169091556000906001600160a01b03167f8be0079c531659141344cd1fd0a4f28419497f9722a3daafe3b4186f6b6457e08280a3005b3461012d57602036600319011261012d576103396109fd565b610341610a4d565b60018060a01b0316806bffffffffffffffffffffffff60a01b60025416176002557faf8839d80c9b3bbf95c97465eb8c8348db4098f5c15af186c3b425b1129981176020604051428152a2005b3461012d57600036600319011261012d57602060ff60015460a01c166040519015158152f35b3461012d57608036600319011261012d576103cd6109fd565b6024356001600160a01b0381169081900361012d5760443590606435926004602060018060a01b036002541660405192838092638da5cb5b60e01b82525afa908115610791576000916108f5575b506001600160a01b0316331415806108eb575b6108db576002600054146108ca576002600055610449610a76565b6040516323b872dd60e01b8152336004820152306024820152604481018490526020816064816000875af1908115610791576000916108ab575b501561086e576040516323b872dd60e01b8152336004820152306024820152604481018590526001600160a01b037f00000000000000000000000000000000000000000000000000000000000000001693906020816064816000895af19081156107915760009161084f575b50156108135760035460405163095ea7b360e01b81526001600160a01b039091166004820152602481018290526020816044816000885af18015610791576107f6575b5060035460405163095ea7b360e01b81526001600160a01b039091166004820152602481018690526020816044816000895af18015610791576107c9575b5060035493605f860294868604605f14871517156107b357605f830292808404605f14811517156107b3576040519161014083019183831067ffffffffffffffff84111761079d576080966101449560009460405285526020850196898852604086019a8460a01c60020b8c5260608701938560b81c60020b85528a88019d8e5260a08801908152606460c0890192048252606460e089019304835261010088019360018060a01b03169d8e85526101208901954287526040519e8f9c8d9b639cc1a28360e01b8d5260018060a01b0390511660048d015260018060a01b0390511660248c01525160020b60448b01525160020b60648a01525160848901525160a48801525160c48701525160e486015260018060a01b039051166101048501525161012484015260018060a01b03165af190811561079157600091829483948492610722575b506001600160801b0360809616927f32fc4c8ab77b5a9a421389d611b62c06e71cff3045fd360f39852881552ef07c60a0604051878152886020820152856040820152866060820152428a820152a36001600055604051938452602084015260408301526060820152f35b9450929450506080833d608011610789575b8161074160809383610a13565b81010312610785578251926020810151926001600160801b0384168403610781576040820151606090920151939550909392906001600160801b036106b7565b8580fd5b8380fd5b3d9150610734565b6040513d6000823e3d90fd5b634e487b7160e01b600052604160045260246000fd5b634e487b7160e01b600052601160045260246000fd5b6107ea9060203d6020116107ef575b6107e28183610a13565b810190610a35565b610570565b503d6107d8565b61080e9060203d6020116107ef576107e28183610a13565b610532565b60405162461bcd60e51b81526020600482015260146024820152731554d110c81d1c985b9cd9995c8819985a5b195960621b6044820152606490fd5b610868915060203d6020116107ef576107e28183610a13565b866104ef565b60405162461bcd60e51b8152602060048201526015602482015274151bdad95b881d1c985b9cd9995c8819985a5b1959605a1b6044820152606490fd5b6108c4915060203d6020116107ef576107e28183610a13565b85610483565b633ee5aeb560e01b60005260046000fd5b6282b42960e81b60005260046000fd5b508133141561042e565b6020813d602011610936575b8161090e60209383610a13565b810103126109325751906001600160a01b038216820361092f57508561041b565b80fd5b5080fd5b3d9150610901565b3461012d57600036600319011261012d57610957610a4d565b60015460ff8160a01c16156109c85760ff60a01b19166001556040513381527f5db9ee0a495bf2e6ff9c91a7834c1ba4fdd244a5e8aa4e537bd38aeae4b073aa90602090a17f548b2908ef9697d85af51e26696fe462217da1bb8d62226b02846aec1c35db6d6020604051428152a1005b638dfc202b60e01b60005260046000fd5b3461012d57600036600319011261012d576003546001600160a01b03168152602090f35b600435906001600160a01b038216820361012d57565b90601f8019910116810190811067ffffffffffffffff82111761079d57604052565b9081602091031261012d5751801515810361012d5790565b6001546001600160a01b03163303610a6157565b63118cdaa760e01b6000523360045260246000fd5b60ff60015460a01c16610a8557565b63d93c066560e01b60005260046000fdfea2646970667358221220e8d5780b47b34be72082a4410a3dad4db8710225181e33082387549ca4c8323764736f6c634300081b0033",
  "devdoc": {
    "errors": {
      "EnforcedPause()": [
        {
          "details": "The operation failed because the contract is paused."
        }
      ],
      "ExpectedPause()": [
        {
          "details": "The operation failed because the contract is not paused."
        }
      ],
      "OwnableInvalidOwner(address)": [
        {
          "details": "The owner is not a valid owner account. (eg. `address(0)`)"
        }
      ],
      "OwnableUnauthorizedAccount(address)": [
        {
          "details": "The caller account is not authorized to perform an operation."
        }
      ],
      "ReentrancyGuardReentrantCall()": [
        {
          "details": "Unauthorized reentrant call."
        }
      ]
    },
    "events": {
      "ConfigUpdated(address,uint256)": {
        "params": {
          "newConfig": "The new config address",
          "timestamp": "The timestamp of the update"
        }
      },
      "DexPaused(uint256)": {
        "params": {
          "timestamp": "The timestamp of the pause"
        }
      },
      "DexUnpaused(uint256)": {
        "params": {
          "timestamp": "The timestamp of the unpause"
        }
      },
      "LiquidityDeployed(address,address,uint256,uint256,uint256,uint256,uint256)": {
        "params": {
          "creator": "The address of the token creator",
          "liquidity": "The amount of LP tokens minted",
          "lpTokenId": "The Token ID of the Liquidity Position NFT",
          "timestamp": "The timestamp of the deployment",
          "token": "The address of the CarbonCoin token",
          "tokenAmount": "The amount of tokens added to liquidity",
          "usdcAmount": "The amount of USDC added to liquidity"
        }
      },
      "Paused(address)": {
        "details": "Emitted when the pause is triggered by `account`."
      },
      "RouterUpdated(address,uint256)": {
        "params": {
          "newRouter": "The new router address",
          "timestamp": "The timestamp of the update"
        }
      },
      "Unpaused(address)": {
        "details": "Emitted when the pause is lifted by `account`."
      }
    },
    "kind": "dev",
    "methods": {
      "constructor": {
        "params": {
          "_config": "The address of the token configuration contract.",
          "_router": "The address of the Somnia Exchange V2 router.",
          "_usdc": "The address of the USDC token contract."
        }
      },
      "deployLiquidity(address,address,uint256,uint256)": {
        "details": "Creates a USDC/Token liquidity pool."
      },
      "owner()": {
        "details": "Returns the address of the current owner."
      },
      "paused()": {
        "details": "Returns true if the contract is paused, and false otherwise."
      },
      "renounceOwnership()": {
        "details": "Leaves the contract without owner. It will not be possible to call `onlyOwner` functions. Can only be called by the current owner. NOTE: Renouncing ownership will leave the contract without an owner, thereby disabling any functionality that is only available to the owner."
      },
      "transferOwnership(address)": {
        "details": "Transfers ownership of the contract to a new account (`newOwner`). Can only be called by the current owner."
      }
    },
    "version": 1
  },
  "userdoc": {
    "events": {
      "ConfigUpdated(address,uint256)": {
        "notice": "Emitted when the config address is updated"
      },
      "DexPaused(uint256)": {
        "notice": "Emitted when the DEX is paused"
      },
      "DexUnpaused(uint256)": {
        "notice": "Emitted when the DEX is unpaused"
      },
      "LiquidityDeployed(address,address,uint256,uint256,uint256,uint256,uint256)": {
        "notice": "Emitted when liquidity is deployed for a graduated token"
      },
      "RouterUpdated(address,uint256)": {
        "notice": "Emitted when the router address is updated"
      }
    },
    "kind": "user",
    "methods": {
      "constructor": {
        "notice": "Constructor for the CarbonCoinDex contract."
      },
      "deployLiquidity(address,address,uint256,uint256)": {
        "notice": "Deploy Liquidity to Somnia Exchange with USDC/Token pair."
      },
      "pause()": {
        "notice": "Pause the DEX"
      },
      "unpause()": {
        "notice": "Unpause the DEX"
      },
      "updateConfig(address)": {
        "notice": "Update the config address"
      }
    },
    "version": 1
  },
  "storageLayout": {
    "storage": [
      {
        "astId": 1387,
        "contract": "contracts/CarbonCoinDex.sol:CarbonCoinDex",
        "label": "_status",
        "offset": 0,
        "slot": "0",
        "type": "t_uint256"
      },
      {
        "astId": 8,
        "contract": "contracts/CarbonCoinDex.sol:CarbonCoinDex",
        "label": "_owner",
        "offset": 0,
        "slot": "1",
        "type": "t_address"
      },
      {
        "astId": 1277,
        "contract": "contracts/CarbonCoinDex.sol:CarbonCoinDex",
        "label": "_paused",
        "offset": 20,
        "slot": "1",
        "type": "t_bool"
      },
      {
        "astId": 9200,
        "contract": "contracts/CarbonCoinDex.sol:CarbonCoinDex",
        "label": "config",
        "offset": 0,
        "slot": "2",
        "type": "t_address"
      },
      {
        "astId": 9203,
        "contract": "contracts/CarbonCoinDex.sol:CarbonCoinDex",
        "label": "dexRouter",
        "offset": 0,
        "slot": "3",
        "type": "t_contract(INonfungiblePositionManager)11103"
      },
      {
        "astId": 9205,
        "contract": "contracts/CarbonCoinDex.sol:CarbonCoinDex",
        "label": "tickLower",
        "offset": 20,
        "slot": "3",
        "type": "t_int24"
      },
      {
        "astId": 9207,
        "contract": "contracts/CarbonCoinDex.sol:CarbonCoinDex",
        "label": "tickUpper",
        "offset": 23,
        "slot": "3",
        "type": "t_int24"
      }
    ],
    "types": {
      "t_address": {
        "encoding": "inplace",
        "label": "address",
        "numberOfBytes": "20"
      },
      "t_bool": {
        "encoding": "inplace",
        "label": "bool",
        "numberOfBytes": "1"
      },
      "t_contract(INonfungiblePositionManager)11103": {
        "encoding": "inplace",
        "label": "contract INonfungiblePositionManager",
        "numberOfBytes": "20"
      },
      "t_int24": {
        "encoding": "inplace",
        "label": "int24",
        "numberOfBytes": "3"
      },
      "t_uint256": {
        "encoding": "inplace",
        "label": "uint256",
        "numberOfBytes": "32"
      }
    }
  }
}