{
  "address": "0x63106e73AaeAaC5DF3345A3c32ea735c40D1Dc2C",
  "abi": [
    {
      "inputs": [
        {
          "internalType": "string",
          "name": "name",
          "type": "string"
        },
        {
          "internalType": "string",
          "name": "symbol",
          "type": "string"
        },
        {
          "internalType": "address",
          "name": "_creator",
          "type": "address"
        },
        {
          "internalType": "address",
          "name": "_usdc",
          "type": "address"
        },
        {
          "internalType": "address",
          "name": "_controller",
          "type": "address"
        },
        {
          "internalType": "address",
          "name": "_config",
          "type": "address"
        },
        {
          "internalType": "address",
          "name": "_protection",
          "type": "address"
        },
        {
          "components": [
            {
              "internalType": "uint256",
              "name": "virtualUsdc",
              "type": "uint256"
            },
            {
              "internalType": "uint256",
              "name": "virtualTokens",
              "type": "uint256"
            },
            {
              "internalType": "uint256",
              "name": "creatorReserve",
              "type": "uint256"
            },
            {
              "internalType": "uint256",
              "name": "liquiditySupply",
              "type": "uint256"
            },
            {
              "internalType": "uint256",
              "name": "curveSupply",
              "type": "uint256"
            },
            {
              "internalType": "uint256",
              "name": "maxSupply",
              "type": "uint256"
            },
            {
              "internalType": "uint256",
              "name": "graduationThreshold",
              "type": "uint256"
            }
          ],
          "internalType": "struct ICarbonCoin.BondingCurveConfig",
          "name": "bondingCurveConfig",
          "type": "tuple"
        }
      ],
      "stateMutability": "nonpayable",
      "type": "constructor"
    },
    {
      "inputs": [],
      "name": "AlreadyGraduated",
      "type": "error"
    },
    {
      "inputs": [],
      "name": "CreatorCannotSellBeforeGraduation",
      "type": "error"
    },
    {
      "inputs": [],
      "name": "ECDSAInvalidSignature",
      "type": "error"
    },
    {
      "inputs": [
        {
          "internalType": "uint256",
          "name": "length",
          "type": "uint256"
        }
      ],
      "name": "ECDSAInvalidSignatureLength",
      "type": "error"
    },
    {
      "inputs": [
        {
          "internalType": "bytes32",
          "name": "s",
          "type": "bytes32"
        }
      ],
      "name": "ECDSAInvalidSignatureS",
      "type": "error"
    },
    {
      "inputs": [
        {
          "internalType": "address",
          "name": "spender",
          "type": "address"
        },
        {
          "internalType": "uint256",
          "name": "allowance",
          "type": "uint256"
        },
        {
          "internalType": "uint256",
          "name": "needed",
          "type": "uint256"
        }
      ],
      "name": "ERC20InsufficientAllowance",
      "type": "error"
    },
    {
      "inputs": [
        {
          "internalType": "address",
          "name": "sender",
          "type": "address"
        },
        {
          "internalType": "uint256",
          "name": "balance",
          "type": "uint256"
        },
        {
          "internalType": "uint256",
          "name": "needed",
          "type": "uint256"
        }
      ],
      "name": "ERC20InsufficientBalance",
      "type": "error"
    },
    {
      "inputs": [
        {
          "internalType": "address",
          "name": "approver",
          "type": "address"
        }
      ],
      "name": "ERC20InvalidApprover",
      "type": "error"
    },
    {
      "inputs": [
        {
          "internalType": "address",
          "name": "receiver",
          "type": "address"
        }
      ],
      "name": "ERC20InvalidReceiver",
      "type": "error"
    },
    {
      "inputs": [
        {
          "internalType": "address",
          "name": "sender",
          "type": "address"
        }
      ],
      "name": "ERC20InvalidSender",
      "type": "error"
    },
    {
      "inputs": [
        {
          "internalType": "address",
          "name": "spender",
          "type": "address"
        }
      ],
      "name": "ERC20InvalidSpender",
      "type": "error"
    },
    {
      "inputs": [
        {
          "internalType": "uint256",
          "name": "deadline",
          "type": "uint256"
        }
      ],
      "name": "ERC2612ExpiredSignature",
      "type": "error"
    },
    {
      "inputs": [
        {
          "internalType": "address",
          "name": "signer",
          "type": "address"
        },
        {
          "internalType": "address",
          "name": "owner",
          "type": "address"
        }
      ],
      "name": "ERC2612InvalidSigner",
      "type": "error"
    },
    {
      "inputs": [],
      "name": "EnforcedPause",
      "type": "error"
    },
    {
      "inputs": [],
      "name": "ExceedsMaxSupply",
      "type": "error"
    },
    {
      "inputs": [],
      "name": "ExpectedPause",
      "type": "error"
    },
    {
      "inputs": [],
      "name": "GraduationCooldownActive",
      "type": "error"
    },
    {
      "inputs": [],
      "name": "InsufficientLiquidity",
      "type": "error"
    },
    {
      "inputs": [
        {
          "internalType": "address",
          "name": "account",
          "type": "address"
        },
        {
          "internalType": "uint256",
          "name": "currentNonce",
          "type": "uint256"
        }
      ],
      "name": "InvalidAccountNonce",
      "type": "error"
    },
    {
      "inputs": [],
      "name": "InvalidAmount",
      "type": "error"
    },
    {
      "inputs": [],
      "name": "InvalidShortString",
      "type": "error"
    },
    {
      "inputs": [],
      "name": "NotGraduated",
      "type": "error"
    },
    {
      "inputs": [],
      "name": "ReentrancyGuardReentrantCall",
      "type": "error"
    },
    {
      "inputs": [],
      "name": "SlippageTooHigh",
      "type": "error"
    },
    {
      "inputs": [
        {
          "internalType": "string",
          "name": "str",
          "type": "string"
        }
      ],
      "name": "StringTooLong",
      "type": "error"
    },
    {
      "inputs": [],
      "name": "Unauthorized",
      "type": "error"
    },
    {
      "inputs": [],
      "name": "WhaleIntentRequired",
      "type": "error"
    },
    {
      "anonymous": false,
      "inputs": [
        {
          "indexed": true,
          "internalType": "address",
          "name": "owner",
          "type": "address"
        },
        {
          "indexed": true,
          "internalType": "address",
          "name": "spender",
          "type": "address"
        },
        {
          "indexed": false,
          "internalType": "uint256",
          "name": "value",
          "type": "uint256"
        }
      ],
      "name": "Approval",
      "type": "event"
    },
    {
      "anonymous": false,
      "inputs": [
        {
          "indexed": true,
          "internalType": "address",
          "name": "newController",
          "type": "address"
        }
      ],
      "name": "ControllerUpdated",
      "type": "event"
    },
    {
      "anonymous": false,
      "inputs": [
        {
          "indexed": true,
          "internalType": "address",
          "name": "creator",
          "type": "address"
        },
        {
          "indexed": false,
          "internalType": "uint256",
          "name": "amount",
          "type": "uint256"
        },
        {
          "indexed": false,
          "internalType": "uint256",
          "name": "timestamp",
          "type": "uint256"
        }
      ],
      "name": "CreatorReserveMinted",
      "type": "event"
    },
    {
      "anonymous": false,
      "inputs": [],
      "name": "EIP712DomainChanged",
      "type": "event"
    },
    {
      "anonymous": false,
      "inputs": [
        {
          "indexed": true,
          "internalType": "address",
          "name": "to",
          "type": "address"
        },
        {
          "indexed": false,
          "internalType": "uint256",
          "name": "amount",
          "type": "uint256"
        },
        {
          "indexed": false,
          "internalType": "uint256",
          "name": "timestamp",
          "type": "uint256"
        }
      ],
      "name": "EmergencyWithdraw",
      "type": "event"
    },
    {
      "anonymous": false,
      "inputs": [
        {
          "indexed": true,
          "internalType": "address",
          "name": "token",
          "type": "address"
        },
        {
          "indexed": false,
          "internalType": "uint256",
          "name": "lpTokenId",
          "type": "uint256"
        },
        {
          "indexed": false,
          "internalType": "uint256",
          "name": "liquidityTokens",
          "type": "uint256"
        },
        {
          "indexed": false,
          "internalType": "uint256",
          "name": "liquidityUsdc",
          "type": "uint256"
        },
        {
          "indexed": false,
          "internalType": "uint256",
          "name": "finalPrice",
          "type": "uint256"
        },
        {
          "indexed": false,
          "internalType": "uint256",
          "name": "timestamp",
          "type": "uint256"
        }
      ],
      "name": "Graduated",
      "type": "event"
    },
    {
      "anonymous": false,
      "inputs": [
        {
          "indexed": false,
          "internalType": "uint256",
          "name": "usdcSupply",
          "type": "uint256"
        },
        {
          "indexed": false,
          "internalType": "uint256",
          "name": "tokenSupply",
          "type": "uint256"
        },
        {
          "indexed": false,
          "internalType": "uint256",
          "name": "liquidity",
          "type": "uint256"
        },
        {
          "indexed": false,
          "internalType": "uint256",
          "name": "timestamp",
          "type": "uint256"
        }
      ],
      "name": "LiquiditySnapshot",
      "type": "event"
    },
    {
      "anonymous": false,
      "inputs": [
        {
          "indexed": false,
          "internalType": "address",
          "name": "account",
          "type": "address"
        }
      ],
      "name": "Paused",
      "type": "event"
    },
    {
      "anonymous": false,
      "inputs": [
        {
          "indexed": false,
          "internalType": "uint256",
          "name": "price",
          "type": "uint256"
        },
        {
          "indexed": false,
          "internalType": "uint256",
          "name": "usdcReserves",
          "type": "uint256"
        },
        {
          "indexed": false,
          "internalType": "uint256",
          "name": "tokenSupply",
          "type": "uint256"
        },
        {
          "indexed": false,
          "internalType": "uint256",
          "name": "timestamp",
          "type": "uint256"
        }
      ],
      "name": "PriceUpdate",
      "type": "event"
    },
    {
      "anonymous": false,
      "inputs": [
        {
          "indexed": true,
          "internalType": "address",
          "name": "token",
          "type": "address"
        },
        {
          "indexed": true,
          "internalType": "address",
          "name": "creator",
          "type": "address"
        },
        {
          "indexed": false,
          "internalType": "string",
          "name": "name",
          "type": "string"
        },
        {
          "indexed": false,
          "internalType": "string",
          "name": "symbol",
          "type": "string"
        },
        {
          "indexed": false,
          "internalType": "uint256",
          "name": "maxSupply",
          "type": "uint256"
        },
        {
          "indexed": false,
          "internalType": "uint256",
          "name": "graduationThreshold",
          "type": "uint256"
        },
        {
          "indexed": false,
          "internalType": "uint256",
          "name": "timestamp",
          "type": "uint256"
        }
      ],
      "name": "TokenDeployed",
      "type": "event"
    },
    {
      "anonymous": false,
      "inputs": [
        {
          "indexed": true,
          "internalType": "address",
          "name": "buyer",
          "type": "address"
        },
        {
          "indexed": false,
          "internalType": "uint256",
          "name": "usdcAmount",
          "type": "uint256"
        },
        {
          "indexed": false,
          "internalType": "uint256",
          "name": "tokensOut",
          "type": "uint256"
        },
        {
          "indexed": false,
          "internalType": "uint256",
          "name": "newPrice",
          "type": "uint256"
        },
        {
          "indexed": false,
          "internalType": "uint256",
          "name": "realUsdcReserves",
          "type": "uint256"
        },
        {
          "indexed": false,
          "internalType": "uint256",
          "name": "realTokenSupply",
          "type": "uint256"
        },
        {
          "indexed": false,
          "internalType": "uint256",
          "name": "timestamp",
          "type": "uint256"
        }
      ],
      "name": "TokensPurchased",
      "type": "event"
    },
    {
      "anonymous": false,
      "inputs": [
        {
          "indexed": true,
          "internalType": "address",
          "name": "seller",
          "type": "address"
        },
        {
          "indexed": false,
          "internalType": "uint256",
          "name": "tokensIn",
          "type": "uint256"
        },
        {
          "indexed": false,
          "internalType": "uint256",
          "name": "usdcOut",
          "type": "uint256"
        },
        {
          "indexed": false,
          "internalType": "uint256",
          "name": "newPrice",
          "type": "uint256"
        },
        {
          "indexed": false,
          "internalType": "uint256",
          "name": "realUsdcReserves",
          "type": "uint256"
        },
        {
          "indexed": false,
          "internalType": "uint256",
          "name": "realTokenSupply",
          "type": "uint256"
        },
        {
          "indexed": false,
          "internalType": "uint256",
          "name": "timestamp",
          "type": "uint256"
        }
      ],
      "name": "TokensSold",
      "type": "event"
    },
    {
      "anonymous": false,
      "inputs": [
        {
          "indexed": false,
          "internalType": "uint256",
          "name": "timestamp",
          "type": "uint256"
        }
      ],
      "name": "TradingPaused",
      "type": "event"
    },
    {
      "anonymous": false,
      "inputs": [
        {
          "indexed": false,
          "internalType": "uint256",
          "name": "timestamp",
          "type": "uint256"
        }
      ],
      "name": "TradingUnpaused",
      "type": "event"
    },
    {
      "anonymous": false,
      "inputs": [
        {
          "indexed": true,
          "internalType": "address",
          "name": "from",
          "type": "address"
        },
        {
          "indexed": true,
          "internalType": "address",
          "name": "to",
          "type": "address"
        },
        {
          "indexed": false,
          "internalType": "uint256",
          "name": "value",
          "type": "uint256"
        }
      ],
      "name": "Transfer",
      "type": "event"
    },
    {
      "anonymous": false,
      "inputs": [
        {
          "indexed": false,
          "internalType": "address",
          "name": "account",
          "type": "address"
        }
      ],
      "name": "Unpaused",
      "type": "event"
    },
    {
      "inputs": [],
      "name": "CREATOR_RESERVE_SUPPLY",
      "outputs": [
        {
          "internalType": "uint256",
          "name": "",
          "type": "uint256"
        }
      ],
      "stateMutability": "view",
      "type": "function"
    },
    {
      "inputs": [],
      "name": "CURVE_SUPPLY",
      "outputs": [
        {
          "internalType": "uint256",
          "name": "",
          "type": "uint256"
        }
      ],
      "stateMutability": "view",
      "type": "function"
    },
    {
      "inputs": [],
      "name": "DOMAIN_SEPARATOR",
      "outputs": [
        {
          "internalType": "bytes32",
          "name": "",
          "type": "bytes32"
        }
      ],
      "stateMutability": "view",
      "type": "function"
    },
    {
      "inputs": [],
      "name": "GRADUATION_COOLDOWN",
      "outputs": [
        {
          "internalType": "uint256",
          "name": "",
          "type": "uint256"
        }
      ],
      "stateMutability": "view",
      "type": "function"
    },
    {
      "inputs": [],
      "name": "GRADUATION_THRESHOLD",
      "outputs": [
        {
          "internalType": "uint256",
          "name": "",
          "type": "uint256"
        }
      ],
      "stateMutability": "view",
      "type": "function"
    },
    {
      "inputs": [],
      "name": "LIQUIDITY_SUPPLY",
      "outputs": [
        {
          "internalType": "uint256",
          "name": "",
          "type": "uint256"
        }
      ],
      "stateMutability": "view",
      "type": "function"
    },
    {
      "inputs": [],
      "name": "MAX_SUPPLY",
      "outputs": [
        {
          "internalType": "uint256",
          "name": "",
          "type": "uint256"
        }
      ],
      "stateMutability": "view",
      "type": "function"
    },
    {
      "inputs": [],
      "name": "USDC",
      "outputs": [
        {
          "internalType": "contract IERC20",
          "name": "",
          "type": "address"
        }
      ],
      "stateMutability": "view",
      "type": "function"
    },
    {
      "inputs": [],
      "name": "VIRTUAL_TOKENS",
      "outputs": [
        {
          "internalType": "uint256",
          "name": "",
          "type": "uint256"
        }
      ],
      "stateMutability": "view",
      "type": "function"
    },
    {
      "inputs": [],
      "name": "VIRTUAL_USDC",
      "outputs": [
        {
          "internalType": "uint256",
          "name": "",
          "type": "uint256"
        }
      ],
      "stateMutability": "view",
      "type": "function"
    },
    {
      "inputs": [
        {
          "internalType": "address",
          "name": "owner",
          "type": "address"
        },
        {
          "internalType": "address",
          "name": "spender",
          "type": "address"
        }
      ],
      "name": "allowance",
      "outputs": [
        {
          "internalType": "uint256",
          "name": "",
          "type": "uint256"
        }
      ],
      "stateMutability": "view",
      "type": "function"
    },
    {
      "inputs": [
        {
          "internalType": "address",
          "name": "spender",
          "type": "address"
        },
        {
          "internalType": "uint256",
          "name": "value",
          "type": "uint256"
        }
      ],
      "name": "approve",
      "outputs": [
        {
          "internalType": "bool",
          "name": "",
          "type": "bool"
        }
      ],
      "stateMutability": "nonpayable",
      "type": "function"
    },
    {
      "inputs": [
        {
          "internalType": "address",
          "name": "account",
          "type": "address"
        }
      ],
      "name": "balanceOf",
      "outputs": [
        {
          "internalType": "uint256",
          "name": "",
          "type": "uint256"
        }
      ],
      "stateMutability": "view",
      "type": "function"
    },
    {
      "inputs": [
        {
          "internalType": "uint256",
          "name": "usdcAmount",
          "type": "uint256"
        },
        {
          "internalType": "uint256",
          "name": "minTokensOut",
          "type": "uint256"
        }
      ],
      "name": "buy",
      "outputs": [],
      "stateMutability": "nonpayable",
      "type": "function"
    },
    {
      "inputs": [
        {
          "internalType": "address",
          "name": "receiver",
          "type": "address"
        },
        {
          "internalType": "uint256",
          "name": "usdcAmount",
          "type": "uint256"
        },
        {
          "internalType": "uint256",
          "name": "minTokensOut",
          "type": "uint256"
        },
        {
          "internalType": "uint256",
          "name": "deadline",
          "type": "uint256"
        },
        {
          "internalType": "uint8",
          "name": "v",
          "type": "uint8"
        },
        {
          "internalType": "bytes32",
          "name": "r",
          "type": "bytes32"
        },
        {
          "internalType": "bytes32",
          "name": "s",
          "type": "bytes32"
        }
      ],
      "name": "buyOnBehalf",
      "outputs": [],
      "stateMutability": "nonpayable",
      "type": "function"
    },
    {
      "inputs": [
        {
          "internalType": "uint256",
          "name": "usdcAmount",
          "type": "uint256"
        },
        {
          "internalType": "uint256",
          "name": "minTokensOut",
          "type": "uint256"
        },
        {
          "internalType": "uint256",
          "name": "deadline",
          "type": "uint256"
        },
        {
          "internalType": "uint8",
          "name": "v",
          "type": "uint8"
        },
        {
          "internalType": "bytes32",
          "name": "r",
          "type": "bytes32"
        },
        {
          "internalType": "bytes32",
          "name": "s",
          "type": "bytes32"
        }
      ],
      "name": "buyWithPermit",
      "outputs": [],
      "stateMutability": "nonpayable",
      "type": "function"
    },
    {
      "inputs": [
        {
          "internalType": "uint256",
          "name": "usdcIn",
          "type": "uint256"
        }
      ],
      "name": "calculateTokensOut",
      "outputs": [
        {
          "internalType": "uint256",
          "name": "",
          "type": "uint256"
        }
      ],
      "stateMutability": "view",
      "type": "function"
    },
    {
      "inputs": [
        {
          "internalType": "uint256",
          "name": "tokensOut",
          "type": "uint256"
        }
      ],
      "name": "calculateUsdcIn",
      "outputs": [
        {
          "internalType": "uint256",
          "name": "",
          "type": "uint256"
        }
      ],
      "stateMutability": "view",
      "type": "function"
    },
    {
      "inputs": [
        {
          "internalType": "uint256",
          "name": "tokensIn",
          "type": "uint256"
        }
      ],
      "name": "calculateUsdcOut",
      "outputs": [
        {
          "internalType": "uint256",
          "name": "",
          "type": "uint256"
        }
      ],
      "stateMutability": "view",
      "type": "function"
    },
    {
      "inputs": [
        {
          "internalType": "uint256",
          "name": "tokensIn",
          "type": "uint256"
        }
      ],
      "name": "calculateUsdcOutWithFee",
      "outputs": [
        {
          "internalType": "uint256",
          "name": "",
          "type": "uint256"
        },
        {
          "internalType": "uint256",
          "name": "",
          "type": "uint256"
        }
      ],
      "stateMutability": "view",
      "type": "function"
    },
    {
      "inputs": [],
      "name": "config",
      "outputs": [
        {
          "internalType": "address",
          "name": "",
          "type": "address"
        }
      ],
      "stateMutability": "view",
      "type": "function"
    },
    {
      "inputs": [],
      "name": "creator",
      "outputs": [
        {
          "internalType": "address",
          "name": "",
          "type": "address"
        }
      ],
      "stateMutability": "view",
      "type": "function"
    },
    {
      "inputs": [],
      "name": "decimals",
      "outputs": [
        {
          "internalType": "uint8",
          "name": "",
          "type": "uint8"
        }
      ],
      "stateMutability": "view",
      "type": "function"
    },
    {
      "inputs": [],
      "name": "eip712Domain",
      "outputs": [
        {
          "internalType": "bytes1",
          "name": "fields",
          "type": "bytes1"
        },
        {
          "internalType": "string",
          "name": "name",
          "type": "string"
        },
        {
          "internalType": "string",
          "name": "version",
          "type": "string"
        },
        {
          "internalType": "uint256",
          "name": "chainId",
          "type": "uint256"
        },
        {
          "internalType": "address",
          "name": "verifyingContract",
          "type": "address"
        },
        {
          "internalType": "bytes32",
          "name": "salt",
          "type": "bytes32"
        },
        {
          "internalType": "uint256[]",
          "name": "extensions",
          "type": "uint256[]"
        }
      ],
      "stateMutability": "view",
      "type": "function"
    },
    {
      "inputs": [],
      "name": "emergencyWithdraw",
      "outputs": [],
      "stateMutability": "nonpayable",
      "type": "function"
    },
    {
      "inputs": [],
      "name": "forceGraduate",
      "outputs": [],
      "stateMutability": "nonpayable",
      "type": "function"
    },
    {
      "inputs": [],
      "name": "getBondingCurveMaxSupply",
      "outputs": [
        {
          "internalType": "uint256",
          "name": "",
          "type": "uint256"
        }
      ],
      "stateMutability": "view",
      "type": "function"
    },
    {
      "inputs": [],
      "name": "getCurrentPrice",
      "outputs": [
        {
          "internalType": "uint256",
          "name": "",
          "type": "uint256"
        }
      ],
      "stateMutability": "view",
      "type": "function"
    },
    {
      "inputs": [],
      "name": "getLiquiditySupply",
      "outputs": [
        {
          "internalType": "uint256",
          "name": "",
          "type": "uint256"
        }
      ],
      "stateMutability": "view",
      "type": "function"
    },
    {
      "inputs": [],
      "name": "getReserves",
      "outputs": [
        {
          "internalType": "uint256",
          "name": "usdcReserves",
          "type": "uint256"
        },
        {
          "internalType": "uint256",
          "name": "tokenSupply",
          "type": "uint256"
        },
        {
          "internalType": "uint256",
          "name": "virtualUsdc",
          "type": "uint256"
        },
        {
          "internalType": "uint256",
          "name": "virtualTokens",
          "type": "uint256"
        }
      ],
      "stateMutability": "view",
      "type": "function"
    },
    {
      "inputs": [],
      "name": "getTotalMaxSupply",
      "outputs": [
        {
          "internalType": "uint256",
          "name": "",
          "type": "uint256"
        }
      ],
      "stateMutability": "view",
      "type": "function"
    },
    {
      "inputs": [],
      "name": "getTradeLimits",
      "outputs": [
        {
          "internalType": "uint256",
          "name": "_maxTradeSize",
          "type": "uint256"
        },
        {
          "internalType": "uint256",
          "name": "_maxSellPercentage",
          "type": "uint256"
        },
        {
          "internalType": "uint256",
          "name": "_whaleThreshold",
          "type": "uint256"
        },
        {
          "internalType": "uint256",
          "name": "_whaleDelay",
          "type": "uint256"
        },
        {
          "internalType": "uint256",
          "name": "currentMaxSellTokens",
          "type": "uint256"
        }
      ],
      "stateMutability": "view",
      "type": "function"
    },
    {
      "inputs": [],
      "name": "hasGraduated",
      "outputs": [
        {
          "internalType": "bool",
          "name": "",
          "type": "bool"
        }
      ],
      "stateMutability": "view",
      "type": "function"
    },
    {
      "inputs": [],
      "name": "lastGraduationAttempt",
      "outputs": [
        {
          "internalType": "uint256",
          "name": "",
          "type": "uint256"
        }
      ],
      "stateMutability": "view",
      "type": "function"
    },
    {
      "inputs": [],
      "name": "launchTime",
      "outputs": [
        {
          "internalType": "uint256",
          "name": "",
          "type": "uint256"
        }
      ],
      "stateMutability": "view",
      "type": "function"
    },
    {
      "inputs": [],
      "name": "launcher",
      "outputs": [
        {
          "internalType": "address",
          "name": "",
          "type": "address"
        }
      ],
      "stateMutability": "view",
      "type": "function"
    },
    {
      "inputs": [],
      "name": "name",
      "outputs": [
        {
          "internalType": "string",
          "name": "",
          "type": "string"
        }
      ],
      "stateMutability": "view",
      "type": "function"
    },
    {
      "inputs": [
        {
          "internalType": "address",
          "name": "owner",
          "type": "address"
        }
      ],
      "name": "nonces",
      "outputs": [
        {
          "internalType": "uint256",
          "name": "",
          "type": "uint256"
        }
      ],
      "stateMutability": "view",
      "type": "function"
    },
    {
      "inputs": [],
      "name": "pause",
      "outputs": [],
      "stateMutability": "nonpayable",
      "type": "function"
    },
    {
      "inputs": [],
      "name": "paused",
      "outputs": [
        {
          "internalType": "bool",
          "name": "",
          "type": "bool"
        }
      ],
      "stateMutability": "view",
      "type": "function"
    },
    {
      "inputs": [
        {
          "internalType": "address",
          "name": "owner",
          "type": "address"
        },
        {
          "internalType": "address",
          "name": "spender",
          "type": "address"
        },
        {
          "internalType": "uint256",
          "name": "value",
          "type": "uint256"
        },
        {
          "internalType": "uint256",
          "name": "deadline",
          "type": "uint256"
        },
        {
          "internalType": "uint8",
          "name": "v",
          "type": "uint8"
        },
        {
          "internalType": "bytes32",
          "name": "r",
          "type": "bytes32"
        },
        {
          "internalType": "bytes32",
          "name": "s",
          "type": "bytes32"
        }
      ],
      "name": "permit",
      "outputs": [],
      "stateMutability": "nonpayable",
      "type": "function"
    },
    {
      "inputs": [],
      "name": "protection",
      "outputs": [
        {
          "internalType": "address",
          "name": "",
          "type": "address"
        }
      ],
      "stateMutability": "view",
      "type": "function"
    },
    {
      "inputs": [],
      "name": "realTokenSupply",
      "outputs": [
        {
          "internalType": "uint256",
          "name": "",
          "type": "uint256"
        }
      ],
      "stateMutability": "view",
      "type": "function"
    },
    {
      "inputs": [],
      "name": "realUsdcReserves",
      "outputs": [
        {
          "internalType": "uint256",
          "name": "",
          "type": "uint256"
        }
      ],
      "stateMutability": "view",
      "type": "function"
    },
    {
      "inputs": [
        {
          "internalType": "uint256",
          "name": "tokensIn",
          "type": "uint256"
        },
        {
          "internalType": "uint256",
          "name": "minUsdcOut",
          "type": "uint256"
        }
      ],
      "name": "sell",
      "outputs": [],
      "stateMutability": "nonpayable",
      "type": "function"
    },
    {
      "inputs": [],
      "name": "symbol",
      "outputs": [
        {
          "internalType": "string",
          "name": "",
          "type": "string"
        }
      ],
      "stateMutability": "view",
      "type": "function"
    },
    {
      "inputs": [],
      "name": "totalSupply",
      "outputs": [
        {
          "internalType": "uint256",
          "name": "",
          "type": "uint256"
        }
      ],
      "stateMutability": "view",
      "type": "function"
    },
    {
      "inputs": [
        {
          "internalType": "address",
          "name": "to",
          "type": "address"
        },
        {
          "internalType": "uint256",
          "name": "value",
          "type": "uint256"
        }
      ],
      "name": "transfer",
      "outputs": [
        {
          "internalType": "bool",
          "name": "",
          "type": "bool"
        }
      ],
      "stateMutability": "nonpayable",
      "type": "function"
    },
    {
      "inputs": [
        {
          "internalType": "address",
          "name": "from",
          "type": "address"
        },
        {
          "internalType": "address",
          "name": "to",
          "type": "address"
        },
        {
          "internalType": "uint256",
          "name": "value",
          "type": "uint256"
        }
      ],
      "name": "transferFrom",
      "outputs": [
        {
          "internalType": "bool",
          "name": "",
          "type": "bool"
        }
      ],
      "stateMutability": "nonpayable",
      "type": "function"
    },
    {
      "inputs": [],
      "name": "unpause",
      "outputs": [],
      "stateMutability": "nonpayable",
      "type": "function"
    },
    {
      "inputs": [
        {
          "internalType": "address",
          "name": "newController",
          "type": "address"
        }
      ],
      "name": "updateController",
      "outputs": [],
      "stateMutability": "nonpayable",
      "type": "function"
    }
  ],
  "transactionHash": "0xc19e14263f8ff0353cef4c1fa33286eea003cf2bb6d5f36fbd2813f4d9537a3f",
  "args": [
    "Carbon Coin",
    "CCC",
    "0x3AB8018c12f1731cdFfdD1788B7CAF31Fd201b5B",
    "0x54F9A3f294dBd6f5a100084647bd0E6EcD4b653e",
    "0x2BB8CBAd36D52708a43DE36a9Aa2782fFa0470F1",
    "0xd7240874cf781531520ce59373624B30d788d27f",
    "0xd8bFF003AcfF6067B5F6AB1EC966eD650C6f0740",
    {
      "virtualUsdc": "5000000000",
      "virtualTokens": "6000000000000000000000000",
      "creatorReserve": "1000000000000000000000000",
      "liquiditySupply": "4500000000000000000000000",
      "curveSupply": "4500000000000000000000000",
      "maxSupply": "10000000000000000000000000",
      "graduationThreshold": "15000000000"
    }
  ],
  "numDeployments": 1,
  "solcInputHash": "4e342e65289038e2149a5138205f7d54",
  "bytecode": "0x610300806040523461095f5760009061484580380380916100208285610964565b8339810190808203926101c0841261095c5781516001600160401b03811161095a578361004e9184016109c0565b60208301519093906001600160401b03811161095657906100709184016109c0565b9161007d60408201610a14565b9161008a60608301610a14565b9261009760808401610a14565b906100a460a08501610a14565b9760e06100b360c08701610a14565b9160df190112610952576040519460e086016001600160401b0381118782101761093e57906101a09160405260e08101518752610100810151602088015261012081015160408801526101408101516060880152610160810151608088015261018081015160a0880152015160c086015260409889516101338b82610964565b60018152603160f81b602082015289516001600160401b03811161085057600354600181811c91168015610934575b602082101461083257601f81116108d5575b50806020601f821160011461086f578891610864575b508160011b916000199060031b1c1916176003555b88516001600160401b03811161085057600454600181811c91168015610846575b602082101461083257601f81116107d3575b50806020601f821160011461076e578891610763575b508160011b916000199060031b1c1916176004555b6102068a610a4d565b6101205261021381610bde565b61014052895160208b0120908160e0526020815191012080610100524660a0528b519060208201927f8b73c3c69bb8fe3d512ecc4cf759cc79239f7b179b0ffacaa9a75d522b39400f84528d83015260608201524660808201523060a082015260a0815261028260c082610964565b5190206080523060c05260016008556001600160a01b03831696871561072d576001600160a01b03169283156106e9576001600160a01b038216156106b4576001600160a01b0383161561067b5761026052336102a052610280526102c0526102e052426102405260018060a01b031660018060a01b0319600c541617600c5581516101605260208201516101805260c0604083015192836101a05260608101516101c05260808101516101e05260a081015161020052015161022052816105dc575b5050507f7dcf0b62b3d9433b7d8be4fb0f593ac11dbc31884d09ef028740aaeaa8d867fd60018060a01b0361026051169261020051926103a5610220519161039788519460a0865260a0860190610a28565b908482036020860152610a28565b938683015260608201524260808201528030930390a351613b249081610d21823960805181612df7015260a05181612eb4015260c05181612dc1015260e05181612e4601526101005181612e6c01526101205181611b5b01526101405181611b85015261016051818181611e690152818161227a01528181612804015281816128d2015281816129a70152612ab80152610180518181816102ed0152818161229f0152818161283e0152818161290b015281816129e00152612ae401526101a051816121e201526101c0518181816125700152612f1701526101e0518181816125ab01526133d1015261020051816125e601526102205181818161026901528181611a49015261363801526102405181611df6015261026051818181610601015281816108b701528181611a9601528181611d1701528181611f990152818161245a015281816124b701528181612cb601528181613028015261391e01526102805181818161114b01528181611daf01528181612b6601528181612c0701528181612f5601526132c501526102a0518181816103780152818161083201528181611a0a01528181611c5101528181611ee20152818161219b0152818161238c0152818161308b015261351801526102c05181818161066c01528181610cd4015281816110cf015281816112c3015281816116da015261344a01526102e0518181816103e40152818161096b01528181610df6015281816113b7015281816117d401528181611af501528181612fd9015261369b0152f35b50600254908082018092116106655782916002557fddf252ad1be2c89b69c2b068fc378daa952ba7f163c4a11628f55a4df523b3ef60206000928484528382528884208181540190558851908152a37f904a0b083f0255bd41f8cd7d66a07cbb7ef925ddc5c4ea304e9512cbeb83ce72846101a0518151908152426020820152a2388080610345565b634e487b7160e01b600052601160045260246000fd5b8a5162461bcd60e51b815260206004820152601260248201527124b73b30b634b210383937ba32b1ba34b7b760711b6044820152606490fd5b8a5162461bcd60e51b815260206004820152600e60248201526d496e76616c696420636f6e66696760901b6044820152606490fd5b8a5162461bcd60e51b815260206004820152601460248201527f496e76616c6964205553444320616464726573730000000000000000000000006044820152606490fd5b8a5162461bcd60e51b815260206004820152600f60248201526e24b73b30b634b21031b932b0ba37b960891b6044820152606490fd5b90508a0151386101e8565b600489528089209150601f198316895b8d8282106107bb57505090836001949392106107a2575b5050811b016004556101fd565b8c015160001960f88460031b161c191690553880610795565b6001849560209395849301518155019401920161077e565b600488527f8a35acfbc15ff81a39ae7d344fd709f28e8600b4aa8c65c6b64bfe7fe36bd19b601f830160051c81016020841061082b575b601f830160051c820181106108205750506101d2565b89815560010161080a565b508061080a565b634e487b7160e01b88526022600452602488fd5b90607f16906101c0565b634e487b7160e01b87526041600452602487fd5b90508b01513861018a565b91506003885281882088925b8d601f19841685106108be57506001935082601f198116106108a5575b5050811b0160035561019f565b8d015160001960f88460031b161c191690553880610898565b81015182556020938401936001909201910161087b565b600388527fc2575a0e9e593c00f959f8c92f12db2869c3395a3b0502d05e2516446f71f85b601f830160051c81016020841061092d575b601f830160051c82018110610922575050610174565b89815560010161090c565b508061090c565b90607f1690610162565b634e487b7160e01b86526041600452602486fd5b8380fd5b8280fd5b505b80fd5b600080fd5b601f909101601f19168101906001600160401b0382119082101761098757604052565b634e487b7160e01b600052604160045260246000fd5b60005b8381106109b05750506000910152565b81810151838201526020016109a0565b81601f8201121561095f5780516001600160401b03811161098757604051926109f3601f8301601f191660200185610964565b8184526020828401011161095f57610a11916020808501910161099d565b90565b51906001600160a01b038216820361095f57565b90602091610a418151809281855285808601910161099d565b601f01601f1916010190565b90815160208110600014610ab2575090601f815111610a89576020815191015160208210610a79571790565b6000198260200360031b1b161790565b60405163305a27a960e01b815260206004820152908190610aae906024830190610a28565b0390fd5b6001600160401b03811161098757600554600181811c91168015610bd4575b6020821014610bbe57601f8111610b88575b50602092601f8211600114610b235792819293600092610b18575b50508160011b916000199060031b1c19161760055560ff90565b015190503880610afe565b601f198216936005600052806000209160005b868110610b705750836001959610610b57575b505050811b0160055560ff90565b015160001960f88460031b161c19169055388080610b49565b91926020600181928685015181550194019201610b36565b6005600052601f6020600020910160051c810190601f830160051c015b818110610bb25750610ae3565b60008155600101610ba5565b634e487b7160e01b600052602260045260246000fd5b90607f1690610ad1565b90815160208110600014610c0a575090601f815111610a89576020815191015160208210610a79571790565b6001600160401b03811161098757600654600181811c91168015610d16575b6020821014610bbe57601f8111610ce0575b50602092601f8211600114610c7b5792819293600092610c70575b50508160011b916000199060031b1c19161760065560ff90565b015190503880610c56565b601f198216936006600052806000209160005b868110610cc85750836001959610610caf575b505050811b0160065560ff90565b015160001960f88460031b161c19169055388080610ca1565b91926020600181928685015181550194019201610c8e565b6006600052601f6020600020910160051c810190601f830160051c015b818110610d0a5750610c3b565b60008155600101610cfd565b90607f1690610c2956fe608080604052600436101561001357600080fd5b600090813560e01c90816302d05d3f146124a35750806306cb5b661461236f57806306fdde03146122c85780630902f1ac14612252578063090c8ba31461222c578063095ea7b3146122055780630ce0c956146121ca57806316eebd1e1461218557806318160ddd146121675780631b35851914611ffd5780631e4c7292146102ad57806322f012841461213c57806323b872dd1461205b57806324cc5f331461203c5780632ceb2faa1461201e578063313ce567146120025780633272f50514611ffd57806332cb6b0c1461108c5780633644e51514611fe25780633f4ba83a14611ece5780634fa1f10414611eaf5780635c975abb14611e8c5780636fb8320d14611e5157806370a0823114611e19578063790ca41314611dde57806379502c5514611d995780637ecebe0014611d605780638456cb5914611c3d57806384b0196e14611b41578063878e1d4514611b2457806389a3027114611adf57806391471e6c146119f6578063946f9c3e1461169157806395d89b41146115ae57806396eec7f21461128f578063a0855afa14611271578063a9059cbb1461123f578063a9952b8d146110fe578063b8aed8ee146110b9578063bbffa97914611091578063c9af1a6d1461108c578063d505accf14610f46578063d6febde814610cb2578063d79875eb1461064a578063db2e21bc14610365578063dd62ed3e14610310578063e90ceb9f146102d5578063eb91d37e146102b2578063f5300a44146102ad578063fa6c75841461028f5763fcfc0c091461025257600080fd5b3461028c578060031936011261028c5760206040517f00000000000000000000000000000000000000000000000000000000000000008152f35b80fd5b503461028c578060031936011261028c576020600b54604051908152f35b612593565b503461028c578060031936011261028c5760206102cd612ab0565b604051908152f35b503461028c578060031936011261028c5760206040517f00000000000000000000000000000000000000000000000000000000000000008152f35b503461028c57604036600319011261028c57604061032c6124e6565b91610335612501565b9260018060a01b031681526001602052209060018060a01b03166000526020526020604060002054604051908152f35b503461028c578060031936011261028c577f00000000000000000000000000000000000000000000000000000000000000006001600160a01b038116903382141580610630575b806105fd575b6105ef5760ff600c5460a01c166105e05760ff60095416156105a4576040516370a0823160e01b8152306004820152907f00000000000000000000000000000000000000000000000000000000000000006001600160a01b031690602083602481855afa92831561059957859361055e575b5060405163a9059cbb60e01b81526001600160a01b0391909116600482015260248101839052906020908290604490829088905af1908115610553578491610515575b50156104dc5760407fbb757047c2b5f3974fe26b7c10f732e7bce710b0952a71082702781e62ae0595918151908152426020820152a27f66e45f56ba7de695fa8cdac194a133e74234cae0e5f6c77c5dd10b6b279cb16e6080604051838152836020820152836040820152426060820152a180f35b60405162461bcd60e51b815260206004820152601160248201527015da5d1a191c985dd85b0819985a5b1959607a1b6044820152606490fd5b90506020813d60201161054b575b8161053060209383612756565b810103126105475761054190612a3f565b38610467565b8380fd5b3d9150610523565b6040513d86823e3d90fd5b909192506020813d602011610591575b8161057b60209383612756565b8101031261058d575191906020610424565b8480fd5b3d915061056e565b6040513d87823e3d90fd5b60405162461bcd60e51b8152602060048201526014602482015273135d5cdd081899481c185d5cd95908199a5c9cdd60621b6044820152606490fd5b63e6a0d45f60e01b8352600483fd5b6282b42960e81b8352600483fd5b50337f00000000000000000000000000000000000000000000000000000000000000006001600160a01b031614156103b2565b506001600160a01b03610641612b51565b163314156103ac565b503461028c5761065936612619565b90610662613244565b61066a613266565b7f00000000000000000000000000000000000000000000000000000000000000006001600160a01b031691823b1561054757604051631c620cb960e11b815230600482015284908181602481885afa8015610bd057610c9d575b505060ff600c5460a01c16610c8e578115610c7f573384528360205281604085205410610c7f576106f4826127db565b90916107008284612778565b60405190635f7567ff60e01b825230600483015233602483015260448201528660648201526040816084818a8a5af18015610c745787918891610c43575b5081610c3a575b50610c2b578210610c1c5761075a8183612778565b600a54809111610c0d578590610782610771612ab0565b9161077c8587612778565b9061279b565b600a5561079185600b5461279b565b600b5561079c612ab0565b95803b15610bf4576040516309b3fba760e21b81523060048201523360248201528260448201528760648201528560848201528360a4820152838160c48183865af1908115610553578491610bf8575b5050803b15610bf457604051633ab1d58360e21b815230600482015260248101889052604481019290925282908290606490829084905af18015610bd057610bdf575b507f00000000000000000000000000000000000000000000000000000000000000009050856001600160a01b038216803b15610bdb57604051636a754df160e01b8152306004820152336024820152604481018790526064810185905260848101869052908290829060a490829084905af18015610bd057610bb7575b50503315610ba357337f00000000000000000000000000000000000000000000000000000000000000006001600160a01b03161480610b9c575b80610b8c575b610b7d57338652856020526040862054848110610b62578490338852876020520360408720558360025403600255856040518581527fddf252ad1be2c89b69c2b068fc378daa952ba7f163c4a11628f55a4df523b3ef60203392a360405163a9059cbb60e01b8152336004820152602481018490526001600160a01b037f00000000000000000000000000000000000000000000000000000000000000001691906020816044818b875af18015610b57578890610b18575b6109ae9150612a4c565b82610a5f575b505050610a54600080516020613acf83398151915293600a54927fa3afd433eaa98ecd7cf80a2ca5f5576d84a37b5b410d59fa102332cc15283da4610a2c600b549660405191829189898833984294879260a094919796959260c0850198855260208501526040840152606083015260808201520152565b0390a26040519384934292859094939260609260808301968352602083015260408201520152565b0390a1600160085580f35b60405163a9059cbb60e01b81526001600160a01b0391909116600482015260248101929092526020908290604490829089905af1908115610599578591610ac5575b50600080516020613acf83398151915293610abe610a549261335f565b93386109b4565b90506020813d602011610b10575b81610ae060209383612756565b8101031261058d57600080516020613acf83398151915293610abe610b07610a5493612a3f565b92505093610aa1565b3d9150610ad3565b506020813d602011610b4f575b81610b3260209383612756565b81010312610b4b57610b466109ae91612a3f565b6109a4565b8780fd5b3d9150610b25565b6040513d8a823e3d90fd5b63391434e360e21b8752336004526024526044849052606486fd5b6316df206560e01b8652600486fd5b5060ff600c5460a01c16156108ec565b50856108e6565b634b637e8f60e11b86526004869052602486fd5b81610bc191612756565b610bcc5785386108ac565b8580fd5b6040513d84823e3d90fd5b5080fd5b81610be991612756565b61058d57843861082f565b8280fd5b81610c0291612756565b610bf45782386107ec565b63bb55fd2760e01b8652600486fd5b63428637bb60e11b8552600485fd5b63c154fd2d60e01b8652600486fd5b90501538610745565b9050610c67915060403d604011610c6d575b610c5f8183612756565b810190612a8f565b3861073e565b503d610c55565b6040513d89823e3d90fd5b63162908e360e11b8452600484fd5b63e6a0d45f60e01b8452600484fd5b81610ca791612756565b6105475783386106c4565b503461028c57610cc136612619565b90610cca613244565b610cd2613266565b7f00000000000000000000000000000000000000000000000000000000000000006001600160a01b0316803b1561054757604051631260e74560e01b81528490818180610d2487333060048501612a16565b038183875af18015610bd057610f31575b5050803b1561054757604051631c620cb960e11b815230600482015284908181602481865afa8015610bd057610f1c575b5050803b156105475760405163448658fb60e11b81523060048201523360248201526044810183905284908181606481865afa8015610bd057610f07575b5050610dae613283565b60ff600c5460a01c16610ef857608001518210610c7f576040516323b872dd60e01b815233600482015230602482015260448101839052602081606481886001600160a01b037f0000000000000000000000000000000000000000000000000000000000000000165af18015610599578590610ebd575b610e2f9150612a4c565b60408051635f7567ff60e01b8152918290818781610e5288333060048501612a16565b03925af180156105535784918591610e9c575b5081610e93575b50610e845790610e7c91336133a1565b600160085580f35b63c154fd2d60e01b8352600483fd5b90501538610e6c565b9050610eb7915060403d604011610c6d57610c5f8183612756565b38610e65565b506020813d602011610ef0575b81610ed760209383612756565b8101031261058d57610eeb610e2f91612a3f565b610e25565b3d9150610eca565b63e6a0d45f60e01b8552600485fd5b81610f1191612756565b610547578338610da4565b81610f2691612756565b610547578338610d66565b81610f3b91612756565b610547578338610d35565b503461028c5760e036600319011261028c57610f606124e6565b90610f69612501565b6044359060643593610f79612609565b854211611078576110386110419160018060a01b03841697888852600760205260408820908154916001830190556040519060208201927f6e71edae12b1b97f4d1f60370fef10105fa2faae0126114a169c64845d6126c984528b604084015260018060a01b038916606084015289608084015260a083015260c082015260c0815261100660e082612756565b519020611011612dbe565b906040519161190160f01b83526002830152602282015260c43591604260a43592206139bd565b90929192613a46565b6001600160a01b031694808603611061575061105e9394506137de565b80f35b6325c0072360e11b85526004869052602452604484fd5b63313c898160e11b85526004869052602485fd5b6125ce565b503461028c57602036600319011261028c5760206110b06004356127db565b50604051908152f35b503461028c578060031936011261028c576040517f00000000000000000000000000000000000000000000000000000000000000006001600160a01b03168152602090f35b503461028c578060031936011261028c5780606060405161111e816126ec565b8281528260208201528260408201520152604051637e529df560e11b815260808160048160018060a01b037f0000000000000000000000000000000000000000000000000000000000000000165afa9182156112335780926111d1575b8260408101516111cd606083015192602081519101516127106111a086600b546127a8565b0491604051958695869192608093969594919660a084019784526020840152604083015260608201520152565b0390f35b9091506080823d60801161122b575b816111ed60809383612756565b8101031261028c5750606060405191611205836126ec565b80518352602081015160208401526040810151604084015201516060820152388061117b565b3d91506111e0565b604051903d90823e3d90fd5b503461028c57604036600319011261028c5761126661125c6124e6565b6024359033612c94565b602060405160018152f35b503461028c578060031936011261028c576020600a54604051908152f35b503461028c5760c036600319011261028c5760043560643560ff81168103610bf4576112b9613244565b6112c1613266565b7f00000000000000000000000000000000000000000000000000000000000000006001600160a01b031690813b1561054757604051631260e74560e01b8152849081818061131488333060048501612a16565b038183885af18015610bd057611599575b5050813b1561054757604051631c620cb960e11b815230600482015284908181602481875afa8015610bd057611584575b5050813b156105475760405163448658fb60e11b81523060048201523360248201526044810184905284908181606481875afa8015610bd05761156f575b505061139e613283565b60ff600c5460a01c16610ef857608001518310610c7f577f00000000000000000000000000000000000000000000000000000000000000006001600160a01b0316908490823b15610bdb5760405163d505accf60e01b8152336004820152306024820152604480820187905235606482015260ff919091166084808301919091523560a4808301919091523560c4820152818160e48183875af18015610bd05761155a575b50506040516323b872dd60e01b815233600482015230602482015260448101849052906020908290606490829088905af1801561055357849061151f575b61148b9150612a4c565b60408051635f7567ff60e01b81529182908186816114ae88333060048501612a16565b03925af1801561151457839184916114f3575b50816114ea575b506114db57610e7c9060243590336133a1565b63c154fd2d60e01b8252600482fd5b905015386114c8565b905061150e915060403d604011610c6d57610c5f8183612756565b386114c1565b6040513d85823e3d90fd5b506020813d602011611552575b8161153960209383612756565b810103126105475761154d61148b91612a3f565b611481565b3d915061152c565b8161156491612756565b610547578338611443565b8161157991612756565b610547578338611394565b8161158e91612756565b610547578338611356565b816115a391612756565b610547578338611325565b503461028c578060031936011261028c576040519080600454906115d18261262f565b808552916001811690811561166a575060011461160d575b6111cd846115f981860382612756565b604051918291602083526020830190612517565b600481527f8a35acfbc15ff81a39ae7d344fd709f28e8600b4aa8c65c6b64bfe7fe36bd19b939250905b808210611650575090915081016020016115f9826115e9565b919260018160209254838588010152019101909291611637565b60ff191660208087019190915292151560051b850190920192506115f991508390506115e9565b503461028c5760e036600319011261028c576116ab6124e6565b6024356116b6612609565b6116be613244565b6116c6613266565b600c546001600160a01b031633036119e8577f00000000000000000000000000000000000000000000000000000000000000006001600160a01b031690813b1561058d57604051631260e74560e01b815285818061172987893060048501612a16565b038183875af180156119dd576119c9575b50813b1561058d57604051631c620cb960e11b815230600482015285908181602481875afa8015610bd0576119b4575b5050813b1561058d5760405163448658fb60e11b81523060048201526001600160a01b03851660248201526044810184905285908181606481875afa8015610bd05761199f575b50506117bb613283565b60ff600c5460a01c1661199057608001518310611981577f00000000000000000000000000000000000000000000000000000000000000006001600160a01b0316908590823b15610bdb5760405163d505accf60e01b81526001600160a01b038716600482015230602482015260448101869052606480359082015260ff91909116608482015260a480359082015260c4803590820152818160e48183875af18015610bd05761196c575b50506040516323b872dd60e01b81526001600160a01b038516600482015230602482015260448101849052906020908290606490829089905af18015610599578590611931575b6118b79150612a4c565b60408051635f7567ff60e01b81529182908187816118da888a3060048501612a16565b03925af180156105535784918591611910575b5081611907575b50610e845790610e7c91604435916133a1565b905015386118f4565b905061192b915060403d604011610c6d57610c5f8183612756565b386118ed565b506020813d602011611964575b8161194b60209383612756565b8101031261058d5761195f6118b791612a3f565b6118ad565b3d915061193e565b8161197691612756565b61058d578438611866565b63162908e360e11b8552600485fd5b63e6a0d45f60e01b8652600486fd5b816119a991612756565b61058d5784386117b1565b816119be91612756565b61058d57843861176a565b856119d691969296612756565b933861173a565b6040513d88823e3d90fd5b6282b42960e81b8452600484fd5b503461028c578060031936011261028c57337f00000000000000000000000000000000000000000000000000000000000000006001600160a01b0316141580611ac5575b80611a92575b611a8457600a547f000000000000000000000000000000000000000000000000000000000000000011611a755761105e612eda565b63bb55fd2760e01b8152600490fd5b6282b42960e81b8152600490fd5b50337f00000000000000000000000000000000000000000000000000000000000000006001600160a01b03161415611a40565b506001600160a01b03611ad6612b51565b16331415611a3a565b503461028c578060031936011261028c576040517f00000000000000000000000000000000000000000000000000000000000000006001600160a01b03168152602090f35b503461028c578060031936011261028c576020604051610e108152f35b503461028c578060031936011261028c57611be190611b7f7f0000000000000000000000000000000000000000000000000000000000000000613871565b90611ba97f00000000000000000000000000000000000000000000000000000000000000006138d5565b906020611bef60405193611bbd8386612756565b83855283368137604051968796600f60f81b885260e08589015260e0880190612517565b908682036040880152612517565b904660608601523060808601528260a086015284820360c08601528080855193848152019401925b828110611c2657505050500390f35b835185528695509381019392810192600101611c17565b503461028c578060031936011261028c57337f00000000000000000000000000000000000000000000000000000000000000006001600160a01b0316141580611d46575b80611d13575b611a845760ff600c5460a01c16611d0457611ca0613266565b600160ff1960095416176009557f62e78cea01bee320cd4e420270b5ea74000d11b0c9f74754ebdbfc544b05a2586020604051338152a17f2373bf0304c12814b4e5027ba93d4676ec582cac29b464df6e01b17a44705ee96020604051428152a180f35b63e6a0d45f60e01b8152600490fd5b50337f00000000000000000000000000000000000000000000000000000000000000006001600160a01b03161415611c87565b506001600160a01b03611d57612b51565b16331415611c81565b503461028c57602036600319011261028c576020906040906001600160a01b03611d886124e6565b168152600783522054604051908152f35b503461028c578060031936011261028c576040517f00000000000000000000000000000000000000000000000000000000000000006001600160a01b03168152602090f35b503461028c578060031936011261028c5760206040517f00000000000000000000000000000000000000000000000000000000000000008152f35b503461028c57602036600319011261028c576020906040906001600160a01b03611e416124e6565b1681528083522054604051908152f35b503461028c578060031936011261028c5760206040517f00000000000000000000000000000000000000000000000000000000000000008152f35b503461028c578060031936011261028c57602060ff600954166040519015158152f35b503461028c57602036600319011261028c5760206102cd600435612975565b503461028c578060031936011261028c57337f00000000000000000000000000000000000000000000000000000000000000006001600160a01b0316141580611fc8575b80611f95575b611a845760095460ff811615611f865760ff19166009557f5db9ee0a495bf2e6ff9c91a7834c1ba4fdd244a5e8aa4e537bd38aeae4b073aa6020604051338152a17f21d78858c9357036e26ecdac6bd821a57e3a7a5cf66ef4d7ed37dc02eb36131e6020604051428152a180f35b638dfc202b60e01b8252600482fd5b50337f00000000000000000000000000000000000000000000000000000000000000006001600160a01b03161415611f18565b506001600160a01b03611fd9612b51565b16331415611f12565b503461028c578060031936011261028c5760206102cd612dbe565b612558565b503461028c578060031936011261028c57602060405160128152f35b503461028c578060031936011261028c576020600d54604051908152f35b503461028c57602036600319011261028c5760206102cd6004356128bb565b503461028c57606036600319011261028c576120756124e6565b61207d612501565b6001600160a01b038216808452600160209081526040808620338752909152842054604435939160001982106120ba575b50506112669350612c94565b84821061212157801561210d5733156120f95760408686926112669852600160205281812060018060a01b0333168252602052209103905538806120ae565b634a1406b160e11b86526004869052602486fd5b63e602df0560e01b86526004869052602486fd5b6064868684637dc7a0d960e11b835233600452602452604452fd5b503461028c57602036600319011261028c57604061215b6004356127db565b82519182526020820152f35b503461028c578060031936011261028c576020600254604051908152f35b503461028c578060031936011261028c576040517f00000000000000000000000000000000000000000000000000000000000000006001600160a01b03168152602090f35b503461028c578060031936011261028c5760206040517f00000000000000000000000000000000000000000000000000000000000000008152f35b503461028c57604036600319011261028c576112666122226124e6565b60243590336137de565b503461028c578060031936011261028c57602060ff600c5460a01c166040519015158152f35b503461028c578060031936011261028c57600a54600b546040805192835260208301919091527f0000000000000000000000000000000000000000000000000000000000000000908201527f00000000000000000000000000000000000000000000000000000000000000006060820152608090f35b503461028c578060031936011261028c576040519080600354906122eb8261262f565b808552916001811690811561166a5750600114612312576111cd846115f981860382612756565b600381527fc2575a0e9e593c00f959f8c92f12db2869c3395a3b0502d05e2516446f71f85b939250905b808210612355575090915081016020016115f9826115e9565b91926001816020925483858801015201910190929161233c565b503461028c57602036600319011261028c576123896124e6565b337f00000000000000000000000000000000000000000000000000000000000000006001600160a01b0316141580612489575b80612456575b612448576001600160a01b0316801561240e57600c80546001600160a01b031916821790557f1304018cfe79741dcf02ba6b61d39cc4757d59395d03224d9925c7aa830021468280a280f35b60405162461bcd60e51b815260206004820152601260248201527124b73b30b634b21031b7b73a3937b63632b960711b6044820152606490fd5b6282b42960e81b8252600482fd5b50337f00000000000000000000000000000000000000000000000000000000000000006001600160a01b031614156123c2565b506001600160a01b0361249a612b51565b163314156123bc565b905034610bdb5781600319360112610bdb577f00000000000000000000000000000000000000000000000000000000000000006001600160a01b03168152602090f35b600435906001600160a01b03821682036124fc57565b600080fd5b602435906001600160a01b03821682036124fc57565b919082519283825260005b848110612543575050826000602080949584010152601f8019910116010190565b80602080928401015182828601015201612522565b346124fc5760003660031901126124fc5760206040517f00000000000000000000000000000000000000000000000000000000000000008152f35b346124fc5760003660031901126124fc5760206040517f00000000000000000000000000000000000000000000000000000000000000008152f35b346124fc5760003660031901126124fc5760206040517f00000000000000000000000000000000000000000000000000000000000000008152f35b6084359060ff821682036124fc57565b60409060031901126124fc576004359060243590565b90600182811c9216801561265f575b602083101461264957565b634e487b7160e01b600052602260045260246000fd5b91607f169161263e565b600092918154916126798361262f565b80835292600181169081156126cf575060011461269557505050565b60009081526020812093945091925b8383106126b5575060209250010190565b6001816020929493945483858701015201910191906126a4565b915050602093945060ff929192191683830152151560051b010190565b6080810190811067ffffffffffffffff82111761270857604052565b634e487b7160e01b600052604160045260246000fd5b6060810190811067ffffffffffffffff82111761270857604052565b60a0810190811067ffffffffffffffff82111761270857604052565b90601f8019910116810190811067ffffffffffffffff82111761270857604052565b9190820180921161278557565b634e487b7160e01b600052601160045260246000fd5b9190820391821161278557565b8181029291811591840414171561278557565b81156127c5570490565b634e487b7160e01b600052601260045260246000fd5b9081156128b357600b54918281116128aa5761287f60209161077c6127fe612bd7565b9561287a7f000000000000000000000000000000000000000000000000000000000000000091612874600a549561077c6128388887612778565b9161286e7f000000000000000000000000000000000000000000000000000000000000000093612868878661279b565b906127a8565b9461279b565b906127bb565b61279b565b9201516127100361271081116127855761271061289f6128a792856127a8565b04809361279b565b90565b50600091508190565b600091508190565b801561296f576129426128cc612bd7565b9161287a7f000000000000000000000000000000000000000000000000000000000000000061287a600a54936128746129058685612778565b9161077c7f00000000000000000000000000000000000000000000000000000000000000009161293c600b5495612868878661279b565b94612778565b9061271082029180830461271014901517156127855751612710036127108111612785576128a7916127bb565b50600090565b801561296f57612983612bd7565b51612710036127108111612785576129a1612710916128a7936127a8565b0461287a7f000000000000000000000000000000000000000000000000000000000000000061077c600a54916128746129da8483612778565b95612a117f00000000000000000000000000000000000000000000000000000000000000009561293c600b54996128688b8a61279b565b612778565b6001600160a01b0391821681529116602082015260408101919091526001606082015260800190565b519081151582036124fc57565b15612a5357565b60405162461bcd60e51b81526020600482015260146024820152731554d110c81d1c985b9cd9995c8819985a5b195960621b6044820152606490fd5b91908260409103126124fc576128a76020612aa984612a3f565b9301612a3f565b612adc600a547f0000000000000000000000000000000000000000000000000000000000000000612778565b612b08600b547f000000000000000000000000000000000000000000000000000000000000000061279b565b670de0b6b3a7640000820291808304670de0b6b3a76400001490151715612785576128a7916127bb565b908160209103126124fc57516001600160a01b03811681036124fc5790565b604051638da5cb5b60e01b81526020816004817f00000000000000000000000000000000000000000000000000000000000000006001600160a01b03165afa908115612bcb57600091612ba2575090565b6128a7915060203d602011612bc4575b612bbc8183612756565b810190612b32565b503d612bb2565b6040513d6000823e3d90fd5b600060408051612be68161271e565b828152602081018390520152604051632fdde06960e11b81526060816004817f00000000000000000000000000000000000000000000000000000000000000006001600160a01b03165afa908115612bcb57600091612c43575090565b90506060813d606011612c8c575b81612c5e60609383612756565b810103126124fc576040805191612c748361271e565b80518352602081015160208401520151604082015290565b3d9150612c51565b6001600160a01b0316908115612da8576001600160a01b0316918215612d92577f00000000000000000000000000000000000000000000000000000000000000006001600160a01b0316821480612d8a575b80612d7a575b612d69576000828152806020526040812054828110612d4f5791604082827fddf252ad1be2c89b69c2b068fc378daa952ba7f163c4a11628f55a4df523b3ef958760209652828652038282205586815280845220818154019055604051908152a3565b916064928463391434e360e21b8452600452602452604452fd5b6316df206560e01b60005260046000fd5b5060ff600c5460a01c1615612cec565b506001612ce6565b63ec442f0560e01b600052600060045260246000fd5b634b637e8f60e11b600052600060045260246000fd5b307f00000000000000000000000000000000000000000000000000000000000000006001600160a01b03161480612eb1575b15612e19577f000000000000000000000000000000000000000000000000000000000000000090565b60405160208101907f8b73c3c69bb8fe3d512ecc4cf759cc79239f7b179b0ffacaa9a75d522b39400f82527f000000000000000000000000000000000000000000000000000000000000000060408201527f000000000000000000000000000000000000000000000000000000000000000060608201524660808201523060a082015260a08152612eab60c082612756565b51902090565b507f00000000000000000000000000000000000000000000000000000000000000004614612df0565b600c549060009160ff8160a01c166105e057600d54610e1081018091116132305742106132215742600d5560ff60a01b1916600160a01b17600c557f0000000000000000000000000000000000000000000000000000000000000000612f40813061390c565b604051636e6b4d7960e11b8152906020826004817f00000000000000000000000000000000000000000000000000000000000000006001600160a01b03165afa9182156105535784926131fc575b5080612f9e612fd49284306137de565b600a5460405163095ea7b360e01b81526001600160a01b0385166004820152602481019190915291602090839081906044820190565b0381887f00000000000000000000000000000000000000000000000000000000000000006001600160a01b03165af18015610599576131c2575b600a54604051634d5f347760e01b81526001600160a01b037f000000000000000000000000000000000000000000000000000000000000000081166004830152306024830152604482019390935260648101919091529260809250839160849183918891165af180156115145783849185938691613179575b50857f00000000000000000000000000000000000000000000000000000000000000006001600160a01b0316803b15610bdb578190602460405180948193631b76644960e31b83523060048401525af18015610c7457966131649392917f66e45f56ba7de695fa8cdac194a133e74234cae0e5f6c77c5dd10b6b279cb16e9798613169575b50507fa5ac72dccacf16dccb06c647fa5f4903727524ed8872ffc489281b3ae005f5b6610a2c61313a612ab0565b604080519485526020850188905284018590526060840152426080840152309290819060a0820190565b0390a1565b8161317391612756565b3861310c565b93505050506080813d6080116131ba575b8161319760809383612756565b81010312610bf45780516020820151604083015160609093015190919038613087565b3d915061318a565b6020823d6020116131f4575b816131db60209383612756565b8101031261058d576131ee608092612a3f565b5061300e565b3d91506131ce565b612fd491925061321a9060203d602011612bc457612bbc8183612756565b9190612f8e565b63ef4bf1cb60e01b8352600483fd5b634e487b7160e01b84526011600452602484fd5b600260085414613255576002600855565b633ee5aeb560e01b60005260046000fd5b60ff6009541661327257565b63d93c066560e01b60005260046000fd5b600060806040516132938161273a565b828152826020820152826040820152826060820152015260405163562528f760e01b815260a081600481600180851b037f0000000000000000000000000000000000000000000000000000000000000000165afa908115612bcb576000916132f9575090565b905060a0813d60a011613357575b8161331460a09383612756565b810103126124fc5760806040519161332b8361273a565b805183526020810151602084015260408101516040840152606081015160608401520151608082015290565b3d9150613307565b1561336657565b60405162461bcd60e51b8152602060048201526013602482015272119959481d1c985b9cd9995c8819985a5b1959606a1b6044820152606490fd5b929190926133ad612ab0565b936133b781612975565b9283106137cd57600b54946000956133cf8582612778565b7f0000000000000000000000000000000000000000000000000000000000000000106137be576133fd612bd7565b516127100361271081116137aa578561271061341c61343c93876127a8565b049261343461342b858861279b565b94600a54612778565b600a55612778565b600b55613447612ab0565b937f00000000000000000000000000000000000000000000000000000000000000006001600160a01b031692833b15613763576040516309b3fba760e21b81523060048201526001600160a01b03831660248201819052604482018390526064820188905260848201879052600160a483015294908a8160c48183865af1801561379f57613789575b5090818a923b15610bf457604051633ab1d58360e21b815230600482015260248101899052604481019290925282908290606490829084905af18015610bd057613774575b507f00000000000000000000000000000000000000000000000000000000000000009190506001600160a01b03821689813b1561028c5760405163525a0a3560e11b81523060048201526001600160a01b03841660248201526044810188905260648101869052608481018a9052918190839060a490829084905af191821561376757899261374a575b50506135aa9161390c565b81613669575b5050600a54600b5460408051948552602085019690965294830184905260608301819052608083018590524260a0840152949550600080516020613acf83398151915293917fb176b33ad40225c8f67dc6ef0cba96c0c88f67afd36396e2198a3f48a44fc7a09060c090a26040805192835260208301859052820152426060820152608090a17f0000000000000000000000000000000000000000000000000000000000000000111561365f57565b613667612eda565b565b60405163a9059cbb60e01b81526001600160a01b0390911660048201526024810191909152602081806044810103818a7f00000000000000000000000000000000000000000000000000000000000000006001600160a01b03165af19687156112335780976136f8575b50506136ef600080516020613acf83398151915294959661335f565b859493386135b0565b9096506020873d602011613742575b8161371460209383612756565b8101031261028c57506136ef61373a600080516020613acf833981519152959697612a3f565b9695946136d3565b3d9150613707565b8192509061375791612756565b6137635786893861359f565b8880fd5b50604051903d90823e3d90fd5b8161377e91612756565b610b4b578738613515565b8a613797919b92939b612756565b9890386134d0565b6040513d8d823e3d90fd5b634e487b7160e01b88526011600452602488fd5b63c30436e960e01b8752600487fd5b63428637bb60e11b60005260046000fd5b6001600160a01b031690811561385b576001600160a01b03169182156138455760207f8c5be1e5ebec7d5bd14f71427d1e84f3dd0314c0f7b2291e5b200ac8c7c3b925918360005260018252604060002085600052825280604060002055604051908152a3565b634a1406b160e11b600052600060045260246000fd5b63e602df0560e01b600052600060045260246000fd5b60ff81146138bb5760ff811690601f82116138aa5760408051926138958285612756565b6020808552840191601f190136833783525290565b632cd44ac360e21b60005260046000fd5b506040516128a7816138ce816005612669565b0382612756565b60ff81146138f95760ff811690601f82116138aa5760408051926138958285612756565b506040516128a7816138ce816006612669565b6001600160a01b0316908115612d92577f00000000000000000000000000000000000000000000000000000000000000006001600160a01b031615806139b5575b806139a5575b612d695761396381600254612778565b6002557fddf252ad1be2c89b69c2b068fc378daa952ba7f163c4a11628f55a4df523b3ef602060009284845283825260408420818154019055604051908152a3565b5060ff600c5460a01c1615613953565b50600161394d565b91907f7fffffffffffffffffffffffffffffff5d576e7357a4501ddfe92f46681b20a08411613a3a579160209360809260ff60009560405194855216868401526040830152606082015282805260015afa15612bcb576000516001600160a01b03811615613a2e5790600090600090565b50600090600190600090565b50505060009160039190565b9190916004811015613ab85780613a5c57509050565b600060018203613a775763f645eedf60e01b60005260046000fd5b5060028103613a95578263fce698f760e01b60005260045260246000fd5b9091600360009214613aa5575050565b6335e2f38360e21b825260045260249150fd5b634e487b7160e01b600052602160045260246000fdfe50bb505bf12befaddbb5e878fe7ff845aef673dd789600f2dda0f7c22b0fe494a26469706673582212204b7ffefb9b614ef9938bfa97144d46cc4d2c200e32ee385ed89635a9ef94f78964736f6c634300081b0033",
  "devdoc": {
    "errors": {
      "ECDSAInvalidSignature()": [
        {
          "details": "The signature derives the `address(0)`."
        }
      ],
      "ECDSAInvalidSignatureLength(uint256)": [
        {
          "details": "The signature has an invalid length."
        }
      ],
      "ECDSAInvalidSignatureS(bytes32)": [
        {
          "details": "The signature has an S value that is in the upper half order."
        }
      ],
      "ERC20InsufficientAllowance(address,uint256,uint256)": [
        {
          "details": "Indicates a failure with the `spender`s `allowance`. Used in transfers.",
          "params": {
            "allowance": "Amount of tokens a `spender` is allowed to operate with.",
            "needed": "Minimum amount required to perform a transfer.",
            "spender": "Address that may be allowed to operate on tokens without being their owner."
          }
        }
      ],
      "ERC20InsufficientBalance(address,uint256,uint256)": [
        {
          "details": "Indicates an error related to the current `balance` of a `sender`. Used in transfers.",
          "params": {
            "balance": "Current balance for the interacting account.",
            "needed": "Minimum amount required to perform a transfer.",
            "sender": "Address whose tokens are being transferred."
          }
        }
      ],
      "ERC20InvalidApprover(address)": [
        {
          "details": "Indicates a failure with the `approver` of a token to be approved. Used in approvals.",
          "params": {
            "approver": "Address initiating an approval operation."
          }
        }
      ],
      "ERC20InvalidReceiver(address)": [
        {
          "details": "Indicates a failure with the token `receiver`. Used in transfers.",
          "params": {
            "receiver": "Address to which tokens are being transferred."
          }
        }
      ],
      "ERC20InvalidSender(address)": [
        {
          "details": "Indicates a failure with the token `sender`. Used in transfers.",
          "params": {
            "sender": "Address whose tokens are being transferred."
          }
        }
      ],
      "ERC20InvalidSpender(address)": [
        {
          "details": "Indicates a failure with the `spender` to be approved. Used in approvals.",
          "params": {
            "spender": "Address that may be allowed to operate on tokens without being their owner."
          }
        }
      ],
      "ERC2612ExpiredSignature(uint256)": [
        {
          "details": "Permit deadline has expired."
        }
      ],
      "ERC2612InvalidSigner(address,address)": [
        {
          "details": "Mismatched signature."
        }
      ],
      "EnforcedPause()": [
        {
          "details": "The operation failed because the contract is paused."
        }
      ],
      "ExpectedPause()": [
        {
          "details": "The operation failed because the contract is not paused."
        }
      ],
      "InvalidAccountNonce(address,uint256)": [
        {
          "details": "The nonce used for an `account` is not the expected current nonce."
        }
      ],
      "ReentrancyGuardReentrantCall()": [
        {
          "details": "Unauthorized reentrant call."
        }
      ]
    },
    "events": {
      "Approval(address,address,uint256)": {
        "details": "Emitted when the allowance of a `spender` for an `owner` is set by a call to {approve}. `value` is the new allowance."
      },
      "EIP712DomainChanged()": {
        "details": "MAY be emitted to signal that the domain could have changed."
      },
      "Paused(address)": {
        "details": "Emitted when the pause is triggered by `account`."
      },
      "Transfer(address,address,uint256)": {
        "details": "Emitted when `value` tokens are moved from one account (`from`) to another (`to`). Note that `value` may be zero."
      },
      "Unpaused(address)": {
        "details": "Emitted when the pause is lifted by `account`."
      }
    },
    "kind": "dev",
    "methods": {
      "DOMAIN_SEPARATOR()": {
        "details": "Returns the domain separator used in the encoding of the signature for {permit}, as defined by {EIP712}."
      },
      "allowance(address,address)": {
        "details": "Returns the remaining number of tokens that `spender` will be allowed to spend on behalf of `owner` through {transferFrom}. This is zero by default. This value changes when {approve} or {transferFrom} are called."
      },
      "approve(address,uint256)": {
        "details": "See {IERC20-approve}. NOTE: If `value` is the maximum `uint256`, the allowance is not updated on `transferFrom`. This is semantically equivalent to an infinite approval. Requirements: - `spender` cannot be the zero address."
      },
      "balanceOf(address)": {
        "details": "Returns the value of tokens owned by `account`."
      },
      "buy(uint256,uint256)": {
        "details": "Alternative to buyWithPermit for wallets that don't support permit or for pre-approved USDC.",
        "params": {
          "minTokensOut": "The minimum number of tokens the user is willing to accept.",
          "usdcAmount": "The amount of USDC to spend."
        }
      },
      "buyOnBehalf(address,uint256,uint256,uint256,uint8,bytes32,bytes32)": {
        "params": {
          "deadline": "The permit signature deadline.",
          "r": "Half of the ECDSA signature pair.",
          "receiver": "The address of the user receiving the tokens.",
          "s": "Half of the ECDSA signature pair.",
          "usdcAmount": "The amount of USDC to spend. param minTokensOut The minimum number of tokens the user is willing to accept.",
          "v": "The recovery byte of the signature."
        }
      },
      "buyWithPermit(uint256,uint256,uint256,uint8,bytes32,bytes32)": {
        "details": "This is the standard buy function where users pay their own gas. Uses EIP-2612 permit to avoid separate approval transaction.",
        "params": {
          "deadline": "The permit signature deadline.",
          "minTokensOut": "The minimum number of tokens the user is willing to accept.",
          "r": "Half of the ECDSA signature pair.",
          "s": "Half of the ECDSA signature pair.",
          "usdcAmount": "The amount of USDC to spend.",
          "v": "The recovery byte of the signature."
        }
      },
      "calculateTokensOut(uint256)": {
        "details": "The calculation is based on the bonding curve formula and includes the buy fee.",
        "params": {
          "usdcIn": "The amount of USDC to be spent."
        },
        "returns": {
          "_0": "The amount of tokens that will be received."
        }
      },
      "calculateUsdcIn(uint256)": {
        "details": "The calculation is based on the bonding curve formula and includes the buy fee.",
        "params": {
          "tokensOut": "The desired amount of tokens."
        },
        "returns": {
          "_0": "The amount of USDC required to purchase the specified tokens."
        }
      },
      "calculateUsdcOut(uint256)": {
        "details": "The calculation is based on the bonding curve formula and includes the sell fee.",
        "params": {
          "tokensIn": "The amount of tokens to be sold."
        },
        "returns": {
          "_0": "The amount of USDC that will be received."
        }
      },
      "calculateUsdcOutWithFee(uint256)": {
        "details": "The calculation is based on the bonding curve formula and includes the sell fee.",
        "params": {
          "tokensIn": "The amount of tokens to be sold."
        },
        "returns": {
          "_0": "The amount of USDC that will be received.",
          "_1": "The amount of fee that will be taken."
        }
      },
      "constructor": {
        "details": "Initializes the token with its name, symbol, creator, USDC address, and Somnia Exchange router. It also whitelists the creator and the launcher contract to bypass certain restrictions.",
        "params": {
          "_config": "The address of the token configuration contract.",
          "_controller": "The address of the controller contract.",
          "_creator": "The address of the token creator.",
          "_protection": "The address of the token protection contract.",
          "_usdc": "The address of the USDC token contract.",
          "bondingCurveConfig": "The bonding curve parameters.",
          "name": "The name of the token.",
          "symbol": "The symbol of the token."
        }
      },
      "decimals()": {
        "details": "Returns the number of decimals used to get its user representation. For example, if `decimals` equals `2`, a balance of `505` tokens should be displayed to a user as `5.05` (`505 / 10 ** 2`). Tokens usually opt for a value of 18, imitating the relationship between Ether and Wei. This is the default value returned by this function, unless it's overridden. NOTE: This information is only used for _display_ purposes: it in no way affects any of the arithmetic of the contract, including {IERC20-balanceOf} and {IERC20-transfer}."
      },
      "eip712Domain()": {
        "details": "returns the fields and values that describe the domain separator used by this contract for EIP-712 signature."
      },
      "getCurrentPrice()": {
        "details": "Calculates the price based on the bonding curve's virtual and real reserves.",
        "returns": {
          "_0": "The current price of one token in USDC (with 6 decimals for USDC)."
        }
      },
      "getLiquiditySupply()": {
        "details": "This determines how much of the total supply is allocated to liquidity vs creator reserve.",
        "returns": {
          "_0": "The liquidity supply amount."
        }
      },
      "getTradeLimits()": {
        "returns": {
          "_maxSellPercentage": "_maxSellPercentage",
          "_maxTradeSize": "_maxTradeSize",
          "_whaleDelay": "_whaleDelay",
          "_whaleThreshold": "_whaleThreshold",
          "currentMaxSellTokens": "currentMaxSellTokens"
        }
      },
      "name()": {
        "details": "Returns the name of the token."
      },
      "nonces(address)": {
        "details": "Returns the current nonce for `owner`. This value must be included whenever a signature is generated for {permit}. Every successful call to {permit} increases ``owner``'s nonce by one. This prevents a signature from being used multiple times."
      },
      "paused()": {
        "details": "Returns true if the contract is paused, and false otherwise."
      },
      "permit(address,address,uint256,uint256,uint8,bytes32,bytes32)": {
        "details": "Sets `value` as the allowance of `spender` over ``owner``'s tokens, given ``owner``'s signed approval. IMPORTANT: The same issues {IERC20-approve} has related to transaction ordering also apply here. Emits an {Approval} event. Requirements: - `spender` cannot be the zero address. - `deadline` must be a timestamp in the future. - `v`, `r` and `s` must be a valid `secp256k1` signature from `owner` over the EIP712-formatted function arguments. - the signature must use ``owner``'s current nonce (see {nonces}). For more information on the signature format, see the https://eips.ethereum.org/EIPS/eip-2612#specification[relevant EIP section]. CAUTION: See Security Considerations above."
      },
      "sell(uint256,uint256)": {
        "details": "This function is the main entry point for selling tokens.",
        "params": {
          "minUsdcOut": "The minimum amount of USDC the user is willing to accept.",
          "tokensIn": "The amount of tokens to sell."
        }
      },
      "symbol()": {
        "details": "Returns the symbol of the token, usually a shorter version of the name."
      },
      "totalSupply()": {
        "details": "Returns the value of tokens in existence."
      },
      "transfer(address,uint256)": {
        "details": "See {IERC20-transfer}. Requirements: - `to` cannot be the zero address. - the caller must have a balance of at least `value`."
      },
      "transferFrom(address,address,uint256)": {
        "details": "See {IERC20-transferFrom}. Skips emitting an {Approval} event indicating an allowance update. This is not required by the ERC. See {xref-ERC20-_approve-address-address-uint256-bool-}[_approve]. NOTE: Does not update the allowance if the current allowance is the maximum `uint256`. Requirements: - `from` and `to` cannot be the zero address. - `from` must have a balance of at least `value`. - the caller must have allowance for ``from``'s tokens of at least `value`."
      }
    },
    "version": 1
  },
  "userdoc": {
    "kind": "user",
    "methods": {
      "buy(uint256,uint256)": {
        "notice": "Allows a user to buy tokens with USDC (standard approval required)."
      },
      "buyOnBehalf(address,uint256,uint256,uint256,uint8,bytes32,bytes32)": {
        "notice": "@dev"
      },
      "buyWithPermit(uint256,uint256,uint256,uint8,bytes32,bytes32)": {
        "notice": "Allows a user to buy tokens with USDC using permit (gasless signature)."
      },
      "calculateTokensOut(uint256)": {
        "notice": "Calculate the amount of tokens received for a given USDC input."
      },
      "calculateUsdcIn(uint256)": {
        "notice": "Calculate the amount of USDC needed to buy a specific amount of tokens."
      },
      "calculateUsdcOut(uint256)": {
        "notice": "Calculate the amount of USDC received when selling a specific amount of tokens."
      },
      "calculateUsdcOutWithFee(uint256)": {
        "notice": "Calculate the amount of USDC received when selling a specific amount of tokens."
      },
      "constructor": {
        "notice": "Constructor for the CarbonCoinUSDC contract."
      },
      "getBondingCurveMaxSupply()": {
        "notice": "Get bonding curve supply (excludes creator reserve)"
      },
      "getCurrentPrice()": {
        "notice": "Get the current token price in USDC."
      },
      "getLiquiditySupply()": {
        "notice": "Get the liquidity supply for the bonding curve."
      },
      "getTotalMaxSupply()": {
        "notice": "Get total supply including creator reserve"
      },
      "sell(uint256,uint256)": {
        "notice": "Allows a user to sell tokens for USDC."
      }
    },
    "version": 1
  },
  "storageLayout": {
    "storage": [
      {
        "astId": 332,
        "contract": "contracts/CarbonCoin.sol:CarbonCoin",
        "label": "_balances",
        "offset": 0,
        "slot": "0",
        "type": "t_mapping(t_address,t_uint256)"
      },
      {
        "astId": 338,
        "contract": "contracts/CarbonCoin.sol:CarbonCoin",
        "label": "_allowances",
        "offset": 0,
        "slot": "1",
        "type": "t_mapping(t_address,t_mapping(t_address,t_uint256))"
      },
      {
        "astId": 340,
        "contract": "contracts/CarbonCoin.sol:CarbonCoin",
        "label": "_totalSupply",
        "offset": 0,
        "slot": "2",
        "type": "t_uint256"
      },
      {
        "astId": 342,
        "contract": "contracts/CarbonCoin.sol:CarbonCoin",
        "label": "_name",
        "offset": 0,
        "slot": "3",
        "type": "t_string_storage"
      },
      {
        "astId": 344,
        "contract": "contracts/CarbonCoin.sol:CarbonCoin",
        "label": "_symbol",
        "offset": 0,
        "slot": "4",
        "type": "t_string_storage"
      },
      {
        "astId": 3573,
        "contract": "contracts/CarbonCoin.sol:CarbonCoin",
        "label": "_nameFallback",
        "offset": 0,
        "slot": "5",
        "type": "t_string_storage"
      },
      {
        "astId": 3575,
        "contract": "contracts/CarbonCoin.sol:CarbonCoin",
        "label": "_versionFallback",
        "offset": 0,
        "slot": "6",
        "type": "t_string_storage"
      },
      {
        "astId": 1162,
        "contract": "contracts/CarbonCoin.sol:CarbonCoin",
        "label": "_nonces",
        "offset": 0,
        "slot": "7",
        "type": "t_mapping(t_address,t_uint256)"
      },
      {
        "astId": 1387,
        "contract": "contracts/CarbonCoin.sol:CarbonCoin",
        "label": "_status",
        "offset": 0,
        "slot": "8",
        "type": "t_uint256"
      },
      {
        "astId": 1277,
        "contract": "contracts/CarbonCoin.sol:CarbonCoin",
        "label": "_paused",
        "offset": 0,
        "slot": "9",
        "type": "t_bool"
      },
      {
        "astId": 7430,
        "contract": "contracts/CarbonCoin.sol:CarbonCoin",
        "label": "realUsdcReserves",
        "offset": 0,
        "slot": "10",
        "type": "t_uint256"
      },
      {
        "astId": 7432,
        "contract": "contracts/CarbonCoin.sol:CarbonCoin",
        "label": "realTokenSupply",
        "offset": 0,
        "slot": "11",
        "type": "t_uint256"
      },
      {
        "astId": 7444,
        "contract": "contracts/CarbonCoin.sol:CarbonCoin",
        "label": "controller",
        "offset": 0,
        "slot": "12",
        "type": "t_address"
      },
      {
        "astId": 7446,
        "contract": "contracts/CarbonCoin.sol:CarbonCoin",
        "label": "hasGraduated",
        "offset": 20,
        "slot": "12",
        "type": "t_bool"
      },
      {
        "astId": 7451,
        "contract": "contracts/CarbonCoin.sol:CarbonCoin",
        "label": "lastGraduationAttempt",
        "offset": 0,
        "slot": "13",
        "type": "t_uint256"
      }
    ],
    "types": {
      "t_address": {
        "encoding": "inplace",
        "label": "address",
        "numberOfBytes": "20"
      },
      "t_bool": {
        "encoding": "inplace",
        "label": "bool",
        "numberOfBytes": "1"
      },
      "t_mapping(t_address,t_mapping(t_address,t_uint256))": {
        "encoding": "mapping",
        "key": "t_address",
        "label": "mapping(address => mapping(address => uint256))",
        "numberOfBytes": "32",
        "value": "t_mapping(t_address,t_uint256)"
      },
      "t_mapping(t_address,t_uint256)": {
        "encoding": "mapping",
        "key": "t_address",
        "label": "mapping(address => uint256)",
        "numberOfBytes": "32",
        "value": "t_uint256"
      },
      "t_string_storage": {
        "encoding": "bytes",
        "label": "string",
        "numberOfBytes": "32"
      },
      "t_uint256": {
        "encoding": "inplace",
        "label": "uint256",
        "numberOfBytes": "32"
      }
    }
  }
}