{
  "address": "0x73fbEBFF977c0083acfcE1D9f2a8645AFA39D91E",
  "abi": [
    {
      "inputs": [],
      "stateMutability": "nonpayable",
      "type": "constructor"
    },
    {
      "inputs": [
        {
          "internalType": "address",
          "name": "owner",
          "type": "address"
        }
      ],
      "name": "OwnableInvalidOwner",
      "type": "error"
    },
    {
      "inputs": [
        {
          "internalType": "address",
          "name": "account",
          "type": "address"
        }
      ],
      "name": "OwnableUnauthorizedAccount",
      "type": "error"
    },
    {
      "anonymous": false,
      "inputs": [
        {
          "indexed": false,
          "internalType": "string",
          "name": "configType",
          "type": "string"
        },
        {
          "indexed": false,
          "internalType": "uint256",
          "name": "timestamp",
          "type": "uint256"
        }
      ],
      "name": "DefaultConfigUpdated",
      "type": "event"
    },
    {
      "anonymous": false,
      "inputs": [
        {
          "indexed": true,
          "internalType": "address",
          "name": "previousOwner",
          "type": "address"
        },
        {
          "indexed": true,
          "internalType": "address",
          "name": "newOwner",
          "type": "address"
        }
      ],
      "name": "OwnershipTransferred",
      "type": "event"
    },
    {
      "inputs": [],
      "name": "defaultAntiBotConfig",
      "outputs": [
        {
          "internalType": "uint256",
          "name": "antiBotDuration",
          "type": "uint256"
        },
        {
          "internalType": "uint256",
          "name": "maxBuyAmountEarly",
          "type": "uint256"
        },
        {
          "internalType": "uint256",
          "name": "maxWalletPercentage",
          "type": "uint256"
        },
        {
          "internalType": "uint256",
          "name": "cooldownPeriod",
          "type": "uint256"
        },
        {
          "internalType": "uint256",
          "name": "minBuyAmount",
          "type": "uint256"
        }
      ],
      "stateMutability": "view",
      "type": "function"
    },
    {
      "inputs": [],
      "name": "defaultCircuitBreakerConfig",
      "outputs": [
        {
          "internalType": "uint256",
          "name": "maxPriceImpact",
          "type": "uint256"
        },
        {
          "internalType": "uint256",
          "name": "volatilityWindow",
          "type": "uint256"
        },
        {
          "internalType": "uint256",
          "name": "maxVolatilityMoves",
          "type": "uint256"
        },
        {
          "internalType": "uint256",
          "name": "circuitBreakerDuration",
          "type": "uint256"
        }
      ],
      "stateMutability": "view",
      "type": "function"
    },
    {
      "inputs": [],
      "name": "defaultFeeConfig",
      "outputs": [
        {
          "internalType": "uint256",
          "name": "buyFee",
          "type": "uint256"
        },
        {
          "internalType": "uint256",
          "name": "sellFee",
          "type": "uint256"
        },
        {
          "internalType": "uint256",
          "name": "maxFee",
          "type": "uint256"
        }
      ],
      "stateMutability": "view",
      "type": "function"
    },
    {
      "inputs": [],
      "name": "defaultWhaleLimitConfig",
      "outputs": [
        {
          "internalType": "uint256",
          "name": "whaleThreshold",
          "type": "uint256"
        },
        {
          "internalType": "uint256",
          "name": "whaleDelay",
          "type": "uint256"
        },
        {
          "internalType": "uint256",
          "name": "maxTradeSize",
          "type": "uint256"
        },
        {
          "internalType": "uint256",
          "name": "maxSellPercentage",
          "type": "uint256"
        }
      ],
      "stateMutability": "view",
      "type": "function"
    },
    {
      "inputs": [],
      "name": "getAntiBotConfig",
      "outputs": [
        {
          "components": [
            {
              "internalType": "uint256",
              "name": "antiBotDuration",
              "type": "uint256"
            },
            {
              "internalType": "uint256",
              "name": "maxBuyAmountEarly",
              "type": "uint256"
            },
            {
              "internalType": "uint256",
              "name": "maxWalletPercentage",
              "type": "uint256"
            },
            {
              "internalType": "uint256",
              "name": "cooldownPeriod",
              "type": "uint256"
            },
            {
              "internalType": "uint256",
              "name": "minBuyAmount",
              "type": "uint256"
            }
          ],
          "internalType": "struct ICarbonCoinConfig.AntiBotConfig",
          "name": "",
          "type": "tuple"
        }
      ],
      "stateMutability": "view",
      "type": "function"
    },
    {
      "inputs": [],
      "name": "getCircuitBreakerConfig",
      "outputs": [
        {
          "components": [
            {
              "internalType": "uint256",
              "name": "maxPriceImpact",
              "type": "uint256"
            },
            {
              "internalType": "uint256",
              "name": "volatilityWindow",
              "type": "uint256"
            },
            {
              "internalType": "uint256",
              "name": "maxVolatilityMoves",
              "type": "uint256"
            },
            {
              "internalType": "uint256",
              "name": "circuitBreakerDuration",
              "type": "uint256"
            }
          ],
          "internalType": "struct ICarbonCoinConfig.CircuitBreakerConfig",
          "name": "",
          "type": "tuple"
        }
      ],
      "stateMutability": "view",
      "type": "function"
    },
    {
      "inputs": [],
      "name": "getFeeConfig",
      "outputs": [
        {
          "components": [
            {
              "internalType": "uint256",
              "name": "buyFee",
              "type": "uint256"
            },
            {
              "internalType": "uint256",
              "name": "sellFee",
              "type": "uint256"
            },
            {
              "internalType": "uint256",
              "name": "maxFee",
              "type": "uint256"
            }
          ],
          "internalType": "struct ICarbonCoinConfig.FeeConfig",
          "name": "",
          "type": "tuple"
        }
      ],
      "stateMutability": "view",
      "type": "function"
    },
    {
      "inputs": [],
      "name": "getWhaleLimitConfig",
      "outputs": [
        {
          "components": [
            {
              "internalType": "uint256",
              "name": "whaleThreshold",
              "type": "uint256"
            },
            {
              "internalType": "uint256",
              "name": "whaleDelay",
              "type": "uint256"
            },
            {
              "internalType": "uint256",
              "name": "maxTradeSize",
              "type": "uint256"
            },
            {
              "internalType": "uint256",
              "name": "maxSellPercentage",
              "type": "uint256"
            }
          ],
          "internalType": "struct ICarbonCoinConfig.WhaleLimitConfig",
          "name": "",
          "type": "tuple"
        }
      ],
      "stateMutability": "view",
      "type": "function"
    },
    {
      "inputs": [],
      "name": "owner",
      "outputs": [
        {
          "internalType": "address",
          "name": "",
          "type": "address"
        }
      ],
      "stateMutability": "view",
      "type": "function"
    },
    {
      "inputs": [],
      "name": "renounceOwnership",
      "outputs": [],
      "stateMutability": "nonpayable",
      "type": "function"
    },
    {
      "inputs": [
        {
          "internalType": "address",
          "name": "newOwner",
          "type": "address"
        }
      ],
      "name": "transferOwnership",
      "outputs": [],
      "stateMutability": "nonpayable",
      "type": "function"
    },
    {
      "inputs": [
        {
          "components": [
            {
              "internalType": "uint256",
              "name": "antiBotDuration",
              "type": "uint256"
            },
            {
              "internalType": "uint256",
              "name": "maxBuyAmountEarly",
              "type": "uint256"
            },
            {
              "internalType": "uint256",
              "name": "maxWalletPercentage",
              "type": "uint256"
            },
            {
              "internalType": "uint256",
              "name": "cooldownPeriod",
              "type": "uint256"
            },
            {
              "internalType": "uint256",
              "name": "minBuyAmount",
              "type": "uint256"
            }
          ],
          "internalType": "struct ICarbonCoinConfig.AntiBotConfig",
          "name": "newConfig",
          "type": "tuple"
        }
      ],
      "name": "updateDefaultAntiBotConfig",
      "outputs": [],
      "stateMutability": "nonpayable",
      "type": "function"
    },
    {
      "inputs": [
        {
          "components": [
            {
              "internalType": "uint256",
              "name": "maxPriceImpact",
              "type": "uint256"
            },
            {
              "internalType": "uint256",
              "name": "volatilityWindow",
              "type": "uint256"
            },
            {
              "internalType": "uint256",
              "name": "maxVolatilityMoves",
              "type": "uint256"
            },
            {
              "internalType": "uint256",
              "name": "circuitBreakerDuration",
              "type": "uint256"
            }
          ],
          "internalType": "struct ICarbonCoinConfig.CircuitBreakerConfig",
          "name": "newConfig",
          "type": "tuple"
        }
      ],
      "name": "updateDefaultCircuitBreakerConfig",
      "outputs": [],
      "stateMutability": "nonpayable",
      "type": "function"
    },
    {
      "inputs": [
        {
          "components": [
            {
              "internalType": "uint256",
              "name": "buyFee",
              "type": "uint256"
            },
            {
              "internalType": "uint256",
              "name": "sellFee",
              "type": "uint256"
            },
            {
              "internalType": "uint256",
              "name": "maxFee",
              "type": "uint256"
            }
          ],
          "internalType": "struct ICarbonCoinConfig.FeeConfig",
          "name": "newConfig",
          "type": "tuple"
        }
      ],
      "name": "updateDefaultFeeConfig",
      "outputs": [],
      "stateMutability": "nonpayable",
      "type": "function"
    },
    {
      "inputs": [
        {
          "components": [
            {
              "internalType": "uint256",
              "name": "whaleThreshold",
              "type": "uint256"
            },
            {
              "internalType": "uint256",
              "name": "whaleDelay",
              "type": "uint256"
            },
            {
              "internalType": "uint256",
              "name": "maxTradeSize",
              "type": "uint256"
            },
            {
              "internalType": "uint256",
              "name": "maxSellPercentage",
              "type": "uint256"
            }
          ],
          "internalType": "struct ICarbonCoinConfig.WhaleLimitConfig",
          "name": "newConfig",
          "type": "tuple"
        }
      ],
      "name": "updateDefaultWhaleLimitConfig",
      "outputs": [],
      "stateMutability": "nonpayable",
      "type": "function"
    }
  ],
  "transactionHash": "0x1a2123b3706dde7bd89f4a736b140742b73dae2a1ecb6917fa911f4687d17e3e",
  "args": [],
  "numDeployments": 1,
  "solcInputHash": "7ac59546ce5deb2bfa4f5b14995e748c",
  "bytecode": "0x6080604052346101be5733156101a85760008054336001600160a01b0319821681178355916001600160a01b03909116907f8be0079c531659141344cd1fd0a4f28419497f9722a3daafe3b4186f6b6457e09080a3604051606081016001600160401b038111828210176101925761012c916040918252601e8152601e60208201520152601e600155601e60025561012c60035560405160a0810181811060018060401b038211176101925766038d7ea4c6800091608091604052603c8152670de0b6b3a7640000602082015261012c6040820152600a60608201520152603c600455670de0b6b3a764000060055561012c600655600a60075566038d7ea4c6800060085561010c6101c3565b6103e881526020810161012c8152604082019060058252606083019261025884525160095551600a5551600b5551600c556101456101c3565b678ac7230489e800008152602081016078815260408201906801a055690d9db800008252606083019261012c845251600d5551600e5551600f5551601055604051610bab90816101e38239f35b634e487b7160e01b600052604160045260246000fd5b631e4fbdf760e01b600052600060045260246000fd5b600080fd5b60405190608082016001600160401b038111838210176101925760405256fe6080604052600436101561001257600080fd5b60003560e01c8063013d33c1146108ab578063338bc47d146107245780633e127238146106e4578063562528f7146106565780635fbbc0d2146105f5578063715018a61461059c57806374f46175146105625780638da5cb5b14610539578063904c206b146103da578063982dc3061461036e5780639e2877b21461033f578063a7b005f9146101fb578063ba522594146101c1578063f2fde38b146101345763fca53bea146100c157600080fd5b3461012f57600036600319011261012f576100da610b08565b5060806100e5610a75565b600d548152600e546020820152600f546040820152601054606082015261012d6040518092606080918051845260208101516020850152604081015160408501520151910152565bf35b600080fd5b3461012f57602036600319011261012f576004356001600160a01b0381169081900361012f57610162610b2c565b80156101ab57600080546001600160a01b03198116831782556001600160a01b0316907f8be0079c531659141344cd1fd0a4f28419497f9722a3daafe3b4186f6b6457e09080a3005b631e4fbdf760e01b600052600060045260246000fd5b3461012f57600036600319011261012f57600d54600e54600f54601054604080519485526020850193909352918301526060820152608090f35b3461012f57606036600319011261012f57610214610a55565b600435815260208101602435815260408201916044358352610234610b2c565b6107d08351116103075780518351106102cc57815183511061029057516001555160025551600355600080516020610b56833981519152608060405160408152600360408201526246656560e81b6060820152426020820152a1005b60405162461bcd60e51b81526020600482015260146024820152730a6cad8d840cccaca40caf0c6cacac8e640dac2f60631b6044820152606490fd5b60405162461bcd60e51b8152602060048201526013602482015272084eaf240cccaca40caf0c6cacac8e640dac2f606b1b6044820152606490fd5b60405162461bcd60e51b815260206004820152601060248201526f09ac2f040cccaca40e8dede40d0d2ced60831b6044820152606490fd5b3461012f57600036600319011261012f5760606001546002546003549060405192835260208301526040820152f35b3461012f57600036600319011261012f57610387610b08565b506080610392610a75565b6009548152600a546020820152600b546040820152600c54606082015261012d6040518092606080918051845260208101516020850152604081015160408501520151910152565b3461012f57608036600319011261012f576103f436610a95565b6103fc610b2c565b8051801515908161052c575b50156104f057602081018051156104ba57604082019081511561048557606083019261043684511515610ac9565b5160095551600a5551600b5551600c55600080516020610b56833981519152608060405160408152600e60408201526d21b4b931bab4ba213932b0b5b2b960911b6060820152426020820152a1005b60405162461bcd60e51b815260206004820152600d60248201526c496e76616c6964206d6f76657360981b6044820152606490fd5b60405162461bcd60e51b815260206004820152600e60248201526d496e76616c69642077696e646f7760901b6044820152606490fd5b60405162461bcd60e51b8152602060048201526014602482015273125b9d985b1a59081c1c9a58d9481a5b5c1858dd60621b6044820152606490fd5b6113889150111582610408565b3461012f57600036600319011261012f576000546040516001600160a01b039091168152602090f35b3461012f57600036600319011261012f57600954600a54600b54600c54604080519485526020850193909352918301526060820152608090f35b3461012f57600036600319011261012f576105b5610b2c565b600080546001600160a01b0319811682556001600160a01b03167f8be0079c531659141344cd1fd0a4f28419497f9722a3daafe3b4186f6b6457e08280a3005b3461012f57600036600319011261012f5760006040610612610a55565b82815282602082015201526060610627610a55565b600154908181526002546020820190815260406003549201918252604051928352516020830152516040820152f35b3461012f57600036600319011261012f5760006080610673610a1f565b828152826020820152826040820152826060820152015260a0610694610a1f565b600454908181526005546020820190815260065460408301908152600754916060840192835260806008549401938452604051948552516020850152516040840152516060830152516080820152f35b3461012f57600036600319011261012f5760a060045460055460065460075490600854926040519485526020850152604084015260608301526080820152f35b3461012f57608036600319011261012f5761073e36610a95565b610746610b2c565b805115610872576020810180511561083d5760408201908151156108035760608301926127108451116107be5751600d5551600e5551600f5551601055600080516020610b56833981519152608060405160408152600a60408201526915da185b19531a5b5a5d60b21b6060820152426020820152a1005b60405162461bcd60e51b815260206004820152601760248201527f496e76616c69642073656c6c2070657263656e746167650000000000000000006044820152606490fd5b60405162461bcd60e51b8152602060048201526012602482015271496e76616c69642074726164652073697a6560701b6044820152606490fd5b60405162461bcd60e51b815260206004820152600d60248201526c496e76616c69642064656c617960981b6044820152606490fd5b60405162461bcd60e51b8152602060048201526011602482015270125b9d985b1a59081d1a1c995cda1bdb19607a1b6044820152606490fd5b3461012f5760a036600319011261012f576108c4610a1f565b600435815260208101602435815260408201604435815260608301916064358352608084019360843585526108f7610b2c565b61090381511515610ac9565b6127108351116109da5761012c8451116109a15784511561096a575160045551600555516006555160075551600855600080516020610b568339815191526080604051604081526007604082015266105b9d1a509bdd60ca1b6060820152426020820152a1005b60405162461bcd60e51b815260206004820152600f60248201526e496e76616c6964206d696e2062757960881b6044820152606490fd5b60405162461bcd60e51b8152602060048201526011602482015270436f6f6c646f776e20746f6f206c6f6e6760781b6044820152606490fd5b60405162461bcd60e51b815260206004820152601960248201527f496e76616c69642077616c6c65742070657263656e74616765000000000000006044820152606490fd5b6040519060a0820182811067ffffffffffffffff821117610a3f57604052565b634e487b7160e01b600052604160045260246000fd5b604051906060820182811067ffffffffffffffff821117610a3f57604052565b604051906080820182811067ffffffffffffffff821117610a3f57604052565b608090600319011261012f57610aa9610a75565b906004358252602435602083015260443560408301526064356060830152565b15610ad057565b60405162461bcd60e51b815260206004820152601060248201526f24b73b30b634b210323ab930ba34b7b760811b6044820152606490fd5b610b10610a75565b9060008252600060208301526000604083015260006060830152565b6000546001600160a01b03163303610b4057565b63118cdaa760e01b6000523360045260246000fdfe6349e7d5485ec4d3eed63522db9d37a0b4d65b793aed12e82a8d96e05c210306a2646970667358221220f631321a751bb99cfc670efd1505fe60cbb239853d230feeccff6b52ee1effdf64736f6c634300081b0033",
  "devdoc": {
    "errors": {
      "OwnableInvalidOwner(address)": [
        {
          "details": "The owner is not a valid owner account. (eg. `address(0)`)"
        }
      ],
      "OwnableUnauthorizedAccount(address)": [
        {
          "details": "The caller account is not authorized to perform an operation."
        }
      ]
    },
    "kind": "dev",
    "methods": {
      "owner()": {
        "details": "Returns the address of the current owner."
      },
      "renounceOwnership()": {
        "details": "Leaves the contract without owner. It will not be possible to call `onlyOwner` functions. Can only be called by the current owner. NOTE: Renouncing ownership will leave the contract without an owner, thereby disabling any functionality that is only available to the owner."
      },
      "transferOwnership(address)": {
        "details": "Transfers ownership of the contract to a new account (`newOwner`). Can only be called by the current owner."
      }
    },
    "version": 1
  },
  "userdoc": {
    "kind": "user",
    "methods": {},
    "version": 1
  },
  "storageLayout": {
    "storage": [
      {
        "astId": 8,
        "contract": "contracts/CarbonCoinConfig.sol:CarbonCoinConfig",
        "label": "_owner",
        "offset": 0,
        "slot": "0",
        "type": "t_address"
      },
      {
        "astId": 9840,
        "contract": "contracts/CarbonCoinConfig.sol:CarbonCoinConfig",
        "label": "defaultFeeConfig",
        "offset": 0,
        "slot": "1",
        "type": "t_struct(FeeConfig)11732_storage"
      },
      {
        "astId": 9843,
        "contract": "contracts/CarbonCoinConfig.sol:CarbonCoinConfig",
        "label": "defaultAntiBotConfig",
        "offset": 0,
        "slot": "4",
        "type": "t_struct(AntiBotConfig)11743_storage"
      },
      {
        "astId": 9846,
        "contract": "contracts/CarbonCoinConfig.sol:CarbonCoinConfig",
        "label": "defaultCircuitBreakerConfig",
        "offset": 0,
        "slot": "9",
        "type": "t_struct(CircuitBreakerConfig)11752_storage"
      },
      {
        "astId": 9849,
        "contract": "contracts/CarbonCoinConfig.sol:CarbonCoinConfig",
        "label": "defaultWhaleLimitConfig",
        "offset": 0,
        "slot": "13",
        "type": "t_struct(WhaleLimitConfig)11761_storage"
      }
    ],
    "types": {
      "t_address": {
        "encoding": "inplace",
        "label": "address",
        "numberOfBytes": "20"
      },
      "t_struct(AntiBotConfig)11743_storage": {
        "encoding": "inplace",
        "label": "struct ICarbonCoinConfig.AntiBotConfig",
        "members": [
          {
            "astId": 11734,
            "contract": "contracts/CarbonCoinConfig.sol:CarbonCoinConfig",
            "label": "antiBotDuration",
            "offset": 0,
            "slot": "0",
            "type": "t_uint256"
          },
          {
            "astId": 11736,
            "contract": "contracts/CarbonCoinConfig.sol:CarbonCoinConfig",
            "label": "maxBuyAmountEarly",
            "offset": 0,
            "slot": "1",
            "type": "t_uint256"
          },
          {
            "astId": 11738,
            "contract": "contracts/CarbonCoinConfig.sol:CarbonCoinConfig",
            "label": "maxWalletPercentage",
            "offset": 0,
            "slot": "2",
            "type": "t_uint256"
          },
          {
            "astId": 11740,
            "contract": "contracts/CarbonCoinConfig.sol:CarbonCoinConfig",
            "label": "cooldownPeriod",
            "offset": 0,
            "slot": "3",
            "type": "t_uint256"
          },
          {
            "astId": 11742,
            "contract": "contracts/CarbonCoinConfig.sol:CarbonCoinConfig",
            "label": "minBuyAmount",
            "offset": 0,
            "slot": "4",
            "type": "t_uint256"
          }
        ],
        "numberOfBytes": "160"
      },
      "t_struct(CircuitBreakerConfig)11752_storage": {
        "encoding": "inplace",
        "label": "struct ICarbonCoinConfig.CircuitBreakerConfig",
        "members": [
          {
            "astId": 11745,
            "contract": "contracts/CarbonCoinConfig.sol:CarbonCoinConfig",
            "label": "maxPriceImpact",
            "offset": 0,
            "slot": "0",
            "type": "t_uint256"
          },
          {
            "astId": 11747,
            "contract": "contracts/CarbonCoinConfig.sol:CarbonCoinConfig",
            "label": "volatilityWindow",
            "offset": 0,
            "slot": "1",
            "type": "t_uint256"
          },
          {
            "astId": 11749,
            "contract": "contracts/CarbonCoinConfig.sol:CarbonCoinConfig",
            "label": "maxVolatilityMoves",
            "offset": 0,
            "slot": "2",
            "type": "t_uint256"
          },
          {
            "astId": 11751,
            "contract": "contracts/CarbonCoinConfig.sol:CarbonCoinConfig",
            "label": "circuitBreakerDuration",
            "offset": 0,
            "slot": "3",
            "type": "t_uint256"
          }
        ],
        "numberOfBytes": "128"
      },
      "t_struct(FeeConfig)11732_storage": {
        "encoding": "inplace",
        "label": "struct ICarbonCoinConfig.FeeConfig",
        "members": [
          {
            "astId": 11727,
            "contract": "contracts/CarbonCoinConfig.sol:CarbonCoinConfig",
            "label": "buyFee",
            "offset": 0,
            "slot": "0",
            "type": "t_uint256"
          },
          {
            "astId": 11729,
            "contract": "contracts/CarbonCoinConfig.sol:CarbonCoinConfig",
            "label": "sellFee",
            "offset": 0,
            "slot": "1",
            "type": "t_uint256"
          },
          {
            "astId": 11731,
            "contract": "contracts/CarbonCoinConfig.sol:CarbonCoinConfig",
            "label": "maxFee",
            "offset": 0,
            "slot": "2",
            "type": "t_uint256"
          }
        ],
        "numberOfBytes": "96"
      },
      "t_struct(WhaleLimitConfig)11761_storage": {
        "encoding": "inplace",
        "label": "struct ICarbonCoinConfig.WhaleLimitConfig",
        "members": [
          {
            "astId": 11754,
            "contract": "contracts/CarbonCoinConfig.sol:CarbonCoinConfig",
            "label": "whaleThreshold",
            "offset": 0,
            "slot": "0",
            "type": "t_uint256"
          },
          {
            "astId": 11756,
            "contract": "contracts/CarbonCoinConfig.sol:CarbonCoinConfig",
            "label": "whaleDelay",
            "offset": 0,
            "slot": "1",
            "type": "t_uint256"
          },
          {
            "astId": 11758,
            "contract": "contracts/CarbonCoinConfig.sol:CarbonCoinConfig",
            "label": "maxTradeSize",
            "offset": 0,
            "slot": "2",
            "type": "t_uint256"
          },
          {
            "astId": 11760,
            "contract": "contracts/CarbonCoinConfig.sol:CarbonCoinConfig",
            "label": "maxSellPercentage",
            "offset": 0,
            "slot": "3",
            "type": "t_uint256"
          }
        ],
        "numberOfBytes": "128"
      },
      "t_uint256": {
        "encoding": "inplace",
        "label": "uint256",
        "numberOfBytes": "32"
      }
    }
  }
}